:020000040800F2
:10000000483800244D0300082B5800086D540008A0
:1000100029580008410E0008C581000800000000B2
:10002000000000000000000000000000FF5C00086D
:10003000B110000800000000BF590008555D00081D
:1000400067030008670300086703000867030008E8
:1000500067030008670300086703000867030008D8
:1000600067030008670300086703000867030008C8
:100070008D0E000867030008670300086703000887
:1000800067030008670300080D0E000867030008F7
:100090006703000867030008670300086703000898
:1000A0006703000867030008670300086703000888
:1000B0006703000867030008670300086703000878
:1000C0006703000867030008670300086703000868
:1000D0006703000867030008670300086703000858
:1000E0006703000867030008670300086703000848
:1000F0006703000867030008670300086703000838
:100100006703000867030008670300086703000827
:100110006703000867030008670300086703000817
:100120006703000867030008670300086703000807
:1001300067030008000000000000000067030008DB
:1001400067030008670300086703000867030008E7
:1001500067030008670300086703000867030008D7
:100160006703000867030008395800082D58000885
:1001700067030008455800086703000800000000F6
:1001800067030008670300086703000867030008A7
:100190006703000867030008670300086703000897
:1001A0006703000867030008670300086703000887
:1001B0006703000867030008670300086703000877
:1001C000670300086703000800000000000000004B
:1001D00000000000000000006703000800000000AD
:1001E000000000000000000000000000000000000F
:1001F000000000000000000067030008670300081B
:100200006703000867030008000000006703000898
:1002100067030008C95E0008670300086703000859
:100220006703000867030008670300080000000078
:100230006703000867030008000000006703000868
:1002400067030008670300086703000867030008E6
:1002500067030008670300086703000867030008D6
:1002600067030008670300086703000867030008C6
:100270006703000867030008670300080000000028
:100280006703000867030008000000006703000818
:10029000000000006703000867030008000000007A
:1002A00000000000670300086703000800F002F880
:1002B00000F03CF80AA090E8000C82448344AAF1C4
:1002C0000107DA4501D100F031F8AFF2090EBAE8C2
:1002D0000F0013F0010F18BFFB1A43F0010318477A
:1002E000108D0000308D0000103A24BF78C878C10E
:1002F000FAD8520724BF30C830C144BF04680C602C
:10030000704700000023002400250026103A28BF73
:1003100078C1FBD8520728BF30C148BF0B60704777
:100320001FB508F07DFD1FBD10B510BD00F014F91C
:100330001146FFF7F5FF08F067FC00F032F903B44F
:10034000FFF7F2FF03BC00F035F9000009488047D1
:1003500009480047FEE7FEE7FEE7FEE7FEE7FEE7A7
:10036000FEE7FEE7FEE7FEE704480549054A064BBF
:1003700070470000095E0008AD0200084824002410
:1003800048380024483400244834002453EA020C3E
:1003900000F069802DE9F04B4FF00006002B1FBFE5
:1003A000B3FA83F503FA05F424FA05F65E4012BFAA
:1003B0001643B2FA82F502FA05F4C5F120051EBF14
:1003C00022FA05FC44EA0C04203556EA044C4FEAB4
:1003D000144418BF641C4FF000084FF0000990420D
:1003E00071EB030C39D3002919BFB1FA81F701FA77
:1003F00007F6B0FA80F700FA07F6C7F120071EBF2C
:1004000020FA07FC46EA0C062037B6FBF4FCA7EB03
:100410000507103F07F01F0BCBF120060CFA0BFB72
:100420002CFA06F644BFB3460026202FA4BF5E4632
:100430004FF0000B5BEA060C08BF4FF0010B19EB05
:100440000B09ABFB027C48EB0608C01B06FB02CC89
:100450000BFB03CC71EB0C01C1E70B460246414696
:100460004846BDE8F08B13B54FF000004FF0000197
:10047000AFF30080BDE81C40704710B5203AC0F0D3
:100480000B80B1E81850203AA0E81850B1E8185095
:10049000A0E81850BFF4F5AF5FEA027C24BFB1E8D2
:1004A0001850A0E8185044BF18C918C0BDE8104043
:1004B0005FEA827C24BF51F8043B40F8043B08BF4C
:1004C0007047D20728BF31F8023B48BF11F8012B13
:1004D00028BF20F8023B48BF00F8012B70474FF0BF
:1004E000000200B5134694469646203922BFA0E884
:1004F0000C50A0E80C50B1F12001BFF4F7AF090790
:1005000028BFA0E80C5048BF0CC05DF804EB890080
:1005100028BF40F8042B08BF704748BF20F8022BC3
:1005200011F0804F18BF00F8012B704770477047DB
:10053000704710B500F008F8006810BD10B504460B
:1005400000F002F8046010BD00487047E423002466
:1005500000487047E42300247546FFF7F9FFAE46D4
:1005600005006946534620F00700854618B020B5BF
:10057000FFF7FAFEBDE820404FF000064FF00007FD
:100580004FF000084FF0000B21F00701AC46ACE83B
:10059000C009ACE8C009ACE8C009ACE8C0098D46A8
:1005A000704710B50446AFF300802046BDE8104008
:1005B000FFF7C5BE01491820ABBEFEE726000200CA
:1005C00070472DE9F14F82B04FF0000A0298B0F861
:1005D000740400900298B0F876B4B0F878544FF0F4
:1005E0008070029A009942F82A1000FA0AF949EA42
:1005F000010040F44001029800F0E2FA02980AEB90
:100600004A0200EB8207C7F800B149EA0B080298DA
:1006100048F49A0107F5807700F0D2FA7D6049EA44
:100620000504029844F40D0100F0CAFA0298CAEBDE
:100630000A1100EB8106C6F810B048F49001029848
:1006400000F0BEFA756144F40801029800F0B8FAAF
:10065000C6F81CB048F49201029800F0B1FA356275
:1006600044F40901029800F0ABFAC6F828B048F447
:100670009401029800F0A4FAF56244F40A01029889
:1006800000F09EFAC6F834B048F49601029800F0E3
:1006900097FAB56344F40B01029800F091FAC6F89A
:1006A00040B048F49801029800F08AFA756444F466
:1006B0000C01029800F084FA4FF2CF363E6349EA0B
:1006C0000608029848F4A80100F07AFA49F270414D
:1006D000796349EA010040F41401029800F070FACD
:1006E0003E6648F4AA01029800F06AFA7D6644F476
:1006F0001501029800F064FAC7F8906048F4B80158
:10070000029800F05DFA47F2F851C7F8941049EAF0
:10071000010040F41C01029800F052FA4FF2C301AC
:10072000C7F8C01049EA010040F4BA01029800F08D
:1007300047FAC7F8C45044F41D01029800F040FA8B
:100740000AF1010ABAF1040FFFF649AF0020BDE833
:10075000FE8F00007FB582B005469DF8300000F0A6
:1007600007008DF830009DF83000C5F840049DF872
:100770003010284605F0CAFABDF82800BDF82C1044
:10078000884201D3012000E00020BDF81010BDF820
:100790001420914201D3012100E00021084303D03D
:1007A0004FF0FF3006B070BDBDF828100398084325
:1007B00040F45501284600F003FABDF82C100398C8
:1007C000084340F45D01284600F0FAF9BDF8101026
:1007D0000398084340F45401284600F0F1F9BDF8AD
:1007E00014100398084340F45C01284600F0E8F92F
:1007F0005FF000064FF08074039804FA06F101429E
:1008000021D005EB8600D0F8580420F07060084332
:1008100040F4007000900246284600F04BF9BDF805
:10082000281006EB460005EB8000C0F86811BDF803
:100830002C10C0F8C811BDF81010C0F83811BDF860
:100840001410C0F89811761C042ED5DB5FF000065A
:10085000039804FA06F101420DD005EB8600D0F8AA
:10086000580420F07060084340F400700090024685
:10087000284600F01FF9761C042EE9DB002091E7E2
:1008800037B504462DED040B2DED108B84B09DF88B
:10089000680000F007008DF868009DF86800C4F853
:1008A00040049DF86810204605F030FA9DED160AC8
:1008B000B1EE02AB04F58065B7EEC02A95ED1C0AD7
:1008C000B7EEC09A82EE0A1BB0EE000B81EE09DB98
:1008D000B3EE001B07F0A0FC9DED171AB7EEC11A8E
:1008E0009FED428B9FED43BB9FED44CB81EE0A2BE6
:1008F000B0EE481B0DEE001B82EE09EB8BFE410BA8
:100900008CFE00DBB3EE001BB0EE000B07F084FCA6
:10091000D5ED1F1ACDED001AF1EE041ACDED011A36
:100920009DED141ADDED001A21EE211ADDED011AFC
:1009300021EE211AB7EEC11A81EE0A2BB0EE481B48
:100940000EEE001B8BFE410B82EE09FBB3EE001B8B
:100950008CFE00EBB0EE000B07F05EFC9DED151A6F
:10096000DDED001A21EE211ADDED011A21EE211A2A
:10097000B7EEC12A82EE0A1B81EE09ABB0EE481B2E
:100980000FEE001B8BFE410B8CFE009BB3EE001B99
:10099000B0EE000B07F040FCBCEECE1B9DF86820CB
:1009A000FCEECD1B0AEE008B11EE100A11EE901A30
:1009B00080B289B28BFE480B8CFE000BCDE9001093
:1009C0000292BCEEC00BFCEEC90B10EE101A8BB2FB
:1009D000199910EE900A82B22046FFF7BBFE04B0D0
:1009E0000020BDEC108B07B030BD000000000000FF
:1009F0000000E04000000000E0FFEF4000000000C9
:100A00000000000070B500234FF0807505FA03F474
:100A10000C4205D003EB430400EB8404C4F8082126
:100A20005B1C042BF2DB114341F44D0100F0C8F8CC
:100A3000002070BD13B5B1EE022B04462DED020B64
:100A400000F580602DED028B9DED020B80EE021B08
:100A500090ED1C0AB7EEC00A81EE008BB3EE001BCE
:100A6000B0EE000B07F0D8FB9FED0C1B9FED0D3B8C
:100A70009FED0E2B08EE001B83FE410B82FE000B48
:100A80000599BCEEC00B10EE100A82B22046FFF7AB
:100A9000B9FFBDEC028B04B0002010BD00000000C7
:100AA0000000E04000000000E0FFEF400000000018
:100AB0000000000037B50199B1B100214FF08073FB
:100AC000019C03FA01F2224204D000EB8104029A55
:100AD000C4F85824491C0429F2DBDDE90112114352
:100AE00000F06EF800203EBD4FF0FF303EBD13B564
:100AF0000199C0F85414019900F062F800201CBD5F
:100B0000F7B582B006469DF8100000F007008DF89A
:100B100010009DF81000C6F840044FF400420399FD
:100B20003046FFF76FFF9DF81010304605F0EEF8E5
:100B30000F4F00244FF08075039805FA04F101422D
:100B400010D006EB8400D0F858049DF8102000F473
:100B50007860084340EAC23038430090024630468D
:100B6000FFF7A8FF641C042CE6DB05B00020F0BDF5
:100B700000102000F3B581B006464FF40042029900
:100B8000FFF740FF0D4F00244FF08075029805FAE3
:100B900004F101420CD006EB8400D0F8580420F098
:100BA000706008433843009002463046FFF782FFEA
:100BB000641C042CEADB0020FEBD0000002038008D
:100BC00073B50C4D002240210446284601F0EAFD91
:100BD00000BFD4F8800401224FF47A7301A904F015
:100BE00091F9044600BF01222846402101F0DAFDB8
:100BF00020467CBD0004025810B5C0F8801404469D
:100C000000F580604AF292414FF2CE3348F2D07242
:100C100080ED1C0AA4F87414A021A4F876342046B0
:100C2000A4F87824FFF763FF002220464FF070619C
:100C3000FFF740FF002010BD10B504462C48D0F847
:100C4000080310F4403F10D003F0CCFC6168B1F50C
:100C5000803F06D0B1F5003F03D0B1F5403F25D12C
:100C600001E0090C16E0800820E04FF4002002F0BB
:100C70003BFE61688A03920B18D18A140C2A15D2A4
:100C8000DFE802F0140606060606060B0D0F111328
:100C9000890C4900B0FBF1F008E0000906E04009CA
:100CA00004E0800902E0C00900E0000A11494008A0
:100CB000884204D82068816821F4407108E00E4918
:100CC000884207D82068816821F4407141F480711E
:100CD000816010BD094988422068816804D821F4E8
:100CE000407141F40071F3E741F44071F0E7000016
:100CF00000200240105E5F0020BCBE0040787D01F5
:100D000070B50446006881688268C1F3400112F042
:100D1000010F28D039BB816801F00D01012914D1E0
:100D20008168124A1140891C816021680320086093
:100D300001F03EFD054612E001F03AFD401B02289D
:100D40000DD920688068C00709D0606D40F01000A0
:100D50006065A06D40F00100A065012070BD2068B5
:100D60008068C007E8D1002070BD0000C0FFFF7F91
:100D700070B504460068816811F0010F3BD18168AD
:100D80001E4A114228D18168D5432940491C8160FF
:100D900001F00EFD06461A4880681A4A00F01F014D
:100DA0002068904201D1184A00E0024682421DD0DC
:100DB000E1B120E0816811F0010F03D18168294081
:100DC000491C816001F0F4FC801B02280ED92068C8
:100DD0000068C043C00709D0606D40F01000606536
:100DE000A06D40F00100A065012070BD2068016881
:100DF000C943C907DED1002070BD00003F0000805C
:100E000000230240002102400020024070B5094C3E
:100E100020680068400709D5204600F0C5FB064A57
:100E20001188064D4B1C138025F8110021681A20EB
:100E3000086070BD0C01002400000024D0070024CD
:100E4000FEE700207047002070470000054900229F
:100E5000054810B505F0D0FD0449034805F0BFFD75
:100E6000002010BDB8140024DC070024B80C0024B6
:100E70000146044810B505F0B2FD024805F088FDB2
:100E8000002010BDDC070024002070470148C06C22
:100E900000F0CCBD0C010024294A016891423AD0EF
:100EA000274A1832914236D0254A3032914232D008
:100EB000234A483291422ED0214A603291422AD0B0
:100EC0001F4A7832914226D01D4A9032914222D058
:100ED0001B4AA83291421ED01A4A91421BD0194A8D
:100EE0001832914217D0174A3032914213D0154A26
:100EF000483291420FD0134A603291420BD0114ACE
:100F00007832914207D00F4A9032914203D00D4A75
:100F1000A832914211D1CAB21823103AB2FBF3F2AF
:100F20006FF30901032A02F00703074AD25CC26586
:100F300000D9091D81650846704721F0FF01F9E7D6
:100F400010000240100402401A8F000830B5224AF7
:100F5000012301689142CAB21BD01F4C1434A14234
:100F600017D01D4C2834A14213D01B4C3C34A14255
:100F70000FD0194C5034A1420BD0174C6434A1420D
:100F800007D0154C7834A14203D0134C8C34A142C5
:100F90000CD11421114C083AB2FBF1F10F4A803206
:100FA00001F01F0504EB8101AB4010E00C4D18244B
:100FB000103A0D44B2FBF4F1A82D00D80831094ACB
:100FC00001F01F0402EB8101064AA3408032603029
:100FD00080E80E0030BD0000085402580058025846
:100FE000F0FBFDBF0008024010B50279531E072B2D
:100FF0002DD8174C0168A1421BD0154C1434A142C6
:1010000017D0134C2834A14213D0114C3C34A142C8
:101010000FD00F4C5034A1420BD00D4C6434A14280
:1010200007D00B4C7834A14203D0094C8C34A14238
:1010300003D10849074C443102E00749064C4431CA
:1010400004EB8202C0E91B2101219940416710BDD8
:1010500008540258FC580258FC08024010B5836935
:101060004FF0C074826A0146002053B1B3F5005FAF
:1010700015D072B1012A0CD0022A0AD0032A09D154
:1010800004E01AB1012A06D0022A03D1C96AC901B3
:1010900000D5012010BDC96AA142FAD010BD002AB6
:1010A000F7D0012AF2D0022AF3D0032AF3D010BDE0
:1010B000704772B6FEE70000F8B5002704461546F3
:1010C0000E46009790F8500001280BD0012084F8BC
:1010D00050002046FFF714FE0100606D04D040F080
:1010E00010002DE00220F8BD20F4885040F00200EE
:1010F0006065206806F4803205F08043134D1A4382
:1011000083682B401A4342F000428260104A2068F4
:101110000EE0009B5B1C0093934209D3606D84F842
:10112000507020F0020040F0100060650120F8BD12
:101130008368DB0FEDD1606D20F0020040F001000C
:101140006065084684F85070F8BD0000C0FFFE3F9F
:1011500000F8C3252DE9F0470E4690F850109AB0DC
:10116000044601294FF0000916D000252D4F01201B
:1011700084F85000159516952068B84210D1DFF814
:10118000A880CDF80080404604F096F98246206899
:1011900004F092F960B10EE002201AB0BDE8F087C9
:1011A000606D84F8505040F0200060650120F4E745
:1011B000BAF1000F0AD0616D4FF0010941F0200033
:1011C000C4F85400484684F85050E6E7174840F603
:1011D0001F713268002A826814D0736822F440427A
:1011E0001A438260BA68D8F8083002F0010203F0AE
:1011F00001031A43E6D13268B668836832438B43F1
:101200001A430DE022F440428260BA68D8F80830F0
:1012100002F0010203F001031A43D3D182688A432A
:101220008260CFE7002002400021024000230240FC
:101230002DE9F84F4FF000090446DFF840A30D46B2
:10124000CDF800904F4690F85000DFF834B30128F5
:1012500007D0012684F85060206804F029F918B1FD
:101260004BE10220BDE8F88F21682868CA690303B2
:1012700028D090FAA0F0B0FA80F000BF00F01F0074
:1012800006FA00F00243CA61D5E900124FF00C0CD7
:1012900020681F23C1F384610CEA921C02F01F0234
:1012A000604493409140026B9A430A430263206872
:1012B00004F0FEF88046206804F0F6F858EA0000D2
:1012C00003D074E0C0F38460D8E7AA682968206876
:1012D00004F0F6F82068C168C268C906696903D4D9
:1012E000C2F38202520002E002F010025208914062
:1012F0002A69042A2CD000EB82002B68026E03F0CE
:10130000F8430B4302F0004119430166697E2268ED
:101310002869012916D0002102EB8000026E22F01C
:1013200000420A430266297E20682A6901290CD0FE
:101330000021036902F01F02914023F4F0420A43A6
:10134000026134E04FF00041E6E74FF40061F0E75E
:10135000016E2A7801F0F841B1EB826F03D1016E82
:1013600021F00041016620682978426E02F0F842BF
:10137000B2EB816F03D1416E21F0004141662068DC
:101380002978826E02F0F842B2EB816F03D1816E50
:1013900021F00041816620682978C26E02F0F8428F
:1013A000B2EB816F03D1C16E21F00041C1662068AC
:1013B000816811F0010F79D150F8C02F2B7BDFF835
:1013C000C4C1296803F018032CFA03FCC1F3130805
:1013D00022EA08020CEA010C42EA0C0202606A48A6
:1013E000E968814278D1286801031CD090FAA0F105
:1013F000B1FA81F1491C01F01F0109294FEA0031BE
:1014000032D8002912D000BF90FAA0F1B1FA81F1D0
:1014100001F1010101F01F0106FA01F609D100BF37
:10142000C0F3846109E0C0F38461E3E7C0F3846141
:10143000EEE790FAA0F1B1FA81F101F1010101F0BA
:101440001F0146EA816102D1C0F3846003E090FA93
:10145000A0F0B0FA80F000F1010000F01F0000EBF6
:10146000400041EA005133E000290ED090FAA0F18B
:10147000B1FA81F101F1010101F01F0106FA01F653
:1014800006D100BFC0F3846106E0C0F38461F1E7D8
:1014900090FAA0F1B1FA81F101F1010101F01F010F
:1014A00046EA816103D1C0F3846004E02AE090FA47
:1014B000A0F0B0FA80F0354A00F1010000F01F0002
:1014C00000EB400002EB005041EA000141F00071E6
:1014D000AA68206803F0F4FF2B68002B12DA2C486E
:1014E0008168DAF8082001F0E071DBF8086002F0AA
:1014F000010506F00106354308D0606D012740F074
:1015000020006065384684F85090ABE6214DAB4230
:1015100018D10D0216D423685B45F3D1826841F4DB
:10152000000122F0E0720A4382601C491A480968EF
:10153000B1FBF0F04000801C00E0401E009000284D
:10154000FBD1DFE7164DAB4207D1CD0105D42368AF
:101550005B45D7D141F0807109E0124DAB42D1D14A
:101560004B02CFD423685B45CCD141F48001826823
:1015700022F0E0720A438260C4E7000000200240CB
:1015800000210240FFFF0F000000FF47000020FE87
:1015900000230240000084CB400D03001000002413
:1015A0000040C0BA0000B8CF0068006C704700006F
:1015B000F8B54FF0000604003546009602D0606D85
:1015C00010B107E00120F8BD204600F0DDF8A66567
:1015D00084F8506020688168C1F3407119B1816856
:1015E0005E4A1140816020688168C1F3007181B951
:1015F00081685B4A114041F0805181605A495948E5
:101600000968B1FBF0F0401C00E0401E009000288B
:10161000FBD120688168C1F3007141B9616D01257A
:1016200041F010016165A16D41F00101A16503F078
:101630003FFF616DC90600D420B1606D012540F007
:1016400010006EE0606D20F4807040F00200606574
:101650002068806810F0010F10D144488068444928
:1016600000F00100896801F00101084306D14148FA
:101670008268616822F47C120A438260627D217F65
:10168000A368206B520342EA01421843012940EA51
:10169000020004D1218C384A02EB41410843616ABF
:1016A00029B1A26A01F47871014342EA010021687C
:1016B000324BCA681A400243CA60206803F0F8FE41
:1016C0000646206803F0F0FE30431DD1206844F246
:1016D0000303267DE26AC16842EA863299431143D8
:1016E000C16094F8380001281ED02068016921F0FB
:1016F000010101612068626B016921F070411143B1
:1017000001612046FFF798FAE068012820681DD0A3
:10171000016B21F00F010163606D20F0020040F0C9
:10172000010060652846F8BD2168A38F144FD4E9F5
:10173000100C144E07EB0347A26C0B6940EA0C0037
:101740003A433340104318430861D3E7A269016B61
:10175000521E21F00F011143DDE70000C0FFFF5FC3
:10176000C0FFFF7F400D0300100000240020024056
:1017700000210240002302400000FEFF03C0F0FFF2
:101780000100FFFF1EF800FC2DE9F041B4B08046D7
:1017900014212EA8FEF7A3FEB8216846FEF79FFE8F
:1017A0003D49D8F80000884272D13C4C206840F096
:1017B0000100206020680DF1080E12224FF0010C8C
:1017C0001823022600F0010033908EE84C0000251B
:1017D0000596C0204FF40027CDE906054101684673
:1017E000CDE9007C08912A9502F096F908B1FFF73F
:1017F00060FC206840F020002060206800F020009D
:10180000339026480830016841F004010160016806
:1018100001F004013391016841F0010101600068A9
:1018200003242E962EA900F0010033901C48CDE928
:101830002F4500F0A1FE2EA90F2081E831001948A4
:1018400000F09AFE19480921174C0215C3142060B4
:101850008715C4E90115C4E903524FF4403004F17F
:101860001401C4E90805D600204681E8C80000F04C
:1018700073FC08B1FFF71DFCC8F84C4000220221A0
:10188000C4F83880122001F019F8122001F008F88D
:1018900034B0BDE8F0810000002002403845025815
:1018A000000802580000025858070024280002408F
:1018B0002DE9F04104465948806800F01F05206872
:1018C00003F0F6FD18B102221046BDE8F08194F84D
:1018D000500001280CD0012084F850002046FFF76A
:1018E00047FA02004FF0000304D084F85030EBE7D1
:1018F0000220EAE7676D40F6016C4949494E27EA44
:101900000C07206847F480776765884201D1374625
:1019100000E00746874200D01DB9676D27F48017A5
:101920006765676DFF0404D5A76D27F00607A765F7
:1019300000E0A3651C27076084F8503020684368E6
:1019400023F01C034360206908282068436802D004
:1019500043F0040301E043F008034360206B20B927
:101960002068436843F0100343602068884201D137
:10197000334600E0034683420CD05DB1052D09D00B
:10198000092D07D0636D884243F48013636525D128
:10199000314624E0C168890119D5636D216923F4BA
:1019A0000053082943F480536365416807D021F050
:1019B000400141602068416841F0200106E021F0CB
:1019C000200141602068416841F040014160206889
:1019D000154B81681940091D816075E70146C9688A
:1019E000890184D5636D216923F40053082943F4E8
:1019F00080536365416807D021F040014160206851
:101A0000416841F0200106E021F02001416020689A
:101A1000416841F04001416056E700000023024068
:101A20000021024000200240C0FFFF7F2DE9FC5F43
:101A30000446F74E0020DFF8D88300904FF416528A
:101A4000F44808F11808A56DDFF8C493DFF8C0A3C7
:101A5000016809F1300920680AF1480AB1FBF2F186
:101A6000B04201912F68D5F800C0DFF8ACB335D093
:101A70004146884232D0484530D050452ED0584556
:101A80002CD0E5491831884228D0E34930318842CA
:101A900024D0E1494831884220D0E04988421DD015
:101AA000DE491831884219D0DC493031884215D0DE
:101AB000DA494831884211D0DFF860E30EF1600E58
:101AC00070450BD0D54A7832904207D0D34B903333
:101AD000984203D0D149A83188427DD194F85C2046
:101AE000082102F01F0201FA02F23A424AD0B04243
:101AF00032D0404530D048452ED050452CD05845A6
:101B00002AD0C54A1832904226D0C34A3032904279
:101B100022D0C14A483290421ED0C04A90421BD0C7
:101B2000BE4A1832904217D0BC4A3032904213D08D
:101B3000BA4A483290420FD0B84A603290420BD035
:101B4000B64A7832904207D0B44A9032904203D0DD
:101B5000B24AA832904203D1026802F0040202E0C5
:101B6000026802F008026AB1026822F00402026010
:101B700094F85C0000F01F008140A960606D40F0A7
:101B80000100606594F85C00012100F01F008140B5
:101B9000394240D02068B04234D0404532D0484528
:101BA00030D050452ED058452CD09B4A1832904208
:101BB00028D0994A3032904224D0974A48329042F5
:101BC00020D0964A90421DD0944A1832904219D0A3
:101BD000924A3032904200E0AFE113D08F4A48324F
:101BE00090420FD08D4A603290420BD08B4A7832AF
:101BF000904207D0894A9032904203D0874AA83257
:101C000090427DD1406910F0800F04D0A960606DD2
:101C100040F00200606594F85C00042100F01F00B1
:101C2000814039423ED02068B04232D0404530D069
:101C300048452ED050452CD058452AD0764A1832E7
:101C4000904226D0744A3032904222D0724A4832B2
:101C500090421ED0714A90421BD0704A1832904276
:101C600017D06E4A3032904213D06C4A48329042BC
:101C70000FD06A4A603290420BD0684A7832904264
:101C800007D0664A9032904203D0644AA83290420C
:101C90004ED1006810F0020F04D0A960606D40F0D2
:101CA0000400606594F85C00102100F01F00814082
:101CB000394258D02068B04234D0404532D04845EF
:101CC00030D050452ED058452CD0534A183290422F
:101CD00028D0514A3032904224D04F4A4832904264
:101CE00020D04E4A90421DD04C4A1832904219D012
:101CF0004A4A3032904215D0484A4832904200E079
:101D000014E00FD0454A603290420BD0434A7832FB
:101D1000904207D0414A9032904203D03F4AA832C5
:101D2000904207D1006800F0080006E0006872E702
:101D30000068B7E7006800F00400A0B1A96020685F
:101D40000168490304D50068000308D5A16C07E0C9
:101D50000168C90503D4016821F008010160216C04
:101D600009B12046884794F85C00202100F01F004C
:101D70008140394279D02068B04232D0404530D0DD
:101D800048452ED050452CD058452AD0224A1832EA
:101D9000904226D0204A3032904222D01E4A483209
:101DA00090421ED01D4A90421BD01C4A18329042CD
:101DB00017D01A4A3032904213D0184A4832904213
:101DC0000FD0164A603290420BD0144A78329042BB
:101DD00007D0124A9032904203D0104AA832904263
:101DE00003D1006800F0100002E0006800F002007B
:101DF000B0B3A96094F835000428206801680FD0BA
:101E000049037ED5006800032BD4616C2AE00000F2
:101E10001000024010000024700002401004024034
:101E200021F0160101602068416921F080014161C3
:101E3000206C08B9A06C20B12068016821F008016D
:101E4000016094F85C303F21012003F01F03002261
:101E50009940A96084F8350084F83420216D65E04C
:101E600003E0E16B09B120468847606D00287DD012
:101E7000606DC00759D02068042184F83510B04245
:101E80002BD0404529D0484527D0504525D058452E
:101E900023D0AD49884220D0AB49183188421CD0AC
:101EA000A9493031884218D0A849884215D0A7499D
:101EB0001831884211D0A549303188420DD0A3494C
:101EC0004831884209D0A1496031884205D09F49F4
:101ED0007831884201D09D499031016821F001019B
:101EE000016020680099019A491C0091914202D832
:101EF0000168C907F6D10068C00710D003200FE0C1
:101F0000FFE70168C905ACD403680121002223F072
:101F10001003036084F8351084F83420A1E7012011
:101F200084F83500002084F83400E16C00291DD0CD
:101F300002B02046BDE8F05F0847854988423CD0A2
:101F400083491431884238D081492831884234D0BD
:101F50007F493C31884230D07D49503188422CD075
:101F60007B496431884228D0794900E0A4E0783187
:101F7000884222D076498C3188421ED075498842E9
:101F80001BD074491431884217D0724928318842D5
:101F900013D070493C3188420FD06E49503188428D
:101FA0000BD06C496431884207D06A497831884245
:101FB00003D068498C3188427ED194F85C80042734
:101FC000016808F01F0807FA08F717EA0C0F0097D6
:101FD00046D04F0744D500980F04686003D5C80366
:101FE0003CD4A16CA2E7880638D42068B0422DD03A
:101FF00055496039884229D0484527D0504525D0D9
:10200000584523D05049884220D04F491831884242
:102010001CD04D493031884218D04C49884215D0E7
:102020004A491831884211D04849303188420DD090
:1020300046494831884209D0704507D0904205D0C2
:10204000984203D04149A831884203D1016821F068
:10205000080102E0016821F004010160216C65E7DC
:10206000022707FA08F717EA0C0F00974ED08F07E0
:102070004CD500980F04686003D5C80344D4616C44
:1020800054E7880640D42068B0422FD02E496039EA
:1020900088422BD0484529D0504527D0584525D0D7
:1020A0002949884222D02849183188421ED0264921
:1020B000303188421AD000E043E02449884215D0EC
:1020C00022491831884211D02049303188420DD040
:1020D0001E494831884209D0704507D0904205D04A
:1020E000984203D01949A831884203D1016821F0F0
:1020F000140102E0016821F00A010160012184F865
:102100003510002084F83400E16B0FE7082202FA52
:1021100008F212EA0C0F14D0090712D5016821F059
:102120000E01016094F85C100120002201F01F01F3
:1021300000FA01F16960606584F8350084F83420A4
:10214000F3E6BDE8FC9F0000880002401004024056
:10215000082C0248085402582DE9F05F044600F0AC
:1021600027FB002C07467DD0F14E022120684FF05E
:102170000308DFF8C0934FF00005DFF8BCA3B042BE
:10218000DFF8B8B334D0EA4A1832904230D048452C
:102190002ED050452CD058452AD0E84A18329042CB
:1021A00026D0E64A3032904222D0E44A4832904269
:1021B0001ED0E34A90421BD0E14A1832904217D019
:1021C000DF4A3032904213D0DD4A483290420FD07D
:1021D000DB4A603290420BD0D94A7832904207D025
:1021E000D74A9032904203D0D54AA83290427DD14E
:1021F00084F83510B04284F834502ED0CC491831D0
:1022000088422AD0484528D0504526D0584524D069
:10221000CA491831884220D0C849303188421CD080
:10222000C6494831884218D0C549884215D0C449AA
:102230001831884211D0C249303188420DD0C0498E
:102240004831884209D0BE496031884205D0BC4936
:102250007831884201D0BA499031016821F00101FA
:10226000016008E043E100BF00F0A2FAC01B0528AE
:1022700001D9202138E120680068C007F4D104F1B9
:1022800008002168D4E9053C8E4685C809681043DA
:10229000D4E907281F43636A3843AA4F40EA0C0079
:1022A0001043394040EA0800042B40EA010003D102
:1022B000D4E90B12114308436168A1F12902052AF0
:1022C0000BD9163A032A08D9083A012A05D9083A3F
:1022D000032A02D97439032901D840F48010CEF8BA
:1022E00000002068676A4069042F00E01FE020F0CA
:1022F000070047EA00070DD1D4E90A01074349B1B5
:102300002046FEF7ABFE28B140206065012184F82D
:102310003510ECE0206847612046FEF7BDFD94F8DB
:102320005C203F2102F01F029140816074E0864AE8
:1023300090423AD0844A1432904236D0824A2832AF
:10234000904232D0804A3C3290422ED07E4A503267
:1023500090422AD07C4A6432904226D07A4A78321F
:10236000904222D0784A8C3290421ED0774A9042D6
:102370001BD0764A1432904217D0744A28329042C9
:1023800013D0724A3C3290420FD0704A5032904281
:102390000BD06E4A6432904207D06C4A7832904239
:1023A00003D06A4A8C3290427ED1684A84F8351054
:1023B00084F83450664B0168A26801EA030E402A93
:1023C00073D0802A72D00022D4E90378D4E9053191
:1023D00042EAD70242EAD8085C4AD4E9077C48EAD4
:1023E000D30848EAD10141EAD701524241EA1C111F
:1023F000142341EA0E01016020681044B0FBF3F0A1
:102400008000E0652046FEF747FD94F85C2001213E
:1024100002F01F02914041602068B04257D0444909
:102420001831884253D0484551D050454FD0584577
:102430004DD042491831884249D040493031884214
:1024400045D03E494831884241D03D4988423ED03E
:102450003B49183188423AD039493031884236D028
:1024600037494831884232D03549603188422ED0D0
:102470003349783188422AD031499031884226D078
:102480002F49A831884222D0304988421FD02F4995
:10249000143188421BD02D492831884217D02B494E
:1024A0003C31884213D002E01DE017E018E02749D4
:1024B000503188420BD025496431884207D02349E6
:1024C0007831884203D021498C31884229D1204675
:1024D000FEF73CFDA06880280CD00CE0102273E7CA
:1024E0004FF4804270E74021616584F83580012017
:1024F000BDE8F09F6560216E20790860D4E919017C
:1025000041606068401E072808D82046FEF76CFD31
:10251000E06E0560D4E91C01416002E0E5662567D4
:1025200065670120656584F835000020E0E700005C
:10253000100002404000024058000240700002407B
:10254000100402403F8010FE082C02480854025834
:102550000F00FEFF70B5044600F02AF90546601C26
:1025600002D004480078044400F022F9401BA04245
:10257000FAD370BD040000242DE9F84F03247D4DEB
:1025800000234FF001094FF0B04B4FF00F0AE9E084
:1025900009FA03F73A4076D00E7906F00306012EC9
:1025A00001D0022E18D1D0F808C04FEA430ECE68F1
:1025B00004FA0EF82CEA080C06FA0EF646EA0C06A7
:1025C0008660D0F804C00E792CEA070CC6F300161A
:1025D0009E4046EA0C0646600E79F643B6070BD0DD
:1025E000C6684FEA43088F6804FA08FC26EA0C061E
:1025F00007FA08F73743C7600E7906F00306022E84
:1026000012D1DE080F694FEA437C00EB8606B6461E
:10261000366A4FEADC6C0AFA0CF807FA0CF726EA7D
:1026200008063743CEF820700F7906684FEA430852
:1026300007F0030704FA08FC07FA08F726EA0C0675
:10264000374307604E6816F4403F1CD04A4E376847
:1026500047F00207376036689F0706F002060096CB
:1026600023F0030606F1B046B6463F0FD6F80864DD
:10267000DFF808810AFA07FC404526EA0C0603D178
:102680004FF0000C41E06CE0DFF8F4C0604502D18F
:102690004FF0010C39E0DFF8ECC0604502D14FF09B
:1026A000020C32E0DFF8E0C0604502D14FF0030CCD
:1026B0002BE0DFF8D8C0604502D14FF0040C24E0D5
:1026C000DFF8CCC0604502D14FF0050C1DE0DFF80B
:1026D000C4C0604502D14FF0060C16E0DFF8B8C068
:1026E000604502D14FF0070C0FE0DFF8B0C0604545
:1026F00002D14FF0080C08E0DFF8A4C0604502D119
:102700004FF0090C01E04FF00A0C0CFA07FC4CEA00
:10271000060CCEF808C44F68DBF80060FF0226EA1A
:10272000020600D516435F46CBF80060D1F804C01E
:10273000DBF804605FEA8C2C26EA020600D516431B
:102740007E606E684F6826EA0206BF0300D5164316
:102750006E602E684F6826EA0206FF0300D5164316
:102760002E605B1C0A6832FA03F67FF411AFBDE8F5
:10277000F88F0000800000585445025800000258AD
:102780000004025800080258000C025800100258B9
:102790000014025800180258001C02580020025869
:1027A000002402580AB1816170470904FBE7000068
:1027B00001488068704700000400002402488168D6
:1027C000027811448160704704000024032010B592
:1027D00000F094F801F04CFF0F4A10491468136898
:1027E000C4F3032203F00F038A5CC95C02F01F02EA
:1027F00001F01F01D0400A4A20FA01F11160094995
:102800000860002000F010F808B1012010BD00F0B1
:102810002BF8002010BD0000184402584A8F000811
:10282000140000241000002470B50D4D04462878D3
:10283000A0B14FF47A71B1FBF0F00A490968B1FB1D
:10284000F0F002F089FC48B9102C07D20022214692
:10285000501E00F033F800206C6070BD012070BD88
:1028600004000024100000240C4808B5016841F061
:1028700002010160016801F002010091016841F468
:1028800000410160006800F40040009002F052FC3A
:10289000BDE80840022002F055BC00005445025833
:1028A000002809DB410900F01F028900012001F125
:1028B000E0219040C1F80001704700000E4BF0B4D9
:1028C0001B680D46C3F30223C3F10706042E00D98B
:1028D0000426191D072901D2002300E0DB1E012474
:1028E00004FA06F19C40491E2940641E9940144098
:1028F0002143F0BC05F07FBC0CED00E0064900F080
:10290000070210B54FF6FF040868044B204040EA68
:1029100002201843086010BD0CED00E00000FA052D
:1029200001680123C0F80035002280F8F42488698A
:10293000044A40F000608861486D104348650020FB
:1029400070470000030000107047006841620020DB
:102950007047F0B503685D6A39B19F6A4C1E00206C
:102960004FF4827605EB17450BE045EA024098628A
:1029700010E0471C06EB800053F800C0F8B205EBEE
:102980001C45A042F5D34FF4807000EB810045EA6E
:1029900002421A500020F0BDD0F8080504F0F7BA42
:1029A00001EBC10200EB8202D0F80805D26C04F002
:1029B0004ABA01EBC10200EB8202D0F80805D2F856
:1029C0008C2204F09CBAD0F8080504F0E2BA0A069A
:1029D00001F00F0101EBC10100EB810101D53C3198
:1029E00001E001F51F71006805F032BA01F00F0235
:1029F0000B0670B502EBC20104464FF001004FF028
:102A0000000504EB810103D581F83D003C3103E072
:102A100081F87D5201F51F710A7094F8BC24012AD7
:102A200008D084F8BC04206804F0C6FE002084F8B6
:102A3000BC5470BD022070BD70B54268044601F000
:102A40000F00904201D9012070BD01F00F024FF03C
:102A500000050B0602EBC2014FF0010204EB8101FD
:102A600003D581F83D203C3103E081F87D5201F52A
:102A70001F718D70087094F8BC04012808D084F888
:102A8000BC24206805F098F8002084F8BC5470BD80
:102A9000022070BD01F00F0101EBC10100EB8100CC
:102AA000D0F89C0270472DE9F04101F00F06044672
:102AB0000D064FF0010006EBC6014FF0000504EBD8
:102AC000810103D581F83D003C3103E081F87D525E
:102AD00001F51F714F78CA600B710E7007B10E813E
:102AE000022B00D14D7194F8BC24012A09D084F83E
:102AF000BC04206804F0AEFD284684F8BC54BDE850
:102B0000F0810220FBE770B501F00F050C460026AE
:102B100005EBC50100EB8101C1F89C62C1F894325C
:102B2000C1F88C2281F87D6281F87C5201F51F7119
:102B30000369012B00D14A612207027C006803D09F
:102B400005F092F8002070BD04F07AFFFAE770B546
:102B50000D464168044605F00F00884201D9012066
:102B600070BD29064FF000064FF0010207D500EBBB
:102B7000C00104EB810181F83D203C3107E005EB09
:102B8000C50104EB810181F87D6201F51F718A7036
:102B9000087094F8BC04012807D084F8BC2420688D
:102BA00005F036F8280702D007E0022070BD217C2E
:102BB00004F2C442206804F0D3FF002084F8BC640F
:102BC00070BD2DE9F04101F00F050C46002605EB24
:102BD000C501012700EB8101CE654B65CA6481F810
:102BE0003D7001F83C5F0369012B00D14A61220767
:102BF000027C006804D005F037F80020BDE8F081C1
:102C000004F01EFFF9E700002DE9FC5F05680446AB
:102C1000284605F0BEF900287ED1206805F0E5F9C8
:102C2000002879D0D5F80808C0F30D20C4F8FC04BA
:102C3000206805F0DAF9800704D52068416901F0C1
:102C400002014161206805F0D0F9C10604F2C440D8
:102C5000009034D52068816921F0100181612F6ACC
:102C600007F00F01C7F3434001EBC101022804EB59
:102C7000810606F51F7602D0062811D01AE047F625
:102C8000F070074216D0C7F30A123169174628467A
:102C900005F0AFF93169306A39443161384408E0F0
:102CA00000990822284605F0A4F9306AC7F30A11F2
:102CB000084430622068816941F010018161206818
:102CC00005F093F900034FF0000A4FF0020B4FF0AC
:102CD00001097CD52068002605F066F9074674E0F6
:102CE000F80770D02068F1B205F077F98046C00788
:102CF00007D005EB4611C1F8089B3146204602F08B
:102D0000A7FD5FEA087025D505EB46110820C1F83C
:102D1000080BFC49206800E042E2026C00EB461020
:102D200001928A42D0F8081B05D9090403D54FF453
:102D30000041C0F8081B204600F052FBF149019801
:102D4000884207D92069012804D120680121009A0E
:102D500004F006FF5FEAC86004D505EB46111020B9
:102D6000C1F8080B5FEA88701CD56869000605D5B4
:102D7000D5F8040840F48061C5F8041806EBC600D5
:102D800004EB800090F87F1200F51F70012905D137
:102D900080F803A02046F1B200F008FA05EB4611D6
:102DA000C1F808BB5FEA886004D505EB4611202016
:102DB000C1F8080B5FEA884005D505EB46114FF4D2
:102DC0000050C1F8080B7F08761C002F88D12068BE
:102DD00005F00BF940036FD5206805F0DEF80026FA
:102DE000074667E0F80763D02068F1B205F0E3F822
:102DF0008046C00723D0D5F8342806F00F0C05EB29
:102E0000461309FA0CF08243C5F83428C3F8089930
:102E1000206901280FD106EBC60004EB8000D0E941
:102E200012121144C16436B9606D20B920680121C5
:102E3000009A04F095FE2046F1B2FFF7B1FD5FEA7B
:102E4000087004D505EB46110820C1F808095FEAAF
:102E5000C86004D505EB46111020C1F808095FEAE7
:102E6000486004D505EB46114020C1F808095FEA27
:102E7000887016D53146284605F05EF806EBC60088
:102E800004EB800090F83F103C30012905D180F818
:102E900003A02046F1B200F085F905EB4611C1F818
:102EA00008B95FEA086003D53146204602F036FDD6
:102EB0007F08761C002F95D1206805F096F8002831
:102EC00011DAD5F8040820F00101C5F8041894F8C7
:102ED000F40401283BD0204600F066FA20684169DE
:102EE00001F000414161206805F07FF800050BD535
:102EF000D5F80808C00702D0204600F099FA2068EB
:102F0000416901F400614161206805F06EF800013B
:102F10000AD52068416901F00061416194F8F40428
:102F2000E0B1204600F084FA206805F05EF8C004A5
:102F300072D5D5F8040820F00101C5F804182068FE
:102F4000102104F0F9FF00214FF67F322DE000211F
:102F5000204684F8F4A4FFF7F7FCBFE784F8F49464
:102F60002068406D0121C0F38300C4F8F8042046B6
:102F7000FFF7EAFCD8E700BF05EB4110C0F80829CD
:102F8000D0F8003923F40013C0F80039C0F8082B3A
:102F9000D0F8003B23F40013C0F8003BD0F8003B0E
:102FA00043F00063C0F8003B491C60688842E3D8E6
:102FB000D5F81C0840F00111C5F81C18206B68B149
:102FC000D5F8840840F00B01C5F88418D5F84408FA
:102FD00040F00B012846C5F844180DE0D5F8140858
:102FE00042F22B010843C5F81408D5F8100840F048
:102FF0000B012846C5F81018D0F8000820F4FE612F
:10300000C5F80018217C2068009A04F0A9FD20680A
:10301000416901F480514161206804F0E6FF8004B9
:1030200017D5206804F056FB206804F0A5FFE06087
:1030300001F0D8FA217B2368CAB20146184605F090
:1030400039F8204600F09AF92068416901F40051EE
:103050004161206804F0C9FF000707D5204600F051
:10306000A7F92068416901F008014161206804F076
:10307000BCFF000616D5A869012620F08001A961D1
:103080000DE000BF06EBC60004EB800090F87F0265
:10309000012803D12046F1B2FFF799FC761C606845
:1030A000B042EFD8206804F0A0FFC00221D501266D
:1030B0004F4616E006EBC60105EB461004EB810116
:1030C000D0F8000991F84020012A09D1002807DA38
:1030D000F0B281F83F7040F080012046FFF777FCA6
:1030E000761C6068B042E5D82068416901F480111F
:1030F0004161206804F079FF800234D501204B46FD
:1031000029E000000A30544F00EBC00205EB4011EB
:1031100004EB8202D1F8001B92F88062012E19D1D3
:10312000002917DA94F8FC6401F4803106F00106F6
:10313000B1420FD182F87F32A96941F08002AA61C1
:103140006969090606D4D5F8040840F40070C5F88A
:10315000040803E0401C61688142D5D820684169B9
:1031600001F400114161206804F03FFF400007D5E1
:103170002046FFF711FC2068416901F08041416160
:10318000206804F032FF40070AD5206845686807C8
:1031900002D52046FFF717FC2068416829434160AB
:1031A000BDE8FC9FD0F8080503F04CBFD0F8080537
:1031B00003F05CBF2DE9F04104008AB005D094F81B
:1031C000BD040025266820B108E001200AB0BDE852
:1031D000F081204684F8BC5400F066F8032084F89F
:1031E000BD04F06BC00500D42561206804F022FC0A
:1031F00004F11001684628228846FDF73EF994E85C
:103200000F0004F075FA0227D8BB2068002104F0F3
:1032100010FF0020012610E000EBC001421C04EB6F
:10322000810181F83D6081F840508D64CD644D6529
:1032300081F83C00A1F84400D0B261688142EBD82B
:10324000002011E000EBC001421C04EB810181F879
:103250007D5281F88052C1F88852C1F88C52C1F871
:10326000945281F87C02D0B261688142EAD8282267
:1032700041466846FDF701F994E80F0004F01EFB93
:1032800010B184F8BD74A0E7606A84F8385084F8FF
:10329000BD64012802D12046FFF742FB206804F0FC
:1032A000FFFA002092E7000070B5B4B00446142184
:1032B0002EA8FDF714F9B8216846FDF710F92C493E
:1032C0002068884251D14FF480204FF4401123915F
:1032D0000090684600F020FC08B1FDF7EAFE00F01F
:1032E00001F92448016841F00101016000680225EC
:1032F0000024214E0A2100F00100339068022E9034
:10330000CDE92F54CDE931412EA93046FFF734F9EC
:1033100003214FF4C050CDE92E05CDE930412EA94F
:103320003046FFF729F913480838016841F0007169
:10333000016000680022114600F0007033904A20BE
:10334000FFF7BCFA4A20FFF7ABFA00224B201146E8
:10335000FFF7B4FA4B20FFF7A3FA00224D201146E5
:10336000FFF7ACFA4D20FFF79BFA34B070BD0000B8
:1033700000000440404502580000025870B5044661
:10338000C068012570B1022801D0FDF792FED4F883
:103390000805294603F0D9FED4F80805BDE87040B9
:1033A00003F08DBE0025F2E7D0F8080503F0B6BEA5
:1033B000D0F8080503F0BCBE10B5044690F8BC0474
:1033C00001280BD0012084F8381084F8BC04206850
:1033D00004F05EFE002084F8BC0410BD022010BD85
:1033E000D0F8082500F2C441104603F0BABE10B56B
:1033F00090F8BC1404460068012906D0A26A012195
:1034000084F8BC14012A02D008E0022010BDA16992
:10341000012903D0816B41F480318163206804F07D
:1034200066FD206804F02EFA002084F8BC0410BD6C
:1034300010B50446D0F8080503F0D5FE2068D0F892
:10344000001E41F00101C0F8001E206A002804D0CF
:103450000248016841F00601016010BD10ED00E076
:103460002DE9F0411E4C0546206800F007000628B3
:10347000206804D000F03F00A84228D12EE020F0C0
:103480003F0028432060FFF793F9154F4FF47A78F7
:103490000646083F05E000BFFFF78AF9801B40455C
:1034A00015D83868C0438004F6D41E2D05D02E2DC3
:1034B00003D01D2D01D02D2D10D1FFF779F9054630
:1034C000464607E0FFF774F9401BB04202D90120DD
:1034D000BDE8F0812068C043C003F3D40020F7E7C3
:1034E0000C4802580248016841F080710160704741
:1034F0000C48025810B501F075F805490968054AED
:10350000C1F30211515C01F01F01C84010BD000061
:10351000204402584A8F00084A4930B5494C0B1DD7
:103520000A680C3409681D68246802F0030305F07A
:103530000102C1F30511C4F3CC04002914FB02F20B
:1035400000EE102AF8EE400A76D0414A9FED3E1A6E
:10355000DFED3E1AB7EE000A23B1012B5AD0022B41
:1035600018D15CE0374C283C23689B0612D5394BB8
:10357000246801EE901A1168C4F3C104F8EE612AC0
:10358000E34001EE903AC1F30801F8EE611A81EED2
:10359000A22A07E002EE101A1168F8EE422A81EE24
:1035A000A22A45E001EE901A1168F8EE611A40EE89
:1035B000811A71EE800A62EE200AC1F3462101EE03
:1035C000101AB8EE411A31EE001AC0EE811ABCEEA4
:1035D000E11A80ED001A1168C1F3064101EE101ADC
:1035E000B8EE411A31EE001AC0EE811ABCEEE11AB3
:1035F00080ED011A1168C1F3066101EE101AB8EEF0
:10360000411A31EE000A80EE801ABCEEC10A80ED4C
:10361000020A30BD01EE901ADFED0F2A03E001EE41
:10362000901ADFED0E2A1168F8EE611A82EEA12AD7
:10363000C1F30801B6E7FFE7002101604160816046
:1036400030BD000028440258000000390024744CAA
:10365000304402580090D0030024744A0024F44AF5
:10366000494930B5484C0B1D0A68143409681D6877
:10367000246802F00303C5F30012C1F30531C4F35B
:10368000CC04002914FB02F200EE102AF8EE400AE6
:1036900075D03F4A9FED3D1AB7EE000A6BB1DFEDE2
:1036A0003D1A012B01D0022B64D002EE101A1168D2
:1036B000F8EE422A81EEA22A21E0334C283C23680E
:1036C0009B0612D5344B246801EE901A1168C4F39E
:1036D000C104F8EE612AE34001EE903AC1F308011B
:1036E000F8EE611A81EEA22A0BE001EE901ADFEDEE
:1036F0002B2A00BFF8EE611A116882EEA12AC1F3ED
:10370000080101EE901A1168F8EE611A40EE811A74
:1037100071EE800A62EE200AC1F3462101EE101A12
:10372000B8EE411A31EE001AC0EE811ABCEEE11A71
:1037300080ED001A1168C1F3064101EE101AB8EECF
:10374000411A31EE001AC0EE811ABCEEE11A80ED8A
:10375000011A1168C1F3066101EE101AB8EE411AA0
:1037600031EE000A80EE801ABCEEC10A80ED020A3A
:1037700030BD04E001EE901ADFED092ABAE700211E
:10378000016041608160F3E728440258000000397D
:10379000384402580024744A0090D0030024744C2A
:1037A0000024F44A494930B5484C0B1D0A681C34C2
:1037B00009681D68246802F00303C5F30022C1F301
:1037C0000551C4F3CC04002914FB02F200EE102AC8
:1037D000F8EE400A75D03F4A9FED3D1AB7EE000A59
:1037E0006BB1DFED3D1A012B01D0022B64D002EE4C
:1037F000101A1168F8EE422A81EEA22A21E0334C19
:10380000283C23689B0612D5344B246801EE901A9D
:103810001168C4F3C104F8EE612AE34001EE903A66
:10382000C1F30801F8EE611A81EEA22A0BE001EE65
:10383000901ADFED2B2A00BFF8EE611A116882EEB4
:10384000A12AC1F3080101EE901A1168F8EE611A7D
:1038500040EE811A71EE800A62EE200AC1F3462121
:1038600001EE101AB8EE411A31EE001AC0EE811ABC
:10387000BCEEE11A80ED001A1168C1F3064101EEB9
:10388000101AB8EE411A31EE001AC0EE811ABCEEE1
:10389000E11A80ED011A1168C1F3066101EE101AF8
:1038A000B8EE411A31EE000A80EE801ABCEEC10A71
:1038B00080ED020A30BD04E001EE901ADFED092A26
:1038C000BAE70021016041608160F3E728440258B3
:1038D00000000039404402580024744A0090D0038C
:1038E0000024744C0024F44A2DE9F04F864A4FF42A
:1038F0008079DFF810824845844E89B08449A8F168
:1039000004054FF080574FEA22144FF0005C4FEA55
:10391000E2032ED1D8F8000000F00700052824D2D9
:10392000DFE800F0EC9A6A25910003A8FFF7F4FDA8
:10393000049809B0BDE8F08F6846FFF791FE009843
:10394000F7E706A8FFF72EFF0698F2E70868C0F32E
:10395000C10022FA00F0ECE70A68D20568D5B84247
:1039600066D12046E5E71846E3E70020E1E7304668
:10397000DFE74FF4007A504510D1D8F8000000F48A
:10398000E070802838D004DC002850D04028ECD1EA
:1039900062E0C028EBD04845E7D154E04FF480699D
:1039A000484511D1D8F8000000F46060484523D0A4
:1039B00003DCE0B35045D8D14EE0B0F5C06FD6D0AF
:1039C000B0F5006FD1D13EE04FF4805948454FF437
:1039D000804B15D1D8F8000000F4E040B0F5005F4E
:1039E0000AD003DC18B34845BFD135E0B0F5405FDD
:1039F000BDD05845B9D126E008688000B5D5A0E70C
:103A0000DFF81091B0F5002F4FF4803A11D05045F7
:103A100034D1286810F4803070D05045A5D10868A2
:103A20000001A2D56846FFF71BFE029881E765E01A
:103A30001EE0D9F8000010F440300DD050450FD0F2
:103A4000B0F5003F91D128680D6800F040506D0737
:103A500082D5002880D179E70868000185D56BE719
:103A60000868800081D506A8FFF79CFE089860E7EB
:103A700009688903C2D5604589D174E7584529D1C1
:103A8000D9F8000000F0E04030F0704584D1001714
:103A90000728BFF46AAFDFE800F005290D15192DDE
:103AA000040064E7FFF726FD43E76846FFF7D8FD0B
:103AB00001983EE708688000A0D506A8FFF772FECF
:103AC000079836E70868400798D53FE70868C005BB
:103AD00094D546E7B0F5004F86D1D8F8000010F035
:103AE000405007D0B84209D0604597D1086800011E
:103AF000DBD43AE708688003FBD534E70868800127
:103B0000F7D512E7504402580090D0030080BB0064
:103B100000440258584402582DE9FC5F044650F80E
:103B2000241B002500902E460801FE4FDFF8F88385
:103B30001DD5A06E50B1B0F5801F0CD0B0F5001FA0
:103B40000ED0B0F5401F1DD001250FE0386840F4BD
:103B50000030386016E00221201D01F031FF03E043
:103B60000098022101F0BCFF05000BD02E462088F2
:103B7000C00523D5606D05281ED2DFE800F00C11CA
:103B8000161B1B00A26ED8F8001021F4401111433F
:103B9000C8F80010EBE7386840F40030386009E0FE
:103BA0000021201D01F00CFF03E00098002101F02E
:103BB00097FF05467DB100E001252E46208880054F
:103BC0002BD5A06DC02826D00EDCA8B1402818D077
:103BD00080280FD11AE0626DD8F8001021F007019B
:103BE0001143C8F80010E9E7B0F5807F13D0B0F5B5
:103BF000A07F10D001250FE0386840F40030386015
:103C000009E00021201D01F0DBFE03E00098002107
:103C100001F066FF054685B12E46208840052ED569
:103C2000E06DB0F5C06F28D010DCB8B1B0F5007F02
:103C300019D0B0F5806F0FD11AE0A26DD8F800103E
:103C400021F4E0711143C8F80010E6E7B0F5006F09
:103C500013D0B0F5206F10D001250FE0386840F484
:103C60000030386009E00021201D01F0A9FE03E0CA
:103C70000098002101F034FF05468DB12E462068E2
:103C8000DFF8A4B28001ABF1040B1ED5A06CD0B15B
:103C900010280ED0202811D0302814D0012513E090
:103CA000E26DD8F8001021F460611143C8F80010EB
:103CB000E5E7386840F40030386004E00221201D58
:103CC00001F07EFE05466DB12E462088C0042BD53E
:103CD000206EB0F5005F20D00DDCA0B1B0F5805FA4
:103CE0000FD115E0A26CDBF8001021F03001114378
:103CF000CBF80010E9E7B0F5405F13D0B0F5804F86
:103D000010D001250FE0386840F40030386009E039
:103D10000021201D01F054FE03E00098002101F075
:103D2000DFFE054685B12E462088800429D5606EC9
:103D3000B0F5403F23D010DC08B3B0F5803F14D07D
:103D4000B0F5003F0FD115E0226ED8F8001021F435
:103D5000E0411143C8F80010E6E7B0F5802F0ED01F
:103D6000B0F5A02F0BD001250AE00121201D01F0A4
:103D700027FE03E00098012101F0B2FE05466DB177
:103D80002E462088DFF8A0A140040AF1080A25D5B4
:103D9000D4F8AC0030F0704109D01DE0626ED8F864
:103DA000001021F4E0211143C8F80010E9E70017E2
:103DB000072811D2DFE800F00E04090E0E0E0E00E7
:103DC0000121201D01F0FCFD03E00098012101F01C
:103DD00087FE05467DB100E001252E4620880004BF
:103DE0001FD5606FD8B1B0F1805F0ED0B0F1005F29
:103DF00010D0012514E0D4F8AC20DAF8001021F03E
:103E0000E0411143CAF80010E8E7386840F4003098
:103E1000386004E00121201D01F0D2FD05466DB19E
:103E20002E462068C0011ED5606CD0B101280ED08E
:103E3000022811D0032814D0012513E0626FD8F8AE
:103E4000001021F040511143C8F80010E9E738682C
:103E500040F40030386004E00221201D01F0B0FD84
:103E6000054665B12E46206840024FD52F480168AF
:103E700041F480710160FEF79BFC81460EE0626CAC
:103E8000DBF8001021F003011143CBF80010EAE742
:103E9000FEF78EFCA0EB0900642835D823480068A3
:103EA000C005F5D58DBBDFF88090B4F8B01009F1EE
:103EB0002009D9F8000001F4407100F440708842F4
:103EC00011D0D9F80010D9F8002021F4407142F443
:103ED0008032C9F80020D9F8002022F48032C9F8D5
:103EE0000020C9F80010D4F8B000B0F5807F2AD1C6
:103EF000FEF75EFC019022E0FEF75AFC0199411AA0
:103F000041F2883081421AD903252E462078DFF805
:103F10001890C00709F1040945D0D4F8800018288A
:103F20003FD005E02C440258504402580048025843
:103F300026DC80B3082829D0102825D12CE0D9F818
:103F400000008007D8D5D4F8B010C1F301200328B1
:103F5000FE480DD0016821F47C510160B4F8B02016
:103F6000D9F80010C2F30B021143C9F80010CDE7D5
:103F7000F74A036802EA111223F47C511143ECE77B
:103F800020280ED028280CD001250BE00121201D6F
:103F900001F016FD04E004E00098012101F0A0FD0D
:103FA00005465DB12E46207880071FD5E06F0628B4
:103FB0001AD2DFE800F0170D12171717D4F8802077
:103FC000D9F8001021F038011143C9F80010EAE7D0
:103FD0000121201D01F0F4FC03E00098012101F013
:103FE0007FFD054675B100E001252E46207840078B
:103FF0001FD5D4F89800062819D2DFE800F0160C77
:1040000011161616E26FD9F8001021F007011143BE
:10401000C9F80010EAE70121201D01F0D1FC03E0FE
:104020000098012101F05CFD05469DB100E00125ED
:104030002E46207880062BD5D4F89400B0F1405F4E
:1040400024D011DC10B3B0F1805F15D0B0F1005F67
:1040500010D116E0D4F89820DAF8001021F007010A
:104060001143CAF80010E4E7B0F1804F0ED0B0F170
:10407000A04F0BD001250AE00021201D01F0A0FC7B
:1040800003E00098022101F02BFD05468DB12E467C
:10409000207840062BD5D4F8A000B0F5406F24D08E
:1040A00011DC10B3B0F5806F15D0B0F5006F10D1F2
:1040B00016E0D4F89420D9F8001021F0E041114323
:1040C000C9F80010E4E7B0F5805F0ED0B0F5A05F4E
:1040D0000BD001250AE00021201D01F071FC03E056
:1040E0000098022101F0FCFC05468DB12E46207897
:1040F00000062BD5D4F8A400B0F5C04F24D011DCB5
:1041000010B3B0F5005F15D0B0F5804F10D116E0B8
:10411000D4F8A020DAF8001021F4E0511143CAF8D5
:104120000010E4E7B0F5004F0ED0B0F5204F0BD0F3
:1041300001250AE00021201D01F042FC03E0009867
:10414000022101F0CDFC05464DB12E462078000736
:104150001ED5D4F88800B0F5805F0AD00FE0D4F8FF
:10416000A420DAF8001021F460411143CAF80010CD
:10417000ECE70098022101F0B3FC00B10126D4F86D
:104180008820D9F8001021F440511143C9F80010DB
:104190002078C00613D5D4F89C00B0F5807F05D1F7
:1041A0000098022101F09CFC00B10126D4F89C206B
:1041B000DAF8001021F440711143CAF800102068A9
:1041C000000316D5D4F8A80038B1B0F5803F09D067
:1041D000B0F5003F0BD001250AE00021201D01F0C1
:1041E000EFFB03E00098022101F07AFC054685B15F
:1041F0002E462068400322D5D4F88C00B0F5801FED
:1042000011D0B0F5001F13D0B0F5401F15D0012517
:1042100014E0D4F8A820DAF8001021F4403111435A
:10422000CAF80010E5E7386840F40030386004E070
:104230000098012101F054FC054655B12E46206836
:10424000C0031CD5E06C70B1B0F5803F10D00125E3
:1042500014E0D4F88C20D9F8001021F44011114357
:10426000C9F80010EBE7386840F40030386004E02B
:104270000221201D01F0A4FB0546D5B12E46206881
:10428000800005D50098022101F02AFC00B101262A
:10429000206880031CD5D4F88400B8B1B0F5807FC5
:1042A00010D0B0F5007F11D0B0F5407F0ED00125C1
:1042B0000DE0E26CDBF8001021F480311143CBF803
:1042C0000010DCE7386840F400303860E5B32E4673
:1042D0002068C00207D5A26FD8F8001021F0004175
:1042E0001143C8F800102068800207D5E26ED8F8A4
:1042F000001021F080711143C8F8001020880005DB
:1043000007D5226FDAF8001021F000611143CAF8D6
:1043100000102068400009D50C48016821F40041D4
:1043200001600168D4F8B4201143016020680028BE
:1043300007DA226DDBF8001021F040511143CBF871
:1043400000102068000205E012E00000104402584E
:10435000CFFFFF0008D5D4F89020D9F8001021F441
:1043600040011143C9F8001066B10120BDE8FC9F6F
:10437000D4F88420D9F8001021F440711143C9F811
:104380000010A5E70020F1E72DE9F05F04000F46DB
:104390007ED0DFF83882D8F8000000F00F00B84275
:1043A0000CD2D8F8001021F00F013943C8F80010E2
:1043B000D8F8000000F00F00B84269D12078844D91
:1043C00040070AD52069296801F07001884204D9A4
:1043D000296821F070010143296020787C4E361D48
:1043E00000070AD56069316801F07001884204D97C
:1043F000316821F07001014331602078C0060AD590
:10440000A069316801F4E061884204D9316821F47F
:10441000E061014331602078DFF8B4B180060BF130
:10442000080B0CD5E1695846DBF8002002F0700259
:10443000914204D9026822F070020A430260207897
:1044400080070AD5E068296801F00F01884204D985
:10445000296821F00F01014329602078C0073ED070
:104460005B49A2682868183920F4706010432860FE
:104470006068022818D0032819D00968012819D0CB
:10448000490700294ADADFF848A1AAF1080A00E042
:1044900044E0DAF8002022F007020243CAF80020C4
:1044A000FEF786F9814612E009688903E9E70968A1
:1044B0008901E6E7C905E4E7FEF77AF9A0EB09010F
:1044C00041F28830814202D90320BDE8F09F616843
:1044D000DAF8000000F03800B0EBC10FECD1207822
:1044E00080070AD5E068296801F00F01884204D2EC
:1044F000296821F00F0101432960D8F800104046D7
:1045000001F00F01B9420BD9016821F00F013943C5
:104510000160006800F00F00B84201D00120D4E72C
:10452000207840070AD52069296801F07001884287
:1045300004D2296821F07001014329602078000726
:104540000AD56069316801F07001884204D231688F
:1045500021F07001014331602078C0060AD5A069BE
:10456000316801F4E061884204D2316821F4E061ED
:1045700001433160207880060CD5E1695846DBF8AC
:10458000002002F07002914204D2026822F0700210
:104590000A43026000F06CF80E492A682B68C2F3E7
:1045A000032203F00F038A5CC95C02F01F0201F0D2
:1045B0001F01D040084A20FA01F111600749086044
:1045C00007480068BDE8F05FFEF72EB900200052F2
:1045D000184402584A8F00081400002410000024D8
:1045E0000800002430B500F043F80B4A0B490C4B8F
:1045F00015681468C5F3032204F00F048A5C095D92
:1046000002F01F0201F01F01D040064A20FA01F11A
:1046100019601060084630BD184402584A8F0008DF
:10462000140000241000002400B5FFF7DBFF05494B
:104630000968054AC1F30211515C01F01F01C8402D
:1046400000BD00001C4402584A8F000800B5FFF767
:10465000C9FF05490968054AC1F30221515C01F00F
:104660001F01C84000BD00001C4402584A8F0008CA
:10467000454970B545480968434B103B11F0380275
:1046800008D00111082A03D0102A0BD0182A0BD009
:10469000084670BD19688906FBD51968C1F3C101C8
:1046A000C84070BD3A4870BD3749374D18310C1DB0
:1046B00024350A68096826682D6802F0030406F0AC
:1046C0000102C1F30511C5F3CC0515FB02F200EEA2
:1046D000102AB8EE400AE9B32F4ADFED2E0AB7EEF2
:1046E000001A6CB1DFED2D1A012C01D0022C43D041
:1046F00002EE101A1068F8EE422A81EEA22A1EE09D
:104700001C68A40611D51B6801EE901A1168C3F34A
:10471000C103F8EE612AD84001EE900AC1F3080007
:10472000F8EE611A81EEA22A0BE001EE901ADFED9D
:104730001C2A00BFF8EE611A106882EEA12AC0F3AD
:10474000080001EE900AF8EE611A40EE201A31EEF0
:10475000810A00E015E022EE000A1068C0F346204E
:10476000401C00EE900AF8EE600A80EE201ABCEEC3
:10477000C10A10EE100A70BD01EE901ADFED092A91
:10478000D8E7002070BD0000104402580090D0030C
:1047900000127A0000000039304402580024744AA4
:1047A0000024744C0024F44A2DE9F04704007DD025
:1047B000F84F2078F74D1837DFF8D883103DC00741
:1047C00066D0D8F80000396800F03800102822D0F0
:1047D000182803D101F0030002281CD06068B0F54E
:1047E000803F1FD010B3B0F5A02F2BD0B0F5A81F7D
:1047F00028682FD020F480302860286820F480209A
:104800002860286820F480102860606898B3FDF75D
:10481000CFFF06462BE02868800339D56068002862
:10482000C5D035E0286840F48030EDE7286820F4F2
:1048300080302860286820F480102860286820F4E0
:104840008020E1E7286840F480202860286820F470
:10485000801005E040F480202860286840F4801033
:104860002860DFE7FDF7A4FF801B64287ED8286856
:104870008003F7D50CE0FFE7FDF79AFF064604E05A
:10488000FDF796FF801B6428F0D828688003F7D4D2
:104890002078800756D5D8F80000DFF8F8923968FC
:1048A00010F03800A9F10C0910D000E0F0E0182851
:1048B00001D188070AD0E06898B3296821F019016E
:1048C00001432960FDF774FF064626E0286840078B
:1048D00002D5E0680028A3D0E168286820F019001C
:1048E00008432860FDF764FF064604E0FDF760FF1B
:1048F000801B0228BAD828684007F7D5217CD9F850
:10490000002022F0FE4242EA0161C9F8001019E0DD
:10491000FDF74EFF801B0228A8D828684007F7D56E
:10492000ECE7FFE7286820F001002860FDF740FF72
:10493000064604E0FDF73CFF801B022896D8286855
:104940004007F7D42078C00646D5D8F80000DFF835
:104950004492396800F03800A9F10409082812D0FF
:10496000182805D101F00300012800E0ECE00AD08E
:10497000E0690028286820D040F080002860FDF71A
:1049800017FF064615E02868C00502D5E0698028B3
:104990007ED194F82010D9F8002022F07C5242EA0F
:1049A0000161C9F8001017E0FDF702FF801B022823
:1049B000A0D82868C005F7D5EBE720F08000286074
:1049C000FDF7F6FE064604E0FDF7F2FE801B022826
:1049D00090D82868C005F7D42078000729D56D48FD
:1049E0006169643000298146016811D041F00101FC
:1049F0000160FDF7DDFE064605E000BFFDF7D8FECD
:104A0000801B022888D8D9F800008007F6D510E06E
:104A100021F001010160FDF7CBFE064605E000BF75
:104A2000FDF7C6FE801B022888D8D9F80000800751
:104A3000F6D42078800623D5A0690028286810D0F5
:104A400040F480502860FDF7B3FE064605E000BF45
:104A5000FDF7AEFE801B022876D828688004F7D5C3
:104A60000EE020F480502860FDF7A2FE064604E028
:104A7000FDF79EFE801B022866D828688004F7D4C4
:104A8000207840076FD5DFF81091D9F8001000E0CA
:104A90002BE141F48071C9F80010FDF789FE06464C
:104AA00005E000BFFDF784FE801B64284CD8D9F8D0
:104AB0000000C005F6D5374EA0686036012818D032
:104AC000D8B1052825D0852830682AD020F00100EB
:104AD0003060306820F004003060306820F08000E2
:104AE0003060A06841F2883A78B3FDF761FE8146F4
:104AF00026E0306840F00100F2E7306820F0010065
:104B00003060306820F080003060306820F00400B1
:104B1000E6E7306840F004003060306820F0800044
:104B200005E040F004003060306840F08000306004
:104B3000DFE700BFFDF73CFEA0EB0901514503D8BC
:104B400030688007F6D50EE088E0FFE7FDF730FE1D
:104B5000814605E0FDF72CFEA0EB090151457DD80B
:104B600030688007F6D4606AF0B34146DFF82480ED
:104B700008F120080968C1F3C20103296FD0022897
:104B8000286820F08070286008D0FDF711FE0446E8
:104B900080E000001044025800480258FDF708FE6B
:104BA000064604E0FDF704FE801B02286FD8286843
:104BB0008001F7D4E26A40F2F331386854F8283FB4
:104BC000884340EA021018433860217B4FF4FE0C02
:104BD00022894FF0FE47208A4902267D521EA1F508
:104BE0000071C2F3080200E081E089B2401E114367
:104BF000761E0CEA004001433E4807EA0662114374
:104C00003C4AC8F800100832016821F00101016037
:104C100011684FF6F876236AB14341EAC301116087
:104C20000168A26921F00C01114301600168E26989
:104C300021F0020111430160016841F480310160FB
:104C4000016841F400310160016841F48021016094
:104C5000016841F001010160286801E017E01DE0F2
:104C600040F080702860FDF7A3FD044605E000BF1A
:104C7000FDF79EFD001B022809D828688001F7D5A2
:104C800035E000BFFDF794FD001B022802D9032088
:104C9000BDE8F08728688001F4D428E0396801284D
:104CA000D8F8000021D0A26A01F0030393421CD17E
:104CB000E26AC1F305118A4217D1216BC0F30802E1
:104CC000491E8A4211D1616BC0F34622491E9142AE
:104CD0000BD1A16BC0F30642491E914205D1E16B95
:104CE000C0F30660491E814201D00120D0E70020B8
:104CF000CEE700002C4402582DE9F047040029D0EB
:104D0000504A4FF0000920684F4B504D9042C4F874
:104D1000289006D0984204D0A84202D0E1680F291A
:104D200018D8E1684FF0010AE76B0831C9080AEBAF
:104D300057167143904205D0984203D0A84201D043
:104D4000082907D8904203D0984201D0A84204D144
:104D5000102902D90120BDE8F08794F8810020B91C
:104D6000204684F8809000F073F8022084F88100D7
:104D70002068016821F0010101602168A0698A684A
:104D8000B0F1806F02F4F81010D16268B2F5800FB4
:104D900001D01AB10AE0A26B22B107E0A26BB2F116
:104DA000805F03D10A6842F480520A60A66AE16912
:104DB000E26B25683143E368024311431943A9605C
:104DC000D4E90D02D4E90571636A25691843D4F862
:104DD00020C00A43266810432843A56D3843D4E910
:104DE0000182D4E9123140EA0C0040EA080008438D
:104DF000104318432843F060606868B920688168F0
:104E000021F4C05141F4006181602068816821F47F
:104E1000C06141F4806181602068016D21F0010171
:104E200001656068400206D52068626DC16821F0A6
:104E300000411143C160C4F8849084F881A000202F
:104E400089E700000030014000380040003C00408D
:104E50002DE9F041B4B0044614212EA8FBF73FFB26
:104E6000B8216846FBF73BFB2349206888423FD1C5
:104E700080140090002668461896FEF74DFE08B193
:104E8000FCF717F91D48016841F400410160006812
:104E900000F40040339019480838016841F00201DD
:104EA00001600068022430AADFF8548000F002009C
:104EB00033900820CDE92E0403254046062782E8DA
:104EC000B0002EA9FDF758FB2EA9102081E8510053
:104ED000CDE931574046FDF74FFB072130942020A4
:104EE000CDE92E04CDE931512EA94046FDF744FB12
:104EF00034B0BDE8F0810000003C00404845025855
:104F0000000402582DE9F84F8A4690F880101D469B
:104F10001746012904464FF0000B0DD04FF0010851
:104F200084F88080FDF744FC814694F881000026D7
:104F3000012804D002201EE00220BDE8F88FBAF15B
:104F4000000F17D0B7B1A1680320C4F85CA0A4F883
:104F5000607084F88100C4F88460A4F862706666AA
:104F6000A4F86860A4F86A60B1F5C02F6667266788
:104F700004D008E0012084F88060DEE72068016842
:104F800041F400610160206841686FF30F0139430B
:104F900041602068016841F0010101606068B0F57E
:104FA000800F04D12068016841F400710160E0685D
:104FB0000F281BD81FE02068416989070BD5E16DD8
:104FC00009680162E06D001DE065B4F86200401EF2
:104FD000A4F862000AE0FDF7EBFBA0EB0900A84291
:104FE00002D3681C02D093E0002D2FD0B4F86200E9
:104FF0000028E0D172E007282AD86BE020684169D8
:1050000089071BD5B4F8621001290BD9E16B49B1AE
:10501000E16D09680162E06D001DE065B4F86200B1
:10502000801E08E0E16D09880184E06D801CE06568
:10503000B4F86200401EA4F8620009E0FDF7B8FB76
:10504000A0EB0900A84202D3681C01D060E0B5B310
:10505000B4F862000028D1D140E020684169890796
:105060002ED5B4F8621003290CD9E16B402909D977
:10507000E16D09680162E06D001DE065B4F8620051
:10508000001F19E0B4F8621001290BD9E16B49B196
:10509000E16D09880184E06D801CE065B4F8620070
:1050A000801E09E0E16D097880F82010E06D401C59
:1050B000E065B4F86200401EA4F862000AE027E050
:1050C000FDF776FBA0EB0900A84202D3681C01D0D3
:1050D0001EE0EDB1B4F862000028BED100224B46BC
:1050E00008212046009500F0E9FD28B1D4F884009D
:1050F00040F02000C4F88400204600F081FD84F8D0
:105100008180D4F8840084F8806080B1012014E7A5
:10511000204600F075FDD4F8841084F8806041F4D6
:105120008071C4F8841084F88180032005E7584614
:1051300003E700000248016821F0010101607047A7
:10514000003C005803490A6822F0020202430A6048
:1051500070470000003C0058401EB0F1807F10B541
:1051600001D3012010BD4FF0E02460610F216017D2
:1051700003F041F80020A0610721216110BD10B5A6
:10518000040003D094F83D0010B107E0012010BDE9
:10519000002084F83C00204600F022F8022084F829
:1051A0003D002068211D00F0D7FE012084F8480052
:1051B00084F83E0084F83F0084F8400084F8410001
:1051C00084F8420084F8430084F8440084F84500E1
:1051D00084F8460084F8470084F83D00002010BDA4
:1051E00008B500680B49884212D10B48016841F4A8
:1051F0000031016000680022012100F400300090BD
:105200007520FDF75BFBBDE808407520FDF748BB46
:1052100008BD0000004401405045025890F83D1080
:10522000012901D001207047174A022180F83D1062
:105230000168CB6843F00103CB600068904214D052
:10524000B0F1804F11D0114988420ED010498842E8
:105250000BD01049884208D00F49884205D00F4929
:10526000884202D00E49884207D181680D4A114018
:10527000062906D0B1F5803F03D0016841F0010155
:105280000160002070470000000001400004004061
:1052900000080040000C00400004014000180040DD
:1052A000004001400700010030B590F8801001294E
:1052B00018D0012280F880202421C0F88410002218
:1052C000202450F8641B0B680D6823F0005325F070
:1052D00001050D60026050F8641C0B6004620277E7
:1052E000104630BD022030BD70B5044690F88000F5
:1052F00001281DD0012284F880202420C4F88400D5
:1053000020680568026822F0010202602068826855
:1053100022F060620A438260204600F07FFE22682D
:10532000202100201560C4F8841084F8800070BD2E
:10533000022070BD70B5044690F8800001281DD091
:10534000012284F880202420C4F8840020680568A5
:10535000026822F0010202602068826822F0604246
:105360000A438260204600F059FE22682021002076
:105370001560C4F8841084F8800070BD022070BDF0
:1053800010B5040003D0D4F8840010B107E0012068
:1053900010BD002084F88000204600F027F824206B
:1053A000C4F884002068016821F0010101602046F2
:1053B00000F0EAFE0128EBD0A06A10B1204600F010
:1053C0004FFE2068416821F4904141602068816867
:1053D00021F02A0181602068016841F0010101602B
:1053E0002046BDE8104000F09FBE000030B5B5B0CB
:1053F000044614212EA8FBF772F8B8216846FBF783
:105400006EF817492068884228D102256846002492
:1054100000951F94FEF780FB08B1FBF74AFE114888
:10542000016841F480210160006800F4802033901D
:105430000C480838016841F0080101600068072144
:1054400000F0080033904FF440702E90CDE92F54B7
:10545000CDE9314104482EA9FDF78EF835B030BDB5
:105460000048004048450258000C0258FEE7000082
:10547000F0B500230A251C463026372711E000BF6F
:10548000B5EB107F02D906EB107C01E007EB107C36
:1054900001F813C001EB430C00015B1C8CF80140C8
:1054A000DBB29342ECD3F0BD8068C0F3C00070471C
:1054B0008068C0F3800070478068C0F38000704748
:1054C00010B5042404EAD1540723C1F30451204445
:1054D0008B408A40416999431143416110BD0000EE
:1054E00030B58BB0002468461C21079408940994B9
:1054F000FAF7F5FF33480122314904250523C0E9B5
:10550000001405618914C0E9024204754475836181
:10551000047744628462C0E90B41446380F83840F8
:10552000FCF746F808B172B6FEE7264807A90794CB
:10553000FBF710FE08B172B6FEE7234806210322EE
:1055400040F2FF73CDE904548DE80F001D48694611
:105550008DF81940FBF76CFE08B172B6FEE70C211E
:105560001A48CDE9000117486946FBF761FE08B10A
:1055700072B6FEE712211648CDE9000111486946CE
:10558000FBF756FE08B172B6FEE718211148CDE9C7
:1055900000010C486946FBF74BFE08B172B6FEE706
:1055A0004FF480710C48CDE9000106486946FBF7CD
:1055B0003FFE002801D072B6FEE70BB030BD000000
:1055C000002002400C0100240008302E000021437E
:1055D000000052470040C03A0080F03E2DE9F04FF5
:1055E00087B014216846FAF77AFF4548016841F010
:1055F00004010160016801F004010591016841F0B6
:1056000020010160016801F020010591016841F06D
:1056100080010160016801F080010591016841F09D
:1056200001010160016801F001010591016841F08B
:1056300002010160016801F002010591016841F079
:1056400008010160016801F008010591016841F05D
:1056500040010160016801F040010591016841F0DD
:105660001001016000684FF48067DFF89890002215
:1056700000F01000394605904846FDF793F8DFF832
:1056800088A044F2C108002241465046FDF78AF83E
:10569000DFF878B0002202215846FDF783F8002495
:1056A0006946F8000294CDE900041948FCF764FF4C
:1056B0000125009703260396CDE901546946484623
:1056C000FCF75AFFCDF80080694603965046CDE9B5
:1056D0000154FCF751FF80204FF488118DE813002E
:1056E0000C486946FCF748FF02206946CDE90005F1
:1056F000CDE902465846FCF73FFF07B0BDE8F08F02
:105700004045025800140258000402580010025884
:10571000000802580018025870B514484FF480056C
:105720001F22114EAC000021C0E90212A300C0E903
:105730000414C0E9063101621A0141628162C1624A
:10574000C0E90D21C163016441648164C1640165E4
:1057500041658165C0E90065FFF7CEFA002801D0F8
:1057600072B6FEE770BD0000003C004070010024EE
:105770001748002110B5154C0C224FF4E13304609A
:10578000C0E90131C160C0E904128161C1610162F7
:1057900041628162FFF7F4FD08B172B6FEE70C4882
:1057A0000021FFF7C7FD08B172B6FEE708480021E7
:1057B000FFF79AFD08B172B6FEE70548FFF774FDE2
:1057C000002801D072B6FEE710BD0000004800407E
:1057D0004402002410490122104810B501F00EFBCC
:1057E00008B1FBF766FC0E490C4801F023FD08B137
:1057F000FBF75FFC0B49094801F0E6F808B1FBF73D
:1058000058FC064801F09CFD08B1FBF752FCBDE8CE
:105810001040FDF767BE000018000024DC070024DC
:10582000D400002468000024FEE7FEE70148FDF7ED
:10583000EBB90000D81E00240148FDF7E5B90000CF
:10584000D81E00240148FDF7DFB90000D81E00244F
:105850002DE9F041044600690D4620272368012800
:105860004FF4004604F2C44203EB4511D3F840C0A4
:10587000D1F8080B09D0DFF89CE0F4453AD10204D6
:1058800033D500BFC1F8086B40E0234B5FEA007ED0
:1058900004D59C453AD90004F4D437E05FEA806E21
:1058A00002D5C1F8087B31E010F0280F2ED19C45BD
:1058B00001D90004E6D4D1F8101B05EBC50004EBB8
:1058C0008000C1F31201D0F89832A3EB0101C0F8B7
:1058D0009C1200F51F70ADB983691BB102691144B8
:1058E00001610FE0206801210AE080060AD5C1F8B5
:1058F000087B07E035B9D4F8940218B9002118469E
:1059000002F02EF92046E9B2FDF753F80020BDE879
:10591000F08100000A31544F0A30544F2DE9F84FFE
:105920000E460568814601EBC60100EB8104626DFD
:10593000E06D3C34904202D90120BDE8F88FE16867
:10594000101A814200D20846C01C05EB4618870891
:105950001BE000BFE268A0EB010A524500D292466C
:1059600099F810100AF1030000911FFA8AF32169D7
:1059700087082846F2B202F011FC216901EB0A0007
:105980002061216A01EB0A002062D8F8180980B270
:10599000B84205D3216AA069814201D20028D9D139
:1059A000216AA069884208D8D5F83418012006F089
:1059B0000F0290408143C5F834180020BDE77047BE
:1059C0002DE9F047454D044689464FF0000A286806
:1059D000C04380070AD0414E283E306820F08060E6
:1059E0003060FCF7E5FE0746B04608E00120BDE860
:1059F000F08700BFFCF7DCFEC01B022867D8D8F890
:105A000000000001F6D4206829684FF4FE0721F455
:105A10007C313E0241EA00302860207AA389B4F844
:105A200004C040022D4D2D495B1E227CACF1010CBF
:105A30001035091DA0F5007080B2521ECCF3080C81
:105A400007EA034340EA0C00184306EA02621043E7
:105A500028600868626920F0C000104308600A6886
:105A6000A06922F0200202430A60281D0A6822F081
:105A700010020A6002684FF6F873E4699A4342EA3A
:105A8000C40202600868B9F1000F40F010020A6019
:105A900011D00868B9F1010F11D040F4001008606E
:105AA000D8F80000444640F08060C8F80000FCF7D9
:105AB0007FFE05460DE0086840F40020EFE740F463
:105AC0008010ECE7FCF774FE401B022801D903208C
:105AD0008DE720680001F5D5504688E72844025834
