:020000040800F2
:10000000500F00244D0300087B4400080D410008F8
:1000100079440008150E0008135100080000000084
:10002000000000000000000000000000BF470008C2
:1000300031100008000000007D4400080948000855
:1000400067030008670300086703000867030008E8
:1000500067030008670300086703000867030008D8
:10006000670300086703000867030008170E00080D
:1000700067030008670300086703000867030008B8
:100080006703000867030008ED0D00086703000818
:100090006703000867030008670300086703000898
:1000A0006703000867030008670300086703000888
:1000B0006703000867030008670300086703000878
:1000C0006703000867030008670300086703000868
:1000D0006703000867030008670300086703000858
:1000E0006703000867030008670300086703000848
:1000F0006703000867030008670300086703000838
:100100006703000867030008670300086703000827
:100110006703000867030008670300086703000817
:100120006703000867030008670300086703000807
:1001300067030008000000000000000067030008DB
:1001400067030008670300086703000867030008E7
:1001500067030008670300086703000867030008D7
:1001600067030008670300086703000867030008C7
:100170006703000867030008670300080000000029
:1001800067030008670300086703000867030008A7
:100190006703000867030008670300086703000897
:1001A0006703000867030008670300086703000887
:1001B0006703000867030008670300086703000877
:1001C000670300086703000800000000000000004B
:1001D00000000000000000006703000800000000AD
:1001E000000000000000000000000000000000000F
:1001F000000000000000000067030008670300081B
:100200006703000867030008000000006703000898
:10021000670300087D4900086703000867030008BA
:100220006703000867030008670300080000000078
:100230006703000867030008000000006703000868
:1002400067030008670300086703000867030008E6
:1002500067030008670300086703000867030008D6
:1002600067030008670300086703000867030008C6
:100270006703000867030008670300080000000028
:100280006703000867030008000000006703000818
:10029000000000006703000867030008000000007A
:1002A00000000000670300086703000800F002F880
:1002B00000F03CF80AA090E8000C82448344AAF1C4
:1002C0000107DA4501D100F031F8AFF2090EBAE8C2
:1002D0000F0013F0010F18BFFB1A43F0010318477A
:1002E000505C0000705C0000103A24BF78C878C1F0
:1002F000FAD8520724BF30C830C144BF04680C602C
:10030000704700000023002400250026103A28BF73
:1003100078C1FBD8520728BF30C148BF0B60704777
:100320001FB505F01DFD1FBD10B510BD00F0E2F8B2
:100330001146FFF7F5FF05F0FFFB00F000F903B4ED
:10034000FFF7F2FF03BC00F001F900000948804705
:1003500009480047FEE7FEE7FEE7FEE7FEE7FEE7A7
:10036000FEE7FEE7FEE7FEE704480549054A064BBF
:1003700070470000BD480008AD0200085007002487
:10038000500F0024500B0024500B002453EA020CA1
:1003900000F069802DE9F04B4FF00006002B1FBFE5
:1003A000B3FA83F503FA05F424FA05F65E4012BFAA
:1003B0001643B2FA82F502FA05F4C5F120051EBF14
:1003C00022FA05FC44EA0C04203556EA044C4FEAB4
:1003D000144418BF641C4FF000084FF0000990420D
:1003E00071EB030C39D3002919BFB1FA81F701FA77
:1003F00007F6B0FA80F700FA07F6C7F120071EBF2C
:1004000020FA07FC46EA0C062037B6FBF4FCA7EB03
:100410000507103F07F01F0BCBF120060CFA0BFB72
:100420002CFA06F644BFB3460026202FA4BF5E4632
:100430004FF0000B5BEA060C08BF4FF0010B19EB05
:100440000B09ABFB027C48EB0608C01B06FB02CC89
:100450000BFB03CC71EB0C01C1E70B460246414696
:100460004846BDE8F08B13B54FF000004FF0000197
:10047000AFF30080BDE81C4070474FF0000200B5AC
:10048000134694469646203922BFA0E80C50A0E8B7
:100490000C50B1F12001BFF4F7AF090728BFA0E865
:1004A0000C5048BF0CC05DF804EB890028BF40F831
:1004B000042B08BF704748BF20F8022B11F0804F73
:1004C00018BF00F8012B704770477047704710B590
:1004D00000F008F8006810BD10B5044600F002F8FE
:1004E000046010BD00487047F006002400487047C3
:1004F000F00600247546FFF7F9FFAE460500694691
:10050000534620F00700854618B020B5FFF72CFFB2
:10051000BDE820404FF000064FF000074FF0000804
:100520004FF0000B21F00701AC46ACE8C009ACE885
:10053000C009ACE8C009ACE8C0098D467047044664
:10054000AFF300802046FFF7FAFE000001491820B3
:10055000ABBEFEE72600020070472DE9F14F82B0E6
:100560004FF000090298B0F8740400900298B0F8B7
:1005700076B4B0F878544FF08070029A009942F83F
:10058000291000FA09FA4AEA010040F440010298F1
:1005900000F006FB029809EB490200EB8207C7F85E
:1005A00000B14AEA0B08029848F49A0107F58077EF
:1005B00000F0F6FA7D604AEA0504029844F40D0161
:1005C00000F0EEFA0298C9EB091100EB8106C6F8BB
:1005D00010B048F49001029800F0E2FA756144F41A
:1005E0000801029800F0DCFAC6F81CB048F4920149
:1005F000029800F0D5FA356244F40901029800F03F
:10060000CFFAC6F828B048F49401029800F0C8FA6E
:10061000F56244F40A01029800F0C2FAC6F834B058
:1006200048F49601029800F0BBFAB56344F40B015C
:10063000029800F0B5FAC6F840B048F49801029864
:1006400000F0AEFA756444F40C01029800F0A8FAC8
:100650004FF2CF363E634AEA0608029848F4A801F2
:1006600000F09EFA49F2704179634AEA010040F4D1
:100670001401029800F094FA3E6648F4AA01029828
:1006800000F08EFA7D6644F41501029800F088FAB5
:10069000C7F8906048F4B801029800F081FA47F278
:1006A000F851C7F894104AEA010040F41C0102987E
:1006B00000F076FAC7F8C06048F4BA01029800F07A
:1006C0006FFAC7F8C45044F41D01029800F068FAAC
:1006D00009F10109B9F1040FFFF64DAF0020BDE8A3
:1006E000FE8F00007FB582B005469DF8300000F017
:1006F00007008DF830009DF83000C5F840049DF8E3
:100700003010284604F05CF8BDF82800BDF82C1025
:10071000884201D3012000E00020BDF81010BDF890
:100720001420914201D3012100E00021084303D0AD
:100730004FF0FF3006B070BDBDF828100398084395
:1007400040F45501284600F02BFABDF82C10039810
:10075000084340F45D01284600F022FABDF810106D
:100760000398084340F45401284600F019FABDF8F4
:1007700014100398084340F45C01284600F010FA76
:100780005FF000064FF08074039804FA06F101420E
:1007900021D005EB8600D0F8580420F070600843A3
:1007A00040F4007000900246284600F07BF9BDF846
:1007B000281006EB460005EB8000C0F86811BDF874
:1007C0002C10C0F8C811BDF81010C0F83811BDF8D1
:1007D0001410C0F89811761C042ED5DB5FF00006CB
:1007E000039804FA06F101420DD005EB8600D0F81B
:1007F000580420F07060084340F4007000900246F6
:10080000284600F04FF9761C042EE9DB002091E722
:1008100037B504462DED040B2DED108B84B09DF8FB
:10082000680000F007008DF868009DF86800C4F8C3
:1008300040049DF86810204603F0C2FF9DED160AA3
:10084000B1EE02AB04F58065B7EEC02A95ED1C0A47
:10085000B7EEC09A82EE0A1BB0EE000B81EE09DB08
:10086000B3EE001B04F080FC9DED171AB7EEC11A21
:100870009FED428B9FED43BB9FED44CB81EE0A2B56
:10088000B0EE481B0DEE001B82EE09EB8BFE410B18
:100890008CFE00DBB3EE001BB0EE000B04F064FC3A
:1008A000D5ED1F1ACDED001AF1EE041ACDED011AA7
:1008B0009DED141ADDED001A21EE211ADDED011A6D
:1008C00021EE211AB7EEC11A81EE0A2BB0EE481BB9
:1008D0000EEE001B8BFE410B82EE09FBB3EE001BFC
:1008E0008CFE00EBB0EE000B04F03EFC9DED151A03
:1008F000DDED001A21EE211ADDED011A21EE211A9B
:10090000B7EEC12A82EE0A1B81EE09ABB0EE481B9E
:100910000FEE001B8BFE410B8CFE009BB3EE001B09
:10092000B0EE000B04F020FCBCEECE1B9DF868205E
:10093000FCEECD1B0AEE008B11EE100A11EE901AA0
:1009400080B289B28BFE480B8CFE000BCDE9001003
:100950000292BCEEC00BFCEEC90B10EE101A8BB26B
:10096000199910EE900A82B22046FFF7BBFE04B040
:100970000020BDEC108B07B030BD0000000000006F
:100980000000E04000000000E0FFEF400000000039
:10099000000000002DE9F041D0F840344FF080769F
:1009A00008331B0443F440045FF0000306FA03F528
:1009B0000D420AD0D0F84054C3EB031700EB870771
:1009C00005EB450507EB8505AA615B1C042BEDDBF8
:1009D0002143114300F0E4F80020BDE8F08100005D
:1009E00073B500F580640546B1EE042B2DED020BC6
:1009F000B1EE021B2DED028B94ED1F0A9DED024B13
:100A0000D4ED1C0AB7EEC03AB7EEE00A24EE033B81
:100A100023EE023B83EE012BB3EE001B82EE008B34
:100A2000B0EE000B04F0A0FB9FED0C1B9FED0D3B07
:100A30009FED0E2B08EE001B83FE410B82FE000B88
:100A40000599BCEEC00B10EE100A82B22846FFF7E3
:100A5000A1FFBDEC028B04B0002070BD00000000BF
:100A60000000E04000000000E0FFEF400000000058
:100A70000000000070B500234FF0807505FA03F404
:100A80000C4205D003EB430400EB8404C4F80821B6
:100A90005B1C042BF2DB114341F44D0100F080F8A4
:100AA000002070BD37B50199B1B100214FF08073BE
:100AB000019C03FA01F2224204D000EB8104029A65
:100AC000C4F85824491C0429F2DBDDE90112114362
:100AD00000F066F800203EBD4FF0FF303EBD13B57C
:100AE0000199C0F85414019900F05AF800201CBD77
:100AF0002DE9F84302F007050F460646C0F84054BA
:100B00004FF40042FFF746FF2946304603F058FEF7
:100B1000DFF83C905FF000044FF0807808FA04F1B1
:100B200039420ED006EB8402D2F85824304602F443
:100B300078620A4342EAC53242EA09020092FFF7AC
:100B4000B1FF641C042CE9DB0020BDE8F883000041
:100B500000302800F3B581B006464FF400420299F8
:100B6000FFF788FF0D4F00244FF08075029805FABB
:100B700004F101420CD006EB8400D0F8580420F0B8
:100B8000706008433843009002463046FFF78AFF02
:100B9000641C042CEADB0020FEBD000000203800AD
:100BA00073B50C4D002240210446284601F012FA8C
:100BB00000BFD4F8800401224FF47A7301A903F036
:100BC00003F8044600BF01222846402101F002FA42
:100BD00020467CBD0004025810B5C0F880140446BD
:100BE00000F580604AF292414FF2CE3348F2D07263
:100BF00080ED1C0AA4F87414A021A4F876342046D1
:100C0000A4F87824FFF76BFF002220464FF07061B4
:100C1000FFF748FF002010BD10B504462C48D0F85F
:100C2000080310F4403F10D002F03EFB6168B1F5BC
:100C3000803F06D0B1F5003F03D0B1F5403F25D14C
:100C400001E0090C16E0800820E04FF4002001F0DC
:100C5000ADFC61688A03920B18D18A140C2A15D254
:100C6000DFE802F0140606060606060B0D0F111348
:100C7000890C4900B0FBF1F008E0000906E04009EA
:100C800004E0800902E0C00900E0000A11494008C0
:100C9000884204D82068816821F4407108E00E4938
:100CA000884207D82068816821F4407141F480713E
:100CB000816010BD094988422068816804D821F408
:100CC000407141F40071F3E741F44071F0E7000036
:100CD00000200240105E5F0020BCBE0040787D0115
:100CE00070B50446006881688268C1F3400112F063
:100CF000010F28D039BB816801F00D01012914D101
:100D00008168124A1140891C8160216803200860B3
:100D100001F066F9054612E001F062F9401B022875
:100D20000DD920688068C00709D0606D40F01000C0
:100D30006065A06D40F00100A065012070BD2068D5
:100D40008068C007E8D1002070BD0000C0FFFF7FB1
:100D500070B504460068816811F0010F3BD18168CD
:100D60001E4A114228D18168D5432940491C81601F
:100D700001F036F906461A4880681A4A00F01F0149
:100D80002068904201D1184A00E0024682421DD0FC
:100D9000E1B120E0816811F0010F03D181682940A1
:100DA000491C816001F01CF9801B02280ED92068C3
:100DB0000068C043C00709D0606D40F01000606556
:100DC000A06D40F00100A065012070BD20680168A1
:100DD000C943C907DED1002070BD00003F0000807C
:100DE00000230240002102400020024010B5074CC1
:100DF00020680068400704D5204600F091FB0449B4
:100E000008601A202168086010BD00001800002446
:100E1000DC060024FEE77047294A016891423AD077
:100E2000274A1832914236D0254A3032914232D088
:100E3000234A483291422ED0214A603291422AD030
:100E40001F4A7832914226D01D4A9032914222D0D8
:100E50001B4AA83291421ED01A4A91421BD0194A0D
:100E60001832914217D0174A3032914213D0154AA6
:100E7000483291420FD0134A603291420BD0114A4E
:100E80007832914207D00F4A9032914203D00D4AF6
:100E9000A832914211D1CAB21823103AB2FBF3F230
:100EA0006FF30901032A02F00703074AD25CC26507
:100EB00000D9091D81650846704721F0FF01F9E757
:100EC00010000240100402405A5E000830B5224A69
:100ED000012301689142CAB21BD01F4C1434A142B5
:100EE00017D01D4C2834A14213D01B4C3C34A142D6
:100EF0000FD0194C5034A1420BD0174C6434A1428E
:100F000007D0154C7834A14203D0134C8C34A14245
:100F10000CD11421114C083AB2FBF1F10F4A803286
:100F200001F01F0504EB8101AB4010E00C4D1824CB
:100F3000103A0D44B2FBF4F1A82D00D80831094A4B
:100F400001F01F0402EB8101064AA34080326030A9
:100F500080E80E0030BD00000854025800580258C6
:100F6000F0FBFDBF0008024010B50279531E072BAD
:100F70002DD8174C0168A1421BD0154C1434A14246
:100F800017D0134C2834A14213D0114C3C34A14249
:100F90000FD00F4C5034A1420BD00D4C6434A14201
:100FA00007D00B4C7834A14203D0094C8C34A142B9
:100FB00003D10849074C443102E00749064C44314B
:100FC00004EB8202C0E91B2101219940416710BD59
:100FD00008540258FC580258FC08024010B58369B6
:100FE0004FF0C074826A0146002053B1B3F5005F30
:100FF00015D072B1012A0CD0022A0AD0032A09D1D5
:1010000004E01AB1012A06D0022A03D1C96AC90133
:1010100000D5012010BDC96AA142FAD010BD002A36
:10102000F7D0012AF2D0022AF3D0032AF3D010BD60
:10103000704772B6FEE70000F8B500270446154673
:101040000E46009790F8500001280BD0012084F83C
:1010500050002046FFF744FE0100606D04D040F0D0
:1010600010002DE00220F8BD20F4885040F002006E
:101070006065206806F4803205F08043134D1A4302
:1010800083682B401A4342F000428260104A206875
:101090000EE0009B5B1C0093934209D3606D84F8C3
:1010A000507020F0020040F0100060650120F8BD93
:1010B0008368DB0FEDD1606D20F0020040F001008D
:1010C0006065084684F85070F8BD0000C0FFFE3F20
:1010D00000F8C3252DE9F0470E4690F850109AB05D
:1010E000044601294FF0000924D000252C4F01208F
:1010F00084F85000159516952068B8421CD1DFF889
:10110000A480CDF80080404603F009F882462068AC
:1011100003F005F850EA0A0116D0616D4FF001099D
:1011200041F02000C4F85400484684F850501AB0EA
:10113000BDE8F0870220FAE7606D84F8505040F077
:10114000200060650120F2E7174840F61F71326801
:10115000002A826814D0736822F440421A438260E5
:10116000BA68D8F8083002F0010203F001031A430C
:10117000DAD13268B668836832438B431A430DE094
:1011800022F440428260BA68D8F8083002F00102C6
:1011900003F001031A43C7D182688A438260C3E720
:1011A0000020024000210240002302402DE9F84FB8
:1011B0004FF000090446DFF83CA30D46CDF800903F
:1011C0004F4690F85000DFF830B3012807D00126D1
:1011D00084F85060206802F09EFF18B14AE10220B6
:1011E000BDE8F88F21682868CA69030328D090FAFF
:1011F000A0F0B0FA80F000BF00F01F0006FA00F087
:101200000243CA61D5E900124FF00C0C20681F237D
:10121000C1F384610CEA921C02F01F026044934007
:101220009140026B9A430A430263206802F073FF05
:101230008046206802F06BFF58EA000003D074E09B
:10124000C0F38460D8E7AA682968206802F06BFFC1
:101250002068C168C268C906696903D4C2F3820202
:10126000520002E002F01002520891402A69042A5A
:101270002CD000EB82002B68026E03F0F8430B4386
:1012800002F0004119430166697E2268286901293C
:1012900016D0002102EB8000026E22F000420A43C9
:1012A0000266297E20682A6901290CD00021036981
:1012B00002F01F02914023F4F0420A43026134E03D
:1012C0004FF00041E6E74FF40061F0E7016E2A7845
:1012D00001F0F841B1EB826F03D1016E21F00041C2
:1012E000016620682978426E02F0F842B2EB816F05
:1012F00003D1416E21F00041416620682978826E59
:1013000002F0F842B2EB816F03D1816E21F000410F
:10131000816620682978C26E02F0F842B2EB816FD4
:1013200003D1C16E21F00041C1662068816811F0CF
:10133000010F78D150F8C02F2B7BDFF8C0C129688E
:1013400003F018032CFA03FCC1F3130822EA080285
:101350000CEA010C42EA0C0202606948E968814229
:1013600077D1286801031BD090FAA0F1B1FA81F17E
:10137000491C01F01F0109294FEA003131D8002929
:1013800011D090FAA0F1B1FA81F100BF01F1010191
:1013900001F01F0106FA01F608D1C0F3846109E0EB
:1013A000C0F38461E4E7C0F38461EFE790FAA0F151
:1013B000B1FA81F101F1010101F01F0146EA8161F9
:1013C00002D1C0F3846003E090FAA0F0B0FA80F09C
:1013D00000F1010000F01F0000EB400041EA005165
:1013E00033E000290ED090FAA0F1B1FA81F100BFEC
:1013F00001F1010101F01F0106FA01F605D1C0F368
:10140000846106E0C0F38461F2E790FAA0F1B1FADA
:1014100081F101F1010101F01F0146EA816103D16F
:10142000C0F3846004E02AE090FAA0F0B0FA80F003
:10143000344A00F1010000F01F0000EB400002EB15
:10144000005041EA000141F00071AA68206802F0F2
:101450006AFE2B68002B12DA2B488168DAF8082024
:1014600001F0E071DBF8086002F0010506F001060A
:10147000354308D0606D012740F020006065384694
:1014800084F85090ACE6214DAB4218D10D0216D431
:1014900023685B45F3D1826841F4000122F0E072D9
:1014A0000A4382601B491A480968B1FBF0F040000A
:1014B000801C00E0401E00900028FBD1DFE7164DA5
:1014C000AB4207D1CD0105D423685B45D7D141F0AC
:1014D000807109E0114DAB42D1D14B02CFD42368CA
:1014E0005B45CCD141F48001826822F0E0720A436E
:1014F0008260C4E70020024000210240FFFF0F008D
:101500000000FF47000020FE00230240000084CBC3
:10151000400D0300100000240040C0BA0000B8CF06
:101520000068006C70470000F8B54FF0000604003A
:101530003546009602D0606D10B107E00120F8BD7D
:10154000204600F0DDF8A66584F8506020688168C8
:10155000C1F3407119B181685E4A11408160206811
:101560008168C1F3007181B981685B4A114041F023
:10157000805181605A4959480968B1FBF0F0401C1C
:1015800000E0401E00900028FBD120688168C1F374
:10159000007141B9616D012541F010016165A16DD6
:1015A00041F00101A16502F0B6FD616D01F010018D
:1015B0000143606D03D0012540F010006DE020F480
:1015C000807040F0020060652068806810F0010FB4
:1015D00010D144488068444900F00100896801F056
:1015E0000101084306D141488268616822F47C12F7
:1015F0000A438260627D217FA368206B520342EA26
:1016000001421843012940EA020004D1218C384AE2
:1016100002EB41410843616A29B1A26A01F4787181
:10162000014342EA01002268324BD168194001436C
:10163000D160206802F06FFD0646206802F067FD69
:1016400030431DD1206844F20303267DE26AC1685D
:1016500042EA863299431143C16094F83800012868
:101660001ED02068016921F0010101612068626BD0
:10167000016921F07041114301612046FFF7CCFA66
:10168000E068012820681DD0016B21F00F01016383
:10169000606D20F0020040F0010060652846F8BD52
:1016A0002168A38F144FD4E9100C144E07EB0347A5
:1016B000A26C0B6940EA0C003A43334010431843D4
:1016C0000861D3E7A269016B521E21F00F0111439B
:1016D000DDE70000C0FFFF5FC0FFFF7F400D03009C
:1016E000100000240020024000210240002302409C
:1016F0000000FEFF03C0F0FF0100FFFF1EF800FC2A
:101700002DE9F041B4B0804614212EA8FEF7B5FEB5
:10171000B8216846FEF7B1FE3649D8F80000884285
:1017200064D102260325B004012112228DE867004E
:10173000C023059606A800245F0180E8980068464B
:101740002A9401F04BF808B1FFF773FC2A480168AE
:1017500041F020010160006800F02000339026482D
:101760000830016841F004010160016801F00401E2
:101770003391016841F00101016000682EA92E96A5
:1017800000F0010033901D48CDE92F5400F00CFB10
:101790000F203094CDE92E0519482EA900F004FB46
:1017A00019480921174D0215C31428608715C5E98A
:1017B0000114C5E903424FF4403005F11401C5E9B5
:1017C0000804D600284681E8C80000F0DDF808B11A
:1017D000FFF72FFCC8F84C5000220221C5F83880D2
:1017E000122000F075FC122000F064FC34B0BDE85B
:1017F000F0810000002002403845025800080258DD
:101800000000025864060024100002402DE9F04157
:1018100004465948806800F01F05206802F07BFCF0
:1018200018B102221046BDE8F08194F8500001285A
:101830000CD0012084F850002046FFF789FA0200FE
:101840004FF0000304D084F85030EBE70220EAE7C1
:10185000676D40F6016C4949494E27EA0C0720683C
:1018600047F480776765884201D1374600E0074634
:10187000874200D01DB9676D27F480176765676DD3
:10188000FF0404D5A76D27F00607A76500E0A36550
:101890001C27076084F850302068436823F01C033D
:1018A0004360206908282068436802D043F004039D
:1018B00001E043F008034360206B20B920684368CF
:1018C00043F0100343602068884201D1334600E0B2
:1018D000034683420CD05DB1052D09D0092D07D0F8
:1018E000636D884243F48013636525D1314624E05B
:1018F000C168890119D5636D216923F40053082952
:1019000043F480536365416807D021F04001416092
:101910002068416841F0200106E021F0200141608B
:101920002068416841F0400141602068154B8168A2
:101930001940091D816075E70146C968890184D590
:10194000636D216923F40053082943F480536365D0
:10195000416807D021F0400141602068416841F0B2
:10196000200106E021F0200141602068416841F03B
:101970004001416056E70000002302400021024080
:1019800000200240C0FFFF7F2DE9F05F044600F019
:1019900027FB002C07467DD0F14E022120684FF036
:1019A0000308DFF8C0934FF00005DFF8BCA3B04296
:1019B000DFF8B8B334D0EA4A1832904230D0484504
:1019C0002ED050452CD058452AD0E84A18329042A3
:1019D00026D0E64A3032904222D0E44A4832904241
:1019E0001ED0E34A90421BD0E14A1832904217D0F1
:1019F000DF4A3032904213D0DD4A483290420FD055
:101A0000DB4A603290420BD0D94A7832904207D0FC
:101A1000D74A9032904203D0D54AA83290427DD125
:101A200084F83510B04284F834502ED0CC491831A7
:101A300088422AD0484528D0504526D0584524D041
:101A4000CA491831884220D0C849303188421CD058
:101A5000C6494831884218D0C549884215D0C44982
:101A60001831884211D0C249303188420DD0C04966
:101A70004831884209D0BE496031884205D0BC490E
:101A80007831884201D0BA499031016821F00101D2
:101A9000016008E043E100BF00F0A2FAC01B052886
:101AA00001D9202138E120680068C007F4D104F191
:101AB00008002168D4E9053C8E4685C809681043B2
:101AC000D4E907281F43636A3843AA4F40EA0C0051
:101AD0001043394040EA0800042B40EA010003D1DA
:101AE000D4E90B12114308436168A1F12902052AC8
:101AF0000BD9163A032A08D9083A012A05D9083A17
:101B0000032A02D97439032901D840F48010CEF891
:101B100000002068676A4069042F00E01FE020F0A1
:101B2000070047EA00070DD1D4E90A01074349B18C
:101B30002046FFF753FA28B140206065012184F860
:101B40003510ECE0206847612046FFF765F994F80E
:101B50005C203F2102F01F029140816074E0864AC0
:101B600090423AD0844A1432904236D0824A283287
:101B7000904232D0804A3C3290422ED07E4A50323F
:101B800090422AD07C4A6432904226D07A4A7832F7
:101B9000904222D0784A8C3290421ED0774A9042AE
:101BA0001BD0764A1432904217D0744A28329042A1
:101BB00013D0724A3C3290420FD0704A5032904259
:101BC0000BD06E4A6432904207D06C4A7832904211
:101BD00003D06A4A8C3290427ED1684A84F835102C
:101BE00084F83450664B0168A26801EA030E402A6B
:101BF00073D0802A72D00022D4E90378D4E9053169
:101C000042EAD70242EAD8085C4AD4E9077C48EAAB
:101C1000D30848EAD10141EAD701524241EA1C11F6
:101C2000142341EA0E01016020681044B0FBF3F078
:101C30008000E0652046FFF7EFF894F85C20012172
:101C400002F01F02914041602068B04257D04449E1
:101C50001831884253D0484551D050454FD058454F
:101C60004DD042491831884249D0404930318842EC
:101C700045D03E494831884241D03D4988423ED016
:101C80003B49183188423AD039493031884236D000
:101C900037494831884232D03549603188422ED0A8
:101CA0003349783188422AD031499031884226D050
:101CB0002F49A831884222D0304988421FD02F496D
:101CC000143188421BD02D492831884217D02B4926
:101CD0003C31884213D002E01DE017E018E02749AC
:101CE000503188420BD025496431884207D02349BE
:101CF0007831884203D021498C31884229D120464D
:101D0000FFF7E4F8A06880280CD00CE0102273E7FD
:101D10004FF4804270E74021616584F835800120EE
:101D2000BDE8F09F6560216E20790860D4E9190153
:101D300041606068401E072808D82046FFF714F964
:101D4000E06E0560D4E91C01416002E0E5662567AC
:101D500065670120656584F835000020E0E7000034
:101D60001000024040000240580002407000024053
:101D7000100402403F8010FE082C0248085402580C
:101D80000F00FEFF70B5044600F02AF90546601CFE
:101D900002D004480078044400F022F9401BA0421D
:101DA000FAD370BD040000242DE9F84F03247D4DC3
:101DB00000234FF001094FF0B04B4FF00F0AE9E05C
:101DC00009FA03F73A4076D00E7906F00306012EA1
:101DD00001D0022E18D1D0F808C04FEA430ECE68C9
:101DE00004FA0EF82CEA080C06FA0EF646EA0C067F
:101DF0008660D0F804C00E792CEA070CC6F30016F2
:101E00009E4046EA0C0646600E79F643B6070BD0B4
:101E1000C6684FEA43088F6804FA08FC26EA0C06F5
:101E200007FA08F73743C7600E7906F00306022E5B
:101E300012D1DE080F694FEA437C00EB8606B646F6
:101E4000366A4FEADC6C0AFA0CF807FA0CF726EA55
:101E500008063743CEF820700F7906684FEA43082A
:101E600007F0030704FA08FC07FA08F726EA0C064D
:101E7000374307604E6816F4403F1CD04A4E37681F
:101E800047F00207376036689F0706F002060096A3
:101E900023F0030606F1B046B6463F0FD6F80864B5
:101EA000DFF808810AFA07FC404526EA0C0603D150
:101EB0004FF0000C41E06CE0DFF8F4C0604502D167
:101EC0004FF0010C39E0DFF8ECC0604502D14FF073
:101ED000020C32E0DFF8E0C0604502D14FF0030CA5
:101EE0002BE0DFF8D8C0604502D14FF0040C24E0AD
:101EF000DFF8CCC0604502D14FF0050C1DE0DFF8E3
:101F0000C4C0604502D14FF0060C16E0DFF8B8C03F
:101F1000604502D14FF0070C0FE0DFF8B0C060451C
:101F200002D14FF0080C08E0DFF8A4C0604502D1F0
:101F30004FF0090C01E04FF00A0C0CFA07FC4CEAD8
:101F4000060CCEF808C44F68DBF80060FF0226EAF2
:101F5000020600D516435F46CBF80060D1F804C0F6
:101F6000DBF804605FEA8C2C26EA020600D51643F3
:101F70007E606E684F6826EA0206BF0300D51643EE
:101F80006E602E684F6826EA0206FF0300D51643EE
:101F90002E605B1C0A6832FA03F67FF411AFBDE8CD
:101FA000F88F000080000058544502580000025885
:101FB0000004025800080258000C02580010025891
:101FC0000014025800180258001C02580020025841
:101FD000002402580AB1816170470904FBE7000040
:101FE00001488068704700000400002402488168AE
:101FF000027811448160704704000024032010B56A
:1020000000F086F801F096F90F4A10491468136839
:10201000C4F3032203F00F038A5CC95C02F01F02C1
:1020200001F01F01D0400A4A20FA01F1116009496C
:102030000860002000F010F808B1012010BD00F089
:102040002BF8002010BD0000184402588A5E0008DA
:10205000140000241000002470B50D4D04462878AB
:10206000A0B14FF47A71B1FBF0F00A490968B1FBF5
:10207000F0F001F0C0FE48B9102C07D20022214632
:10208000501E00F025F800206C6070BD012070BD6E
:102090000400002410000024054808B5016841F040
:1020A00002010160006800F00200009008BD00001D
:1020B00054450258002809DB410900F01F0289003D
:1020C000012001F1E0219040C1F8000170470000BB
:1020D0000E4BF0B41B680D46C3F30223C3F1070691
:1020E000042E00D90426191D072901D2002300E07F
:1020F000DB1E012404FA06F19C40491E2940641E9F
:10210000994014402143F0BC03F01CB80CED00E0F2
:10211000064900F0070210B54FF6FF040868044BAB
:10212000204040EA02201843086010BD0CED00E09A
:102130000000FA052DE9F0411E4C0546206800F02C
:1021400007000628206804D000F03F00A84228D1EC
:102150002EE020F03F0028432060FFF741FF154F9D
:102160004FF47A780646083F05E000BFFFF738FFD6
:10217000801B404515D83868C0438004F6D41E2D16
:1021800005D02E2D03D01D2D01D02D2D10D1FFF700
:1021900027FF0546464607E0FFF722FF401BB042F7
:1021A00002D90120BDE8F0812068C043C003F3D408
:1021B0000020F7E70C48025810B501F075F8054902
:1021C0000968054AC1F30211515C01F01F01C840C2
:1021D00010BD0000204402588A5E00084A4930B50C
:1021E000494C0B1D0A680C3409681D68246802F00C
:1021F000030305F00102C1F30511C4F3CC04002967
:1022000014FB02F200EE102AF8EE400A76D0414AA2
:102210009FED3E1ADFED3E1AB7EE000A23B1012B07
:102220005AD0022B18D15CE0374C283C23689B061F
:1022300012D5394B246801EE901A1168C4F3C10419
:10224000F8EE612AE34001EE903AC1F30801F8EE9E
:10225000611A81EEA22A07E002EE101A1168F8EE68
:10226000422A81EEA22A45E001EE901A1168F8EEAA
:10227000611A40EE811A71EE800A62EE200AC1F303
:10228000462101EE101AB8EE411A31EE001AC0EEE6
:10229000811ABCEEE11A80ED001A1168C1F3064103
:1022A00001EE101AB8EE411A31EE001AC0EE811A92
:1022B000BCEEE11A80ED011A1168C1F3066101EE6E
:1022C000101AB8EE411A31EE000A80EE801ABCEE08
:1022D000C10A80ED020A30BD01EE901ADFED0F2A2F
:1022E00003E001EE901ADFED0E2A1168F8EE611A94
:1022F00082EEA12AC1F30801B6E7FFE700210160E1
:102300004160816030BD000028440258000000395F
:102310000024744C304402580090D0030024744AC6
:102320000024F44A494930B5484C0B1D0A6814345E
:1023300009681D68246802F00303C5F30012C1F3A5
:102340000531C4F3CC04002914FB02F200EE102A7C
:10235000F8EE400A75D03F4A9FED3D1AB7EE000AED
:102360006BB1DFED3D1A012B01D0022B64D002EEE0
:10237000101A1168F8EE422A81EEA22A21E0334CAD
:10238000283C23689B0612D5344B246801EE901A32
:102390001168C4F3C104F8EE612AE34001EE903AFB
:1023A000C1F30801F8EE611A81EEA22A0BE001EEFA
:1023B000901ADFED2B2A00BFF8EE611A116882EE49
:1023C000A12AC1F3080101EE901A1168F8EE611A12
:1023D00040EE811A71EE800A62EE200AC1F34621B6
:1023E00001EE101AB8EE411A31EE001AC0EE811A51
:1023F000BCEEE11A80ED001A1168C1F3064101EE4E
:10240000101AB8EE411A31EE001AC0EE811ABCEE75
:10241000E11A80ED011A1168C1F3066101EE101A8C
:10242000B8EE411A31EE000A80EE801ABCEEC10A05
:1024300080ED020A30BD04E001EE901ADFED092ABA
:10244000BAE70021016041608160F3E72844025847
:1024500000000039384402580024744A0090D00328
:102460000024744C0024F44A494930B5484C0B1DF3
:102470000A681C3409681D68246802F00303C5F368
:102480000022C1F30551C4F3CC04002914FB02F26D
:1024900000EE102AF8EE400A75D03F4A9FED3D1A33
:1024A000B7EE000A6BB1DFED3D1A012B01D0022B14
:1024B00064D002EE101A1168F8EE422A81EEA22AC8
:1024C00021E0334C283C23689B0612D5344B24680A
:1024D00001EE901A1168C4F3C104F8EE612AE340DA
:1024E00001EE903AC1F30801F8EE611A81EEA22ADA
:1024F0000BE001EE901ADFED2B2A00BFF8EE611A17
:10250000116882EEA12AC1F3080101EE901A116848
:10251000F8EE611A40EE811A71EE800A62EE200A2E
:10252000C1F3462101EE101AB8EE411A31EE001A3D
:10253000C0EE811ABCEEE11A80ED001A1168C1F3F9
:10254000064101EE101AB8EE411A31EE001AC0EE43
:10255000811ABCEEE11A80ED011A1168C1F306611F
:1025600001EE101AB8EE411A31EE000A80EE801A20
:10257000BCEEC10A80ED020A30BD04E001EE901A03
:10258000DFED092ABAE70021016041608160F3E7CD
:102590002844025800000039404402580024744A7C
:1025A0000090D0030024744C0024F44A2DE9F04F2D
:1025B000864A4FF48079DFF810824845844E89B00E
:1025C0008449A8F104054FF080574FEA22144FF0D8
:1025D000005C4FEAE2032ED1D8F8000000F00700BB
:1025E000052824D2DFE800F0EC9A6A25910003A8C0
:1025F000FFF7F4FD049809B0BDE8F08F6846FFF7D7
:1026000091FE0098F7E706A8FFF72EFF0698F2E77D
:102610000868C0F3C10022FA00F0ECE70A68D205AE
:1026200068D5B84266D12046E5E71846E3E70020C2
:10263000E1E73046DFE74FF4007A504510D1D8F893
:10264000000000F4E070802838D004DC002850D06E
:102650004028ECD162E0C028EBD04845E7D154E0F7
:102660004FF48069484511D1D8F8000000F460604B
:10267000484523D003DCE0B35045D8D14EE0B0F557
:10268000C06FD6D0B0F5006FD1D13EE04FF4805985
:1026900048454FF4804B15D1D8F8000000F4E040D5
:1026A000B0F5005F0AD003DC18B34845BFD135E070
:1026B000B0F5405FBDD05845B9D126E0086880002C
:1026C000B5D5A0E7DFF81091B0F5002F4FF4803AB0
:1026D00011D0504534D1286810F4803070D0504566
:1026E000A5D108680001A2D56846FFF71BFE029835
:1026F00081E765E01EE0D9F8000010F440300DD00D
:1027000050450FD0B0F5003F91D128680D6800F01A
:1027100040506D0782D5002880D179E70868000114
:1027200085D56BE70868800081D506A8FFF79CFE79
:10273000089860E709688903C2D5604589D174E7C4
:10274000584529D1D9F8000000F0E04030F070453C
:1027500084D100170728BFF46AAFDFE800F005292D
:102760000D15192D040064E7FFF726FD43E76846C1
:10277000FFF7D8FD01983EE708688000A0D506A8BD
:10278000FFF772FE079836E70868400798D53FE7DD
:102790000868C00594D546E7B0F5004F86D1D8F853
:1027A000000010F0405007D0B84209D0604597D1E2
:1027B00008680001DBD43AE708688003FBD534E7FA
:1027C00008688001F7D512E7504402580090D00302
:1027D0000080BB0000440258584402582DE9FC5FB9
:1027E000044650F8241B002500902E460801FE4F99
:1027F000DFF8F8831DD5A06E50B1B0F5801F0CD066
:10280000B0F5001F0ED0B0F5401F1DD001250FE020
:10281000386840F40030386016E00221201D01F0D5
:102820002FFE03E00098022101F0BAFE05000BD054
:102830002E462088C00523D5606D05281ED2DFE80E
:1028400000F00C11161B1B00A26ED8F8001021F42A
:1028500040111143C8F80010EBE7386840F400302D
:10286000386009E00021201D01F00AFE03E0009815
:10287000002101F095FE05467DB100E001252E46C0
:10288000208880052BD5A06DC02826D00EDCA8B1ED
:10289000402818D080280FD11AE0626DD8F80010B7
:1028A00021F007011143C8F80010E9E7B0F5807F77
:1028B00013D0B0F5A07F10D001250FE0386840F4A8
:1028C0000030386009E00021201D01F0D9FD03E04F
:1028D0000098002101F064FE054685B12E4620884F
:1028E00040052ED5E06DB0F5C06F28D010DCB8B132
:1028F000B0F5007F19D0B0F5806F0FD11AE0A26D4E
:10290000D8F8001021F4E0711143C8F80010E6E790
:10291000B0F5006F13D0B0F5206F10D001250FE097
:10292000386840F40030386009E00021201D01F0D3
:10293000A7FD03E00098002101F032FE05468DB1AD
:102940002E462068DFF8A4B28001ABF1040B1ED53F
:10295000A06CD0B110280ED0202811D0302814D06F
:10296000012513E0E26DD8F8001021F460611143F5
:10297000C8F80010E5E7386840F40030386004E03B
:102980000221201D01F07CFD05466DB12E462088F8
:10299000C0042BD5206EB0F5005F20D00DDCA0B1B7
:1029A000B0F5805F0FD115E0A26CDBF8001021F0CC
:1029B00030011143CBF80010E9E7B0F5405F13D0C8
:1029C000B0F5804F10D001250FE0386840F400309A
:1029D000386009E00021201D01F052FD03E000985D
:1029E000002101F0DDFD054685B12E4620888004DA
:1029F00029D5606EB0F5403F23D010DC08B3B0F5A8
:102A0000803F14D0B0F5003F0FD115E0226ED8F80A
:102A1000001021F4E0411143C8F80010E6E7B0F5DA
:102A2000802F0ED0B0F5A02F0BD001250AE0012198
:102A3000201D01F025FD03E00098012101F0B0FD0B
:102A400005466DB12E462088DFF8A0A140040AF1AA
:102A5000080A25D5D4F8AC0030F0704109D01DE04B
:102A6000626ED8F8001021F4E0211143C8F800107C
:102A7000E9E70017072811D2DFE800F00E04090E7D
:102A80000E0E0E000121201D01F0FAFC03E000985B
:102A9000012101F085FD05467DB100E001252E46AE
:102AA000208800041FD5606FD8B1B0F1805F0ED0D0
:102AB000B0F1005F10D0012514E0D4F8AC20DAF8B2
:102AC000001021F0E0411143CAF80010E8E738682F
:102AD00040F40030386004E00121201D01F0D0FCFA
:102AE00005466DB12E462068C0011ED5606CD0B180
:102AF00001280ED0022811D0032814D0012513E09C
:102B0000626FD8F8001021F040511143C8F800104E
:102B1000E9E7386840F40030386004E00221201D05
:102B200001F0AEFC054665B12E46206840024FD547
:102B30002F48016841F480710160FFF751FA814626
:102B40000EE0626CDBF8001021F003011143CBF8BA
:102B50000010EAE7FFF744FAA0EB0900642835D833
:102B600023480068C005F5D58DBBDFF88090B4F828
:102B7000B01009F12009D9F8000001F4407100F407
:102B80004070884211D0D9F80010D9F8002021F403
:102B9000407142F48032C9F80020D9F8002022F4B4
:102BA0008032C9F80020C9F80010D4F8B000B0F5A0
:102BB000807F2AD1FFF714FA019022E0FFF710FA84
:102BC0000199411A41F2883081421AD903252E46D3
:102BD0002078DFF81890C00709F1040945D0D4F82F
:102BE000800018283FD005E02C4402585044025879
:102BF0000048025826DC80B3082829D0102825D1A7
:102C00002CE0D9F800008007D8D5D4F8B010C1F373
:102C100001200328FE480DD0016821F47C51016099
:102C2000B4F8B020D9F80010C2F30B021143C9F870
:102C30000010CDE7F74A036802EA111223F47C5131
:102C40001143ECE720280ED028280CD001250BE0FA
:102C50000121201D01F014FC04E004E00098012192
:102C600001F09EFC05465DB12E46207880071FD5F9
:102C7000E06F06281AD2DFE800F0170D12171717B9
:102C8000D4F88020D9F8001021F038011143C9F898
:102C90000010EAE70121201D01F0F2FB03E000989B
:102CA000012101F07DFC054675B100E001252E46AD
:102CB000207840071FD5D4F89800062819D2DFE8FD
:102CC00000F0160C11161616E26FD9F8001021F05C
:102CD00007011143C9F80010EAE70121201D01F0A6
:102CE000CFFB03E00098012101F05AFC05469DB19D
:102CF00000E001252E46207880062BD5D4F89400DC
:102D0000B0F1405F24D011DC10B3B0F1805F15D07A
:102D1000B0F1005F10D116E0D4F89820DAF8001076
:102D200021F007011143CAF80010E4E7B0F1804F29
:102D30000ED0B0F1A04F0BD001250AE00021201DDC
:102D400001F09EFB03E00098022101F029FC0546FA
:102D50008DB12E46207840062BD5D4F8A000B0F5D2
:102D6000406F24D011DC10B3B0F5806F15D0B0F5F2
:102D7000006F10D116E0D4F89420D9F8001021F09B
:102D8000E0411143C9F80010E4E7B0F5805F0ED0D0
:102D9000B0F5A05F0BD001250AE00021201D01F055
:102DA0006FFB03E00098022101F0FAFB05468DB1AC
:102DB0002E46207800062BD5D4F8A400B0F5C04FDD
:102DC00024D011DC10B3B0F5005F15D0B0F5804F02
:102DD00010D116E0D4F8A020DAF8001021F4E05168
:102DE0001143CAF80010E4E7B0F5004F0ED0B0F57B
:102DF000204F0BD001250AE00021201D01F040FBEF
:102E000003E00098022101F0CBFB05464DB12E46B0
:102E1000207800071ED5D4F88800B0F5805F0AD06E
:102E20000FE0D4F8A420DAF8001021F46041114337
:102E3000CAF80010ECE70098022101F0B1FB00B1E4
:102E40000126D4F88820D9F8001021F4405111430C
:102E5000C9F800102078C00613D5D4F89C00B0F54E
:102E6000807F05D10098022101F09AFB00B1012674
:102E7000D4F89C20DAF8001021F440711143CAF80C
:102E800000102068000316D5D4F8A80038B1B0F5BA
:102E9000803F09D0B0F5003F0BD001250AE00021AA
:102EA000201D01F0EDFA03E00098022101F078FB0B
:102EB000054685B12E462068400322D5D4F88C0003
:102EC000B0F5801F11D0B0F5001F13D0B0F5401F32
:102ED00015D0012514E0D4F8A820DAF8001021F468
:102EE00040311143CAF80010E5E7386840F400307B
:102EF000386004E00098012101F052FB054655B10D
:102F00002E462068C0031CD5E06C70B1B0F5803F40
:102F100010D0012514E0D4F88C20D9F8001021F449
:102F200040111143C9F80010EBE7386840F4003055
:102F3000386004E00221201D01F0A2FA0546D5B157
:102F40002E462068800005D50098022101F028FB5C
:102F500000B10126206880031CD5D4F88400B8B1E4
:102F6000B0F5807F10D0B0F5007F11D0B0F5407F74
:102F70000ED001250DE0E26CDBF8001021F4803169
:102F80001143CBF80010DCE7386840F400303860BB
:102F9000E5B32E462068C00207D5A26FD8F800100E
:102FA00021F000411143C8F800102068800207D5C5
:102FB000E26ED8F8001021F080711143C8F80010BB
:102FC0002088000507D5226FDAF8001021F0006193
:102FD0001143CAF800102068400009D50C48016868
:102FE00021F4004101600168D4F8B420114301606C
:102FF0002068002807DA226DDBF8001021F040512C
:103000001143CBF800102068000205E012E0000038
:1030100010440258CFFFFF0008D5D4F89020D9F80B
:10302000001021F440011143C9F8001066B10120DD
:10303000BDE8FC9FD4F88420D9F8001021F4407139
:103040001143C9F80010A5E70020F1E72DE9F05F72
:1030500004000F467ED0DFF83882D8F8000000F078
:103060000F00B8420CD2D8F8001021F00F013943FC
:10307000C8F80010D8F8000000F00F00B84269D17D
:103080002078844D40070AD52069296801F0700135
:10309000884204D9296821F0700101432960207811
:1030A0007C4E361D00070AD56069316801F0700159
:1030B000884204D9316821F07001014331602078E1
:1030C000C0060AD5A069316801F4E061884204D9DC
:1030D000316821F4E061014331602078DFF8B4B158
:1030E00080060BF1080B0CD5E1695846DBF800208F
:1030F00002F07002914204D9026822F070020A4381
:103100000260207880070AD5E068296801F00F0185
:10311000884204D9296821F00F01014329602078F1
:10312000C0073ED05B49A2682868183920F4706057
:10313000104328606068022818D0032819D0096855
:10314000012819D0490700294ADADFF848A1AAF175
:10315000080A00E044E0DAF8002022F00702024307
:10316000CAF80020FEF73CFF814612E00968890397
:10317000E9E709688901E6E7C905E4E7FEF730FFFA
:10318000A0EB090141F28830814202D90320BDE859
:10319000F09F6168DAF8000000F03800B0EBC10F72
:1031A000ECD1207880070AD5E068296801F00F018A
:1031B000884204D2296821F00F0101432960D8F820
:1031C0000010404601F00F01B9420BD9016821F00F
:1031D0000F0139430160006800F00F00B84201D0D0
:1031E0000120D4E7207840070AD52069296801F03A
:1031F0007001884204D2296821F0700101432960DE
:10320000207800070AD56069316801F070018842B2
:1032100004D2316821F07001014331602078C0068A
:103220000AD5A069316801F4E061884204D23168AE
:1032300021F4E06101433160207880060CD5E1691A
:103240005846DBF8002002F07002914204D2026876
:1032500022F070020A43026000F06CF80E492A68FE
:103260002B68C2F3032203F00F038A5CC95C02F0EF
:103270001F0201F01F01D040084A20FA01F111603D
:103280000749086007480068BDE8F05FFEF7E4BE44
:1032900000200052184402588A5E000814000024DE
:1032A000100000240800002430B500F043F80B4A59
:1032B0000B490C4B15681468C5F3032204F00F0486
:1032C0008A5C095D02F01F0201F01F01D040064A2E
:1032D00020FA01F119601060084630BD1844025808
:1032E0008A5E0008140000241000002400B5FFF7D7
:1032F000DBFF05490968054AC1F30211515C01F081
:103300001F01C84000BD00001C4402588A5E00082E
:1033100000B5FFF7C9FF05490968054AC1F3022155
:10332000515C01F01F01C84000BD00001C44025860
:103330008A5E0008454970B545480968434B103B13
:1033400011F0380208D00111082A03D0102A0BD03E
:10335000182A0BD0084670BD19688906FBD5196874
:10336000C1F3C101C84070BD3A4870BD3749374DFF
:1033700018310C1D24350A68096826682D6802F08A
:10338000030406F00102C1F30511C5F3CC0515FBDA
:1033900002F200EE102AB8EE400AE9B32F4ADFED40
:1033A0002E0AB7EE001A6CB1DFED2D1A012C01D0F8
:1033B000022C43D002EE101A1068F8EE422A81EE79
:1033C000A22A1EE01C68A40611D51B6801EE901A03
:1033D0001168C3F3C103F8EE612AD84001EE900AE8
:1033E000C1F30800F8EE611A81EEA22A0BE001EEAB
:1033F000901ADFED1C2A00BFF8EE611A106882EE09
:10340000A12AC0F3080001EE900AF8EE611A40EE1E
:10341000201A31EE810A00E015E022EE000A106861
:10342000C0F34620401C00EE900AF8EE600A80EEE1
:10343000201ABCEEC10A10EE100A70BD01EE901AFF
:10344000DFED092AD8E7002070BD000010440258C3
:103450000090D00300127A00000000393044025876
:103460000024744A0024744C0024F44A2DE9F047E7
:1034700004007DD0F84F2078F74D1837DFF8D88357
:10348000103DC00766D0D8F80000396800F0380059
:10349000102822D0182803D101F0030002281CD0E4
:1034A0006068B0F5803F1FD010B3B0F5A02F2BD0CF
:1034B000B0F5A81F28682FD020F480302860286835
:1034C00020F480202860286820F48010286060683C
:1034D00098B3FEF785FD06462BE02868800339D5B2
:1034E00060680028C5D035E0286840F48030EDE7FA
:1034F000286820F480302860286820F48010286034
:10350000286820F48020E1E7286840F480202860C3
:10351000286820F4801005E040F4802028602868A6
:1035200040F480102860DFE7FEF75AFD801B642816
:103530007ED828688003F7D50CE0FFE7FEF750FD42
:10354000064604E0FEF74CFD801B6428F0D828688E
:103550008003F7D42078800756D5D8F80000DFF82C
:10356000F892396810F03800A9F10C0910D000E089
:10357000F0E0182801D188070AD0E06898B32968DC
:1035800021F0190101432960FEF72AFD064626E0D5
:103590002868400702D5E0680028A3D0E1682868C1
:1035A00020F0190008432860FEF71AFD064604E0E3
:1035B000FEF716FD801B0228BAD828684007F7D509
:1035C000217CD9F8002022F0FE4242EA0161C9F8CC
:1035D000001019E0FEF704FD801B0228A8D8286817
:1035E0004007F7D5ECE7FFE7286820F001002860E6
:1035F000FEF7F6FC064604E0FEF7F2FC801B02280C
:1036000096D828684007F7D42078C00646D5D8F861
:103610000000DFF84492396800F03800A9F104098D
:10362000082812D0182805D101F00300012800E075
:10363000ECE00AD0E0690028286820D040F0800043
:103640002860FEF7CDFC064615E02868C00502D5C7
:10365000E06980287ED194F82010D9F8002022F06B
:103660007C5242EA0161C9F8001017E0FEF7B8FC8D
:10367000801B0228A0D82868C005F7D5EBE720F00A
:1036800080002860FEF7ACFC064604E0FEF7A8FCCC
:10369000801B022890D82868C005F7D4207800073E
:1036A00029D56D486169643000298146016811D0CF
:1036B00041F001010160FEF793FC064605E000BF02
:1036C000FEF78EFC801B022888D8D9F800008007FE
:1036D000F6D510E021F001010160FEF781FC0646FD
:1036E00005E000BFFEF77CFC801B022888D8D9F8D3
:1036F00000008007F6D42078800623D5A069002832
:10370000286810D040F480502860FEF769FC064617
:1037100005E000BFFEF764FC801B022876D828680D
:103720008004F7D50EE020F480502860FEF758FCA6
:10373000064604E0FEF754FC801B022866D8286881
:103740008004F7D4207840076FD5DFF81091D9F8BE
:10375000001000E02BE141F48071C9F80010FEF781
:103760003FFC064605E000BFFEF73AFC801B6428DC
:103770004CD8D9F80000C005F6D5374EA0686036A1
:10378000012818D0D8B1052825D0852830682AD03E
:1037900020F001003060306820F0040030603068B4
:1037A00020F080003060A06841F2883A78B3FEF7DC
:1037B00017FC814626E0306840F00100F2E73068EF
:1037C00020F001003060306820F080003060306808
:1037D00020F00400E6E7306840F004003060306814
:1037E00020F0800005E040F004003060306840F0D8
:1037F00080003060DFE700BFFEF7F2FBA0EB0901BD
:10380000514503D830688007F6D50EE088E0FFE721
:10381000FEF7E6FB814605E0FEF7E2FBA0EB0901BF
:1038200051457DD830688007F6D4606AF0B34146D0
:10383000DFF8248008F120080968C1F3C2010329D8
:103840006FD00228286820F08070286008D0FEF72A
:10385000C7FB044680E000001044025800480258AC
:10386000FEF7BEFB064604E0FEF7BAFB801B02280B
:103870006FD828688001F7D4E26A40F2F3313868E3
:1038800054F8283F884340EA021018433860217BEF
:103890004FF4FE0C22894FF0FE47208A4902267D14
:1038A000521EA1F50071C2F3080200E081E089B266
:1038B000401E1143761E0CEA004001433E4807EAD1
:1038C000066211433C4AC8F800100832016821F032
:1038D0000101016011684FF6F876236AB14341EAAD
:1038E000C30111600168A26921F00C01114301605C
:1038F0000168E26921F0020111430160016841F4AD
:1039000080310160016841F400310160016841F4D7
:1039100080210160016841F001010160286801E037
:1039200017E01DE040F080702860FEF759FB044668
:1039300005E000BFFEF754FB001B022809D82868E9
:103940008001F7D535E000BFFEF74AFB001B0228D7
:1039500002D90320BDE8F08728688001F4D428E06C
:1039600039680128D8F8000021D0A26A01F00303C9
:1039700093421CD1E26AC1F305118A4217D1216B2F
:10398000C0F30802491E8A4211D1616BC0F346227E
:10399000491E91420BD1A16BC0F30642491E9142D0
:1039A00005D1E16BC0F30660491E814201D00120C0
:1039B000D0E70020CEE700002C4402582DE9F04764
:1039C000040029D0504A4FF0000920684F4B504D59
:1039D0009042C4F8289006D0984204D0A84202D061
:1039E000E1680F2918D8E1684FF0010AE76B083148
:1039F000C9080AEB57167143904205D0984203D08C
:103A0000A84201D0082907D8904203D0984201D09B
:103A1000A84204D1102902D90120BDE8F08794F80A
:103A2000810020B9204684F8809000F073F80220CD
:103A300084F881002068016821F00101016021689B
:103A4000A0698A68B0F1806F02F4F81010D1626842
:103A5000B2F5800F01D01AB10AE0A26B22B107E0E3
:103A6000A26BB2F1805F03D10A6842F480520A600F
:103A7000A66AE169E26B25683143E36802431143BA
:103A80001943A960D4E90D02D4E90571636A256977
:103A90001843D4F820C00A43266810432843A56D74
:103AA0003843D4E90182D4E9123140EA0C0040EAFB
:103AB00008000843104318432843F060606868B961
:103AC0002068816821F4C05141F400618160206860
:103AD000816821F4C06141F4806181602068016DDA
:103AE00021F0010101656068400206D52068626D21
:103AF000C16821F000411143C160C4F8849084F88A
:103B000081A0002089E7000000300140003800401B
:103B1000003C00402DE9F041B4B0044614212EA829
:103B2000FCF7ABFCB8216846FCF7A7FC23492068EA
:103B300088423FD180140090002668461896FEF710
:103B40004DFE08B1FDF775FA1D48016841F40041CA
:103B50000160006800F4004033901948083801689B
:103B600041F0020101600068022430AADFF85480AD
:103B700000F0020033900820CDE92E0403254046D2
:103B8000062782E8B0002EA9FEF70EF92EA9102014
:103B900081E85100CDE931574046FEF705F907218C
:103BA00030942020CDE92E04CDE931512EA9404694
:103BB000FEF7FAF834B0BDE8F0810000003C0040A8
:103BC00048450258000402582DE9F84F8A4690F8FB
:103BD00080101D461746012904464FF0000B0DD0FA
:103BE0004FF0010884F88080FEF7FAF9814694F8D6
:103BF00081000026012804D002201EE00220BDE83A
:103C0000F88FBAF1000F17D0B7B1A1680320C4F83C
:103C10005CA0A4F8607084F88100C4F88460A4F803
:103C200062706666A4F86860A4F86A60B1F5C02F97
:103C30006667266704D008E0012084F88060DEE72C
:103C40002068016841F400610160206841686FF3F9
:103C50000F01394341602068016841F001010160B2
:103C60006068B0F5800F04D12068016841F40071EC
:103C70000160E0680F281BD81FE0206841698907B0
:103C80000BD5E16D09680162E06D001DE065B4F8D7
:103C90006200401EA4F862000AE0FEF7A1F9A0EB62
:103CA0000900A84202D3681C02D093E0002D2FD057
:103CB000B4F862000028E0D172E007282AD86BE04F
:103CC0002068416989071BD5B4F8621001290BD916
:103CD000E16B49B1E16D09680162E06D001DE065CD
:103CE000B4F86200801E08E0E16D09880184E06D8F
:103CF000801CE065B4F86200401EA4F8620009E090
:103D0000FEF76EF9A0EB0900A84202D3681C01D0AF
:103D100060E0B5B3B4F862000028D1D140E020687B
:103D2000416989072ED5B4F8621003290CD9E16BDB
:103D3000402909D9E16D09680162E06D001DE06567
:103D4000B4F86200001F19E0B4F8621001290BD921
:103D5000E16B49B1E16D09880184E06D801CE0658B
:103D6000B4F86200801E09E0E16D097880F8201047
:103D7000E06D401CE065B4F86200401EA4F86200EB
:103D80000AE027E0FEF72CF9A0EB0900A84202D3D5
:103D9000681C01D01EE0EDB1B4F862000028BED16D
:103DA00000224B4608212046009500F0E7FC28B190
:103DB000D4F8840040F02000C4F88400204600F0CD
:103DC0007FFC84F88180D4F8840084F8806080B11E
:103DD000012014E7204600F073FCD4F8841084F826
:103DE000806041F48071C4F8841084F881800320DD
:103DF00005E7584603E7401EB0F1807F10B501D3B8
:103E0000012010BD4FF0E02460610F21601701F028
:103E100099F90020A0610721216110BD10B50400AF
:103E200003D094F83D0010B107E0012010BD002040
:103E300084F83C00204600F023F8022084F83D007E
:103E40002068211D00F0FAFD012084F8480084F864
:103E50003E0084F83F0084F8400084F8410084F874
:103E6000420084F8430084F8440084F8450084F854
:103E7000460084F8470084F83D00002010BD000093
:103E800008B500680B49884212D10B48016841F41B
:103E90000031016000680022012100F40030009030
:103EA0007520FEF715F9BDE808407520FEF702B948
:103EB00008BD0000004401405045025890F83D10F4
:103EC000012901D001207047174A022180F83D10D6
:103ED0000168CB6843F00103CB600068904214D0C6
:103EE000B0F1804F11D0114988420ED0104988425C
:103EF0000BD01049884208D00F49884205D00F499D
:103F0000884202D00E49884207D181680D4A11408B
:103F1000062906D0B1F5803F03D0016841F00101C8
:103F200001600020704700000000014000040040D4
:103F300000080040000C0040000401400018004050
:103F4000004001400700010030B590F880100129C1
:103F500018D0012280F880202421C0F8841000228B
:103F6000202450F8641B0B680D6823F0005325F0E3
:103F700001050D60026050F8641C0B60046202775A
:103F8000104630BD022030BD70B5044690F8800068
:103F900001281DD0012284F880202420C4F8840048
:103FA00020680568026822F00102026020688268C9
:103FB00022F060620A438260204600F0A1FD226880
:103FC000202100201560C4F8841084F8800070BDA2
:103FD000022070BD70B5044690F8800001281DD005
:103FE000012284F880202420C4F884002068056819
:103FF000026822F0010202602068826822F06042BA
:104000000A438260204600F07BFD226820210020C8
:104010001560C4F8841084F8800070BD022070BD63
:1040200010B5040003D0D4F8840010B107E00120DB
:1040300010BD002084F88000204600F027F82420DE
:10404000C4F884002068016821F001010160204665
:1040500000F00CFE0128EBD0A06A10B1204600F061
:1040600071FD2068416821F49041416020688168B9
:1040700021F02A0181602068016841F0010101609E
:104080002046BDE8104000F0C1BD000030B5B5B01D
:10409000044614212EA8FCF7F0F9B8216846FCF775
:1040A000ECF917492068884228D102256846002487
:1040B00000951F94FEF792FB08B1FCF7BAFF114878
:1040C000016841F480210160006800F48020339091
:1040D0000C480838016841F00801016000680721B8
:1040E00000F0080033904FF440702E90CDE92F542B
:1040F000CDE9314104482EA9FDF756FE35B030BD5B
:104100000048004048450258000C0258FEE780680D
:10411000C0F3C00070478068C0F3800070478068BB
:10412000C0F38000704710B5042404EAD15407237B
:10413000C1F3045120448B408A40416999431143A3
:10414000416110BD30B58BB0002468461C21079436
:1041500008940994FCF791F932480121304A04256A
:10416000C0E9002405610A03C0E9024104754475F1
:104170008161047744628462C0E90B42446380F841
:104180003840FDF7D1F908B172B6FEE7254807A916
:104190000794FCF79FFF08B172B6FEE7224806219C
:1041A00040F2FF7203928DE813001E486946CDE984
:1041B00004548DF81940FCF7F9FF08B172B6FEE718
:1041C0000C211A48CDE9000116486946FCF7EEFFBC
:1041D00008B172B6FEE712211548CDE90001114879
:1041E0006946FCF7E3FF08B172B6FEE718211148F3
:1041F000CDE900010B486946FCF7D8FF08B172B65B
:10420000FEE74FF480710C48CDE90001054869468E
:10421000FCF7CCFF002801D072B6FEE70BB030BD32
:1042200000200240180000240008302E0000214326
:10423000000052470040C03A0080F03E2DE9F04FA8
:1042400087B014216846FCF718F95548016841F019
:1042500004010160016801F004010591016841F069
:1042600020010160016801F020010591016841F021
:1042700080010160016801F080010591016841F051
:1042800001010160016801F001010591016841F03F
:1042900002010160016801F002010591016841F02D
:1042A00008010160016801F008010591016841F011
:1042B00040010160016801F040010591016841F091
:1042C0001001016000684FF48068DFF8D890002288
:1042D00000F01000414605904846FDF77BFEDFF8F0
:1042E000C8A044F2C107002239465046FDF772FECD
:1042F000DFF8B8B0002202215846FDF76BFE00241B
:1043000069464FF400500294CDE900042848FDF7B7
:104310004BFD0125CDF8008003260396CDE901541D
:1043200069464846FDF740FD0097694603965046AA
:10433000CDE90154FDF738FD80204FF488118DE858
:1043400013001C486946FDF72FFDDFF86C906802EA
:10435000CDE90004694648460294FDF725FD0A2090
:10436000CDF8008002276946CDE90174CDE903400C
:104370004846FDF719FDF0020090CDE90174694649
:1043800048460394FDF710FD00976946039658468A
:10439000CDE90154FDF708FD07B0BDE8F08F00003E
:1043A00040450258001402580004025800100258F8
:1043B00000080258001802580000025870B514484E
:1043C0004FF480051F22114EAC000021C0E90212FB
:1043D000A300C0E90414C0E9063101621A01416278
:1043E0008162C162C0E90D21C163016441648164DD
:1043F000C164016541658165C0E90065FFF7DEFACA
:10440000002801D072B6FEE770BD0000003C0040FD
:104410007C0000241748002110B5154C0C224FF4E5
:10442000E1330460C0E90131C160C0E90412816177
:10443000C161016241628162FFF7F2FD08B172B6AB
:10444000FEE70C480021FFF7C5FD08B172B6FEE794
:1044500008480021FFF798FD08B172B6FEE705484D
:10446000FFF772FD002801D072B6FEE710BD000014
:104470000048004050010024FEE7FEE770470000BE
:104480002DE9F047454D044689464FF0000A28685B
:10449000C04380070AD0414E283E306820F080603B
:1044A0003060FDF79DFD0746B04608E00120BDE8FD
:1044B000F08700BFFDF794FDC01B022867D8D8F82D
:1044C00000000001F6D4206829684FF4FE0721F4AB
:1044D0007C313E0241EA00302860207AA389B4F89A
:1044E00004C040022D4D2D495B1E227CACF1010C15
:1044F0001035091DA0F5007080B2521ECCF3080CD7
:1045000007EA034340EA0C00184306EA026210433C
:1045100028600868626920F0C000104308600A68DB
:10452000A06922F0200202430A60281D0A6822F0D6
:1045300010020A6002684FF6F873E4699A4342EA8F
:10454000C40202600868B9F1000F40F010020A606E
:1045500011D00868B9F1010F11D040F400100860C3
:10456000D8F80000444640F08060C8F80000FDF72D
:1045700037FD05460DE0086840F40020EFE740F401
:104580008010ECE7FDF72CFD401B022801D9032029
:104590008DE720680001F5D5504688E72844025889
:1045A0002DE9F047454D044689464FF0000A28683A
:1045B000C04380070AD0414E283E306820F080502A
:1045C0003060FDF70DFD0746B04608E00120BDE86C
:1045D000F08700BFFDF704FDC01B022867D8D8F89C
:1045E00000008000F6D4208829684FF4FE0721F0EF
:1045F0007C713E0241EA00502860207AA389B4F819
:1046000004C040022D4D2D495B1E227CACF1010CF3
:104610001835091DA0F5007080B2521ECCF3080CAD
:1046200007EA034340EA0C00184306EA026210431B
:1046300028600868626920F44060104308600A68D6
:10464000A06922F4007202430A60281D0A6822F45D
:1046500080720A6002684FF6F873E4699A4342EA8E
:10466000C40202600868B9F1000F40F480720A6069
:1046700011D00868B9F1010F11D040F080700860C6
:10468000D8F80000444640F08050C8F80000FDF71C
:10469000A7FC05460DE0086840F48000EFE740F411
:1046A0000000ECE7FDF79CFC401B022801D9032029
:1046B0008DE720688000F5D5504688E728440258E9
:1046C00010B5026840F26F335169946944F00804F0
:1046D00094610268946944F010049461026814685B
:1046E00024F001041460026814699C431461026898
:1046F000936823F44043936090F88120042A0CD0FF
:104700008A060AD5D0F8842042F08002C0F88420BE
:104710000268936943F02003936190F88120032A93
:104720000CD04A060AD5D0F8842042F00402C0F822
:1047300084200268936943F0400393618A050AD597
:10474000D0F8842042F00102C0F884200268936906
:1047500043F400739361C9050AD5D0F8841041F081
:104760000801C0F8841001688A6942F480728A6185
:104770000021A0F86210A0F86A1010BD2DE9F041E8
:10478000984616460D460746069C09E0FDF728FCAC
:10479000A0EB0800A04202D3601C01D00BE054B192
:1047A0003868406935EA000007D00020B042EDD0FB
:1047B0000020BDE8F0810320FBE70120F6E7704709
:1047C000052900F5806014D2DFE801F00306090C2A
:1047D0000F009FED080A0AE09FED070A07E09FED32
:1047E000070A04E09FED060A01E09FED060A80ED4E
:1047F0001F0A7047005043480050434700409C4503
:104800000000FA430000C842FDF7F0BB70B59CB051
:104810004C216846FBF731FE202113A8FBF72DFE43
:1048200024494FF0FF3008600420FDF783FC224844
:10483000016841F4404101600168002401F44041F5
:104840001B910168C9438904FBD41A4988390122A4
:104850000B680220212523F003039B1C0B604FF4FF
:10486000A026099020210423CDE9005606920C25AC
:10487000CDE90A02CDE90C10CDE90E30CDE9105496
:1048800068461294FEF7F2FD08B172B6FEE713AA6D
:104890003F20032182E8130013A81694179418945C
:1048A00019941A94FEF7D2FB002801D072B6FEE7E5
:1048B0001CB070BDB0440258184802582748F0B5E3
:1048C000274A016841F470010160106800F00F0090
:1048D000032804D2106820F00F00C01C106021498A
:1048E0000020204C10340B681F4D43F001030B6077
:1048F00020600B682B400B60136803F00F03032B41
:1049000004D9136823F00F03DB1C1360154C174AFE
:104910001834174B261D371D2060124C154D2834B6
:104920003060261D3860371D23603B1D35601C1D1F
:104930003A60251D2E1D1860331D226028603260EC
:1049400018600A6843F2D204064B0B4D22F4802211
:1049500060330A6018602C60F0BD000088ED00E054
:1049600000200052004402587FEDF6EA8002010167
:10497000000202020000FF0100400052204A002015
:1049800038B56FF0010111601E4908801E48FCF720
:104990003DFF1D4C1D4D206881682940091D816027
:1049A00023484FF040719FED1A4B9FED1B2B90ED6C
:1049B000000A9FED1B3B9FED1C1BB8EE400A1D48F3
:1049C000B7EEC00A30EE444B84EE020B80EE032BB0
:1049D00032EE010BB7EEC00B8DED000AB7EEC00A48
:1049E000FBF7FEFF14484EB100228021FDF7F2FADA
:1049F000206881682940091D816038BD0122F4E7E3
:104A0000104401400000002418000024C0FFFF7F74
:104A1000000000008013DC4000000000E0FFEF40D9
:104A20000000000000409F40F168E388B5F8E43ED4
:104A3000DC060024E0010024000402582DE9F047C0
:104A4000274B4FF0804A274D02689842264E274F49
:104A5000274C09D0504507D0A84205D0B04203D01A
:104A6000B84201D0A04205D1D1F804C022F07002B2
:104A70004CEA0202DFF87CC0DFF87C809842DFF865
:104A80007C900FD050450DD0A8420BD0B04209D039
:104A9000B84207D0A04205D0604503D0404501D0C0
:104AA000484503D1CD6822F440722A434D6922F073
:104AB00080022A43026098428A68C2620A6882625F
:104AC00007D0A04205D0604503D0404501D04845FD
:104AD00001D10969016301214161BDE8F08700004E
:104AE000000001400004004000080040000C0040AD
:104AF00000040140004001400044014000480140E2
:104B000030B5416EB9B101680D4B03F108048A68F4
:104B10008968C2F34262490F5D5C615C2D01B5FB9F
:104B2000F1F1A0F86A10995CA25C0901B1FBF2F105
:104B3000A0F8681030BD0121A0F86A10F8E7000065
:104B40007A5E000890F82810C90706D00168C36A89
:104B50004A6822F400321A434A6090F82810890704
:104B600006D50168036B4A6822F480321A434A6012
:104B700090F82810490706D50168436B4A6822F46B
:104B800080221A434A6090F82810090706D5016868
:104B9000836B4A6822F400421A434A6090F8281056
:104BA000C90606D50168C36B8A6822F480521A438D
:104BB0008A6090F82810890606D50168036C8A6817
:104BC00022F400521A438A6090F82810490611D541
:104BD0000168436C4A6822F480121A434A60416CAF
:104BE000B1F5801F06D10168836C4A6822F4C002C7
:104BF0001A434A6090F82810090606D50168C26C6D
:104C0000486820F40020104348607047F8B500263B
:104C10000446C0F88C60FDF7E3F9054620686FF0A4
:104C20007E470068000708D500222B464FF400118C
:104C30002046009700F008FA60B920680068400735
:104C40000AD500222B464FF480012046009700F041
:104C5000FBF908B10320F8BD2020C4F88400C4F893
:104C60008800E666002084F88060F8BD2DE9F043F6
:104C700004468068E24E87B0E24B2168D4E90427FD
:104C8000D4F81CC010430A68002547EA0C073843D3
:104C9000324002430A602068E268416821F44051D2
:104CA000114341602268A1699A4201D0206A014300
:104CB0009668DFF854C3D54FD54806EA0C060E4374
:104CC00096602168666ACA6A22F00F023243CA629D
:104CD0002268BA420ED1006800F0380018286FD060
:104CE0007ADCB8B308286CD010286BD18BE0282868
:104CF00068D18EE0C7498A4209D1006800F00700F8
:104D000006285FD2DFE800F0507D7F818385C249AD
:104D10008A4209D1006800F0070006287BD2DFE84C
:104D200000F0437072747678BC498A4209D10068F9
:104D300000F0070006286ED2DFE800F036636567F2
:104D4000696BB7498A420BD1006800F0070006285A
:104D500061D200E043E0DFE800F0275456585A5C87
:104D6000B0498A4206D1006800F0380018284CD0BB
:104D7000B7DD31E0AC498A4209D1006800F0070094
:104D8000062848D2DFE800F0103D3F414345A749DF
:104D90008A420BD1006800F0070006283BD2DFE80A
:104DA00000F0033032343638002035E0A0498A4222
:104DB00009D1006800F03800182826D091DD0BE0FA
:104DC00023E01EE027E09B498A420AD1006800F0F8
:104DD0003800182819D084DD202888D11CE0012053
:104DE0001AE09A4217D18A48001D006800F00700B7
:104DF000062810D2DFE800F0030507090B0D02209A
:104E00000AE0042008E0082006E0102004E020204A
:104E100002E0402000E080208749DFF820829A42AB
:104E2000874A4FF400434FEA21174FF000064ED156
:104E300010281AD006DC022809D004280BD0082834
:104E40007ED10DE020283ED0402879D13DE0FDF70D
:104E5000B3F9014610E06846FDF764FA01990BE0EA
:104E600003A8FDF701FB049906E01068800605D54C
:104E70001068C0F3C100C140002970D0606A676843
:104E800038F8102007EB4703B1FBF2F0834257D804
:104E9000B0EB073F54D8002308461946FBF776FAD3
:104EA00002467808130E120243EA012110183A460E
:104EB00071410023FBF76AFA624AA0F54071914202
:104EC0003ED821688FE03946D8E71946D6E7D4F8AE
:104ED0001CC04FF6EF799C4546D1082819D005DC57
:104EE00058B101280CD0042875D10DE0102815D038
:104EF000202835D040286ED134E0FEF7F7F901E0E4
:104F0000FEF706FA014610E06846FDF70BFA019934
:104F10000BE003A8FDF7A8FA049906E010688006E4
:104F200004D51068C0F3C100C140C1B1636A6068B4
:104F300038F81330B1FBF3F1490001EB500100E008
:104F400049E0B1FBF0F0A0F11001494543D84FF61C
:104F5000F0732168C0F342021840104343E043E07D
:104F60003946E3E71946E1E7082819D005DC58B1CE
:104F700001280CD004282ED10DE0102815D02028AF
:104F80002BD0402827D12AE0FEF7B0F901E0FEF748
:104F9000BFF9014610E06846FDF7C4F901990BE03E
:104FA00003A8FDF761FA049906E01068800604D5AD
:104FB0001068C0F3C100C140B1B1636A606838F8DD
:104FC0001330B1FBF3F101EB5001B1FBF0F0A0F1B4
:104FD0001001494505D9012506E03946EDE7194696
:104FE000EBE7216880B2C8600120A4F86A00A4F849
:104FF000680028462667666707B0BDE8F0830000B2
:10500000F369FFCF000C0058FFF4FF1100100140BE
:10501000544402580044004000480040004C004006
:10502000005000400014014000780040007C004027
:1050300000180140001C01400090D003625E00088F
:1050400000440258FFFC0F002DE9F0479A4617462E
:105050000E460446089D4FF000094FF020084CE032
:10506000681C4AD0FCF7BCFFA0EB0A00A8422AD873
:105070004DB32068016849073FD5C069C0430005AA
:105080003BD421684FF400600862216851E8000FAA
:1050900020F4D07041E80002002AF6D120680830E0
:1050A00050E8001F21F0010140E80012002AF5D16C
:1050B000C4F8848084F88090C4F88880C4F88C8018
:1050C0000320BDE8F087206850E8001F21F4D0716C
:1050D00040E80012002AF6D12068083050E8001F8E
:1050E00021F0010140E80012002AF5D1C4F88480C3
:1050F00084F88090C4F88880E2E72068C06936EAC6
:10510000000004D00020B842AAD00020D9E7012036
:10511000F9E7FEE703B401984100009850EAC12086
:1051200018BF04204A0D18BF40F0010040F2FF7282
:10513000B2EB515F08BF40F00200012808BF052014
:1051400002B07047090700284FEA116104DB00F143
:10515000E02080F80014704700F00F0000F1E0201C
:1051600080F8141D704700002DE9F04D2DED040B63
:105170002DED088B9CB0DDE92550279CDDF890A033
:1051800025F0004624F00048BAF1000F14BF0121B9
:10519000002101EB4502FE4953184A1093422AD3DD
:1051A000002814BF0123002303EB44030B44F949F7
:1051B0008B4220D358EA00019FEDF78B72D0DFF8C5
:1051C000E0B35D4503D1BAF1000F05D184E0BAF137
:1051D000000F08BF002100D0012101EB450111F5AE
:1051E000001F08D8002814BF0121002101EB440151
:1051F00011F5001F0BD99DED261B9DED240B1CB056
:10520000BDEC088B04B0BDE8F04D00F061BC002798
:10521000002DBCBFE349884521DAE3498845A8BF92
:1052200002271CDAC3451ADCE04901EB2851142996
:1052300008DDC1F1340220FA02F101FA02F28242E1
:105240000DD108E058B9C1F1140228FA02F101FAAF
:1052500002F2424503D101F00101C1F1020756EA11
:105260000A0120D1002C1EDA002D18BF022F01D018
:10527000012F0AD00220FBF72FF91CB0BDEC088BE0
:1052800004B0BDE8F04D00F013BC0220FBF724F998
:1052900000F00EFCB1EE400B1CB0BDEC088B04B06E
:1052A000BDE8F08D18E09FEDC29B9FEDC3AB0028D9
:1052B0007DD1BC4880451CD105F1804010F580109F
:1052C00008BFBAF1000F07D0B34508DC002CA8BF17
:1052D0009DED260BE0DA07E0B0EE480BDCE7002C92
:1052E000B8BF9DED260BD5DBB548784490ED000B9B
:1052F000D2E7D84548D1002C43DA2EB186423AD1C4
:10530000BAF1000F3DD126E0BAF1000F13D0022010
:10531000FBF7E2F800F0ECFB8DED020B9DED240BAA
:105320008DED000B10EE900A039961F31E000390BF
:105330009DED020BB0E78DED029B9DED240B19EE68
:10534000901A10EE900A8DED000B61F31E00039091
:105350009DED020BA0E78DED02AB9DED240B1AEE47
:10536000901A10EE900A8DED000B61F31E00039071
:105370009DED020B90E704DA9DED241B88EE010BF6
:105380008AE79DED240B87E786421ADAB4F1804F55
:1053900004BF9DED240B20EE000B3FF47DAFA4F184
:1053A0000050B0F1FF500CD1002D0ADB00E008E006
:1053B0009DED240B51EC100B00F094FC41EC100B14
:1053C0006AE79DED240B51EC100B00F0A9FBBAF13C
:1053D000000FCDE90A0130D19FED7B0BCEB1A6F1D4
:1053E000E040B0F17F6028D1002D01DD002C0DDA06
:1053F000002D01DD002C1DDB002D14DA002C12DB4A
:10540000012F08BF9FED720B3FF446AFB0EE490B82
:1054100042E7022F18BF002D0CD0012F0AD1002D1A
:10542000FFF63AAF06E0002DB8BF002C05DA012FD9
:105430003FF432AFB0EE4A0B2EE7012000EBE57AE5
:105440005AEA07000CD06448002580457ADD63499C
:105450006348884514DDB0420DDB002C19DB2BE0DE
:105460000120FBF739F81CB0BDEC088B04B0BDE897
:10547000F04D00F031BBB34502DC002C09DC1BE031
:10548000864202DA002C17DA03E05E4527DD002CA5
:1054900012DD0220FBF720F800F02AFB10EE901A34
:1054A00019EE900A8DED020B8DED009B61F31E004D
:1054B00003909DED020BEFE60220FBF70DF800F0E4
:1054C00023FB10EE901A18EE900A8DED020B8DED75
:1054D000008B61F31E0003909DED020BDCE69DED59
:1054E000240B30EE480B8DED080B20EE002B9DEDCC
:1054F000081B9FED3D3B9FED3E0B01EE430B9DEDE9
:10550000083B9FED3D1B03EE401B22EE012B9DED62
:10551000080B9FED3B1B20EE011B9FED3B3B20EE5C
:10552000030B9FED3B3B02EE430B31EE002B8DED69
:10553000142B14959DED142B32EE411B30EE411BC4
:1055400025E1FFE70020B6F5801F0BDA9DED0A0B81
:105550009FED311B20EE010B10EE906A8DED0A0BD2
:105560006FF0340000EB2650C6F31301A0F2FF38B1
:105570002B4A41F07F6040F040509142D8BF002458
:1055800056DD284A8A42C8BF012451DC00244BE082
:10559000FFFF1F00FFFF0F00000000000000F03FB2
:1055A0000000F03F0000F07F0000404301FCFFFFDF
:1055B000000000000000F07F00000000000000007C
:1055C0003A0C000000000000000000000000008015
:1055D000000000000000F0FF0000E0410000F04388
:1055E000FFFFEF3F00000000000000000000D03F80
:1055F000555555555555D53F000000000000E03F7A
:10560000000000604715F73F44DF5DF80BAE543EE5
:10561000FE822B654715F73F000000000000404365
:105620008E9803007AB60B00A0F5801008F10108EF
:10563000DF49794401EBC4010B9091ED002B9DED06
:105640000A0B30EE420B9DED0A1B32EE013B88EE59
:10565000031B20EE019BD7498DED089B79440895EB
:1056600091ED003B4FF0005141EA600000EB8440B7
:105670008DED003B00F5002001909DED003B33EEE9
:10568000422B9DED0A3B33EE422B9DED083B9DEDF9
:10569000004B03EE440B03EE420B20EE01AB29EE70
:1056A00009BBB0EE4B0BC4480621784400F0C8F9A2
:1056B0002BEE0B1B20EE010B9DED081B31EE091BA1
:1056C0000AEE010B9DED081B21EE011B9FEDBC2B8B
:1056D00031EE023B33EE003B8DED003B00959DED3E
:1056E000003B33EE422B32EE411B30EE412B9DED61
:1056F000080B9DED001B20EE011B9DED000B2AEE1B
:10570000000B02EE090B31EE002B8DED102B1095E6
:105710009DED102B32EE411B30EE411B9DED100B29
:105720009FEDA92B20EE020B9DED102B9FEDA83BCA
:1057300022EE032B9FEDA83B01EE032BA8487844F3
:1057400000EBC40090ED001B32EE011B02EE108A4C
:10575000B8EEC22B8DED082B30EE013BA14878440A
:1057600000EBC40090ED002B33EE023B9DED084BA7
:1057700033EE043B8DED143B14959DED143B33EE5D
:10578000443B33EE422B32EE400B31EE401BB0EE89
:10579000489B781E5AEA000008BF9FED938B9DED51
:1057A000260B8DED120B12959DED260B9DED122B08
:1057B00030EE420B9DED142B20EE020B9DED262BBF
:1057C00002EE010B9DED121B9DED142B21EE021B31
:1057D0008DED101B30EE011B11EE900A11EE101A28
:1057E000834A8DED001B904224DB821A11430ED1B7
:1057F0009FED811B30EE011B9DED002B9DED103BBD
:1058000032EE432BB4EEC21BF1EE10FA26DD02207D
:10581000FAF762FE00F06CF910EE901A18EE900A9A
:105820008DED020B8DED008B61F31E0003909DED5D
:10583000020B31E5724B20F000429A420ED3714ABE
:10584000024411437FF438AE9DED102B31EE421B24
:10585000B4EEC01BF1EE10FABFF62EAE20F0004100
:10586000694A6A4B002402EB21529942D8BF9DED50
:10587000101B27DD511C4FF4801222FA01F1014464
:10588000634BC1F30A527B44A2F2FF3293ED001B3B
:10589000604B8DED081BD34021EA0303C1F31301D4
:1058A00041F48011C2F1140221FA02F40993002894
:1058B000B8BF64429DED101B9DED082B31EE421BDD
:1058C0008DED101B30EE011B8DED081B08959DED35
:1058D000081B9FED512B21EE021B9DED082B9DED2A
:1058E000103B32EE432B30EE420B9FED4D2B20EE62
:1058F000020B9DED082B9FED4C3B02EE030B31EEAE
:10590000002B8DED002B32EE411B30EE41AB9DEDB7
:10591000000B20EE000B46488DED080B0521784466
:1059200000F08EF89DED001B9DED082B02EE401B54
:105930008DED141B9DED000B20EE010B9FED3E2B1A
:1059400031EE422B80EE021B9DED002BB0EE4A0B98
:1059500002EE0A0B31EE400B9DED001B30EE410BC9
:1059600039EE400B10EE900A8DED000B00EB045069
:1059700001150029C8BF019013DC224651EC100B21
:1059800000F025FAFFF7C6FB042808BF00F0BCF8BA
:1059900022469DED000B51EC100B00F018FACDE9FA
:1059A00000019DED000B28EE000B75E400000000E7
:1059B0006A080000C808000022080000000000007B
:1059C0000000000000000840000000E009C7EE3FB2
:1059D000F5015B14E02F3EBEFD033ADC09C7EE3F44
:1059E0007E0700004E070000000000000000F0BF2E
:1059F0000000904000000000FE822B654715973C98
:105A000000CC904000346F3F01FCFFFF0000E03FFE
:105A10009E060000FFFF0F0000000000432EE63F3F
:105A2000EF39FAFE422EE63F396CA80C615C20BECD
:105A3000DE05000000000000000000000000004043
:105A4000B0EE401B491E00EBC10292ED000B31F09D
:105A500006020DD0491E00EBC10292ED002BB0EE04
:105A6000403BB0EE420B03EE010B31F00602F1D1E8
:105A7000022914D004290AD0062918BF704790EDD6
:105A80000A2B00EE012B90ED080B02EE010B90EDBE
:105A9000062B00EE012B90ED040B02EE010B90EDB6
:105AA000022B00EE012B90ED000B02EE010B704774
:105AB0009FED031B9FED042B81EE020B704700004E
:105AC000000000000000F03F0000000000000000A7
:105AD00030EE010B704700009FED031B81EE010BC0
