:020000040800F2
:10000000F00D0024390300082B390008ED350008F5
:10001000293900089D060008374600080000000046
:10002000000000000000000000000000713B00081C
:100030009F060008000000002D390008733B0008EF
:100040005303000853030008530300085303000838
:100050005303000853030008530300085303000828
:100060005303000853030008530300085303000818
:100070005303000853030008530300085303000808
:1000800053030008530300085303000853030008F8
:1000900053030008530300085303000853030008E8
:1000A00053030008530300085303000853030008D8
:1000B00053030008530300085303000853030008C8
:1000C00053030008530300085303000853030008B8
:1000D00053030008530300085303000853030008A8
:1000E00053030008530300080000000053030008F6
:1000F0005303000853030008530300085303000888
:100100005303000853030008530300085303000877
:100110005303000853030008530300085303000867
:100120005303000853030008530300085303000857
:100130005303000853030008530300085303000847
:1001400000000000000000000000000000000000AF
:100150005303000853030008530300085303000827
:100160005303000853030008530300085303000817
:100170005303000853030008530300080000000065
:1001800053030008530300085303000853030008F7
:1001900053030008530300085303000853030008E7
:1001A00053030008530300085303000853030008D7
:1001B00053030008530300085303000853030008C7
:1001C00053030008530300085303000853030008B7
:1001D00053030008530300085303000853030008A7
:1001E0005303000853030008530300085303000897
:1001F0005303000853030008530300085303000887
:100200005303000853030008530300085303000876
:100210005303000853030008530300085303000866
:1002200053030008530300085303000800000000B4
:1002300053030008530300080000000053030008A4
:100240005303000853030008530300085303000836
:100250005303000853030008530300085303000826
:100260005303000853030008530300085303000816
:100270005303000853030008530300080000000064
:100280005303000853030008530300080000000054
:10029000000000005303000800F002F800F03CF8F2
:1002A0000AA090E8000C82448344AAF10107DA45D1
:1002B00001D100F031F8AFF2090EBAE80F0013F0E7
:1002C000010F18BFFB1A43F001031847F443000065
:1002D00014440000103A24BF78C878C1FAD85207F5
:1002E00024BF30C830C144BF04680C6070470000B0
:1002F0000023002400250026103A28BF78C1FBD82F
:10030000520728BF30C148BF0B6070471FB504F0CB
:10031000B5F91FBD10B510BD00F001F91146FFF78A
:10032000F5FF04F09AF900F01FF903B4FFF7F2FFAC
:1003300003BC00F027F9000009488047094800473E
:10034000FEE7FEE7FEE7FEE7FEE7FEE7FEE7FEE785
:10035000FEE7FEE704480549054A064B70470000E2
:10036000353C000899020008F0070024F00D002435
:10037000F0090024F009002453EA020C00F069801F
:100380002DE9F04B4FF00006002B1FBFB3FA83F5A9
:1003900003FA05F424FA05F65E4012BF1643B2FADA
:1003A00082F502FA05F4C5F120051EBF22FA05FC0C
:1003B00044EA0C04203556EA044C4FEA144418BFB2
:1003C000641C4FF000084FF00009904271EB030CE1
:1003D00039D3002919BFB1FA81F701FA07F6B0FA4B
:1003E00080F700FA07F6C7F120071EBF20FA07FCC6
:1003F00046EA0C062037B6FBF4FCA7EB0507103FD6
:1004000007F01F0BCBF120060CFA0BFB2CFA06F6BB
:1004100044BFB3460026202FA4BF5E464FF0000B1A
:100420005BEA060C08BF4FF0010B19EB0B09ABFBA5
:10043000027C48EB0608C01B06FB02CC0BFB03CC7E
:1004400071EB0C01C1E70B46024641464846BDE848
:10045000F08B13B54FF000004FF00001AFF30080B8
:10046000BDE81C40704710B5203AC0F00B80B1E8E1
:100470001850203AA0E81850B1E81850A0E81850D9
:10048000BFF4F5AF5FEA027C24BFB1E81850A0E8E2
:10049000185044BF18C918C0BDE810405FEA827CFC
:1004A00024BF51F8043B40F8043B08BF7047D20713
:1004B00028BF31F8023B48BF11F8012B28BF20F8B4
:1004C000023B48BF00F8012B70474FF0000200B517
:1004D000134694469646203922BFA0E80C50A0E867
:1004E0000C50B1F12001BFF4F7AF090728BFA0E815
:1004F0000C5048BF0CC05DF804EB890028BF40F8E1
:10050000042B08BF704748BF20F8022B11F0804F22
:1005100018BF00F8012B7047704770477047754649
:1005200000F02CF8AE4605006946534620F007005F
:10053000854618B020B5FFF70DFFBDE820404FF00D
:1005400000064FF000074FF000084FF0000B21F0BD
:100550000701AC46ACE8C009ACE8C009ACE8C0098A
:10056000ACE8C0098D46704710B50446AFF3008073
:100570002046BDE81040FFF7D8BE00000048704795
:100580008C07002401491820ABBEFEE726000200BC
:100590007047000070B53A4905460068884202D0AD
:1005A000384A904202D1D1F8080302E03648D0F828
:1005B000080310F4403F11D002F094FA0446686832
:1005C000B0F5803F06D0B0F5003F03D0B0F5403F16
:1005D00026D101E0000C17E0A40821E04FF4002030
:1005E00001F0B2FB044668688103890B18D18114BD
:1005F0000C2915D2DFE801F0140606060606060BE4
:100600000D0F1113800C4000B4FBF0F408E0240936
:1006100006E0640904E0A40902E0E40900E0240A19
:1006200000F0E6FF41F20301884208D817488442EF
:100630002868816813D821F48071816070BD1449E5
:100640006008884204D82868816821F44071F4E782
:100650001049884206D82868816821F4407141F425
:100660008071EAE70C4988422868816804D821F43F
:10067000407141F40071E0E741F44071DDE70000B2
:10068000002002400021024000600258002D31018C
:10069000105E5F0020BCBE0040787D01FEE7704721
:1006A00070B5A2B0064600244FF4C36001258DF852
:1006B0000F5002238DF81D4069038DF80E500994E8
:1006C0008DF81F400D9020208DF804508DF8325089
:1006D00042028DF8605006914FF040518DF838403D
:1006E00002948DF861408DF81C408DF828408DF8FB
:1006F00062408DF80C400B948DF81E500F948DF8CD
:10070000115012948DF840408DF831408DF8124010
:1007100014948DF856401790304616938DF820505B
:1007200005928DF854408DF830408DF810500091AE
:1007300069468DF80D408DF8554011948DF84C5058
:1007400000F074F81B9568058DF871404FF4067140
:100750008DF8685019948DF880408DF870401F9086
:100760008DF878401D9030468DF88140219119A96F
:1007700000F002F822B070BDF0B5026847F6020E34
:10078000274E4DF2010702F58052264DD1F800C0E8
:100790001368254C23EA0E0343EA0C0313600B791C
:1007A000026891F80CE002F58052D1F808C01B03F2
:1007B00043EACE3343EA0C03D2F804C02CEA070C18
:1007C0004CEA030CC2F804C002684F7B02F5805269
:1007D0000B6A43EA0747D2F8003133403B43C2F883
:1007E000003102680B7D02F5805291F81DC00F693F
:1007F000D2F804611B0143EA0C332E403B431E43F5
:10080000C2F8046100680B7F00F580508A69D0F857
:10081000081142EAC37221401143C0F80811F0BD2B
:1008200000C0FEFFEFEFC0FFFFFFC07FF0B50B7908
:100830000C7B0F688A68DB064D7B43EAC4533A435E
:100840008E7B1A43CF7B91F810C042EA855242EA70
:100850004652BCF1000F42EA07537CD000224C7C88
:10086000002C43EAC24278D000238E7C0D7F42EAFE
:1008700043428F7FD1E9053442EA06424E7F1A4354
:10088000224342EA0532002F42EAC62466D0002203
:10089000CD7F91F8203044EA8222002B42EA4522A3
:1008A0007ED0002504684B6A42EA052291F8287040
:1008B000464D1A43CE6A236842EA071232432B4060
:1008C0001343236091F83C2091F8383091F8305070
:1008D00091F83140520642EA036291F8326042EAEE
:1008E000854242EA4444BEB300220368384E4F6B4F
:1008F00044EA02425C683A4340F20F153440144324
:100900005C60036891F840604C6CDA6844EA062445
:10091000AA432243DA6091F854300A6D91F84C40B2
:1009200042EA4302ECB300240368B1F848504FF6A2
:100930000D76E7011C6F47EA05452A43344014430E
:100940001C67026891F8563091F8555052F8904F54
:1009500043EA450303E02BE032E02BE02CE024F0F7
:1009600003041C43146002688C6DD2F8003D23F030
:1009700072032343C2F8003D91F86020CC6D1AB396
:100980005FF00003026891F8615091F8621044EA48
:100990008310D2F8303D2C0144EAC101084301E044
:1009A0000CE00FE023F07B010143C2F8301DF0BDE5
:1009B000012254E7012358E7012269E7012571E785
:1009C000012292E70124AFE70123DBE783800400E3
:1009D0000080F8C072B6FEE72DE9F84F4FF0000B2B
:1009E0000446E54E0D46CDF800B05F4690F8500045
:1009F000DFF888A3012808D04FF0010984F850904F
:100A0000206802F0F8FD18B169E10220BDE8F88F16
:100A100021682868CA69030328D090FAA0F0B0FAC8
:100A200080F000BF00F01F0309FA03F00243CA611F
:100A3000D5E900124FF00C0C20681F23C1F384612C
:100A40000CEA921C02F01F02604493409140026B3A
:100A50009A430A430263206802F0CDFD8046206875
:100A600002F0C5FD58EA000003D07FE0C0F38460C7
:100A7000D8E72068AA68296802F0C1FDC049096862
:100A8000B9EB117F06D121686869C968C1F3820199
:100A9000490008E02068C168C906C1686869F5D5E1
:100AA00001F0100149088840296904292ED02268E4
:100AB0002B6802EB810103F0F8420B6E024303F056
:100AC000004010430866697E22682869012917D012
:100AD0005FF0000102EB8000026E22F000420A4348
:100AE0000266287E21682A6901280CD000200B6943
:100AF00002F01F02904023F4F04202430A6135E005
:100B00004FF00041E6E74FF40060F0E720682978F5
:100B1000026E02F0F842B2EB816F03D1016E21F058
:100B20000041016620682978426E02F0F842B2EB7B
:100B3000816F03D1416E21F0004141662068297820
:100B4000826E02F0F842B2EB816F03D1816E21F028
:100B50000041816620682978C26E02F0F842B2EB4B
:100B6000816F03D1C16E21F00041C16620688168A8
:100B700011F0010F76D150F8C02F95F80CC0814BC1
:100B800029680CF0180C23FA0CF3C1F313080B407E
:100B900022EA08021A4302607B48E968814277D161
:100BA000286801031BD090FAA0F1B1FA81F1491C29
:100BB00001F01F0109294FEA003131D8002911D075
:100BC00090FAA0F1B1FA81F101F1010101F01F01E8
:100BD00009FA01F209D100BFC0F3846109E0C0F352
:100BE0008461E4E7C0F38461EEE790FAA0F1B1FA22
:100BF00081F101F1010101F01F0142EA816102D19D
:100C0000C0F3846003E090FAA0F0B0FA80F000F145
:100C1000010000F01F0000EB400041EA005133E00A
:100C200000290ED090FAA0F1B1FA81F101F1010191
:100C300001F01F0109FA01F206D100BFC0F384617F
:100C400006E0C0F38461F1E790FAA0F1B1FA81F116
:100C500001F1010101F01F0142EA816103D1C0F3FA
:100C6000846004E040E090FAA0F0B0FA80F0474AD7
:100C700000F1010000F01F0000EB400002EB00500B
:100C800041EA000141F00071AA68206802F0B7FC57
:100C9000D5F800C0BCF1000F26DA3D4B20683D4975
:100CA000DFF8F490984201D0B04201D10A4600E04A
:100CB0004A469268984202F0E07201D0B04209D1EF
:100CC0009D68D6F8088005F0010508F0010845EA9E
:100CD000080503E0DAF8085005F0010545B1606D3C
:100CE000012740F020006065384684F850B08DE65A
:100CF0002A4DAC451CD115021AD45045F4D1984266
:100D000002D0B04200D049468B6842F4000023F084
:100D1000E07202438A60234921480968B1FBF0F080
:100D20004000801C00E0401E00900028FBD1DBE763
:100D30001D4DAC450CD1D5010AD45045D4D19842B3
:100D400002D0B04200D049468B6842F080700EE07D
:100D5000164DAC45C8D15502C6D45045C4D19842B1
:100D600002D0B04200D049468B6842F4800023F0A4
:100D7000E07202438A60B7E7002102400060025837
:100D80000010005CFFFF0F000000FF47000020FE86
:100D9000002002400023024000630258000084CB80
:100DA000400D030014000024000052C70000B8CF1B
:100DB000F8B54FF0000604003546009602D0606D8D
:100DC00010B107E00120F8BD204600F005F9A66546
:100DD00084F8506020688168C1F3407119B181685E
:100DE000704A1140816020688168C1F3007181B947
:100DF00081686D4A114041F0805181606C496B48B7
:100E00000968B1FBF0F0401C00E0401E0090002893
:100E1000FBD120688168C1F3007141B9616D012582
:100E200041F010016165A16D41F00101A16502F081
:100E3000E2FB616DC90600D420B1606D012540F070
:100E4000100093E0606D20F4807040F00200606557
:100E50002068816811F0010F1FD1564A564B90420D
:100E600001D0984207D191689E6801F0010106F017
:100E70000106314303E05149896801F0010161B97C
:100E8000904201D0984201D14D4800E04D4882681F
:100E9000616822F47C120A43826000F0A9FB41F2EF
:100EA0000301884202D9A06810280CD0617D227FFE
:100EB000A368206B490341EA024118430843217F9C
:100EC00001290CD010E0607D227F216B400340EAB5
:100ED000024241F01000104340F00C00EFE7218C7B
:100EE000394A02EB41410843616A29B1A26A01F41F
:100EF0007871014342EA01002168344BCA681A4004
:100F00000243CA60206802F076FB0646206802F0C1
:100F10006EFB30431DD1216844F20303267DE26A53
:100F2000C86842EA863298431043C86094F8380093
:100F300001281ED02068016921F0010101612068AB
:100F4000626B016921F07041114301612046FFF796
:100F500021FBE068012820681CD0016B21F00F0103
:100F60000163606D20F0020040F0010060652846DA
:100F7000F8BD2068A28F164FD4E9101C154E07EB60
:100F80000247A36C026941EA0C013B43324019431A
:100F90001143D3E7A269016B521E21F00F011143E7
:100FA000DEE70000C0FFFF5FC0FFFF7F400D0300D2
:100FB000140000240020024000210240006002587A
:100FC00000230240006302580000FEFF03C0F0FF50
:100FD0000100FFFF1EF800FCF0B5B5B00446142177
:100FE0002FA8FFF772FABC216846FFF76EFA1B497B
:100FF0002068884230D1022003240DF1140ECDE97F
:10100000034000252895C02620274FF4C05C8EE8B9
:10101000C11081046846012212238DE80E0000F001
:10102000C9FF08B1FFF7D6FC0D48016841F0807197
:101030000160016801F080713491016841F0200184
:10104000016000682FA900F020003490F02081E8B2
:101050003100044800F0B0F935B0F0BD006002582E
:10106000E04402580014025870B5044600F0C6FA75
:101070000546601C02D004480078044400F0BEFA23
:10108000401BA042FAD370BD08000024F8B504004C
:1010900003D0D4F8840010B107E00120F8BD23206C
:1010A000C4F88400204600F0CBF86248016841F0A3
:1010B00002010160006800F002000090207A08B18F
:1010C0004FF4000002F094F95B492068096800F5CC
:1010D0008050016841F00101016000F08FFAE026C4
:1010E00005464FF4FA7706E000F088FA401BB84254
:1010F00001D9042023E0206800F580500068C00773
:10110000F2D1204600F01CF901F0ECFC4B4A2168BA
:10111000B0FBF2F0401EC1F8DC002046FFF7C0FA39
:10112000206800F58050D0F8001121F4E01141F45E
:101130000021C0F800116169880705D00120C4F8BA
:101140008800C4F88460A8E7206847F6FE7300F5BD
:101150008050D0F808219A4342EA4101C0F80811B2
:1011600000210846E26800EB400504EB800302EB37
:10117000C502116051609160D160401C04289A61E1
:10118000F0D3A1620323206800F58050C0F82C3111
:101190002068E26800F58050C0F814212068E268F9
:1011A00000F58050C0F820215FF00002206902EBBA
:1011B000420604EB820500EBC600016041608160DD
:1011C000C160521C0161042A4161A864EED3E1654B
:1011D0002166A166E166A165206800F58050C0F82F
:1011E00030312068226900F58050C0F81C21226847
:1011F000206902F580524830C2F828011023D4E952
:1012000000208088C2F80003D4E900208578C778E0
:1012100090F801C006782D0446EA076045EA0C25DF
:101220002843C2F80403C4F88810C4F884300020AE
:10123000F8BD0000F44402580404005840420F0076
:1012400070B586B0044614216846FFF73EF936496A
:101250002068884266D13548016841F40041016048
:10126000016801F400410591016841F48031016099
:10127000016801F480310591016841F40031016099
:10128000006800F40030059028480830016841F0FB
:1012900004010160016801F004010591016841F059
:1012A00001010160016801F001010591016841F04F
:1012B00002010160016801F002010591016841F03D
:1012C00040010160006800240B26694600F04000E0
:1012D00005903220009002251548CDE90154CDE952
:1012E000034600F069F886200090CDE901541148CA
:1012F0006946CDE9034600F05FF828030090CDE988
:1013000001540D486946CDE9034600F055F84FF405
:1013100020500090CDE9015408486946CDE90346C4
:1013200000F04AF806B070BD00800240D844025870
:101330000008025800000258000402580018025821
:1013400070B505460068D0F8000220F4706401F022
:10135000C9FB1149114A0144914202D244F400747C
:1013600016E00F4A0F4902448A4202D244F4407404
:101370000EE00D4A0D4902448A4209D30C4A0D4938
:101380001044884202D244F4807401E044F4806442
:101390002868C0F8004270BD00D3CEFEC0E1E40072
:1013A00040F1E9FD40787D0100796CFC005A620251
:1013B000001F0AFA80F0FA022DE9F84F03247D4D50
:1013C00000234FF001094FF0B04B4FF00F0AE9E056
:1013D00009FA03F73A4076D00E7906F00306012E9B
:1013E00001D0022E18D1D0F808C04FEA430ECE68C3
:1013F00004FA0EF82CEA080C06FA0EF646EA0C0679
:101400008660D0F804C00E792CEA070CC6F30016EB
:101410009E4046EA0C0646600E79F643B6070BD0AE
:10142000C6684FEA43088F6804FA08FC26EA0C06EF
:1014300007FA08F73743C7600E7906F00306022E55
:1014400012D1DE080F694FEA437C00EB8606B646F0
:10145000366A4FEADC6C0AFA0CF807FA0CF726EA4F
:1014600008063743CEF820700F7906684FEA430824
:1014700007F0030704FA08FC07FA08F726EA0C0647
:10148000374307604E6816F4403F1CD04A4E376819
:1014900047F00207376036689F0706F0020600969D
:1014A00023F0030606F1B046B6463F0FD6F80864AF
:1014B000DFF808810AFA07FC404526EA0C0603D14A
:1014C0004FF0000C41E06CE0DFF8F4C0604502D161
:1014D0004FF0010C39E0DFF8ECC0604502D14FF06D
:1014E000020C32E0DFF8E0C0604502D14FF0030C9F
:1014F0002BE0DFF8D8C0604502D14FF0040C24E0A7
:10150000DFF8CCC0604502D14FF0050C1DE0DFF8DC
:10151000C4C0604502D14FF0060C16E0DFF8B8C039
:10152000604502D14FF0070C0FE0DFF8B0C0604516
:1015300002D14FF0080C08E0DFF8A4C0604502D1EA
:101540004FF0090C01E04FF00A0C0CFA07FC4CEAD2
:10155000060CCEF808C44F68DBF80060FF0226EAEC
:10156000020600D516435F46CBF80060D1F804C0F0
:10157000DBF804605FEA8C2C26EA020600D51643ED
:101580007E606E684F6826EA0206BF0300D51643E8
:101590006E602E684F6826EA0206FF0300D51643E8
:1015A0002E605B1C0A6832FA03F67FF411AFBDE8C7
:1015B000F88F000080000058F444025800000258E0
:1015C0000004025800080258000C0258001002588B
:1015D0000014025800180258001C0258002002583B
:1015E000002402580AB1816170470904FBE700003A
:1015F00001480068000C70470010005C01488068DA
:1016000070470000080000240248816802781144F5
:101610008160704708000024032010B500F078F8BE
:1016200001F0A6FA0F4A104914681368C4F30322A4
:1016300003F00F038A5CC95C02F01F0201F01F0176
:10164000D0400A4A20FA01F11160094908600020DF
:1016500000F010F808B1012010BD00F02BF80020B8
:1016600010BD000018440258AE46000818000024BF
:101670001400002470B50D4D04462878A0B14FF435
:101680007A71B1FBF0F00A490968B1FBF0F001F0A2
:10169000B9FE48B9102C07D200222146501E00F096
:1016A00017F800206C6070BD012070BD0800002498
:1016B00014000024054808B5016841F002010160EA
:1016C000006800F00200009008BD0000F4440258D9
:1016D0000E4BF0B41B680D46C3F30223C3F107069B
:1016E000042E00D90426191D072901D2002300E089
:1016F000DB1E012404FA06F19C40491E2940641EA9
:10170000994014402143F0BC02F096BF0CED00E07C
:10171000064900F0070210B54FF6FF040868044BB5
:10172000204040EA02201843086010BD0CED00E0A4
:101730000000FA0501680123C0F80035002280F896
:10174000F4248869044A40F000608861486D1043C1
:101750004865002070470000030000102DE9F041AB
:1017600004008AB005D094F8BD040025266820B195
:1017700008E001200AB0BDE8F081204684F8BC549E
:1017800000F066F8032084F8BD04F06BC00500D4B7
:101790002561206802F0DCFE04F110016846282271
:1017A0008846FEF760FE94E80F0002F0A3FD0227D2
:1017B000D8BB2068002102F00FFF0020012610E0B6
:1017C00000EBC001421C04EB810181F83D6081F80F
:1017D00040508D64CD644D6581F83C00A1F8440013
:1017E000D0B261688142EBD8002011E000EBC0016B
:1017F000421C04EB810181F87D5281F88052C1F8CE
:101800008852C1F88C52C1F8945281F87C02D0B24F
:1018100061688142EAD8282241466846FEF723FEE5
:1018200094E80F0002F0D8FD10B184F8BD74A0E771
:10183000606A84F8385084F8BD64012802D12046DB
:10184000FFF778FF206802F0B9FD002092E7000062
:1018500030B5B5B0044614212FA8FEF736FEBC21E2
:101860006846FEF732FE1F492068884237D14FF4A0
:101870008020009081006846219100F09BFB08B118
:10188000FFF7A8F800F05EF81748016841F0010181
:10189000016000682FAB0024144D00F0010034906B
:1018A00002214FF4C8500A2283E81300CDE93242E6
:1018B0002FA92846FFF780FD4FF40070CDE92F04D3
:1018C0002FA928463194FFF777FD074808380168AB
:1018D00041F000610160006800F00060349035B0B4
:1018E00030BD000000000840E044025800000258EB
:1018F000134970B50A68D243520705D5096801F04B
:101900000701814213D118E00A6822F0070202435E
:101910000A60FFF773FE0A4D4FF47A760446083DDD
:1019200007E000BFFFF76AFE001BB04201D90120AB
:1019300070BD2868C0438004F4D4002070BD00004E
:101940000C4802580248016841F0807101607047FC
:101950000C48025810B501F0C5F805490968054A58
:10196000C1F30211515C01F01F01C84010BD00001D
:1019700020440258AE4600084A4930B5494C0B1D78
:101980000A680C3409681D68246802F0030305F036
:101990000102C1F30511C4F3CC04002914FB02F2C7
:1019A00000EE102AF8EE400A76D0414A9FED3E1A2A
:1019B000DFED3E1AB7EE000A23B1012B5AD0022BFD
:1019C00018D15CE0374C283C23689B0612D5394B74
:1019D000246801EE901A1168C4F3C104F8EE612A7C
:1019E000E34001EE903AC1F30801F8EE611A81EE8E
:1019F000A22A07E002EE101A1168F8EE422A81EEE0
:101A0000A22A45E001EE901A1168F8EE611A40EE44
:101A1000811A71EE800A62EE200AC1F3462101EEBE
:101A2000101AB8EE411A31EE001AC0EE811ABCEE5F
:101A3000E11A80ED001A1168C1F3064101EE101A97
:101A4000B8EE411A31EE001AC0EE811ABCEEE11A6E
:101A500080ED011A1168C1F3066101EE101AB8EEAB
:101A6000411A31EE000A80EE801ABCEEC10A80ED08
:101A7000020A30BD01EE901ADFED0F2A03E001EEFD
:101A8000901ADFED0E2A1168F8EE611A82EEA12A93
:101A9000C1F30801B6E7FFE7002101604160816002
:101AA00030BD000028440258000000390024744C66
:101AB000304402580090D0030024744A0024F44AB1
:101AC000494930B5484C0B1D0A68143409681D6833
:101AD000246802F00303C5F30012C1F30531C4F317
:101AE000CC04002914FB02F200EE102AF8EE400AA2
:101AF00075D03F4A9FED3D1AB7EE000A6BB1DFED9E
:101B00003D1A012B01D0022B64D002EE101A11688D
:101B1000F8EE422A81EEA22A21E0334C283C2368C9
:101B20009B0612D5344B246801EE901A1168C4F359
:101B3000C104F8EE612AE34001EE903AC1F30801D6
:101B4000F8EE611A81EEA22A0BE001EE901ADFEDA9
:101B50002B2A00BFF8EE611A116882EEA12AC1F3A8
:101B6000080101EE901A1168F8EE611A40EE811A30
:101B700071EE800A62EE200AC1F3462101EE101ACE
:101B8000B8EE411A31EE001AC0EE811ABCEEE11A2D
:101B900080ED001A1168C1F3064101EE101AB8EE8B
:101BA000411A31EE001AC0EE811ABCEEE11A80ED46
:101BB000011A1168C1F3066101EE101AB8EE411A5C
:101BC00031EE000A80EE801ABCEEC10A80ED020AF6
:101BD00030BD04E001EE901ADFED092ABAE70021DA
:101BE000016041608160F3E7284402580000003939
:101BF000384402580024744A0090D0030024744CE6
:101C00000024F44A494930B5484C0B1D0A681C347D
:101C100009681D68246802F00303C5F30022C1F3BC
:101C20000551C4F3CC04002914FB02F200EE102A83
:101C3000F8EE400A75D03F4A9FED3D1AB7EE000A14
:101C40006BB1DFED3D1A012B01D0022B64D002EE07
:101C5000101A1168F8EE422A81EEA22A21E0334CD4
:101C6000283C23689B0612D5344B246801EE901A59
:101C70001168C4F3C104F8EE612AE34001EE903A22
:101C8000C1F30801F8EE611A81EEA22A0BE001EE21
:101C9000901ADFED2B2A00BFF8EE611A116882EE70
:101CA000A12AC1F3080101EE901A1168F8EE611A39
:101CB00040EE811A71EE800A62EE200AC1F34621DD
:101CC00001EE101AB8EE411A31EE001AC0EE811A78
:101CD000BCEEE11A80ED001A1168C1F3064101EE75
:101CE000101AB8EE411A31EE001AC0EE811ABCEE9D
:101CF000E11A80ED011A1168C1F3066101EE101AB4
:101D0000B8EE411A31EE000A80EE801ABCEEC10A2C
:101D100080ED020A30BD04E001EE901ADFED092AE1
:101D2000BAE70021016041608160F3E7284402586E
:101D300000000039404402580024744A0090D00347
:101D40000024744C0024F44A2DE9F04F954A4FF4D6
:101D50008079DFF84C824845934E89B09349A8F1C9
:101D600004054FF080574FEA22144FF0005C4FEA11
:101D7000E2032ED1D8F8000000F00700052824D295
:101D8000DFE800F09DB58425AA0003A8FFF7F4FD65
:101D9000049809B0BDE8F08F6846FFF791FE0098FF
:101DA000F7E706A8FFF72EFF0698F2E70868C0F3EA
:101DB000C10022FA00F0ECE70A68D2057ED5B842ED
:101DC0007CD12046E5E71846E3E70020E1E730460E
:101DD000DFE7B0F5007F1AD0DFF8D491B0F5806F5F
:101DE00026D0B0F5006F37D04FF4805A50454FF4ED
:101DF000804B4FD1D8F8000000F4E040B0F5005F10
:101E000044D03DDC00285AD05045DED16FE0D8F8F0
:101E1000000000F4E070802838D004DC00284ED0A8
:101E20004028D2D163E0C028D1D04845CDD153E07D
:101E3000D9F8000000F46000B0F5800F26D004DC73
:101E4000E8B3B0F5001FC0D151E0B0F5C00FBED06F
:101E5000B0F5000FB9D13FE0D9F8000000F0E06024
:101E6000B0F1007F12D004DC48B3B0F1807FACD178
:101E70003DE0B0F1407FAAD0B0F1806FA5D12BE05A
:101E8000B0F5405FA3D058459FD125E00868800099
:101E90009BD586E7B0F5002F4FF4803612D0B042C4
:101EA00037D1286810F4803075D0B0428DD10868E1
:101EB00000018AD56846FFF703FE01E023E06AE0EF
:101EC000029866E7D9F8000010F440300FD0B04215
:101ED00011D0B0F5003F98D128680D6800F040504F
:101EE0006D077FF569AF00287FF466AF5EE708688D
:101EF0000001CDD550E708688000C9D506A8FFF7D6
:101F000081FE089845E709688903C1D5604588D1F5
:101F100059E758452BD1D9F8000000F0E040B0F166
:101F2000405F1CD00CDC90B1B8422CD060458AD107
:101F300008688000ACD506A8FFF764FE079828E77C
:101F4000B0F1804F0FD0B0F1A04F90D11FE0FFF75C
:101F500001FD1EE76846FFF7B3FD019819E7086821
:101F6000400795D522E70868C00591D529E7B0F567
:101F7000004F89D1D8F8000010F0405007D0B84287
:101F800009D0604592D108680001E3D41DE70868D4
:101F90008003FBD517E708688001F7D5F5E6000058
:101FA000504402580090D0030080BB000044025807
:101FB000584402582DE9FC5F044650F8241B0025C4
:101FC00000902E460801FE4FDFF8F8831DD5606EA5
:101FD00050B1B0F5801F0CD0B0F5001F0ED0B0F599
:101FE000401F1DD001250FE0386840F400303860F4
:101FF00016E00221201D01F09BFC03E00098022165
:1020000001F026FD05000BD02E462088C00523D503
:10201000606D05281ED2DFE800F00C11161B1B00B6
:10202000626ED8F8001021F440111143C8F8001076
:10203000EBE7386840F40030386009E00021201DEB
:1020400001F076FC03E00098002101F001FD054657
:102050006DB100E001252E462088800528D5A06DB1
:1020600080281ED00CDC90B140280ED114E0626DA7
:10207000D8F8001021F007011143C8F80010EBE771
:10208000C02813D0B0F5807F10D001250FE038684C
:1020900040F40030386009E00021201D01F048FCC8
:1020A00003E00098002101F0D3FC054695B12E46CF
:1020B0002088DFF81093400509F108092CD5D4F8E1
:1020C000A400B0F5800F20D00DDCA0B1B0F5001F4A
:1020D0000FD115E0A26DD8F8001021F4E071114382
:1020E000C8F80010E4E7B0F5C00F13D0B0F5000F4A
:1020F00010D001250FE0386840F40030386009E066
:102100000021201D01F014FC03E00098002101F0E3
:102110009FFC054675B12E46208800052DD5D4F8C4
:10212000A800B0F1007F21D00EDCA8B1B0F1807F13
:1021300010D116E0D4F8A420D9F8001021F46001E1
:102140001143C9F80010E7E7B0F1407F13D0B0F1B8
:10215000806F10D001250FE0386840F400303860FF
:1021600009E00021201D01F0E3FB03E000980021BD
:1021700001F06EFC05466DB12E46206880011FD52A
:10218000A06CD8B110280FD0202812D0302815D03C
:10219000012514E0D4F8A820D9F8001021F0E0615E
:1021A0001143C9F80010E8E7386840F4003038609F
:1021B00004E00221201D01F0BBFB05466DB12E4657
:1021C0002088C0042BD5E06DB0F5005F20D00DDC79
:1021D000A0B1B0F5805F0FD115E07A48A26C001F66
:1021E000016821F0300111430160E9E7B0F5405F7B
:1021F00013D0B0F5804F10D001250FE0386840F4BF
:102200000030386009E00021201D01F091FB03E05F
:102210000098002101F01CFC054685B12E4620885F
:10222000800429D5206EB0F5403F23D010DC08B3E0
:10223000B0F5803F14D0B0F5003F0FD115E0E26D4E
:10224000D8F8001021F4E0411143C8F80010E6E787
:10225000B0F5802F0ED0B0F5A02F0BD001250AE0ED
:102260000121201D01F064FB03E00098012101F031
:10227000EFFB05468DB12E46208840042AD5D4F8C0
:10228000AC00B0F1405F23D010DC08B3B0F1805F48
:1022900014D0B0F1005F0FD115E0226ED8F8001015
:1022A00021F4E0211143C8F80010E5E7B0F1804FB8
:1022B0000ED0B0F1A04F0BD001250AE00121201D66
:1022C00001F036FB03E00098012101F0C1FB054657
:1022D0006DB12E46208800041FD5E06ED8B1B0F154
:1022E000805F0ED0B0F1005F10D0012514E0D4F86B
:1022F000AC20D9F8001021F0E0411143C9F80010DA
:10230000E8E7386840F40030386004E00121201D1F
:1023100001F00EFB05466DB12E462068C0011ED5AA
:10232000606CD0B101280ED0022811D0032814D03F
:10233000012513E0E26ED8F8001021F0405111435E
:10234000C8F80010E9E7386840F40030386004E06D
:102350000221201D01F0ECFA054685B12E462068C9
:10236000DFF85CB04002ABF11C0B57D51648016892
:1023700041F480710160FFF741F982460EE0114897
:10238000626C001F016821F0030111430160E6E760
:10239000FFF734F9A0EB0A0064283DD80A4800682A
:1023A000C005F5D57DBBDFF81CA0B4F8B0200AF15C
:1023B000200ADAF8001002F4407001F4407105E0E0
:1023C0002C4402585044025800480258814211D00F
:1023D000DAF80010DAF8002021F4407142F480327B
:1023E000CAF80020DAF8002022F48032CAF800206F
:1023F000CAF80010D4F8B000B0F5807F21D1FFF703
:10240000FDF8019019E008E0FFF7F8F80199411A8A
:1024100041F28830814210D903252E462078DFF81A
:1024200044A4C0073DD0A06F182838D026DC80B364
:10243000082829D0102825D12CE0DAF800008007E0
:10244000E2D5D4F8B010C1F30120032858460DD0CE
:10245000016821F47C510160B4F8B020DAF8001072
:10246000C2F30B021143CAF80010D7E7FE4A036813
:1024700002EA111223F47C511143ECE720280ED01C
:1024800028280CD001250BE00121201D01F050FA75
:1024900004E004E00098012101F0DAFA05465DB19C
:1024A0002E46207880071ED5606F062819D2DFE8F7
:1024B00000F0160C11161616A26FDAF8001021F0B3
:1024C00038011143CAF80010EBE70121201D01F08B
:1024D0002FFA03E00098012101F0BAFA054675B120
:1024E00000E001252E46207840071FD5D4F8900043
:1024F000062819D2DFE800F0160C11161616626FC6
:10250000DAF8001021F007011143CAF80010EAE7D9
:102510000121201D01F00CFA03E00098012101F0D7
:1025200097FA05469DB100E001252E4620788006E9
:102530002BD5D4F88C00B0F1405F24D011DC10B35F
:10254000B0F1805F15D0B0F1005F10D116E0D4F883
:102550009020D9F8001021F007011143C9F80010AC
:10256000E4E7B0F1804F0ED0B0F1A04F0BD00125C1
:102570000AE00021201D01F0DBF903E000980221B0
:1025800001F066FA05468DB12E46207840062BD51F
:10259000D4F89800B0F5406F24D011DC10B3B0F53A
:1025A000806F15D0B0F5006F10D116E0D4F88C20F4
:1025B000DAF8001021F0E0411143CAF80010E4E716
:1025C000B0F5805F0ED0B0F5A05F0BD001250AE01A
:1025D0000021201D01F0ACF903E00098022101F078
:1025E00037FA05468DB12E46207800062BD5D4F853
:1025F0009C00B0F5C04F24D011DC10B3B0F5005FE3
:1026000015D0B0F5804F10D116E0D4F89820D9F845
:10261000001021F4E0511143C9F80010E4E7B0F5CF
:10262000004F0ED0B0F5204F0BD001250AE000215D
:10263000201D01F07DF903E00098022101F008FA65
:1026400005464DB12E46207800071ED5D4F88000EF
:10265000B0F5805F0AD00FE0D4F89C20D9F80010C4
:1026600021F460411143C9F80010ECE70098022101
:1026700001F0EEF900B10126D4F88020DAF800105C
:1026800021F440511143CAF800102078C00613D538
:10269000D4F89400B0F5807F05D10098022101F0B4
:1026A000D7F900B10126D4F89420D9F8001021F40C
:1026B00040711143C9F800102068000316D5D4F802
:1026C000A00038B1B0F5803F09D0B0F5003F0BD085
:1026D00001250AE00021201D01F02AF903E00098FD
:1026E000022101F0B5F9054685B12E462068400368
:1026F00022D5D4F88400B0F5801F11D0B0F5001FAA
:1027000013D0B0F5401F15D0012514E0D4F8A02057
:10271000D9F8001021F440311143C9F80010E5E761
:10272000386840F40030386004E00098012101F07E
:102730008FF9054655B12E462068C0031CD5E06CC4
:1027400070B1B0F5803F10D0012514E0D4F884209A
:10275000DAF8001021F440111143CAF80010EBE739
:10276000386840F40030386004E00221201D01F098
:10277000DFF80546CDB12E462068800005D50098CB
:10278000022101F065F900B10126206880031BD504
:10279000E06FB8B1B0F5807F10D0B0F5007F11D0F8
:1027A000B0F5407F0ED001250DE02E48E26C0838D0
:1027B000016821F4803111430160DDE7386840F49D
:1027C00000303860F5B32E462068C00207D5226F6E
:1027D000D8F8001021F000411143C8F8001020681B
:1027E000C00008D5D4F8B420DBF8001021F48041F3
:1027F0001143CBF800102068800207D5A26ED8F8EC
:10280000001021F080711143C8F8001020684000CA
:102810000CD5DBF8001021F40041CBF80010DBF8F8
:102820000010D4F8B8201143CBF80010206800281D
:1028300007DA0C48226D0838016821F04051114335
:10284000016000E014E02068000208D5D4F8882078
:10285000DAF8001021F440011143CAF8001086B1E3
:10286000012003E054440258CFFFFF00BDE8FC9F65
:10287000E26FDAF8001021F440711143CAF8001039
:10288000A2E70020EDE700002DE9F05F04000F460D
:102890007ED0DFF83882D8F8000000F00F00B84290
:1028A0000CD2D8F8001021F00F013943C8F80010FD
:1028B000D8F8000000F00F00B84269D12078844DAC
:1028C00040070AD52069296801F07001884204D9BF
:1028D000296821F070010143296020787C4E361D63
:1028E00000070AD56069316801F07001884204D997
:1028F000316821F07001014331602078C0060AD5AB
:10290000A069316801F4E061884204D9316821F49A
:10291000E061014331602078DFF8B4B180060BF14B
:10292000080B0CD5E1695846DBF8002002F0700274
:10293000914204D9026822F070020A4302602078B2
:1029400080070AD5E068296801F00F01884204D9A0
:10295000296821F00F01014329602078C0073ED08B
:102960005B49A2682868183920F470601043286019
:102970006068022818D0032819D00968012819D0E6
:10298000490700294ADADFF848A1AAF1080A00E05D
:1029900044E0DAF8002022F007020243CAF80020DF
:1029A000FEF72CFE814612E009688903E9E7096811
:1029B0008901E6E7C905E4E7FEF720FEA0EB09017F
:1029C00041F28830814202D90320BDE8F09F61685E
:1029D000DAF8000000F03800B0EBC10FECD120783D
:1029E00080070AD5E068296801F00F01884204D207
:1029F000296821F00F0101432960D8F800104046F2
:102A000001F00F01B9420BD9016821F00F013943E0
:102A10000160006800F00F00B84201D00120D4E747
:102A2000207840070AD52069296801F070018842A2
:102A300004D2296821F07001014329602078000741
:102A40000AD56069316801F07001884204D23168AA
:102A500021F07001014331602078C0060AD5A069D9
:102A6000316801F4E061884204D2316821F4E06108
:102A700001433160207880060CD5E1695846DBF8C7
:102A8000002002F07002914204D2026822F070022B
:102A90000A43026000F06CF80E492A682B68C2F302
:102AA000032203F00F038A5CC95C02F01F0201F0ED
:102AB0001F01D040084A20FA01F11160074908605F
:102AC00007480068BDE8F05FFEF7D4BD0020005263
:102AD00018440258AE4600081800002414000024D0
:102AE0000C00002430B500F043F80B4A0B490C4BA6
:102AF00015681468C5F3032204F00F048A5C095DAD
:102B000002F01F0201F01F01D040064A20FA01F135
:102B100019601060084630BD18440258AE460008DF
:102B2000180000241400002400B5FFF7DBFF05495E
:102B30000968054AC1F30211515C01F01F01C84048
:102B400000BD00001C440258AE46000800B5FFF767
:102B5000C9FF05490968054AC1F30221515C01F02A
:102B60001F01C84000BD00001C440258AE460008CA
:102B7000454970B545480968434B103B11F0380290
:102B800008D00111082A03D0102A0BD0182A0BD024
:102B9000084670BD19688906FBD51968C1F3C101E3
:102BA000C84070BD3A4870BD3749374D18310C1DCB
:102BB00024350A68096826682D6802F0030406F0C7
:102BC0000102C1F30511C5F3CC0515FB02F200EEBD
:102BD000102AB8EE400AE9B32F4ADFED2E0AB7EE0D
:102BE000001A6CB1DFED2D1A012C01D0022C43D05C
:102BF00002EE101A1068F8EE422A81EEA22A1EE0B8
:102C00001C68A40611D51B6801EE901A1168C3F365
:102C1000C103F8EE612AD84001EE900AC1F3080022
:102C2000F8EE611A81EEA22A0BE001EE901ADFEDB8
:102C30001C2A00BFF8EE611A106882EEA12AC0F3C8
:102C4000080001EE900AF8EE611A40EE201A31EE0B
:102C5000810A00E015E022EE000A1068C0F3462069
:102C6000401C00EE900AF8EE600A80EE201ABCEEDE
:102C7000C10A10EE100A70BD01EE901ADFED092AAC
:102C8000D8E7002070BD0000104402580090D00327
:102C900000127A0000000039304402580024744ABF
:102CA0000024744C0024F44A2DE9F05F04007DD028
:102CB000FF4F2078FE4D1837DFF8F493103DC00722
:102CC00048D0D9F80000396800F03800102815D035
:102CD000182803D101F0030002280FD06068B0F576
:102CE000803F12D010B1B0F5A02F18D0286820F482
:102CF00080302860286820F4802009E0286880035C
:102D000028D560680028D2D024E0286840F48030BC
:102D10002860606888B1FEF771FC064609E0286803
:102D200040F480202860F0E7FEF768FC801B6428F0
:102D30006FD828688003F7D50CE0FEF75FFC0646E5
:102D400005E000BFFEF75AFC801B6428F0D8286815
:102D50008003F7D4207841F20308D54E0C3E80075B
:102D600069D5D9F80000396810F038000ED018285D
:102D700001D188070AD0E06890B3296821F01901D1
:102D800001432960FEF73AFC824631E0286840079B
:102D900002D5E06800288AD0E168286820F0190090
:102DA00008432860FEF72AFC824607E0DFE000BF08
:102DB000FEF724FCA0EB0A000228B9D828684007D7
:102DC000F6D500BFFEF714FC40451BD8206940280B
:102DD00012D0316821F47C3141EA003030602AE0C1
:102DE00018E000BFFEF70AFCA0EB0A0002289FD8FB
:102DF00028684007F6D5E5E7306820F47C3040F4D9
:102E00000030EBE7207C316821F0FE4141EA0060B0
:102E1000E4E70DE1286820F001002860FEF7EEFBF2
:102E2000824605E0FEF7EAFBA0EB0A0002288DD8F7
:102E300028684007F6D42078C0065DD5D9F8000090
:102E4000DFF86CB2396800F03800ABF1040B0828E9
:102E500010D0182803D101F0030001280AD0E0693E
:102E60000028286838D040F080002860FEF7C6FBB4
:102E7000824623E02868C00523D5E069802876D102
:102E80001FE0206A202821D0316821F0F84141EA72
:102E90008060306030E000BF94F82010DBF8002044
:102EA00022F07C5242EA0161CBF8001024E000BF1E
:102EB000FEF7A4FBA0EB0A00022898D82868C005FA
:102EC000F6D5FEF795FB4045E6D8DAE7306820F006
:102ED000F84040F08040DCE720F080002860FEF7FA
:102EE0008DFB064605E000BFFEF788FB801B02282D
:102EF0009DD82868C005F7D42078000729D56C48EC
:102F00006169643000298046016811D041F00101F7
:102F10000160FEF773FB064605E000BFFEF76EFB9F
:102F2000801B0228C9D8D8F800008007F6D510E029
:102F300021F001010160FEF761FB064605E000BFDC
:102F4000FEF75CFB801B022872D8D8F800008007CF
:102F5000F6D42078800623D5A0690028286810D0F0
:102F600040F480502860FEF749FB064605E02CE15E
:102F7000FEF744FB801B02285AD828688004F7D546
:102F80000EE020F480502860FEF738FB064604E08F
:102F9000FEF734FB801B02284AD828688004F7D447
:102FA000207840074FD5DFF80C81D8F8001041F4A5
:102FB0008071C8F80010FEF721FB064605E000BF4F
:102FC000FEF71CFB801B642832D8D8F80000C0052F
:102FD000F6D5374EA068603601280AD008B105281A
:102FE00013D0306820F001003060306820F0040019
:102FF00002E0306840F001003060A06841F2883A99
:1030000090B1FEF7FBFA80460AE0306840F0040019
:103010003060EEE7FEF7F2FAA0EB0801514507D861
:1030200030688007F6D50EE0FEF7E8FA804607E044
:1030300084E000BFFEF7E2FAA0EB080151457DD81D
:1030400030688007F6D4606AB0B3DFF86480D9F8DE
:10305000001008F12008C1F3C20103296FD0022833
:10306000286820F08070286003D0FEF7C7FA044675
:1030700080E0FEF7C3FA064605E000BFFEF7BEFAA1
:10308000801B022873D828688001F7D4E26A40F2D6
:10309000F331386854F8283F884340EA0210184357
:1030A0003860217B4FF4FE0C22894FF0FE4704E08C
:1030B000104402580048025889E0208A4902521EF2
:1030C000267DA1F5007189B2401EC2F308021143AA
:1030D000761E0CEA004001433E4807EA06621143AF
:1030E0003C4AC8F800100832016821F00101016073
:1030F00011684FF6F876236AB14341EAC3011160C3
:103100000168A26921F00C01114301600168E269C4
:1031100021F0020111430160016841F48031016036
:10312000016841F400310160016841F480210160CF
:10313000016841F001010160286801E017E01DE02D
:1031400040F080702860FEF759FA044605E000BFA1
:10315000FEF754FA001B022809D828688001F7D529
:1031600035E000BFFEF74AFA001B022802D903200F
:10317000BDE8F09F28688001F4D428E03968012870
:10318000D8F8000021D0A26A01F0030393421CD1B9
:10319000E26AC1F305118A4217D1216BC0F308021C
:1031A000491E8A4211D1616BC0F34622491E9142E9
:1031B0000BD1A16BC0F30642491E914205D1E16BD0
:1031C000C0F30660491E814201D00120D0E70020F3
:1031D000CEE700002C4402582DE9F047040029D026
:1031E000504A4FF0000920684F4B504D9042C4F8B0
:1031F000289006D0984204D0A84202D0E1680F2956
:1032000018D8E1684FF0010AE76B0831C9080AEBEA
:1032100057167143904205D0984203D0A84201D07E
:10322000082907D8904203D0984201D0A84204D17F
:10323000102902D90120BDE8F08794F8810020B957
:10324000204684F8809000F073F8022084F8810012
:103250002068016821F0010101602168A0698A6885
:10326000B0F1806F02F4F81010D16268B2F5800FEF
:1032700001D01AB10AE0A26B22B107E0A26BB2F151
:10328000805F03D10A6842F480520A60A66AE1694D
:10329000E26B25683143E368024311431943A96097
:1032A000D4E90D02D4E90571636A25691843D4F89D
:1032B00020C00A43266810432843A56D3843D4E94B
:1032C0000182D4E9123140EA0C0040EA08000843C8
:1032D000104318432843F060606868B9206881682B
:1032E00021F4C05141F4006181602068816821F4BB
:1032F000C06141F4806181602068016D21F00101AD
:1033000001656068400206D52068626DC16821F0E1
:1033100000411143C160C4F8849084F881A000206A
:1033200089E700000030014000380040003C0040C8
:10333000F0B5B5B0044614212FA8FDF7C6F8BC219E
:103340006846FDF7C2F826492068884246D18014B5
:103350000090002468461794FEF72CFE08B1FDF794
:1033600039FB2048016841F400410160006800F425
:10337000004034901B480838016841F001010160A9
:10338000016801F001013491016841F0020101601E
:1033900000680626022500F00200349010202F90CD
:1033A00011482FA9CDE93054CDE93246FEF704F893
:1033B00007210E4F04202F90CDE93054CDE9324142
:1033C0002FA93846FDF7F8FF18202F90CDE930548B
:1033D000CDE932462FA93846FDF7EEFF35B0F0BDF6
:1033E000003C0040E8440258000002580004025823
:1033F00003490A6822F4600202430A607047000031
:1034000004040058401EB0F1807F10B501D30120A4
:1034100010BD4FF0E02460610F21601701F00CF93E
:103420000020A0610721216110BD30B590F8801007
:10343000012918D0012280F880202421C0F88410AE
:103440000022202450F8641B0B680D6823F0005301
:1034500025F001050D60026050F8641C0B600462E9
:103460000277104630BD022030BD70B5044690F89A
:10347000800001281DD0012284F880202420C4F877
:10348000840020680568026822F00102026020685A
:10349000826822F060620A438260204600F038FCB5
:1034A0002268202100201560C4F8841084F8800070
:1034B00070BD022070BD70B5044690F880000128F0
:1034C0001DD0012284F880202420C4F884002068C4
:1034D0000568026822F0010202602068826822F01A
:1034E00060420A438260204600F012FC22682021DC
:1034F00000201560C4F8841084F8800070BD02209C
:1035000070BD10B5040003D0D4F8840010B107E0FA
:10351000012010BD002084F88000204600F026F82D
:103520002420C4F884002068016821F001010160B2
:10353000204600F0A3FC0128EBD0A06A10B1204681
:1035400000F008FC2068416821F490414160206847
:10355000816821F02A0181602068016841F0010141
:1035600001602046BDE8104000F058BC30B5B5B051
:10357000044614212FA8FCF7A8FFBC216846FCF7DD
:10358000A4FF17492068884228D1022568460024F4
:1035900000951D94FEF70EFD08B1FDF71BFA1148CA
:1035A000016841F480210160006800F480203490BB
:1035B0000C480838016841F00801016000680721E3
:1035C000CDE9305400F008003490CDE932414FF499
:1035D00040702F9004482FA9FDF7EEFE35B030BDA6
:1035E00000480040E8440258000C0258FEE780689A
:1035F000C0F3C00070478068C0F38000704710B50A
:10360000042404EAD1540723C1F3045120448B401D
:103610008A40416999431143416110BD30B587B07B
:103620001C216846FCF751FF174804251549002462
:10363000012284600160C0E903450475447582611C
:10364000047744628462C4620463446380F838404F
:10365000FDF7AEFB08B172B6FEE70C48062140F25A
:10366000FF7203928DE8130007486946CDE90454C0
:103670008DF81940FDF7B0F9002801D072B6FEE7C9
:1036800007B030BD00600258540000240002B0258D
:1036900016498023164870B5134A00240A60E125B4
:1036A00004700126437040F2F4528570C4700471B6
:1036B000447148600F480E72C8600F48C1E90402A7
:1036C0000846FDF7E3FC08B172B6FEE7074838216B
:1036D0009C38FCF7FAFE054821224FF440319C3813
:1036E0000260C0E9044170BD00800240B8000024BF
:1036F0000000002400020030000000302DE9F047F7
:1037000086B014216846FCF7E0FE4448016841F0A9
:1037100004010160016801F004010591016841F0B4
:1037200020010160016801F020010591016841F06C
:1037300080010160016801F080010591016841F09C
:1037400001010160016801F001010591016841F08A
:1037500002010160016801F002010591016841F078
:1037600008010160016801F008010591016841F05C
:1037700040010160016801F040010591016841F0DC
:1037800010010160006844F20106DFF89480002215
:1037900000F01000314605904046FDF723FFDFF8AA
:1037A00084903711002239464846FDF71BFFDFF8A9
:1037B00078A0002202215046FDF714FF002469463C
:1037C00070100294CDE900041848FDF7F5FD0125BD
:1037D0000096CDE90154694640460394FDF7ECFD9F
:1037E00000976946CDE9015448460394FDF7E4FD8E
:1037F00080204FF488118DE813000D486946FDF7CD
:10380000DBFD02200090CDE9015469465046039447
:10381000FDF7D2FD06B0BDE8F0870000E044025895
:1038200000040258000C0258001002580008025808
:103830000018025870B513481C224FF48004104D34
:103840000021E301C0E9021201615A00C0E9051339
:10385000C161016241628162C162C0E90D21C1633F
:10386000016441648164C164016541658165C0E9A9
:103870000054FFF7B1FC002801D072B6FEE770BD1E
:10388000003C0040680100241748002110B5154C89
:103890000C224FF4E1330460C0E90131C160C0E99A
:1038A00004128161C161016241628162FFF729FEF8
:1038B00008B172B6FEE70C480021FFF7FCFD08B125
:1038C00072B6FEE708480021FFF7CFFD08B172B6D7
:1038D000FEE70548FFF7A9FD002801D072B6FEE714
:1038E00010BD000000480040F00100240D480021F8
:1038F00070B502230A4D0122C0E903318361092416
:10390000C0E90721C0E90912C0E90B21C0E9005450
:10391000FDF724FF002801D072B6FEE770BD00005D
:103920000000084080020024FEE7FEE77047000028
:103930002DE9F047454D044689464FF0000A2868B6
:10394000C04380070AD0414E283E306820F0806096
:103950003060FDF753FE0746B04608E00120BDE8A1
:10396000F08700BFFDF74AFEC01B022867D8D8F8D1
:1039700000000001F6D4206829684FF4FE0721F406
:103980007C313E0241EA00302860207AA389B4F8F5
:1039900004C040022D4D2D495B1E227CACF1010C70
:1039A0001035091DA0F5007080B2521ECCF3080C32
:1039B00007EA034340EA0C00184306EA0262104398
:1039C00028600868626920F0C000104308600A6837
:1039D000A06922F0200202430A60281D0A6822F032
:1039E00010020A6002684FF6F873E4699A4342EAEB
:1039F000C40202600868B9F1000F40F010020A60CA
:103A000011D00868B9F1010F11D040F4001008601E
:103A1000D8F80000444640F08060C8F80000FDF788
:103A2000EDFD05460DE0086840F40020EFE740F4A6
:103A30008010ECE7FDF7E2FD401B022801D90320CE
:103A40008DE720680001F5D5504688E728440258E4
:103A50002DE9F047454D044689464FF0000A286895
:103A6000C04380070AD0414E283E306820F0805085
:103A70003060FDF7C3FD0746B04608E00120BDE811
:103A8000F08700BFFDF7BAFDC01B022867D8D8F841
:103A900000008000F6D4208829684FF4FE0721F04A
:103AA0007C713E0241EA00502860207AA389B4F874
:103AB00004C040022D4D2D495B1E227CACF1010C4F
:103AC0001835091DA0F5007080B2521ECCF3080C09
:103AD00007EA034340EA0C00184306EA0262104377
:103AE00028600868626920F44060104308600A6832
:103AF000A06922F4007202430A60281D0A6822F4B9
:103B000080720A6002684FF6F873E4699A4342EAE9
:103B1000C40202600868B9F1000F40F480720A60C4
:103B200011D00868B9F1010F11D040F08070086021
:103B3000D8F80000444640F08050C8F80000FDF777
:103B40005DFD05460DE0086840F48000EFE740F4B5
:103B50000000ECE7FDF752FD401B022801D90320CD
:103B60008DE720688000F5D5504688E72844025844
:103B70007047FDF749BD0000F0B59DB04C21684687
:103B8000FCF7A3FC202113A8FCF79FFC0220FDF703
:103B9000AFFE25490A68254822F001020A6009683B
:103BA000016821F4404141F40041016001680024B2
:103BB00001F440411B9101688904FCD51C49032292
:103BC00001230D680220402725F00305AD1C0D6080
:103BD0004FF4A026099012210C25CDE90026CDE94D
:103BE0000337CDE90A03CDE90C10CDE90E20CDE96C
:103BF0001050D60268461296FFF756F808B172B612
:103C0000FEE73F20CDE913041594012113A8169473
:103C10001794189419941A94FEF736FE002801D0D0
:103C200072B6FEE71DB0F0BD2C04005818480258CB
:103C3000284402582C48F0B52C4A016841F4700120
:103C40000160106800F00F00072804D2106820F00F
:103C50000F00C01D106026490020254C10340B6851
:103C6000244D43F001030B6020600B682B400B6078
:103C7000136803F00F03072B04D9136823F00F0315
:103C8000DB1D13601A4C1C4A18341C4B261D371DB3
:103C90002060174C1A4D28343060261D3860371DBF
:103CA00023603B1D35601C1D3A60251D2E1D1860CC
:103CB000331D22602860326018600A680C4B114C7A
:103CC00022F4802260330A60186020686FF30F00CE
:103CD000B0F1005F03D20C490120C1F8080143F2A2
:103CE000D2000A490860F0BD88ED00E000200052D3
:103CF000004402587FEDF6EA800201010002020250
:103D00000000FF010010005C0080005100400052E4
:103D100030B5416EB9B101680D4B03F108048A68F2
:103D20008968C2F34262490F5D5C615C2D01B5FB9D
:103D3000F1F1A0F86A10995CA25C0901B1FBF2F103
:103D4000A0F8681030BD0121A0F86A10F8E7000063
:103D50009E46000890F82810C90706D00168C36A7B
:103D60004A6822F400321A434A6090F82810890702
:103D700006D50168036B4A6822F480321A434A6010
:103D800090F82810490706D50168436B4A6822F469
:103D900080221A434A6090F82810090706D5016866
:103DA000836B4A6822F400421A434A6090F8281054
:103DB000C90606D50168C36B8A6822F480521A438B
:103DC0008A6090F82810890606D50168036C8A6815
:103DD00022F400521A438A6090F82810490611D53F
:103DE0000168436C4A6822F480121A434A60416CAD
:103DF000B1F5801F06D10168836C4A6822F4C002C5
:103E00001A434A6090F82810090606D50168C26C6A
:103E1000486820F40020104348607047F8B5002639
:103E20000446C0F88C60FDF7E9FB054620686FF09A
:103E30007E470068000708D500222B464FF400118A
:103E40002046009700F0F0F960B92068006840074C
:103E50000AD500222B464FF480012046009700F03F
:103E6000E3F908B10320F8BD2020C4F88400C4F8A9
:103E70008800E666002084F88060F8BD2DE9F043F4
:103E800004468068D84E87B0D84B2168D4E904270F
:103E9000D4F81CC010430A68002547EA0C073843D1
:103EA000324002430A602068E268416821F44051D0
:103EB000114341602268A1699A4201D0206A0143FE
:103EC0009768DFF82CC3CB4ECB4807EA0C070F43AB
:103ED00097602168676ACA6A22F00F023A43CA6291
:103EE0002268B2420ED1006800F03800182873D062
:103EF00047DCB8B3082879D010286FD178E028289B
:103F00007ED17BE0BD498A4209D1006800F00700FC
:103F1000062875D2DFE800F0546A6C6E7072B849FA
:103F20008A4209D1006800F00700062868D2DFE85D
:103F300000F0475D5F616365B2498A4209D100685C
:103F400000F0070006285BD2DFE800F03A50525438
:103F50005658AD498A420BD1006800F00700062888
:103F60004ED200E010E0DFE800F02B414345474926
:103F7000A6498A420AD1006800F03800182839D0D2
:103F8000B7DD2028BBD13CE001203AE0A0498A42BD
:103F900009D1006800F00700062831D2DFE800F000
:103FA0001026282A2C2E9B498A420BD1006800F04B
:103FB0000700062824D2DFE800F003191B1D1F218B
:103FC00000201EE09A421BD18B48001D006800F0C3
:103FD0000700062814D202E00CE007E010E0DFE85A
:103FE00000F0030507090B0D02200AE0042008E099
:103FF000082006E0102004E0202002E0402000E03D
:1040000080208549DFF814829A42854A4FF40043A4
:104010004FEA21174FF000064ED110281AD006DCC7
:10402000022809D004280BD008287CD10DE02028D4
:104030003ED0402877D13DE0FDF78CFC014610E0F2
:104040006846FDF73DFD01990BE003A8FDF7DAFD99
:10405000049906E01068800605D51068C0F3C10019
:10406000C140002970D0606A676838F8102007EBFB
:104070004703B1FBF2F0834255D8B0EB073F52D86B
:10408000002308461946FCF777F902467808130E14
:10409000120243EA012110183A4671410023FCF74D
:1040A0006BF9604AA0F5407191423CD821688FE0DD
:1040B0003946D8E71946D6E7D4F81CC04FF6EF7951
:1040C0009C4546D1082819D005DC58B101280CD0F0
:1040D000042875D10DE0102815D0202835D04028AF
:1040E0006ED134E0FEF720FD01E0FEF72FFD014622
:1040F00010E06846FDF7E4FC01990BE003A8FDF72A
:1041000081FD049906E01068800604D51068C0F3AC
:10411000C100C140C1B1636A606838F81330B1FBB7
:10412000F3F1490000E04BE001EB5001B1FBF0F08E
:10413000A0F11001494543D84FF6F0732168C0F350
:1041400042021840104343E043E03946E3E7194692
:10415000E1E7082819D005DC58B101280CD0042863
:104160002ED10DE0102815D020282BD0402827D1A3
:104170002AE0FEF7D9FC01E0FEF7E8FC014610E07A
:104180006846FDF79DFC01990BE003A8FDF73AFD99
:10419000049906E01068800604D51068C0F3C100D9
:1041A000C140B1B1636A606838F81330B1FBF3F114
:1041B00001EB5001B1FBF0F0A0F11001494505D928
:1041C000012506E03946EDE71946EBE7216880B2A4
:1041D000C8600120A4F86A00A4F868002846266791
:1041E000666707B0BDE8F083F369FFCF000C0058A5
:1041F000FFF4FF11001001405444025800440040F5
:1042000000480040004C00400050004000140140B5
:1042100000780040007C00400090D00386460008F3
:1042200000440258FFFC0F002DE9F0479A4617465C
:104230000E460446089D4FF000094FF020084CE060
:10424000681C4AD0FDF7DAF9A0EB0A00A8422AD888
:104250004DB32068016849073FD5C069C0430005D8
:104260003BD421684FF400600862216851E8000FD8
:1042700020F4D07041E80002002AF6D1206808300E
:1042800050E8001F21F0010140E80012002AF5D19A
:10429000C4F8848084F88090C4F88880C4F88C8046
:1042A0000320BDE8F087206850E8001F21F4D0719A
:1042B00040E80012002AF6D12068083050E8001FBC
:1042C00021F0010140E80012002AF5D1C4F88480F1
:1042D00084F88090C4F88880E2E72068C06936EAF4
:1042E000000004D00020B842AAD00020D9E7012065
:1042F000F9E7000070B5044606990A9E049D01295D
:104300000D981DD0E06840F04000E060204600F0CD
:1043100035F8A16B5EB321F48031A163012D0ED17C
:10432000E16D144A89B2E165E16D1143E165A1686F
:1043300041F00601A160A16841F02001A16070BDBB
:10434000A26B01280C4922F48030A063E06800EAE7
:104350000100E060E06820F44010E06003D1E06814
:1043600040F48010E060204600F008F8D6E741F401
:104370008031D2E70000EE03BFFFBDFF08B50E4954
:1043800000220092009B5B1C00938B420CD80369B7
:10439000002BF7DA0092026942F001020261009AF2
:1043A000521C00928A4201D9032008BD0269D2073B
:1043B000F5D1002008BD0000400D0300D0F8001E1C
:1043C00021F00301C0F8001ED0F8041841F00201EA
:1043D000C0F80418002070472DE9F04F0E4604463F
:1043E0000021DDF824B00D46109F0846DDF82C2092
:1043F00004EB800CCCF80411401C0F28F8D32046A5
:10440000AFB1806B40F4001CC4F838C08846084641
:10441000C4F8000ED4F80008012A2146C4F80008A8
:104420001BD00846D1F8001841F003011BE0D0F87A
:10443000040840F0020CC4F804C8A06B20F4001C6F
:10444000C4F838C0206840F0400CC4F800C02068B0
:1044500040F0800CC4F800C0D8E70846D1F8001836
:104460000BB141F00101C0F80018102100F094F8E0
:1044700000B10125204600F071F800B10125404649
:104480004FF000694FF67F334FF0904AC4F8108820
:10449000C4F81488C4F81C88002114E004EB41120D
:1044A000D2F800C9BCF1000F06DA11B1C2F800A9B8
:1044B00004E0C4F8009901E0C2F80009C2F810094C
:1044C000C2F80839491C8E42E8D8002115E000BF27
:1044D00004EB4112D2F800CBBCF1000F06DA11B1A7
:1044E000C2F800AB04E0C4F8009B01E0C2F8000B86
:1044F000C2F8100BC2F8083B491C8E42E8D8D4F829
:104500001038BBF1000F6FF0804223F48073C4F8C1
:104510001038A061626103D1A06940F01000A06171
:10452000A069094A0C9940EA0200A06119B1A0698A
:1045300040F00800A061012F03D1A069034908439E
:10454000A0612846BDE8F08F00383C8004000040A0
:10455000816821F0010181600020704708B50D4994
:1045600000220092009B5B1C00938B420AD80369D7
:10457000002BF7DA009210230361009A521C00927C
:104580008A4201D9032008BD0269D206F5D4002071
:1045900008BD0000400D030018B50E4A002300932B
:1045A000009C641C009494420CD80469002CF7DA37
:1045B0002024009344EA811101610099491C009173
:1045C000914201D9032018BD01698906F5D4002064
:1045D00018BD0000400D030070B50446C0680129F5
:1045E0004FF0000520F0C040E06001D079B120E03C
:1045F000E06840F00050E0600120FCF735FD6069A4
:104600006D1C10F0010F10D1322DF5D30DE0E068D4
:1046100040F08040E0600120FCF726FD60696D1CE1
:1046200010F0010F01D0322DF5D3322D01D0002032
:1046300070BD012070BDFEE7090700284FEA116137
:1046400004DB00F1E02080F80014704700F00F0058
:1046500000F1E02080F8141D7047FCF7DDFFFFF744
:104660008BFAFFF74BF8FFF713F8FFF70DF9FFF799
:104670003DF9FEF7D3FFFFF7DDF8FEE74FF040709E
:10468000E1EE100A70470100020004000600080075
:104690000A000C0010002000400080000001010111
:1046A00001030701000008040204080101010000E1
:1046B00000000102030401020304060708090000C8
:1046C000E0460008000000241C000000D40200089E
:1046D000FC4600081C000024D40D0000F002000875
:1046E00000000000000000000100000010000000B9
:0C46F000000000000090D0030090D003F8
:040000050800029954
:00000001FF
