:020000040800F2
:1000000090140020D5020008DDA5000865970008BF
:10001000D9A5000879100008B1C80008E702000857
:10002000000000000000000000000000C1AF000858
:100030008D14000800000000E5A9000885B0000844
:10004000F1020008F1020008F1020008F1020008C4
:10005000F1020008F1020008F1020008F1020008B4
:10006000F1020008F1020008F1020008F1020008A4
:10007000F1020008F1020008F1020008F102000894
:10008000F1020008F1020008F1020008F102000884
:10009000F1020008F1020008F1020008F102000874
:1000A000F1020008F1020008F1020008F102000864
:1000B00000000000F1020008F1020008F10200084F
:1000C000F1020008F1020008F1020008F102000844
:1000D000F1020008450E0008F1020008F1020008D4
:1000E000F1020008F1020008F1020008F102000824
:1000F000F1020008F1020008F1020008F102000814
:10010000F1020008F1020008F1020008F102000803
:10011000F1020008F1020008F1020008F1020008F3
:10012000F1020008F1020008F1020008F1020008E3
:10013000F1020008F1020008F1020008F1020008D3
:10014000F1020008F1020008F1020008F1020008C3
:10015000F1020008F1020008C1B10008F102000834
:10016000F10200084DA60008F1020008F1020008A3
:10017000F1020008F1020008F1020008F102000893
:10018000F1020008F1020008A1140008F1020008C1
:10019000F1020008F1020008F1020008F102000873
:1001A000F1020008F1020008F1020008F102000863
:1001B000F102000800000000F1020008F10200084E
:1001C000F102000800000000F1020008F10200083E
:1001D000F1020008F1020008F1020008F102000833
:1001E000F1020008F1020008F1020008F102000823
:1001F0000000000000000000F1020008F102000809
:10020000F1020008F1020008F1020008F102000802
:10021000F1020008F1020008F1020008F1020008F2
:10022000F1020008F1020008F1020008F1020008E2
:10023000F102000800F002F800F03CF80AA090E893
:10024000000C82448344AAF10107DA4501D100F091
:1002500031F8AFF2090EBAE80F0013F0010F18BF22
:10026000FB1A43F001031847CCE60000ECE600005F
:10027000103A24BF78C878C1FAD8520724BF30C8D2
:1002800030C144BF04680C607047000000230024A4
:1002900000250026103A28BF78C1FBD8520728BF96
:1002A00030C148BF0B6070471FB50EF0EEF91FBD9F
:1002B00010B510BD00F0E6F81146FFF7F5FF0CF0A1
:1002C00059FB00F004F903B4FFF7F2FF03BC00F0A0
:1002D00007F900000A4880470A480047FEE7FEE7A2
:1002E000FEE7FEE7FEE7FEE7FEE7FEE7FEE7FEE7E6
:1002F000FEE7000004480549054A064B7047000028
:100300002DB1000835020008900C00209014002048
:10031000901000209010002053EA020C00F0698039
:100320002DE9F04B4FF00006002B1FBFB3FA83F509
:1003300003FA05F424FA05F65E4012BF1643B2FA3A
:1003400082F502FA05F4C5F120051EBF22FA05FC6C
:1003500044EA0C04203556EA044C4FEA144418BF12
:10036000641C4FF000084FF00009904271EB030C41
:1003700039D3002919BFB1FA81F701FA07F6B0FAAB
:1003800080F700FA07F6C7F120071EBF20FA07FC26
:1003900046EA0C062037B6FBF4FCA7EB0507103F36
:1003A00007F01F0BCBF120062CFA06F60CFA0BFB1C
:1003B00044BFB3460026202FA4BF5E464FF0000B7B
:1003C0005BEA060C08BF4FF0010B19EB0B0948EB79
:1003D0000608ABFB027C06FB02CC0BFB03CCC01B6C
:1003E00071EB0C01C1E70B46024641464846BDE8A9
:1003F000F08B13B5084318BF4FF0FF300146AFF341
:100400000080BDE81C4070474FF0000200B5134665
:1004100094469646203922BFA0E80C50A0E80C5024
:10042000B1F12001BFF4F7AF090728BFA0E80C50D5
:1004300048BF0CC05DF804EB890028BF40F8042BCE
:1004400008BF704748BF20F8022B11F0804F18BF3B
:1004500000F8012B704770477047704710B500F0E7
:1004600009F8006810BD10B5044600F003F80460F8
:1004700010BD000000487047100000200048704781
:10048000100000207546FFF7F9FFAE4605006946EB
:10049000534620F00700854618B020B5FFF72AFF25
:1004A000BDE820404FF000064FF000074FF0000875
:1004B0004FF0000BAC46ACE8C009ACE8C009ACE8B2
:1004C000C009ACE8C00921F007018D46704710B59E
:1004D0000446AFF300802046BDE81040FFF7F3BEAE
:1004E00001491820ABBEFEE726000200704700005D
:1004F00080B588B007900798B0F87404ADF81A007A
:100500000798B0F87604ADF818000798B0F87804AA
:10051000ADF8160000200490FFE70498032800F3CC
:100520000D82FFE704994FF0807088400390BDF87A
:100530001A00ADF80A00BDF80A000799049A41F8BC
:10054000220007980399BDF80A20114341F44001A5
:1005500000F01CFC49F661000190ADF80A00BDF8FE
:100560000A000799049A02EB420201EB8201C1F8EA
:10057000000107980399BDF80A20114341F49A013C
:1005800000F004FCBDF81600ADF80A00BDF80A0042
:100590000799049A02EB420201EB8201C1F80401BF
:1005A00007980399BDF80A20114341F40D0100F0AA
:1005B000EDFBBDF81800ADF80A00BDF80A00079978
:1005C000049AC2EB021201EB8201086107980399B9
:1005D000BDF80A20114341F4900100F0D7FBBDF8AB
:1005E0001600ADF80A00BDF80A000799049AC2EB9C
:1005F000021201EB8201486107980399BDF80A20B5
:10060000114341F4080100F0C1FBBDF81800ADF83A
:100610000A00BDF80A000799049AC2EB021201EB26
:100620008201C86107980399BDF80A20114341F47B
:10063000920100F0ABFBBDF81600ADF80A00BDF862
:100640000A000799049AC2EB021201EB82010862C8
:1006500007980399BDF80A20114341F4090100F0FD
:1006600095FBBDF81800ADF80A00BDF80A0007991F
:10067000049AC2EB021201EB820188620798039987
:10068000BDF80A20114341F4940100F07FFBBDF84E
:100690001600ADF80A00BDF80A000799049AC2EBEB
:1006A000021201EB8201C86207980399BDF80A2083
:1006B000114341F40A0100F069FBBDF81800ADF8E0
:1006C0000A00BDF80A000799049AC2EB021201EB76
:1006D0008201486307980399BDF80A20114341F449
:1006E000960100F053FBBDF81600ADF80A00BDF806
:1006F0000A000799049AC2EB021201EB8201886397
:1007000007980399BDF80A20114341F40B0100F04A
:100710003DFBBDF81800ADF80A00BDF80A000799C6
:10072000049AC2EB021201EB820108640798039954
:10073000BDF80A20114341F4980100F027FBBDF8F1
:100740001600ADF80A00BDF80A000799049AC2EB3A
:10075000021201EB8201486407980399BDF80A2050
:10076000114341F40C0100F011FBBDF81800ADF885
:100770000A00BDF80A000799049A02EB420201EB55
:100780008201C1F8300107980399BDF80A2011438E
:1007900041F4A80100F0FAFABDF81600ADF80A001D
:1007A000BDF80A000799049A02EB420201EB8201AC
:1007B000C1F8340107980399BDF80A20114341F4A8
:1007C000140100F0E3FA0198ADF80A00BDF80A0040
:1007D0000799049A02EB420201EB8201C1F8600121
:1007E00007980399BDF80A20114341F4AA0100F0CB
:1007F000CDFABDF81600ADF80A00BDF80A00079959
:10080000049A02EB420201EB8201C1F864010798ED
:100810000399BDF80A20114341F4150100F0B6FA1E
:100820000198ADF80A00BDF80A000799049A02EB96
:10083000420201EB8201C1F8600107980399BDF8FB
:100840000A20114341F4AA0100F0A0FABDF81600F5
:10085000ADF80A00BDF80A000799049A02EB4202BB
:1008600001EB8201C1F8640107980399BDF80A20E1
:10087000114341F4150100F089FABDF81800ADF8F4
:100880000A00BDF80A000799049A02EB420201EB44
:100890008201C1F8900107980399BDF80A2011431D
:1008A00041F4B80100F072FABDF81600ADF80A0084
:1008B000BDF80A000799049A02EB420201EB82019B
:1008C000C1F8940107980399BDF80A20114341F437
:1008D0001C0100F05BFABDF81800ADF80A00BDF885
:1008E0000A000799049A02EB420201EB8201C1F867
:1008F000C00107980399BDF80A20114341F4BA01D9
:1009000000F044FABDF81600ADF80A00BDF80A0080
:100910000799049A02EB420201EB8201C1F8C4017B
:1009200007980399BDF80A20114341F41D0100F016
:100930002DFAFFE7049801300490EEE5002008B09E
:1009400080BD000080B586B005900491ADF80E2002
:100950000820029002980599D1F840140844000438
:100960000290029840F44000029000200190FFE7BE
:10097000019803281CDCFFE704980199C840C001D6
:10098000002810D5FFE7BDF80E00059A0199C1EBCC
:10099000011102EB8101D2F8402402EB420201EB8B
:1009A00082018861FFE7FFE7019801300190DFE7EE
:1009B00005980499029A1143BDF80E20114300F0E6
:1009C000E5F9002006B080BD80B598B0179016916B
:1009D0008DED140B1798D0F8700413900020C4F21A
:1009E000A0000F901798D0F87C040E909DED140B8A
:1009F00053EC102B104619460CF0A2FF41EC100BE3
:100A00008DED060B0E980DF0A5FD9DED061B41EC3E
:100A1000100B51EC110B53EC102B0DF0A1FA41EC23
:100A2000100B8DED080B0F980DF094FD9DED081B3C
:100A300041EC100B51EC110B53EC102B0DF090FA14
:100A400041EC100B51EC100B9FED3F0B53EC102BB6
:100A50000DF032F841EC100B8DED0A0B13980DF0F0
:100A600079FD9DED0A1B41EC100B51EC110B53EC81
:100A7000102B0DF021F841EC100B8DED0C0B9FEDC0
:100A8000340B9FED351B0CF00BF8B0EE401AF0EE76
:100A9000601A9DED0C0B53EC112B51EC100B0DF06B
:100AA0005FFA41EC100B51EC100B9FED2D0B53EC4A
:100AB000102B0CF045FF41EC100B8DED100B109836
:100AC00011999FED290B53EC102B0DF08AFD28B9DD
:100AD000FFE79FED250B8DED040B04E09DED100B62
:100AE0008DED040BFFE79DED040B8DED100B1098C1
:100AF00011999FED1F0B53EC102B0DF06BFD28B9D6
:100B0000FFE79FED1B0B8DED020B04E09DED100B3D
:100B10008DED020BFFE79DED020B8DED100B17988D
:100B20000190169800909DED100B51EC100B0DF0FC
:100B300059F9009902460198FFF704FF002018B008
:100B400080BD00BF00BF00BF0000000000001240D9
:100B500000000000000000400000000000003040E5
:100B6000000000000000E04000000000E0FFEF4057
:100B7000000000000000000080B584B003900291E6
:100B8000ADF8062000200090FFE70098032817DC4E
:100B9000FFE702980099C840C00100280BD5FFE785
:100BA000BDF806000399009A02EB420201EB8201B4
:100BB000C1F80801FFE7FFE7009801300090E4E783
:100BC00003980299BDF80620114341F44D0100F04D
:100BD000DDF8002004B080BD80B586B0049003919C
:100BE0000292039820B3FFE700200190FFE70198ED
:100BF000032814DCFFE703980199C840C0010028CE
:100C000008D5FFE702980499019A01EB8201C1F827
:100C10005804FFE7FFE7019801300190E7E70498E7
:100C20000399029A114300F0B1F80020059003E007
:100C30004FF0FF300590FFE7059806B080BD00003B
:100C400080B582B00190009100980199C1F85404D8
:100C50000198009900F09AF8002002B080BD0000D1
:100C600080B586B0059004918DF80F209DF80F0097
:100C700000F007008DF80F009DF80F000599C1F8EE
:100C80004004059804994FF40042FFF75BFE059875
:100C90009DF80F100AF096F900200290FFE70298E5
:100CA000032831DCFFE704980299C840C0010028FE
:100CB00025D5FFE70598029900EB8100D0F858048C
:100CC0000190019800F47860019002984FF08071D3
:100CD00001FA00F20198104301909DF80F2001984D
:100CE00040EAC23043F20002C0F2280210430190F1
:100CF0000598029A9140019AFFF76EFFFFE7FFE720
:100D0000029801300290CAE7002006B080BD0000C2
:100D100080B584B003900291039802994FF4004289
:100D2000FFF72AFF00200190FFE7019803282ADC43
:100D3000FFE702980199C840C00100281ED5FFE7CF
:100D40000398019900EB8100D0F8580400900098B6
:100D500020F07060009001984FF0807101FA00F26D
:100D6000009810430090009840F4C1100090039840
:100D7000019A9140009AFFF72FFFFFE7FFE70198E4
:100D800001300190D1E7002004B080BD80B586B06D
:100D90000590049140F60040C4F202200290042124
:100DA0000091002202F034FC00BF0598D0F88004C6
:100DB00004A9012201924FF47A7307F0B1FF009960
:100DC000019A03460298039300BF02F021FC0398A6
:100DD00006B080BD80B586B0059004918DED030A04
:100DE00004980599C1F8800403980599C1F8700426
:100DF000002001900290059946F26C10A1F874044D
:100E000005994FF6FF70A1F8760405994FF400405C
:100E1000A1F87804029840F060000290029840F433
:100E20000070029005980299FFF70AFF019802905E
:100E30000598029A4FF07061FFF7CEFE019806B058
:100E400080BD000080B582B040F20C50C2F20000BC
:100E5000006800684007002835D5FFE740F20C50D5
:100E6000C2F2000001F0ACF9014640F27000C2F29B
:100E7000000003885A1C028040F27402C2F2000291
:100E800042F82310008840F20001C2F200010988F4
:100E9000884203DBFFE70020019006E040F270008B
:100EA000C2F2000000880190FFE7019840F2700153
:100EB000C2F20001088040F20C50C2F2000001684A
:100EC00004200860FFE740F20C50C2F20000016805
:100ED0000A20086002B080BD80B584B002900298FC
:100EE000006808F099FC00900298006808F09CFCEB
:100EF00000284BD0FFE70098002847D1FFE7029871
:100F00000068806800F00D00012809D1FFE7029811
:100F1000006808F029FC02980168032008600DE0D1
:100F20000299886F40F0100088670299C86F40F0FE
:100F30000100C86701208DF80F002BE002F086FB4E
:100F40000190FFE7029800688068C007E8B1FFE7FA
:100F500002F07CFB0199401A032815D3FFE70298A1
:100F600000688068C00770B1FFE70299886F40F0A1
:100F7000100088670299C86F40F00100C86701201F
:100F80008DF80F0006E0FFE7DCE7FFE700208DF8B3
:100F90000F00FFE79DF80F0004B080BD80B584B05E
:100FA00002900298006808F03FFC00285CD1FFE73F
:100FB0000298006880683F21C8F2000108420ED004
:100FC000FFE70299886F40F0100088670299C86FA8
:100FD00040F00100C86701208DF80F0048E002983A
:100FE000006808F0DBFB0298006A48B1FFE702984E
:100FF000006841F20001C4F20261884233D0FFE789
:1010000002F024FB0190FFE7029800680068C00727
:1010100040BBFFE70298006808F006FC28B9FFE72C
:101020000298006808F0BAFBFFE702F00FFB019995
:10103000401A032815D3FFE7029800680068C0072C
:1010400070B9FFE70299886F40F010008867029935
:10105000C86F40F00100C86701208DF80F0007E05D
:10106000FFE7D1E7FFE7FFE700208DF80F00FFE77C
:101070009DF80F0004B080BDFFE7FEE784B0039049
:101080000399886BC96B084302900398016801209B
:101090005022C4F202029142019000F06781FFE702
:1010A0000398016801205022C5F20202914201908A
:1010B00000F05C81FFE7039801680120D022C4F2B0
:1010C00002029142019000F05181FFE7039801680C
:1010D0000120D022C5F202029142019000F0468127
:1010E000FFE703980168012040F25012C4F20202A7
:1010F0009142019000F03A81FFE7039801680120D6
:1011000040F25012C5F202029142019000F02E818D
:10111000FFE703980168012040F2D012C4F20202F6
:101120009142019000F02281FFE7039801680120BD
:1011300040F2D012C5F202029142019000F01681F5
:10114000FFE703980168012040F25022C4F2020236
:101150009142019000F00A81FFE7039801680120A5
:1011600040F25022C5F202029142019000F0FE804E
:10117000FFE703980168012040F2D022C4F2020286
:101180009142019000F0F280FFE70398016801208E
:1011900040F2D022C5F202029142019000F0E680B6
:1011A000FFE703980168012040F25032C4F20202C6
:1011B0009142019000F0DA80FFE703980168012076
:1011C00040F25032C5F202029142019000F0CE800E
:1011D000FFE703980168012040F2D032C4F2020216
:1011E0009142019000F0C280FFE70398016801205E
:1011F00040F2D032C5F202029142019000F0B68076
:10120000FFE703980168012040F25042C4F2020255
:101210009142019000F0AA80FFE703980168012045
:1012200040F25042C5F202029142019000F09E80CD
:10123000FFE703980168012040F2D042C4F20202A5
:101240009142019000F09280FFE70398016801202D
:1012500040F2D042C5F202029142019000F0868035
:10126000FFE703980168012040F25052C4F20202E5
:10127000914201907AD0FFE703980168012040F283
:101280005052C5F20202914201906FD0FFE70398DD
:101290000168012040F2D052C4F202029142019052
:1012A00064D0FFE703980168012040F2D052C5F2F4
:1012B00002029142019059D0FFE703980168012092
:1012C00040F25062C4F20202914201904ED0FFE718
:1012D00003980168012040F25062C5F20202914277
:1012E000019043D0FFE703980168012040F2D062EB
:1012F000C4F202029142019038D0FFE703980168DE
:10130000012040F2D062C5F20202914201902DD03C
:10131000FFE703980168012040F25072C4F2020214
:101320009142019022D0FFE703980168012040F22A
:101330005072C5F202029142019017D0FFE7039864
:101340000168012040F2D072C4F202029142019081
:101350000CD0FFE7039800684FF63001CAF6FD7124
:101360000844B0FA80F040090190FFE70198C007F7
:1013700030B1FFE70398016C029808430290FFE741
:1013800003980068406920F44300029908430399D8
:1013900009684861039801680020086403990A6895
:1013A000496C516403990968886403990968C864A1
:1013B00003990968086503980168012040F25062AA
:1013C000C4F20202914200904ED0FFE703980168F8
:1013D000012040F25062C5F202029142009043D0D7
:1013E000FFE703980168012040F2D062C4F20202D4
:1013F0009142009038D0FFE703980168012040F245
:10140000D062C5F20202914200902DD0FFE703980E
:101410000168012040F25072C4F202029142009031
:1014200022D0FFE703980168012040F25072C5F214
:1014300002029142009017D0FFE703980168012053
:1014400040F2D072C4F20202914200900CD0FFE749
:10145000039800684FF63001CAF6FD710844B0FAEF
:1014600080F040090090FFE70098C00740B1FFE717
:101470000398016800204865039909688865FFE7BB
:10148000039801680020C86704B0704770470000E7
:1014900081B0EFF3108072B60090FFE7FEE7000026
:1014A00080B540F29850C2F2000001F027FD80BDE7
:1014B00080B586B004900391029200200090FFE76F
:1014C000049890F87400012804D1FFE702208DF8F9
:1014D00017005AE00499012081F87400FFE7FFE744
:1014E0000498FFF7F9FC8DF807009DF80700D8BBBA
:1014F000FFE70498806F40F0020020F488500499C0
:10150000886704980068039908F078FBFFE704985F
:10151000006808F071F9F0B1FFE700980130009021
:10152000009849F20061C5F25A51884212D3FFE790
:101530000498806F40F0100020F002000499886742
:10154000FFE70499002081F87400FFE701208DF87F
:1015500017001AE0DBE70498806F40F0010020F0EC
:1015600002000499886705E00499886F40F0100034
:101570008867FFE7FFE70499002081F87400FFE720
:101580009DF807008DF81700FFE79DF8170006B0DB
:1015900080BD000080B5ACB01890179100208DF888
:1015A0005B0013901898006841F20001C4F20261D8
:1015B000884209D0FFE71798C06810F5803F01D036
:1015C000FFE700E0FFE710E018980069B0F1004F76
:1015D00008D0FFE7189800691021C8F2000188427E
:1015E00001D1FFE700E0FFE7FFE7FFE7189890F879
:1015F0007400012805D1FFE702208DF8670000F094
:10160000DBBD1899012081F87400FFE7FFE7189807
:10161000006808F019F9002840F0BA85FFE718982B
:10162000006841F20001C4F20261884200F0C48205
:10163000FFE717980068000230B9FFE717980068C5
:10164000C0F384600F9015E01798006890FAA0F03E
:101650001A901A9820B9FFE720208DF86F0005E056
:101660001A98B0FA80F08DF86F00FFE79DF86F00D0
:101670000F90FFE70F9800F01F01012000FA01F220
:1016800018980168C8691043C861189800681799CC
:101690000A68496808F01EF91898006808F0D4F83C
:1016A00012901898006808F09FF81190129800287E
:1016B00040F08180FFE7119800287CD1FFE718985F
:1016C0000068179A1168926808F078F917984069CD
:1016D00018990968C96801F00C01490888401590FB
:1016E0001798006904281CD0FFE71898006817991C
:1016F0000A680969159B08F02BFA18980068179A70
:101700001169D26908F03EFA18980068179A1169B1
:10171000527E013AB2FA82F25209920608F046FA73
:1017200048E018980068006E00F078401799096842
:10173000B0EBC16F07D1FFE718980168086E20F081
:1017400080600866FFE718980068406E00F07840F7
:1017500017990968B0EBC16F07D1FFE718980168C6
:10176000486E20F080604866FFE718980068806E39
:1017700000F0784017990968B0EBC16F07D1FFE717
:1017800018980168886E20F080608866FFE71898D6
:101790000068C06E00F0784017990968B0EBC16F1F
:1017A00007D1FFE718980168C86E20F08060C8660E
:1017B000FFE7FFE7FFE71898006808F035F8002812
:1017C00040F0F981FFE718980068179A1168D2680D
:1017D00008F06EF91798C06810F5803F40F0D98086
:1017E000FFE717980068000230B9FFE71798006814
:1017F000C0F384600E9015E01798006890FAA0F08E
:101800001C901C9820B9FFE720208DF8770005E098
:101810001C98B0FA80F08DF87700FFE79DF877000C
:101820000E90FFE70E98013000F01F00092852D8F3
:10183000FFE717980068000230B9FFE717980068C3
:10184000C0F384600D9015E01798006890FAA0F03E
:101850001E901E9820B9FFE720208DF87F0005E03C
:101860001E98B0FA80F08DF87F00FFE79DF87F00AA
:101870000D90FFE70D98013000F01F0080060C90DE
:1018800017980068000230B9FFE717980068C0F3A6
:1018900084600B9015E01798006890FAA0F02090F3
:1018A000209820B9FFE720208DF8870005E02098D8
:1018B000B0FA80F08DF88700FFE79DF887000B9065
:1018C000FFE70C980B99013101F01F0201219140B3
:1018D00008430A9053E017980068000230B9FFE708
:1018E00017980068C0F38460099015E017980068A5
:1018F00090FAA0F02290229820B9FFE720208DF8DE
:101900008F0005E02298B0FA80F08DF88F00FFE795
:101910009DF88F000990FFE70998013000F01F0043
:101920008006089017980068000230B9FFE7179802
:101930000068C0F38460079015E01798006890FA7B
:10194000A0F02490249820B9FFE720208DF897007C
:1019500005E02498B0FA80F08DF89700FFE79DF835
:1019600097000790FFE708980799013101F01F02DF
:1019700001219140084340F000700A90FFE70A9867
:101980001090189800681099179A926808F016F845
:10199000FFE71798C0780006002840F10B81FFE7A9
:1019A0001898016848F20002C4F20222059241F23E
:1019B0000830C4F202600690914204BF48F2083039
:1019C000C4F2022007F008FF059A01460698149118
:1019D00018990968914204BF48F20830C4F2022005
:1019E00048F20831C4F20221884208D1FFE748F2E8
:1019F0000000C4F2022007F017FF049007E041F254
:101A00000000C4F2026007F00FFF0490FFE70498A3
:101A1000002840F0C580FFE7179800680021CCF649
:101A2000086188424BD1FFE79DF85200000600286C
:101A300045D4FFE71898006848F20001C4F202217B
:101A4000884209D0FFE71898006841F20001C4F20B
:101A50000261884232D1FFE71898016848F200021B
:101A6000C4F2022241F20830C4F20260914204BF83
:101A700048F20830C4F20220149941F4000108F041
:101A80003FF840F20400C2F2000000684FEA9010F4
:101A900042F66351C0F23E51A0FB01104FEA901193
:101AA0004FF0020000EB41001390FFE7139820B1C4
:101AB000FFE7139801381390F8E7FFE76FE01798F6
:101AC00000680021CCF6042188422ED1FFE79DF862
:101AD0005300C00748BBFFE71898006848F20001B0
:101AE000C4F20221884209D0FFE71898006841F249
:101AF0000001C4F20261884216D1FFE7189801681C
:101B000048F20002C4F2022241F20830C4F202603C
:101B1000914204BF48F20830C4F20220149941F007
:101B2000807107F0EDFFFFE738E0179800680121AA
:101B3000C8F2000188422FD1FFE79DF8520040060D
:101B4000002829D4FFE71898006848F20001C4F281
:101B50000221884209D0FFE71898006841F200018D
:101B6000C4F20261884216D1FFE71898016848F272
:101B70000002C4F2022241F20830C4F20260914233
:101B800004BF48F20830C4F20220149941F48001E5
:101B900007F0B6FFFFE700E0FFE7FFE7FFE708E039
:101BA0001899886F40F02000886701208DF85B004D
:101BB000FFE7FFE7FFE7EAE217980068109001F0FF
:101BC0003DFDB0F5805F4DD1FFE71798006842F208
:101BD0000001CBF20061884205D1FFE70020CDF67D
:101BE000402010903DE01798006844F20001CBF6C9
:101BF0000021884205D1FFE70020CDF680601090DB
:101C00002EE01798006841F20001CBF200218842D3
:101C100005D1FFE70120C8F2001010901FE01798CF
:101C200000680021CDF22061884205D1FFE7002045
:101C3000CDF21020109011E0179800680021CDF22D
:101C40002071884205D1FFE70020CDF2206010907E
:101C500003E0179800681090FFE7FFE7FFE7FFE752
:101C6000FFE7FFE717984068022800F0B481FFE71C
:101C700018980069B0F1004F08D0FFE71898006984
:101C80001021C8F20001884206D1FFE718980068C9
:101C9000109907F0E1FD94E01898D0F888001799A2
:101CA000496801F01F020F2191408843039010986A
:101CB000000228B9FFE71098C0F38460029014E096
:101CC000109890FAA0F02690269820B9FFE72020DF
:101CD0008DF89F0005E02698B0FA80F08DF89F00FF
:101CE000FFE79DF89F000290FFE703980299179A7B
:101CF000526802F01F02914008431899C1F8880009
:101D000017984168012000EB91001899896A884270
:101D100056D8FFE701F092FCB0F5805F48D8FFE7A6
:101D20001098000228B9FFE71098C0F38460019072
:101D300014E0109890FAA0F02890289820B9FFE7B6
:101D400020208DF8A70005E02898B0FA80F08DF8E3
:101D5000A700FFE79DF8A7000190FFE7019814286E
:101D600025D3FFE71098000228B9FFE71098C0F3C9
:101D70008460009014E0109890FAA0F02A902A98BD
:101D800020B9FFE720208DF8AF0005E02A98B0FACF
:101D900080F08DF8AF00FFE79DF8AF000090FFE7FF
:101DA0000098A0F10901012088401090FFE7FFE7AB
:101DB0001898006817994968109A07F08BFDFFE79B
:101DC000FFE7189800681099179A926807F0F6FDD7
:101DD0001798C0780006002840F1FC80FFE71898AB
:101DE000016848F20002C4F2022241F20830C4F253
:101DF0000260914204BF48F20830C4F2022007F0AA
:101E0000EBFC14901798006842F20001CBF20061DD
:101E1000884236D1FFE79DF852000006002830D4F2
:101E2000FFE71898016848F20002C4F2022241F26A
:101E30000830C4F20260914204BF48F20830C4F294
:101E40000220149941F4000107F05AFE40F2040008
:101E5000C2F2000000684FEA901042F66351C0F2EF
:101E60003E51A0FB01016FF0010000EA51101390F8
:101E7000FFE7139820B1FFE7139801381390F8E7B4
:101E800089E01798006844F20001CBF600218842EF
:101E90001BD1FFE79DF85300C007B0B9FFE71898C2
:101EA000016848F20002C4F2022241F20830C4F292
:101EB0000260914204BF48F20830C4F20220149933
:101EC00041F0807107F01CFE64E017980068012162
:101ED000C8F2000188421CD1FFE79DF8520040067D
:101EE000002816D4FFE71898016848F20002C4F2EF
:101EF000022241F20830C4F20260914204BF48F26B
:101F00000830C4F20220149941F4800107F0F8FD72
:101F10003FE01798006841F20001CBF200218842AF
:101F200035D1FFE79DF85200400600282FD4FFE787
:101F30001898006841F20001C4F20261884225D17C
:101F4000FFE71898016848F20002C4F2022241F249
:101F50000830C4F20260914204BF48F20830C4F273
:101F60000220149941F4800107F0CAFD01F066FBDC
:101F7000B0F5805F09D8FFE718980168D1F8D00064
:101F800040F00100C1F8D000FFE7FFE700E0FFE705
:101F9000FFE7FFE7FFE701F051FBB0F5005F18D165
:101FA000FFE7179800680021CDF2207188420FD119
:101FB000FFE79DF852004006002809D4FFE7189873
:101FC0000168D1F8D00040F00100C1F8D000FFE76F
:101FD000FFE7FFE7DAE018980069B0F1004F08D09A
:101FE000FFE7189800691021C8F20001884206D165
:101FF000FFE718980068109907F05CFCFFE7179856
:10200000C0780006002840F1C080FFE718980168FA
:1020100048F20002C4F2022241F20830C4F2026027
:10202000914204BF48F20830C4F2022007F0D4FB0A
:1020300014901798006840F20001CCF608618842BD
:1020400016D1FFE71898016848F20002C4F2022294
:1020500041F20830C4F20260914204BF48F20830F5
:10206000C4F20220149921F4000107F049FD6DE04B
:10207000179800680021CCF60421884216D1FFE7AA
:102080001898016848F20002C4F2022241F20830B6
:10209000C4F20260914204BF48F20830C4F2022048
:1020A000149921F0807107F02BFD4EE0179800681D
:1020B0000121C8F20001884216D1FFE71898016893
:1020C00048F20002C4F2022241F20830C4F2026077
:1020D000914204BF48F20830C4F20220149921F45E
:1020E000800107F00DFD2FE01798006841F2000114
:1020F000CBF20021884225D1FFE71898016848F209
:102100000002C4F2022241F20830C4F2026091429D
:1021100004BF48F20830C4F20220149921F480016F
:1021200007F0EEFC01F08AFAB0F5805F09D8FFE70E
:1021300018980168D1F8D00040F00100C1F8D00033
:10214000FFE700E0FFE7FFE7FFE7FFE701F076FAD0
:10215000B0F5005F18D1FFE7179800680021CDF2B5
:10216000207188420FD1FFE79DF8520040060028F9
:1021700009D4FFE718980168D1F8D00040F00100B9
:10218000C1F8D000FFE7FFE7FFE7FFE7FFE708E060
:102190001899886F40F02000886701208DF85B0057
:1021A000FFE7FFE71899002081F87400FFE79DF82A
:1021B0005B008DF86700FFE79DF867002CB080BDDD
:1021C00081B0009000980068006C01B0704700007A
:1021D00080B594B0129000208DF8470010900F90B9
:1021E000129820B9FFE701208DF84F0046E31298BE
:1021F000006841F20001C4F20261884201D0FFE7A9
:1022000000E0FFE712980069C8B1FFE71298006884
:1022100041F20001C4F20261884208D0FFE712983F
:1022200090F82C00012801D1FFE7FFE706E01298A3
:102230000069012801D1FFE7FFE7FFE7FFE71298F8
:10224000806F50B9FFE7129800F01CFB1299002034
:10225000C867129981F87400FFE71298006807F0C8
:10226000D3FA28B1FFE71298006807F08BFAFFE76E
:102270001298006807F0E0FAF0B9FFE712980068DA
:1022800007F09AFA40F20400C2F2000000688009E8
:1022900042F66351C0F23E51A0FB011081090220B9
:1022A00000EB41000D90FFE70D9820B1FFE70D987E
:1022B00001380D90F8E7FFE71298006807F0BCFAC4
:1022C00070B9FFE71299886F40F010008867129983
:1022D000C86F40F00100C86701208DF84700FFE794
:1022E0001298006807F0B0FA0E901298806FC0063E
:1022F000002800F1B582FFE70E98002840F0B08278
:10230000FFE71298806F40F0020020F4807012996D
:1023100088671298006807F087FA002872D1FFE7F3
:102320001298006841F20001C4F2026188423FD075
:10233000FFE71298016848F20002C4F2022241F25B
:102340000830C4F20260914204BF48F20830C4F27F
:10235000022048F20831C4F20221884208D1FFE786
:1023600048F20000C4F2022007F05EFA099007E08C
:1023700041F20000C4F2026007F056FA0990FFE74C
:102380000998A0B9FFE712980268416848F2000373
:10239000C4F2022341F20830C4F202609A4204BF40
:1023A00048F20830C4F2022007F09CFBFFE728E067
:1023B00012980068C06820F00C000890129880689D
:1023C0004FF6FF71884203D1FFE70C20079006E02B
:1023D00012988068013800F00C000790FFE7089819
:1023E0000799084312990968C86041F20831C4F29C
:1023F00002610868129A5268920C62F39540086074
:10240000FFE7FFE71298006841F20001C4F20261A1
:1024100088420ED0FFE7129991F82420486C40EAD8
:1024200042308A68104391F82C1040EA0140109025
:102430003DE01298017F890390F8242041EA42315F
:10244000436C01F58052002B18BF114642691143BD
:102450000691C07C0006002806D5FFE712980069A7
:1024600020F00040059003E04FF400100590FFE7D6
:1024700006980599084304901298006848F20001F4
:10248000C4F20221884205D1FFE7129890F840007B
:10249000039005E0129890F8400040000390FFE799
:1024A000049803990143109808431090FFE712988D
:1024B00090F82C0001282BD1FFE71298006841F218
:1024C0000001C4F2026188420BD0FFE71298016B51
:1024D0000020CFF6FE7000EB4141109808431090A9
:1024E00015E0129890F8240028B9FFE7109840F4FE
:1024F000803010900AE01299886F40F020008867C1
:102500001299C86F40F00100C867FFE7FFE7FFE7D7
:102510001298006841F20001C4F2026188421CD0A6
:10252000FFE71298406B50B1FFE71299486B896B37
:1025300000F478700143109808431090FFE7129858
:102540000068C0684CF21301CFF6F0710840109992
:10255000084312990968C86031E01298406B50B185
:10256000FFE71299486B896B00F4E0700143109803
:1025700008431090FFE712980068C06848F20D0108
:10258000CFF6FE7108401099084312990968C86097
:102590001298006A38B1FFE712980168026A486C25
:1025A00010434864FFE71298C06E38B1FFE71298F5
:1025B0000168C26E486C10434864FFE7FFE7129859
:1025C000006841F20001C4F20261884200F0A38079
:1025D000FFE71298006807F037F90C90129800682E
:1025E00007F002F90B900C98002873D1FFE70B98C5
:1025F00000286FD1FFE71298017F890302910068DC
:1026000048F20001C4F20221884204D1FFE7129887
:10261000C06B019004E01298C06B40000190FFE78E
:10262000029801990843109012980068C06844F21B
:10263000030188431099084312990968C8601298E9
:10264000C06830B1FFE712990868C96807F066FAF8
:10265000FFE7129890F85400012829D1FFE712985B
:10266000406B20B1FFE71298806B08B9FFE7FFE7E6
:102670001298006800694FF61E01CFF6004100EA8B
:102680000102129B1968D3F858E0D86DD3F860C0E6
:1026900040EA0E4040EA0C00D3F864C040EA0C0067
:1026A0009B6E40EA9300104340F00100086106E091
:1026B00012980168086920F001000861FFE712988C
:1026C0000068006920F07040129A1168126D104382
:1026D0000861FFE71298006901280CD1FFE7129802
:1026E0000068006B20F00F00129A1168926A013A9C
:1026F0001043086306E012980168086B20F00F0091
:102700000863FFE71298806F40F0010020F002009C
:1027100012998867A3E01299886DCB6D0A6E896E55
:102720001843104301430F9808430F90129890F8F4
:102730005400012805D1FFE70F9840F001000F90E9
:10274000FFE71298006800694FF60241CFF2FF716F
:1027500008400F990843129909680861129908689E
:102760008A6C002107F036FA12990868CA6C6FF07B
:10277000FB0107F02FFA1298006938B9FFE71298A9
:102780000168886A60F00F0088623EE01298006974
:10279000B0F5001F38D1FFE700200A90FFE70A9844
:1027A000072811D8FFE71298D0F888000A99890005
:1027B000C84000F00F000F2801D1FFE704E0FFE759
:1027C0000A9801300A90EAE70A98012807D1FFE742
:1027D00012980168886A60F00F00886213E012980E
:1027E0000068806A12980168836AD0F888206FF0C8
:1027F000030000EB830000F01C036FF00F00984013
:1028000010438862FFE7FFE7FFE712980068C0689F
:102810004FF6F371C8F23F310840109988420CD14D
:10282000FFE712990020C8671298806F40F00100FE
:1028300020F002001299886710E01298806F40F033
:10284000100020F00200129988671299C86F40F0BA
:102850000100C86701208DF84700FFE7FFE708E0A7
:102860001299886F40F01000886701208DF84700AA
:10287000FFE79DF847008DF84F00FFE79DF84F00F8
:1028800014B080BD80B5C0B03F9000203E903D9018
:102890003C903B903A9008A8C821FDF7B5FD3F98C1
:1028A000006848F20001C4F20221884272D1FFE7B9
:1028B000002009904FF4004108914FF400513291EB
:1028C00002210A9104220B927D220C920D910E910D
:1028D0000A210F91109011904FF48020129008A8B7
:1028E00003F02AFF18B1FFE7FEF7D2FDFFE7FFE78D
:1028F00040F68C40C4F20260016841F480610160DE
:10290000006800F4806007900798FFE7FFE740F653
:102910008C40C4F20260016841F00401016000686B
:1029200000F0040006900698FFE7FFE740F68C40B1
:10293000C4F20260016841F001010160006800F02A
:10294000010005900598FFE708203A9003200190C8
:102950003B90002003903C9040F60000C4F202201F
:102960003AA9029100F068FC019A029903980F239A
:102970003A933B923C900020C4F2022000F05CFCB1
:10298000039A25200490012100F050FF049800F0E4
:1029900043FFFFE740B080BD80B584B0029002984D
:1029A000006806F051FF002840F09F80FFE7FFE736
:1029B000029890F87400012804D1FFE702208DF8F6
:1029C0000F009BE00299012081F87400FFE7FFE708
:1029D0000298FEF7E3FA8DF807009DF8070000283B
:1029E0007BD1FFE70298806F40F4807040F6016170
:1029F0008843029988670298806FC004002806D532
:102A0000FFE70299C86F20F00600C86703E002994B
:102A10000020C867FFE7029801681C200860FFE7F4
:102A20000299002081F87400FFE702980168486865
:102A300020F01C00486002988069082807D1FFE751
:102A400002980168486840F00800486006E0029873
:102A50000168486840F004004860FFE70298406C55
:102A600038B9FFE702980168486840F010004860F4
:102A7000FFE702980068C0688001002828D5FFE7BA
:102A80000298806F40F4805020F4005002998867CB
:102A90000298806908280DD1FFE70298016848680C
:102AA00020F02000486002980168486840F040002B
:102AB00048600CE002980168486820F040004860D7
:102AC00002980168486840F020004860FFE7FFE78F
:102AD0000298006806F064FF06E0FFE70299002014
:102AE00081F87400FFE7FFE703E002208DF807009C
:102AF000FFE79DF807008DF80F00FFE79DF80F0036
:102B000004B080BD80B584B0029000F09FFD0190BC
:102B1000029820B9FFE701208DF80F00AFE102987D
:102B2000016801205022C4F202029142009000F09C
:102B30006781FFE70298016801205022C5F2020276
:102B40009142009000F05C81FFE70298016801204B
:102B5000D022C4F202029142009000F05181FFE7BE
:102B6000029801680120D022C5F202029142009031
:102B700000F04681FFE702980168012040F2501200
:102B8000C4F202029142009000F03A81FFE70298FD
:102B90000168012040F25012C5F2020291420090F9
:102BA00000F02E81FFE702980168012040F2D01268
:102BB000C4F202029142009000F02281FFE70298E5
:102BC0000168012040F2D012C5F202029142009049
:102BD00000F01681FFE702980168012040F25022C0
:102BE000C4F202029142009000F00A81FFE70298CD
:102BF0000168012040F25022C5F202029142009089
:102C000000F0FE80FFE702980168012040F2D02228
:102C1000C4F202029142009000F0F280FFE70298B5
:102C20000168012040F2D022C5F2020291420090D8
:102C300000F0E680FFE702980168012040F2503280
:102C4000C4F202029142009000F0DA80FFE702989D
:102C50000168012040F25032C5F202029142009018
:102C600000F0CE80FFE702980168012040F2D032E8
:102C7000C4F202029142009000F0C280FFE7029885
:102C80000168012040F2D032C5F202029142009068
:102C900000F0B680FFE702980168012040F2504240
:102CA000C4F202029142009000F0AA80FFE702986D
:102CB0000168012040F25042C5F2020291420090A8
:102CC00000F09E80FFE702980168012040F2D042A8
:102CD000C4F202029142009000F09280FFE7029855
:102CE0000168012040F2D042C5F2020291420090F8
:102CF00000F08680FFE702980168012040F2505200
:102D0000C4F20202914200907AD0FFE70298016873
:102D1000012040F25052C5F20202914200906FD061
:102D2000FFE702980168012040F2D052C4F202028B
:102D30009142009064D0FFE702980168012040F2C0
:102D4000D052C5F202029142009059D0FFE702989A
:102D50000168012040F25062C4F2020291420090E8
:102D60004ED0FFE702980168012040F25062C5F2A0
:102D700002029142009043D0FFE7029801680120CF
:102D800040F2D062C4F202029142009038D0FFE7D4
:102D900002980168012040F2D062C5F2020291421D
:102DA00000902DD0FFE702980168012040F2507298
:102DB000C4F202029142009022D0FFE7029801681B
:102DC000012040F25072C5F202029142009017D0E9
:102DD000FFE702980168012040F2D072C4F20202BB
:102DE000914200900CD0FFE7029800684FF6300146
:102DF000CAF6FD710844B0FA80F040090090FFE780
:102E00000098C00708B1FFE7FFE7FFE7029900203D
:102E100081F84C00FFE70299022081F854000298E3
:102E20000168486940F006004861FFE702980068C1
:102E30004069C00798B1FFE700F008FC0199401A0B
:102E400006280BD3FFE7029910208865029903201A
:102E500081F8540001208DF80F0010E0E6E7029899
:102E6000FEF70CF90299886C0865029900208865C4
:102E7000029A012182F854108DF80F00FFE79DF8A7
:102E80000F0004B080BD000085B00390029103984C
:102E900020B9FFE701208DF813002AE003980068AD
:102EA00040F6FF7188430190039800685038C0F3E2
:102EB000C4110120884000909DF80800C006002839
:102EC00013D5FFE7029800F01100112806D1FFE7A3
:102ED000009A019948681043486005E0009A0199FA
:102EE000486890434860FFE7FFE700208DF8130033
:102EF000FFE79DF8130005B07047000080B584B06F
:102F000003900398006840F6FF718843029003988D
:102F100000685038C0F3C411012088400190029825
:102F2000C0680199084201D1FFE761E10398006898
:102F300000694005002813D5FFE703980068406941
:102F4000400500280BD5FFE7039801684FF4806027
:102F5000C8600399886D40F001008865FFE7FFE7CE
:102F60000398006800690005002813D5FFE703985F
:102F700000684069000500280BD5FFE70398016849
:102F80004FF40060C8600399886D40F002008865C6
:102F9000FFE7FFE7039800680069C004002813D525
:102FA000FFE7039800684069C00400280BD5FFE7DD
:102FB000039801684FF48050C8600399886D40F011
:102FC00004008865FFE7FFE7039800680069400494
:102FD000002813D5FFE703980068406940040028E3
:102FE0000BD5FFE7039801684FF48040C860039950
:102FF000886D40F008008865FFE7FFE703980068E8
:1030000000698005002816D5FFE70398006840692D
:10301000800500280ED5FFE7039801684FF4007083
:10302000C8600398406E20B1FFE70398416E88475F
:10303000FFE7FFE7FFE703980068006980040028C6
:1030400058D5FFE70398006840698004002850D5F0
:10305000FFE7039801684FF40050C860039890F8A8
:103060005400042837D1FFE703980168486920F429
:103070000050486103980168486940F002004861C7
:10308000039800684069C00728B1FFE7039903204F
:1030900081F8540004E00399012081F85400FFE70F
:1030A000039890F850000006002805D5FFE7039824
:1030B000416F01200873FFE7FFE70399002081F8C3
:1030C0004C00FFE70398C06E20B1FFE70398C16E84
:1030D0008847FFE78CE00399052081F854000398A6
:1030E000006F20B1FFE70398016F8847FFE7FFE714
:1030F000FFE7FFE7039800680069C005002842D594
:10310000FFE7039800684069C00500283AD5FFE74B
:10311000039890F850000006002814D5FFE70398A4
:103120000068C06F70B9FFE703980068806C40B911
:10313000FFE70399012081F854000399496F087350
:10314000FFE7FFE70AE003980068806C28B9FFE713
:103150000399012081F85400FFE7FFE70398016815
:103160004FF44070C860FFE70399002081F84C00DD
:10317000FFE70398006E20B1FFE70398016E8847D0
:10318000FFE7FFE7FFE70398806D88B3FFE7039849
:103190000168486940F0020048610398006840698E
:1031A000C00728B1FFE70399032081F8540004E029
:1031B0000399012081F85400FFE7039890F850002C
:1031C0000006002805D5FFE70398416F012008732A
:1031D000FFE7FFE70399002081F84C00FFE7039821
:1031E000806E20B1FFE70398816E8847FFE7FFE715
:1031F00004B080BD80B584B0039000F027FA02903F
:10320000039801900198013048B1FFE740F20800AF
:10321000C2F200000178019808440190FFE7FFE73F
:1032200000F014FA0299401A0199884201D2FFE78E
:10323000F6E704B080BD000087B00690059100203D
:10324000019006980090FFE7059800680199C84032
:10325000002800F0DB81FFE705980068019A012152
:10326000914008400390019802900398002800F0D4
:10327000C981FFE706980021C4F2026188425FD14C
:10328000FFE70698006804900199012000FA01F117
:103290000498884304900598406800F00100019963
:1032A00000FA01F104980843049004980699086014
:1032B00001994EF64C00C0F6000050F83110009114
:1032C000019900EBC10040680290009802996FF0EC
:1032D000030202EA51010844006A0490029800F0D7
:1032E000070081000F2000FA01F104988843049040
:1032F000029800F0070081000B2000FA01F1049809
:103300000843049004980099029B02EA5302114476
:10331000086200980068049002984100032000FAB7
:1033200001F104988843049002984100022000FAB9
:1033300001F104980843049004980099086065E03E
:1033400005984068022805D0FFE7059840681228D4
:1033500041D1FFE7069801996FF0030202EA51019B
:103360000844006A0490019800F0070081000F20D3
:1033700000FA01F10498884304900598006900F070
:103380000F00019901F00701890000FA01F104988A
:103390000843049004980699019B02EA53021144E1
:1033A000086200980068049002984100032000FA27
:1033B00001F10498884304900598406800F00300E8
:1033C0000299490000FA01F1049808430490049816
:1033D0000099086019E00098006804900298410084
:1033E000032000FA01F1049888430490059840688E
:1033F00000F003000299490000FA01F10498084323
:103400000490049800990860FFE7FFE7059840687A
:1034100001280FD0FFE70598406802280AD0FFE78F
:1034200005984068112805D0FFE7059840681228E4
:103430002FD1FFE700988068049002984100032094
:1034400000FA01F10498884304900598C068029935
:10345000490000FA01F10498084304900498009987
:1034600088600098406804900299012000FA01F1F8
:1034700004988843049005984068C0F300100299AE
:1034800000FA01F1049808430490049800994860F8
:10349000FFE705984068032818D0FFE70098C06848
:1034A000049002984100032000FA01F10498884337
:1034B0000490059880680299490000FA01F1049887
:1034C0000843049004980099C860FFE70598C07904
:1034D000C006002840F19580FFE7019820F0030026
:1034E00042F26002C4F2026280580490019800F037
:1034F0000300C1000F2000FA01F1049888430490F2
:1035000006984FF60041CBF6FD510840800A01991C
:1035100001F00301C90000FA01F104980843049086
:103520000498019921F00301885042F20000C4F28E
:1035300002600068049003990498884304900598F9
:103540008079C006002805D5FFE703990498084351
:103550000490FFE7049842F20001C4F2026108609F
:1035600042F20400C4F202600068049003990498D7
:1035700088430490059880798006002805D5FFE7E8
:103580000399049808430490FFE7049842F2040169
:10359000C4F20261086042F28400C4F20260006872
:1035A00004900399049888430490059880798007D3
:1035B000002805D5FFE70399049808430490FFE726
:1035C000049842F28401C4F20261086042F2800071
:1035D000C4F2026000680490039904988843049040
:1035E00005988079C00728B1FFE70399049808433C
:1035F0000490FFE7049842F28001C4F2026108607F
:10360000FFE7FFE70198013001901DE607B0704722
:1036100082B00190ADF802108DF801209DF80100F4
:1036200028B1FFE7BDF802000199886104E0BDF808
:10363000020001998862FFE702B0704744F200007F
:10364000CEF204000068000C7047000040F688408D
:10365000C2F200000068704782B0019000208DF82F
:10366000030040F20040C4F203000068C00720B12C
:10367000FFE701208DF803000AE040F20041C4F2A8
:103680000301086820F00400019A10430860FFE776
:103690009DF8030002B0704740F20041C4F20301FC
:1036A000086840F0010008600020704740F2080000
:1036B000C2F20000027840F68841C2F200010868B8
:1036C000104408607047000080B582B042F20001EB
:1036D000C4F20201086840F480700860032000F022
:1036E000BDF803F0B1FF40F62041C4F20261096861
:1036F00001F00F024EF63401C0F60001895CC840AB
:1037000040F20401C2F200010860002000F010F84D
:1037100020B1FFE701208DF8070005E000F04CF82C
:1037200000208DF80700FFE79DF8070002B080BD7C
:1037300080B582B0009040F20800C2F2000000782C
:1037400020B9FFE701208DF8070030E040F20400C7
:10375000C2F20000006840F20801C2F200010A78DB
:103760004FF47A71B1FBF2F1B0FBF1F005F04CFDD2
:1037700020B1FFE701208DF8070018E000980F281E
:103780000DD8FFE700994FF0FF30002200F04EF80F
:10379000009840F20C01C2F20001086003E0012031
:1037A0008DF8070003E000208DF80700FFE79DF883
:1037B000070002B080BD000080B582B0FFE740F690
:1037C0009440C4F20260016841F0040101600068A5
:1037D00000F0040001900198FFE7042000F03EF89B
:1037E000FFE740F6A840C4F20260016841F480118E
:1037F0000160006800F4801000900098FFE730201E
:1038000005F0F4FC05F0B8FC002005F0E1FC00F048
:10381000F1FF02B080BD000080B582B08DF80700D6
:103820009DF9070009F046F802B080BD80B586B06A
:103830008DF817000491039209F054F802909DF955
:103840001700019002980499039A06F0C9FE0146F8
:10385000019809F04FF806B080BD000080B582B035
:103860000190019809F068F802B080BD82B0019023
:1038700001980068009001990120C1F800050199A4
:10388000002081F8F404009A916941F0006191618F
:10389000009A516D0323C1F200031943516502B030
:1038A0007047000082B001908DF8031002B070479D
:1038B00081B0009001B0704782B001908DF8031084
:1038C00002B0704782B001908DF8031002B07047CB
:1038D00081B0009001B0704780B584B003908DF83E
:1038E0000B109DF80B00000600280CD5FFE703988D
:1038F0009DF80B1001F00F0101EBC10100EB8100FD
:103900003C3001900CE003989DF80B1001F00F0182
:1039100001EBC10100EB810000F51F700190FFE792
:1039200003980068019908F015FC8DF80A009DF8CD
:103930000A0004B080BD000080B58CB00B900B98DD
:1039400000680A900A9809900B98006808F03AFD00
:10395000002840F03584FFE70B98006808F09EFDD2
:1039600010B9FFE700F02CBC0998D0F80808C0F3A4
:103970000D200B99C1F8FC040B98006808F08EFD2F
:103980008007002807D5FFE70B980168486900F019
:1039900002004861FFE70B98006808F07FFDC00651
:1039A000002862D5FFE70B980168886920F01000B5
:1039B00088610A98006A02900B98029901F00F0141
:1039C00001EBC10100EB810000F51F700890029827
:1039D00000F4F0110220B0EB514F23D1FFE7BDF806
:1039E000080047F6F07108421BD0FFE70A980899D3
:1039F0000969029AC2F30A1208F05EFD029847F6BE
:103A0000F07100EA0103089A106900EB13101061CD
:103A1000029800EA01020899086A00EB1210086295
:103A2000FFE71BE0029800F4F0110620B0EB514FC5
:103A300012D1FFE70A980B9901F2C441082208F05D
:103A40003BFD029847F6F07100EA01020899086A06
:103A500000EB1210086200E0FFE7FFE70B98016837
:103A6000886940F010008861FFE70B98006808F053
:103A700015FD0003002840F1A680FFE70020049018
:103A80000B98006808F0B8FC0690FFE7069800283D
:103A900000F09880FFE79DF81800C007002800F0AC
:103AA0008A80FFE70B9800689DF8101008F0DEFC94
:103AB00005909DF81400C00760B1FFE709980499CC
:103AC00000EB41110120C1F8080B0B98049906F096
:103AD0000BFEFFE79DF81400000700280CD5FFE758
:103AE0000998049900EB41110820C1F8080B0B98C4
:103AF000049906F0B3FDFFE79DF81400C006002806
:103B000008D5FFE70998049900EB41111020C1F88E
:103B1000080BFFE79DF81400800700282DD5FFE76C
:103B20000A9840690006002808D5FFE70999D1F8EE
:103B3000040840F48060C1F80408FFE70B9804997A
:103B400001EBC10100EB810000F51F70089008989F
:103B5000C078012809D1FFE708990020C8700B98A8
:103B60009DF8101000F034FBFFE70998049900EB72
:103B700041110220C1F8080BFFE79DF814008006F0
:103B8000002808D5FFE70998049900EB411120208F
:103B9000C1F8080BFFE79DF815008006002809D53D
:103BA000FFE70998049900EB41114FF40050C1F868
:103BB000080BFFE7FFE704980130049006984008DF
:103BC000069063E7FFE70B98006808F067FC400386
:103BD000002840F1C680FFE70B98006808F0FAFB68
:103BE000069000200490FFE70698002800F0B880B7
:103BF000FFE79DF81800C007002800F0AA80FFE743
:103C00000B9800689DF8101008F008FC05909DF8CE
:103C10001400C00700283ED0FFE7049800F00F0111
:103C2000012000FA01F10391039B099AD2F834189C
:103C30009943C2F834180999049A01EB4211C1F86A
:103C400008090B98006901281FD1FFE70B98049918
:103C500001EBC10100EB81018A6CC86C1044C8649F
:103C6000049888B9FFE70B98049901EBC10100EBB8
:103C70008100406D40B9FFE70B99086801F2C4422A
:103C8000012108F017FAFFE7FFE70B989DF81010E5
:103C9000FFF712FEFFE79DF814000007002808D583
:103CA000FFE70998049900EB41110820C1F80809C1
:103CB000FFE79DF81400C006002808D5FFE7099823
:103CC000049900EB41111020C1F80809FFE79DF8A5
:103CD00014004006002808D5FFE70998049900EB76
:103CE00041114020C1F80809FFE79DF81400800742
:103CF000002822D5FFE70A98049908F0F9FA0B98F2
:103D0000049901EBC10100EB81003C300890089858
:103D1000C078012809D1FFE708990020C8700B98E6
:103D20009DF8101000F04EFAFFE70998049900EB97
:103D300041110220C1F80809FFE79DF814000006B0
:103D4000002805D5FFE70B98049906F0B1FDFFE7C1
:103D5000FFE704980130049006984008069043E776
:103D6000FFE70B98006808F099FBC00F00B3FFE76E
:103D70000999D1F8040820F00100C1F804080B9853
:103D800090F8F404012808D1FFE70B98002180F88F
:103D9000F4140B98FFF786FD03E00B9800F008FC85
:103DA000FFE70B980168486900F000404861FFE7B1
:103DB0000B98006808F072FB0005002811D5FFE79A
:103DC0000998D0F80808C00720B1FFE70B9800F069
:103DD000FBFBFFE70B980168486900F4006048614D
:103DE000FFE70B98006808F059FB0001002820D578
:103DF000FFE70B980168486900F0006048610B9884
:103E000090F8F40480B9FFE70B98012180F8F414CE
:103E10000B980068406DC0F383000B9AC2F8F80459
:103E20000B98FFF73FFD03E00B9800F0CDFBFFE799
:103E3000FFE70B98006808F031FBC004002840F150
:103E40008680FFE70999D1F8040820F00100C1F845
:103E500004080B980068102108F04AFA0020079027
:103E6000FFE707980B994968884231D2FFE7099824
:103E7000079900EB41114FF67F30C1F80809099905
:103E8000079A01EB4212D2F8001921F40011C2F88E
:103E900000190999079A01EB4211C1F8080B09981A
:103EA000079900EB4111D1F8000B20F40010C1F884
:103EB000000B0998079900EB4111D1F8000B40F075
:103EC0000060C1F8000BFFE7079801300790C8E7D2
:103ED0000999D1F81C0840F00110C1F81C080B9892
:103EE000006B78B1FFE70999D1F8840840F00B0026
:103EF000C1F884080999D1F8440840F00B00C1F8D2
:103F000044080FE00999D1F8140842F22B0210433B
:103F1000C1F814080999D1F8100840F00B00C1F855
:103F20001008FFE70999D1F8000820F4FE60C1F8F5
:103F300000080B9A1068117C02F2C44208F0BAF82B
:103F40000B980168486900F480504861FFE70B98BE
:103F5000006808F0A3FA800400281FD5FFE70B983B
:103F6000006807F09DFE0B98006808F005FA0B99B1
:103F7000C8600B980068019003F018FB0146019897
:103F80000B9A127B08F074FB0B9800F00DFB0B985A
:103F90000168486900F400504861FFE70B98006829
:103FA00008F07CFA000700280AD5FFE70B9800F01C
:103FB00003FB0B980168486900F008004861FFE7BF
:103FC0000B98006808F06AFA0006002825D5FFE77C
:103FD0000A99886920F08000886101200490FFE739
:103FE00004980B994968884216D2FFE70B98049908
:103FF00001EBC10100EB810090F87F02012806D19E
:10400000FFE70B989DF81010FFF766FCFFE7FFE74E
:10401000049801300490E3E7FFE70B98006808F08C
:104020003DFAC00200283ED5FFE701200490FFE7DB
:1040300004980B99496888422ED2FFE709980499A1
:1040400000EB4110D0F8000902900B98049901EBA5
:10405000C10100EB810090F84000012817D1FFE773
:104060009DF80B000006002811D5FFE70B98049976
:1040700001EBC10100EB8101012081F83F000B98A9
:104080009DF8101041F08001FFF726FCFFE7FFE7E5
:10409000049801300490CBE70B980168486900F45C
:1040A00080104861FFE70B98006808F0F7F980027C
:1040B000002855D5FFE701200490FFE704980B99ED
:1040C0004968884245D2FFE70998049900EB4110FE
:1040D000D0F8000B02900B98049901EBC10100EBA2
:1040E000810090F8800201282ED1FFE79DF80B0097
:1040F0000006002828D5FFE7029800F480300B99CD
:10410000D1F8FC1401F0010188421DD1FFE70B98A2
:10411000049901EBC10100EB8101012081F87F02CC
:104120000A99886940F0800088610A984069000611
:10413000002808D4FFE70999D1F8040840F400707A
:10414000C1F8040805E0FFE7FFE704980130049098
:10415000B4E70B980168486900F400104861FFE774
:104160000B98006808F09AF9400000280AD5FFE78C
:104170000B98FFF79DFB0B980168486900F08040A1
:104180004861FFE70B98006808F088F940070028AD
:1041900015D5FFE70B980068406802909DF808006D
:1041A0004007002804D5FFE70B98FFF791FBFFE7D6
:1041B000029A0B980168486810434860FFE7FFE7E0
:1041C0000CB080BD82B001908DF8031002B0704732
:1041D00082B001908DF8031002B070472DE9F04FC6
:1041E00095B01390139820B9FFE701208DF8530084
:1041F00051E1139800681290139890F8BD0440B9EB
:10420000FFE71399002081F8BC04139800F048F9E7
:10421000FFE71399032081F8BD041298C06BC00515
:10422000002804D4FFE7139900200861FFE71398E2
:10423000006807F035FF13980E9001680F914168F0
:104240008268C368D0F810C044698569C669076A86
:10425000D0F82480D0F82890D0F82CA0D0F830B036
:10426000D0F834E068461090C0F824E00F98DDF8EC
:1042700040E0CEF820B0CEF81CA0CEF81890CEF8D2
:104280001480CEF81070CEF80C60CEF80850CEF83E
:104290000440CEF800C007F019FD40B1FFE71399C4
:1042A000022081F8BD0401208DF85300F3E013983B
:1042B000006800210D9108F059F90D988DF847001C
:1042C000FFE79DF8470013994968884245D2FFE708
:1042D00013989DF8471001EBC10100EB810101200B
:1042E00081F83D009DF84700139900EBC00201EBF7
:1042F000820181F83C009DF84700139900EBC00251
:1043000001EB8201A1F8440013989DF8471001EBDE
:10431000C10100EB8101002081F8400013999DF854
:10432000472002EBC20201EB8201886413999DF8D9
:10433000472002EBC20201EB8201C86413999DF889
:10434000472002EBC20201EB82014865FFE79DF8BE
:10435000470001308DF84700B3E700208DF8470093
:10436000FFE79DF847001399496888423ED2FFE76E
:1043700013989DF8471001EBC10100EB810100206B
:1043800081F87D029DF84710139A01EBC10302EBFF
:10439000830282F87C1213999DF8472002EBC20237
:1043A00001EB820181F8800213999DF8472002EB0E
:1043B000C20201EB8201C1F8880213999DF84720DF
:1043C00002EBC20201EB8201C1F88C0213999DF845
:1043D000472002EBC20201EB8201C1F89402FFE721
:1043E0009DF8470001308DF84700BAE713980A900E
:1043F00001680B9141688268C368D0F810C04469B5
:104400008569C669076AD0F82480D0F82890D0F86A
:104410002CA0D0F830B0D0F834E068460C90C0F84A
:1044200024E00B98DDF830E0CEF820B0CEF81CA0E8
:10443000CEF81890CEF81480CEF81070CEF80C603C
:10444000CEF80850CEF80440CEF800C007F0DEFCED
:1044500040B1FFE71399022081F8BD0401208DF8D7
:10446000530018E01399002081F8380013990120B7
:1044700081F8BD041398406A012804D1FFE713981E
:10448000FFF7F4F9FFE71398006807F0A9FC002094
:104490008DF85300FFE79DF8530015B0BDE8F08F8D
:1044A00080B5BCB03B9000203A903990389037905E
:1044B000369004A8C821FBF7A7FF3B9800680021AD
:1044C000C4F2042188426DD1FFE7002005904FF42B
:1044D000801104912C9004A802F02EF918B1FFE786
:1044E000FCF7D6FFFFE7FFE740F68C40C4F202601E
:1044F000016841F001010160006800F001000390D3
:104500000398FFE74FF4C050369002203790002008
:104510003890032039900A203A900020C4F20220FB
:1045200036A9FEF789FEFFE740F68C40C4F2026030
:10453000016841F480410160006800F4804002900D
:104540000298FFE740F69440C4F20260006840071A
:1045500000281AD4FFE7FFE740F69440C4F2026057
:10456000016841F004010160006800F0040001905E
:104570000198FFE700F052F940F69441C4F202615D
:10458000086820F00400086002E000F047F9FFE747
:104590004920009003210022FFF748F90098FFF717
:1045A0003BF9FFE73CB080BD81B0009001B070479F
:1045B00081B0009001B0704781B0009001B07047A9
:1045C00081B0009001B0704781B0009001B0704799
:1045D00085B0039040F20400C2F20000006844F687
:1045E000D351C1F26201A0FB01208009322200FBFD
:1045F00002F0A0FB0101012000EB91100290039852
:1046000018BBFFE740F60801C4F20261086820F019
:1046100002000860FFE740F63C00C4F20260016857
:10462000002089070029019006D5FFE7029800289D
:1046300018BF01200190FFE70198C00720B1FFE7F4
:10464000029801380290E6E722E040F60801C4F241
:104650000261086840F002000860FFE740F63C0095
:10466000C4F202600168002089070029009006D486
:10467000FFE70298002818BF01200090FFE700988C
:10468000C00720B1FFE7029801380290E6E7FFE794
:10469000029820B9FFE703208DF8130003E0002003
:1046A0008DF81300FFE79DF8130005B07047000078
:1046B00086B0049040F63C00C4F20260006800F44A
:1046C0004030029002980499884204D1FFE700200C
:1046D0008DF8170089E00498B0F1011F0DD3FFE7B2
:1046E00040F60C01C4F20261086820F4E02204984C
:1046F000104340F4802008600AE040F60C01C4F248
:104700000261086820F4E020049A10430860FFE783
:1047100040F20400C2F20000006844F6D351C1F236
:104720006201A0FB01208009322200FB02F0A0FB05
:104730000101012000EB91100390FFE740F60C000F
:10474000C4F202600168002009040029019006D427
:10475000FFE70398002818BF01200190FFE70198A8
:10476000C00720B1FFE7039801380390E6E70398FC
:1047700080B3FFE740F20400C2F20000006844F694
:10478000D351C1F26201A0FB01208009322200FB5B
:1047900002F0A0FB0101012000EB91100390FFE764
:1047A00040F63C00C4F202600168002009040029C0
:1047B000009006D4FFE70398002818BF012000905E
:1047C000FFE70098C00720B1FFE703980138039086
:1047D000E6E7FFE7039820B9FFE703208DF817000D
:1047E00003E000208DF81700FFE79DF8170006B0E2
:1047F0007047000040F61001C4F20261086840F002
:10480000804008607047000040F61001C4F2026169
:10481000086840F0005008607047000040F6100142
:10482000C4F20261086840F08050086070470000E0
:1048300040F63C00C4F20260006800F4403070476B
:104840008AB0099040F63440C4F2026000686FF309
:104850005F20069040F62840C4F20260016801F033
:1048600003010891016801F47062012101EB12213A
:104870000791006800F010000590059840F6384157
:10488000C4F20261096889B2C90800FB01F000EEB8
:10489000100AB8EE400A8DED040A0798002800F0CF
:1048A0004F81FFE70898029001282CD0FFE702987B
:1048B000022804D0FFE70298032867D08AE09DED24
:1048C000070AB8EE401A9FEDA30A80EE010A40F6EF
:1048D0003440C4F2026000686FF35F2001EE100AFA
:1048E000B8EE411A9DED042A9FED9B3A82EE032A11
:1048F00031EE021AB7EE002A31EE021A20EE010A5A
:104900008DED030AA9E040F60840C4F20260006899
:104910000002002809D5FFE740F60840C4F2026013
:10492000006800F07040019009E040F6F440C4F2E5
:104930000260006800F4704000040190FFE70198F5
:10494000010F4EF6CC00C0F6000000EB810090EDA8
:10495000000AB8EE400A9DED071AB8EE411A80EE43
:10496000010A9DED061AB8EE411A9DED042A9FED4D
:104970007A3A82EE032A31EE021AB7EE002A31EEBD
:10498000021A20EE010A8DED030A66E09DED070A8A
:10499000B8EE401A9FED6F0A80EE010A40F63440EF
:1049A000C4F2026000686FF35F2001EE100AB8EEF7
:1049B000411A9DED042A9FED683A82EE032A31EEFA
:1049C000021AB7EE002A31EE021A20EE010A8DED2E
:1049D000030A42E040F60840C4F2026000680002A8
:1049E000002809D5FFE740F60840C4F202600068DD
:1049F00000F07040009009E040F6F440C4F202601C
:104A0000006800F4704000040090FFE70098010F78
:104A10004EF6CC00C0F6000000EB810090ED000ADD
:104A2000B8EE400A9DED071AB8EE411A80EE010A71
:104A30009DED061AB8EE411A9DED042A9FED463A07
:104A400082EE032A31EE021AB7EE002A31EE021A84
:104A500020EE010A8DED030AFFE740F62840C4F27C
:104A600002600068C003002819D5FFE79DED030A26
:104A700040F63440C4F20260006880B2400A01EEA1
:104A8000100AB8EE411AB7EE002A31EE021A80EE93
:104A9000010A0998BCEEC00A80ED000A03E00999FA
:104AA00000200860FFE740F62840C4F2026000687A
:104AB0008003002819D5FFE79DED030A40F6344036
:104AC000C4F202600068C0F3064001EE100AB8EEBE
:104AD000411AB7EE002A31EE021A80EE010A099857
:104AE000BCEEC00A80ED010A03E00999002048608D
:104AF000FFE740F62840C4F2026000684003002847
:104B000019D5FFE79DED030A40F63440C4F2026078
:104B10000068C0F3066001EE100AB8EE411AB7EE65
:104B2000002A31EE021A80EE010A0998BCEEC00A92
:104B300080ED020A03E0099900208860FFE707E0A2
:104B40000999002008600999486009998860FFE781
:104B50000AB070470024744B000000468AB00990E8
:104B600040F63C40C4F2026000686FF35F2006909C
:104B700040F62C40C4F20260016801F00301089184
:104B8000016801F47062012101EB122107910068B4
:104B900000F010000590059840F64041C4F2026113
:104BA000096889B2C90800FB01F000EE100AB8EEEE
:104BB000400A8DED040A0798002800F04F81FFE7B6
:104BC0000898029001282CD0FFE70298022804D010
:104BD000FFE70298032867D08AE09DED070AB8EE48
:104BE000401A9FEDA30A80EE010A40F63C40C4F251
:104BF000026000686FF35F2001EE100AB8EE411A00
:104C00009DED042A9FED9B3A82EE032A31EE021AB3
:104C1000B7EE002A31EE021A20EE010A8DED030AEA
:104C2000A9E040F60840C4F20260006800020028D3
:104C300009D5FFE740F60840C4F20260006800F0C2
:104C40007040019009E040F6F440C4F20260006850
:104C500000F4704000040190FFE70198010F4EF648
:104C6000CC00C0F6000000EB810090ED000AB8EE29
:104C7000400A9DED071AB8EE411A80EE010A9DED3B
:104C8000061AB8EE411A9DED042A9FED7A3A82EE9B
:104C9000032A31EE021AB7EE002A31EE021A20EE94
:104CA000010A8DED030A66E09DED070AB8EE401A91
:104CB0009FED6F0A80EE010A40F63C40C4F20260AC
:104CC00000686FF35F2001EE100AB8EE411A9DED07
:104CD000042A9FED683A82EE032A31EE021AB7EEFB
:104CE000002A31EE021A20EE010A8DED030A42E09D
:104CF00040F60840C4F2026000680002002809D5AE
:104D0000FFE740F60840C4F20260006800F070401F
:104D1000009009E040F6F440C4F20260006800F43C
:104D2000704000040090FFE70098010F4EF6CC00A1
:104D3000C0F6000000EB810090ED000AB8EE400ADA
:104D40009DED071AB8EE411A80EE010A9DED061A94
:104D5000B8EE411A9DED042A9FED463A82EE032AF1
:104D600031EE021AB7EE002A31EE021A20EE010AE5
:104D70008DED030AFFE740F62C40C4F202600068A4
:104D8000C003002819D5FFE79DED030A40F63C401B
:104D9000C4F20260006880B2400A01EE100AB8EE68
:104DA000411AB7EE002A31EE021A80EE010A099884
:104DB000BCEEC00A80ED000A03E0099900200860FB
:104DC000FFE740F62C40C4F2026000688003002830
:104DD00019D5FFE79DED030A40F63C40C4F202609E
:104DE0000068C0F3064001EE100AB8EE411AB7EEB3
:104DF000002A31EE021A80EE010A0998BCEEC00AC0
:104E000080ED010A03E0099900204860FFE740F6C1
:104E10002C40C4F2026000684003002819D5FFE767
:104E20009DED030A40F63C40C4F202600068C0F306
:104E3000066001EE100AB8EE411AB7EE002A31EE14
:104E4000021A80EE010A0998BCEEC00A80ED020A3F
:104E500003E0099900208860FFE707E00999002036
:104E600008600999486009998860FFE70AB07047AF
:104E70000024744B000000468AB0099040F644407C
:104E8000C4F2026000686FF35F20069040F6304085
:104E9000C4F20260016801F003010891016801F4A5
:104EA0007062012101EB12210791006800F01000EF
:104EB0000590059840F64841C4F20261096889B23C
:104EC000C90800FB01F000EE100AB8EE400A8DEDB3
:104ED000040A0798002800F04F81FFE70898029025
:104EE00001282CD0FFE70298022804D0FFE702989F
:104EF000032867D08AE09DED070AB8EE401A9FEDBF
:104F0000A30A80EE010A40F64440C4F20260006841
:104F10006FF35F2001EE100AB8EE411A9DED042AEE
:104F20009FED9B3A82EE032A31EE021AB7EE002A79
:104F300031EE021A20EE010A8DED030AA9E040F6D7
:104F40000840C4F2026000680002002809D5FFE7AB
:104F500040F60840C4F20260006800F07040019022
:104F600009E040F6F440C4F20260006800F47040CA
:104F700000040190FFE70198010F4EF6CC00C0F647
:104F8000000000EB810090ED000AB8EE400A9DEDB4
:104F9000071AB8EE411A80EE010A9DED061AB8EE26
:104FA000411A9DED042A9FED7A3A82EE032A31EEF2
:104FB000021AB7EE002A31EE021A20EE010A8DED38
:104FC000030A66E09DED070AB8EE401A9FED6F0AEE
:104FD00080EE010A40F64440C4F2026000686FF3BC
:104FE0005F2001EE100AB8EE411A9DED042A9FEDF4
:104FF000683A82EE032A31EE021AB7EE002A31EE49
:10500000021A20EE010A8DED030A42E040F6084044
:10501000C4F2026000680002002809D5FFE740F6EC
:105020000840C4F20260006800F07040009009E09F
:1050300040F6F440C4F20260006800F470400004DE
:105040000090FFE70098010F4EF6CC00C0F600007C
:1050500000EB810090ED000AB8EE400A9DED071AC2
:10506000B8EE411A80EE010A9DED061AB8EE411A1B
:105070009DED042A9FED463A82EE032A31EE021A94
:10508000B7EE002A31EE021A20EE010A8DED030A76
:10509000FFE740F63040C4F202600068C003002819
:1050A00019D5FFE79DED030A40F64440C4F20260C3
:1050B000006880B2400A01EE100AB8EE411AB7EE5D
:1050C000002A31EE021A80EE010A0998BCEEC00AED
:1050D00080ED000A03E0099900200860FFE740F630
:1050E0003040C4F2026000688003002819D5FFE751
:1050F0009DED030A40F64440C4F202600068C0F32C
:10510000064001EE100AB8EE411AB7EE002A31EE61
:10511000021A80EE010A0998BCEEC00A80ED010A6D
:1051200003E0099900204860FFE740F63040C4F2F0
:10513000026000684003002819D5FFE79DED030ACF
:1051400040F64440C4F202600068C0F3066001EE1D
:10515000100AB8EE411AB7EE002A31EE021A80EEBC
:10516000010A0998BCEEC00A80ED020A03E0099921
:1051700000208860FFE707E009990020086009998E
:10518000486009998860FFE70AB070470024744BB3
:105190000000004680B5A8B0279126902698279950
:1051A00080F480200843002850D1FFE740F6F0400B
:1051B000C4F20260016801F440711B91006880072D
:1051C000002809D5FFE71B98B0F5807F04D1FFE7E1
:1051D0004FF400401C9037E040F6F040C4F202600B
:1051E00000680001002816D5FFE71B98B0F5007F86
:1051F00011D1FFE740F6F040C4F202600068C00041
:10520000002803D5FFE7FA201C9003E04FF4FA4092
:105210001C90FFE717E040F60040C4F2026000680F
:10522000800300280BD5FFE71B98B0F5407F06D11F
:10523000FFE74AF22010C0F207001C9002E00020B5
:105240001C90FFE7FFE7FFE701F073BA2698279964
:1052500080F40050084300284AD1FFE740F6E440BC
:10526000C4F20260006800F0E0001B901B981A90E6
:10527000B0B1FFE71A98202818D0FFE71A98402805
:1052800008D0FFE71A98602816D0FFE71A98802800
:1052900016D028E023A8FFF7D3FA23981C9025E026
:1052A00020A8FFF75BFC20981C901FE01DA8FFF7CB
:1052B000E3FD1D981C9019E04BF680301C9015E022
:1052C00040F60040C4F2026000684005002806D5A0
:1052D000FFE742F20040C0F2F4001C9002E0002020
:1052E0001C90FFE702E000201C90FFE701F020BACD
:1052F0002698279980F48040084300284ED1FFE784
:1053000040F6E440C4F20260006800F4E0601B90E4
:105310001B981990D0B1FFE71998B0F5807F1BD08A
:10532000FFE71998B0F5007F0AD0FFE71998B0F5AC
:10533000407F17D0FFE71998B0F5806F16D028E0AE
:1053400023A8FFF77DFA23981C9025E020A8FFF7FB
:1053500005FC20981C901FE01DA8FFF78DFD1D98EF
:105360001C9019E04BF680301C9015E040F6004090
:10537000C4F2026000684005002806D5FFE742F24B
:105380000040C0F2F4001C9002E000201C90FFE7F7
:1053900002E000201C90FFE701F0C9B92698279988
:1053A00080F480500843A0BBFFE740F6E440C4F21D
:1053B0000260006800F400601B9040F60040C4F2F8
:1053C000026000684005002809D5FFE71B9830B946
:1053D000FFE742F20040C0F2F4001C9017E040F6F4
:1053E0000040C4F202600068400500280BD5FFE7CA
:1053F0001B98B0F5006F06D1FFE741F20020C0F224
:105400007A001C9002E000201C90FFE7FFE701F00B
:105410008DB92698279980F480100843002865D11B
:10542000FFE740F6E040C4F20260006800F0406030
:105430001B901B981890D8B1FFE71898B0F1806FB7
:1054400010D0FFE71898B0F1006F05D0FFE718986B
:10545000B0F1406F1FD044E023A8FFF7F1F9249882
:105460001C9041E020A8FFF779FB21981C903BE0BD
:1054700040F60040C4F2026000688004002806D5AF
:10548000FFE746F60040C0F2DC201C9002E000205E
:105490001C90FFE728E040F60840C4F20260006874
:1054A0000002002809D5FFE740F60840C4F2026078
:1054B000006800F07060179009E040F6F440C4F214
:1054C0000260006800F4706000041790FFE717980E
:1054D000010E4EF6CC00C0F6000050F821001C90E2
:1054E00002E000201C90FFE701F01FB926982799E1
:1054F00080F400100843002840F08280FFE740F667
:10550000E440C4F20260006800F480401B901B98E5
:10551000002864D1FFE740F6E040C4F20260006872
:1055200000F040601B901B981690D8B1FFE71698CA
:10553000B0F1806F10D0FFE71698B0F1006F05D082
:10554000FFE71698B0F1406F1FD044E023A8FFF7A3
:1055500077F924981C9041E020A8FFF7FFFA2198E2
:105560001C903BE040F60040C4F2026000688004FA
:10557000002806D5FFE746F60040C0F2DC201C906C
:1055800002E000201C90FFE728E040F60840C4F24B
:10559000026000680002002809D5FFE740F60840D5
:1055A000C4F20260006800F07060159009E040F6F7
:1055B000F440C4F20260006800F4706000041590CA
:1055C000FFE71598010E4EF6CC00C0F6000050F82B
:1055D00021001C9002E000201C90FFE70EE01B98C9
:1055E000B0F5804F06D1FFE723A8FFF729F92398EC
:1055F0001C9002E000201C90FFE7FFE701F094B848
:105600002698279980F001000843002843D1FFE73E
:1056100040F6E040C4F20260006800F003001B9016
:105620001B9820B9FFE701F0EBFF1C9031E01B98BD
:10563000012804D1FFE702F007F81C9028E040F6AB
:105640000040C4F202600068400500280AD5FFE768
:105650001B98022806D1FFE742F20040C0F2F40096
:105660001C9014E040F6F040C4F20260006880072D
:10567000002808D5FFE71B98032804D1FFE74FF463
:1056800000401C9002E000201C90FFE7FFE7FFE7CE
:10569000FFE701F048B82698279980F002000843F8
:1056A000002843D1FFE740F6E040C4F20260006802
:1056B00000F00C001B901B9820B9FFE701F08EFF53
:1056C0001C9031E01B98042804D1FFE701F0BCFFD7
:1056D0001C9028E040F60040C4F2026000684005DB
:1056E00000280AD5FFE71B98082806D1FFE742F2F9
:1056F0000040C0F2F4001C9014E040F6F040C4F208
:10570000026000688007002808D5FFE71B980C2876
:1057100004D1FFE74FF400401C9002E000201C90F1
:10572000FFE7FFE7FFE7FFE700F0FCBF26982799B8
:1057300080F004000843002843D1FFE740F6E04032
:10574000C4F20260006800F030001B901B9820B982
:10575000FFE701F043FF1C9031E01B98102804D1B3
:10576000FFE701F071FF1C9028E040F60040C4F212
:1057700002600068400500280AD5FFE71B98202832
:1057800006D1FFE742F20040C0F2F4001C9014E0A2
:1057900040F6F040C4F2026000688007002808D597
:1057A000FFE71B98302804D1FFE74FF400401C901E
:1057B00002E000201C90FFE7FFE7FFE7FFE700F0B3
:1057C000B0BF2698279980F008000843002843D1ED
:1057D000FFE740F6E040C4F20260006800F0C0005D
:1057E0001B901B9820B9FFE701F0F8FE1C9031E0F8
:1057F0001B98402804D1FFE701F026FF1C9028E009
:1058000040F60040C4F202600068400500280AD556
:10581000FFE71B98802806D1FFE742F20040C0F264
:10582000F4001C9014E040F6F040C4F202600068FE
:105830008007002808D5FFE71B98C02804D1FFE7A0
:105840004FF400401C9002E000201C90FFE7FFE7AF
:10585000FFE7FFE700F064BF2698279980F010006B
:105860000843002846D1FFE740F6E040C4F202605A
:10587000006800F440701B901B9820B9FFE701F00E
:10588000ADFE1C9034E01B98B0F5807F04D1FFE79B
:1058900001F0DAFE1C902AE040F60040C4F20260FB
:1058A0000068400500280BD5FFE71B98B0F5007F86
:1058B00006D1FFE742F20040C0F2F4001C9015E070
:1058C00040F6F040C4F2026000688007002809D565
:1058D000FFE71B98B0F5407F04D1FFE74FF400408D
:1058E0001C9002E000201C90FFE7FFE7FFE7FFE7C6
:1058F00000F015BF2698279980F020000843002863
:1059000077D1FFE740F6E840C4F20260006800F09B
:1059100007001B901B9820B9FFE701F083FE1C9045
:1059200065E01B98012804D1FFE701F08DFE1C9073
:105930005CE040F60040C4F20260006840050028C8
:105940000AD5FFE71B98022806D1FFE742F2004084
:10595000C0F2F4001C9048E040F6F040C4F202604F
:1059600000688007002808D5FFE71B98032804D1AA
:10597000FFE74FF400401C9036E040F60040C4F2D0
:1059800002600068800600282AD5FFE71B980428DB
:1059900026D1FFE740F60840C4F20260006800022A
:1059A000002809D5FFE740F60840C4F2026000680D
:1059B00000F07060149009E040F6F440C4F2026018
:1059C000006800F4706000041490FFE71498010E62
:1059D0004EF6CC00C0F6000050F821001C9002E00A
:1059E00000201C90FFE7FFE7FFE7FFE7FFE700F07D
:1059F00095BE2698279980F400400843002840F07F
:105A00008180FFE740F6E840C4F20260006800F4DD
:105A1000E0401B901B98B0F5805F04D1FFE701F0D8
:105A200013FE1C906CE01B98B0F5005F06D1FFE7F9
:105A300020A8FFF793F822981C9060E01B9820B9EB
:105A4000FFE701F0B3FD1C9058E01B98B0F5A04FA4
:105A500026D1FFE740F60840C4F202600068000269
:105A6000002809D5FFE740F60840C4F2026000684C
:105A700000F07040139009E040F6F440C4F2026078
:105A8000006800F4704000041390FFE71398010FC2
:105A90004EF6CC00C0F6000050F821001C902CE01F
:105AA00040F60040C4F202600068800300280BD575
:105AB000FFE71B98B0F5405F06D1FFE742F20040D8
:105AC000C0F2F4001C9017E040F60040C4F20260FF
:105AD0000068400500280BD5FFE71B98B0F5804F04
