:020000040800F2
:10000000F0130020D5020008FD5B0008255B000806
:10001000F95B00080509000881700008E702000884
:10002000000000000000000000000000CD5E00089D
:1000300009090008000000000D5C0008D15E0008FE
:10004000F1020008F1020008F1020008F1020008C4
:10005000F1020008F1020008F1020008F1020008B4
:10006000F1020008F1020008F1020008F1020008A4
:10007000F1020008F1020008F1020008F102000894
:10008000F1020008F1020008F1020008F102000884
:10009000F1020008F1020008F1020008F102000874
:1000A000F1020008F1020008F1020008F102000864
:1000B00000000000F1020008F1020008F10200084F
:1000C000F1020008F1020008F1020008F102000844
:1000D000F1020008F9080008F1020008F102000826
:1000E000F1020008F1020008F1020008F102000824
:1000F000F1020008F1020008F1020008F102000814
:10010000F1020008F1020008F1020008F102000803
:10011000F1020008F1020008F1020008F1020008F3
:10012000F1020008F1020008F1020008F1020008E3
:10013000F1020008F1020008F1020008F1020008D3
:10014000F1020008F1020008F1020008F1020008C3
:10015000F1020008F1020008215F0008F102000826
:10016000F1020008015C0008F1020008F102000839
:10017000F1020008F1020008F1020008F102000893
:10018000F1020008F1020008F1020008F102000883
:10019000F1020008F1020008F1020008F102000873
:1001A000F1020008F1020008F1020008F102000863
:1001B000F102000800000000F1020008F10200084E
:1001C000F102000800000000F1020008F10200083E
:1001D000F1020008F1020008F1020008F102000833
:1001E000F1020008F1020008F1020008F102000823
:1001F0000000000000000000F1020008F102000809
:10020000F1020008F1020008F1020008F102000802
:10021000F1020008F1020008F1020008F1020008F2
:10022000F1020008F1020008F1020008F1020008E2
:10023000F102000800F002F800F03CF80AA090E893
:10024000000C82448344AAF10107DA4501D100F091
:1002500031F8AFF2090EBAE80F0013F0010F18BF22
:10026000FB1A43F001031847B4740000D474000073
:10027000103A24BF78C878C1FAD8520724BF30C8D2
:1002800030C144BF04680C607047000000230024A4
:1002900000250026103A28BF78C1FBD8520728BF96
:1002A00030C148BF0B6070471FB507F0A9F91FBDEB
:1002B00010B510BD00F0D2F81146FFF7F5FF06F0BB
:1002C000E1FE00F0F0F803B4FFF7F2FF03BC00F02A
:1002D000F7F800000A4880470A480047FEE7FEE7B3
:1002E000FEE7FEE7FEE7FEE7FEE7FEE7FEE7FEE7E6
:1002F000FEE7000004480549054A064B7047000028
:10030000D55E000835020008F00B0020F013002035
:10031000F00F0020F00F002053EA020C00F069807B
:100320002DE9F04B4FF00006002B1FBFB3FA83F509
:1003300003FA05F424FA05F65E4012BF1643B2FA3A
:1003400082F502FA05F4C5F120051EBF22FA05FC6C
:1003500044EA0C04203556EA044C4FEA144418BF12
:10036000641C4FF000084FF00009904271EB030C41
:1003700039D3002919BFB1FA81F701FA07F6B0FAAB
:1003800080F700FA07F6C7F120071EBF20FA07FC26
:1003900046EA0C062037B6FBF4FCA7EB0507103F36
:1003A00007F01F0BCBF120062CFA06F60CFA0BFB1C
:1003B00044BFB3460026202FA4BF5E464FF0000B7B
:1003C0005BEA060C08BF4FF0010B19EB0B0948EB79
:1003D0000608ABFB027C06FB02CC0BFB03CCC01B6C
:1003E00071EB0C01C1E70B46024641464846BDE8A9
:1003F000F08B13B5084318BF4FF0FF300146AFF341
:100400000080BDE81C4070474FF0000200B5134665
:1004100094469646203922BFA0E80C50A0E80C5024
:10042000B1F12001BFF4F7AF090728BFA0E80C50D5
:1004300048BF0CC05DF804EB890028BF40F8042BCE
:1004400008BF704748BF20F8022B11F0804F18BF3B
:1004500000F8012B7047704770477047754600F0F1
:100460002BF8AE4605006946534620F00700854646
:1004700018B020B5FFF73EFFBDE820404FF0000662
:100480004FF000074FF000084FF0000BAC46ACE80F
:10049000C009ACE8C009ACE8C009ACE8C00921F06B
:1004A00007018D46704710B50446AFF30080204623
:1004B000BDE81040FFF707BF00487047100000205C
:1004C00001491820ABBEFEE726000200704700007D
:1004D000B0B582B0CB01044648BFC4F808218801FA
:1004E00048BFC4F81421480148BFC4F820210801BE
:1004F00048BFC4F82C2142EA010040F6004540F410
:100500004D00C4F20225019028460421002201F08A
:10051000D3FA00BFD4F8700401A901224FF47A7312
:1005200004F038FE28460421012200BF01F0C4FA7D
:10053000002002B0B0BD000070B584B002910192FD
:100540000299C9B30446029840F60046C00144BF70
:100550000198C4F858040298C4F20226800144BFEE
:100560000198C4F85C0402980022400144BF01983D
:10057000C4F8600402980025000144BF0198C4F843
:10058000640402980199084303903046042101F065
:1005900093FA00BFD4F8700403A901224FF47A73D0
:1005A00004F0F8FD30460421012200BF01F084FA76
:1005B000284604B070BD00BF4FF0FF35284604B098
:1005C00070BD000070B584B002918DF807209DF8D1
:1005D0000710044601F007018DF80710029940F654
:1005E0000045CA0144BF4FF40040C4F80801880127
:1005F00044BF4FF40040C4F81401480144BF4FF415
:100600000040C4F82001080144BF4FF40040C4F882
:100610002C0141F4000040F49B00C4F2022541F299
:1006200000060390284604210022C0F2200601F0B3
:1006300043FA00BFD4F8700403A901224FF47A737F
:1006400004F0A8FD28460421012200BF01F034FA7D
:100650000298C0010CD40298800124D40298400171
:100660003CD40298000154D4002004B070BD00BFF7
:10067000D4F858040090009820F070600090009822
:1006800040F0807000909DF80700009941EAC0306A
:100690004FF0807130430090009A2046FFF74CFFE6
:1006A00002988001DAD5D4F85C040090009820F01C
:1006B00070600090009840F0007000909DF8070076
:1006C000009941EAC0304FF0007130430090009A29
:1006D0002046FFF731FF02984001C2D5D4F86004EC
:1006E0000090009820F070600090009840F08060CA
:1006F00000909DF80700009941EAC0304FF08061FA
:1007000030430090009A2046FFF716FF0298000140
:10071000AAD5D4F864040090009820F0706000908E
:10072000009840F0006000909DF80700009941EAB1
:10073000C0304FF0006130430090009A2046FFF730
:10074000FBFE002004B070BDB0B584B002910299E8
:100750000446CA0144BF4FF40040C4F808018801B0
:1007600044BF4FF40040C4F81401480144BF4FF4A3
:100770000040C4F82001080144BF4FF40040C4F811
:100780002C0141F4000040F6004540F49B00C4F207
:100790000225039028460421002201F08DF900BFB4
:1007A000D4F8700403A901224FF47A7304F0F2FC28
:1007B00028460421012200BF01F07EF90298C00101
:1007C0000CD40298800121D40298400136D40298BA
:1007D00000014BD4002004B0B0BD00BFD4F85804D1
:1007E0004FF080710190019820F0706001900198A5
:1007F00040F080700190019840F4C1100190019A7E
:100800002046FFF799FE02988001DDD5D4F85C04FC
:100810004FF000710190019820F0706001900198F4
:1008200040F000700190019840F4C1100190019ACD
:100830002046FFF781FE02984001C8D5D4F8600435
:100840004FF080610190019820F070600190019854
:1008500040F080600190019840F4C1100190019A2D
:100860002046FFF769FE02980001B3D5D4F864046E
:100870004FF000610190019820F0706001900198A4
:1008800040F000600190019840F4C1100190019A7D
:100890002046FFF751FE002004B0B0BDB0B582B0D5
:1008A0000446C0F870144FF418700090009840F699
:1008B0000045C4F854040098C4F20225019028466B
:1008C0000421002201F0F8F800BFD4F8700401A957
:1008D00001224FF47A7304F05DFC284604210122C2
:1008E00000BF01F0E9F820464FF070610022FFF7E9
:1008F00023FE002002B0B0BD40F2E440C2F200008E
:1009000000F03EBCFEE7000070470000EFF31080EF
:1009100072B600BFFEE7000070470000704700009D
:1009200070470000704700002DE9F04F81B0044689
:100930000020009094F87400012802BF022001B04A
:10094000BDE8F08F89462168012084F8740088682A
:10095000400700F1B18141F20838C4F20268A8F5FD
:100960004276D9F80070B1426ED097FAA7F0B0FA8B
:1009700080F03A0208BFB80E00F01F000122CB69D8
:1009800002FA00F01843C861D9F804001F26C0F32A
:10099000012200F01F0001EB8202C7F38467136B92
:1009A0008640B34307FA00F01843106388688A68EA
:1009B000D20842EA9000C00740F0B380D9F80000A6
:1009C000D9F80820C0F34067060290FAA0F307EBBD
:1009D0008706B3FA83F308BFC0F38463704203EB66
:1009E000400001EB870300EB40005F69072686406B
:1009F000B74302FA00F038435861D9E90402CB68E2
:100A0000042847D1086ED9F8002000F07840B0EBF8
:100A1000C26F4FEAC2606DD10A6E22F080620A6630
:100A20004A6E02F07842824269D08A6E02F07842C1
:100A300082426DD18A6E22F080628A66CA6E02F0AE
:100A4000784282426DD168E001F03CF8B0F5805FF9
:100A500040F04D81D9F8007043F6FF70CBF60020CE
:100A6000874240F20000CDF2207040F3958087422B
:100A700000F02E810021CDF220618F4200F02C8108
:100A800044F20001CBF600218F4208BF00F1EC6771
:100A90002DE100BF062707EA530301F1600702FAC0
:100AA00003FCD9F800304FF0784257F8206002EA92
:100AB000430206F0E06342EA0C021A4347F82020A2
:100AC000D9F81000D9F81C2057F8203023F0807393
:100AD0001A4347F82020D9F8100099F8192057F840
:100AE0002030012A23F0806308BF03F1806347F8B8
:100AF000203016E04A6E02F07842824295D14A6E6A
:100B000022F080624A668A6E02F07842824291D078
:100B1000CA6E02F07842824203D1C86E20F0806033
:100B2000C8668868C0072FD1D9F80C30D9F8000002
:100B30004FF6FF75D1F8C07003F01806C0F20F052C
:100B400020F07F4225FA06F697430640374313F517
:100B5000803FC1F8C07067D172B390FAA0F0B0FACC
:100B600080F0421C02F01E03092B30D84FF0806346
:100B700003EB806002F01F02012300F0F84003FA4B
:100B800002F2104331E000BF0020002184F874100D
:100B900001B0BDE8F08F00BF41F20001CBF20021AF
:100BA0008F4200F09F8042F20001CBF200618F4241
:100BB00008BF00F148779AE0012202EB9062C0F38F
:100BC000846002F01E020A2A00F10102CED34FF027
:100BD000806303EB806002F01F02012300F0F84005
:100BE00003FA02F2104340F00070C0F340670602BF
:100BF00090FAA0F307EB8706B3FA83F3D9F808203D
:100C000008BFC0F38463704203EB400001EB87032D
:100C100000EB40005F6907268640B74302FA00F008
:100C200038435861D9F80000B0F1FF3F00F39C82CF
:100C300048F20002C4F202229142A8F5407308BFB4
:100C400002F54278D8F80070914208BF02F108031B
:100C50001B68DB0730D10023CCF60863984207F00D
:100C6000E07308BF17F4000600F0F2800026CCF60F
:100C70000426B04208BF17F0807600F03F810126BD
:100C8000C8F20006B0424FF0000008BF17F480071A
:100C90007FF47BAF41F20000C4F20260814218BFD2
:100CA000914240F06182D8F8000020F0E0701843D3
:100CB00040F4800032E100BFA06F40F02000A06748
:100CC0000120002184F8741001B0BDE8F08F00BF4E
:100CD00000F17F470BE000BF0020CCF6086000F178
:100CE000816704E00120C8F2000000F18077D9F8A4
:100CF00004002169022845D141F010001021C8F2FA
:100D00000001884209D12068C7F384610122836A07
:100D100002FA01F123EA01018162D9F80000B0F181
:100D2000FF3F00F32182216848F20002C4F2022250
:100D3000914208BF02F542784FF6FF71D8F8006083
:100D4000CCF6032188426BDC0121C8F20001884205
:100D500000F0C48041F20001CBF20021884240F053
:100D6000EA81D8F8000006F0C07120F0E070084475
:100D7000C8F8000000F0A6FEB0F5805F00F2DB814D
:100D800091E100BF102241F01001C8F2000291422F
:100D900016D197FAA7F12068B1FA81F13A0208BF9B
:100DA000B90E01F01F010122836A02FA01F1194311
:100DB0008162D9F80810B04240F0D58013E100BF3D
:100DC000D4F8882000F01F030F259D40AA4397FA0E
:100DD000A7F5D4F828C027F07F4BB5FA85FABBF108
:100DE000000F5546C7F3846108BF0D4605FA03F3AB
:100DF000BCEB900F42EA0300C4F8880020D90D46EE
:100E000000F060FEB0F5805F00F29680BBF1000F4D
:100E100000F08880380340F08F80554687E000BF9F
:100E20000021CCF6042188425ED00021CCF6086176
:100E3000884240F08081D8F8000006F0A07157E0A9
:100E40002068D9F80810B04240F08D80CBE000BF98
:100E500041F20000C4F20260814218BF914240F0AA
:100E60008381D8F8000042F6635120F0E070184307
:100E700040F40000C8F8000040F20800C2F2000090
:100E80000068C0F23E518009A0FB010188090221DF
:100E900001EB400000900098002800F06581009868
:100EA000013800900098002800F05E810098013819
:100EB00000900098002800F05781009801380090B9
:100EC0000098002800F050810098013800900098A8
:100ED00000284FF00000E2D157E600BFD8F800002C
:100EE00006F0C07104E000BFD8F8000006F440012D
:100EF00020F0E0700844C8F800001CE141F2000056
:100F0000C4F20260814218BF914240F02D81D8F8AE
:100F1000000020F0E070184340F08070C8F8000036
:100F200022E100BF07F0E040B0F1984F04D9A5F1ED
:100F30000900012101FA00F72068D9F80410B04235
:100F400036D0C1F3012201F01F0100EB82021F26FF
:100F5000136BC7F384658E40B34305FA01F119435F
:100F60001163D9F80810C7F340633E0297FAA7F25D
:100F700003EB8306B2FA82F208BFC7F384627742BA
:100F800002EB470700EB830207EB470352F8147F9D
:100F900007269E40B743994047EA010300211360AA
:100FA000D9F80030B3F1FF3F00F3DE803BE000BF33
:100FB0004FF6205CCFF6FF7C58F80C2001F01F01A3
:100FC0000F2397FAA7F58B40B5FA85F5380208BFCD
:100FD000C7F3846522EA030005FA01F1084348F8E3
:100FE0000C00D9F808104FF60C5097FAA7F3CFF67B
:100FF000FF70B3FA83F358F800003D0208BFC7F34F
:1010000084634FF4807707FA03F3C0B21940A8F560
:101010003D724318012130461360D9F80030B3F116
:10102000FF3F00F3A18048F20007C4F202274246C6
:10103000B84208BF07F54272166842F20000CBF2D0
:101040000060834206F0E07008BF16F4000733D05A
:1010500044F20007CBF60027BB4208BF16F08077AA
:101060005AD00127C8F20007BB4206F4800708BF28
:10107000002F59D083F0324282F480523A43B2FAC0
:1010800082F252091140012955D1D8F8001021F0FF
:10109000E071084340F48000C8F8000000F012FD41
:1010A000B0F5805F47D82068D0F8D01041F001013A
:1010B000C0F8D0103FE000BF116821F0E071084394
:1010C00040F40000106040F20800C2F20000006826
:1010D00042F663518009C0F23E51A0FB01016FF05E
:1010E000010000EA51100090009820B300980138E8
:1010F00000900098F8B10098013800900098D0B1A5
:101100000098013800900098A8B10098013800902C
:1011100000980028EAD10EE0116821F0E071084340
:1011200040F0807006E000BF116821F0E0710843D4
:1011300040F48000106000F0C5FCB0F5005F13D1F2
:1011400070024FF000003FF520ADD9F800100022EA
:10115000CDF2207291427FF418AD2068D0F8D01003
:1011600041F00101C0F8D0100020002184F8741073
:1011700001B0BDE8F08F000070470000704700002C
:1011800070B5044600680168426802EA0105A907D3
:101190000CD5A06FC00603D4A06F40F40060A06718
:1011A0002046FFF7B9FB20680221016041F20006EA
:1011B00015F00C0FC4F2026650D0A16FC90603D41B
:1011C000A16F41F40071A167B0421DD0C16811F454
:1011D000406F3DD1C16889043AD40168090737D509
:1011E0008168490728D4416821F00C014160A06F53
:1011F00020F48070A067A06FC00429D4A06F40F0D5
:101200000100A06724E000BFF06810F4406F1FD118
:1012100094F82400E0B93068000719D5B068400799
:101220000ED4706840F2011120F00C007060A06FC5
:1012300088430130A0670BE0A06F40F0100002E08F
:10124000A06F40F02000A067E06F40F00100E06771
:101250002046FFF791FF20680C210160B04233D097
:1012600015F0600F12D0A16FC90603D4A16F41F42D
:101270000051A167C36CC268C16813F4C07F53D02A
:101280002046FFF74BFB20686021016029061ED431
:10129000E90528D4A9050AD5A06F40F48020A067ED
:1012A0002046FFF73FFB20684FF400710160E9061C
:1012B00058BF70BD616C41B3B04223D0C16889078B
:1012C00023D11021016070BD30462906E0D5A06F02
:1012D00040F48030A067204600F058FA2068802152
:1012E0000160E905D6D5A06F40F40030A067204624
:1012F000FFF716FB20684FF480710160A905D6D571
:10130000CAE700BFF06880072ED0A06F40F480606D
:10131000A067E06F40F00200E0672046FFF72EFF75
:1013200020681021016070BD8B0105D502F4406278
:1013300001F400518918A3D101684906A0D581683C
:1013400009079DD4416821F060014160A06F20F43D
:101350008050A067A06FC0053FF592AFA06F40F02E
:101360000100A0678CE700BF30461021016070BD0E
:10137000002804BF012070472DE9F04381B00546E5
:10138000044655F8780F38B12168886880000ED47B
:101390008868C00015D548E0204600F0F9F9002023
:1013A000E06784F87400216888688000F0D5886858
:1013B0004FF6C072C5F6FF72104088608868C000A2
:1013C00033D44FF6C0728868C5F6FF7202F18052BE
:1013D000104000F18050886040F20800C2F2000026
:1013E000006842F663528009C0F23E52A0FB02023E
:1013F0009009022202EB400000900098A8B100BFC3
:10140000009801380090009878B100980138009059
:10141000009850B1009801380090009828B10098C9
:101420000138009000980028EAD18868C00009D4EB
:10143000A06F40F01000A067E06F40F00100E0678F
:10144000012000E000208A682B68C2F3800203F0CC
:101450001003D2182A6807D042F010010120296039
:1014600001B0BDE8F08300BF22F4817202322A602D
:101470008A6841F20C08D207C4F202683DD148F2F2
:10148000000CC4F2022C61451ED041F20003C4F2EC
:10149000026399421ED1D8F80020D4E901C322F09A
:1014A0000C0E4FF6FF775A1E02F00C02BB4208BF2B
:1014B0000C227244CA60D8F8FC224FEA9C4363F3C2
:1014C0009542C8F8FC2218E00CF108031B68DB0702
:1014D00005D012E0A8F104031B68DB070DD108F565
:1014E0003F73D4F804E0614508BF0CF542731A68F5
:1014F00022F4701242EA0E021A60A8F10C02914224
:1015000066D094F82420636C94F82C7043EA42323D
:10151000A368012F42EA030242EA074206D1236B85
:101520000027CFF6FE7707EB43431A43636B23B1E3
:1015300003F47873A76B1A433A43CB684CF2130752
:10154000CFF6F0773B401A43CA608A688B68DB08A5
:1015500043EA9202D20740F0CE8048F20003C4F280
:101560000223CB1AE76B227F18BF012307FA03F38C
:1015700043EA8232CB6844F20307BB431A43CA6092
:10158000E2684AB10B6F43F6FF77BB431A430A6721
:101590000A6F42F000420A6794F854300A69012B3E
:1015A00040F0A0804FF61E03CFF6004302EA030C82
:1015B000D4E91637D4E9186247EA0C0747EA03432F
:1015C000A76E33431A4342EA970242F001028BE0CE
:1015D00094F82490227F4FEA493343EA8232D4E9D7
:1015E00004E3676C2EF00046BEF1FF3FC8BF4FF426
:1015F00000161A4394F84010002F18BF42F480528E
:10160000324394F82C3042EA410C012B0BD1B9F152
:10161000000F00F08380A16F41F02001A167E16F0E
:1016200041F00101E167616B31B101F4E071A26B3E
:1016300041EA0C0141EA020CD8F8001048F20D0210
:10164000CFF6FE72114041EA0C01C8F80010216A81
:1016500021B1D8F838201143C8F83810E16E21B113
:10166000D8F838201143C8F8381004F158030ECBCD
:1016700011431943A26E94F854301143012BD8F84A
:10168000042008BF41F001014FF60243CFF2FF737F
:101690001A401143C8F80410D8F80810D4E91223EE
:1016A00021F007011143C8F80810D8F80810BEF15E
:1016B000000F21F0700141EA0311C8F8081027D08B
:1016C000BEF5001F3FD1D4F88810D8F81C3001F0C7
:1016D0000F020F2A2AD001F0F002F02A26D163F07F
:1016E0000F012EE022F001020A610A69236D22F047
:1016F00070421A430A6122690B6B012A23F00F0220
:1017000002BFA36A013B1A430A63296827E000BFAE
:10171000D8F81C1061F00F0113E000BF4CF4803CBE
:10172000616B00297FF481AF86E700BFA26A1C23AA
:1017300003EB82026FF00F0302F01C0203FA02F2C5
:101740001143C8F81C10D8F800104FF6F372C8F215
:101750003F321140614509D10021E167A16F0122AB
:1017600062F30101296001B0BDE8F083A06F40F091
:10177000100020F00200A06754F87C0F40F0010137
:1017800001202546296001B0BDE8F08370470000C4
:10179000F0B5B9B005460026002402A8C821CDE95D
:1017A0003766CDE93566C4F202243496FEF72CFE86
:1017B000286804F50041884202D039B0F0BD00BF6E
:1017C0004FF4004002904FF4005004212C9002206E
:1017D00005917D210490CDE9061008900A20CDE9FD
:1017E00009064FF480200C9002A803960B9602F095
:1017F0005DF8002818BFFFF789F840F68C40C4F266
:101800000260016834AD41F4806101600168032623
:1018100001F48061019101990168002741F0040100
:101820000160016801F0040101910199016841F032
:10183000010101600068294600F001000190019853
:101840000820349004F500603596369700F026F8AD
:101850000F2034A9C1C12046294600F01FF82520D9
:101860000021002200F0DAF9252000F0C7F939B094
:10187000F0BD0000B0B5044600F02CF9054640F27A
:101880000000C2F200000078611C18BF044400BFD1
:1018900000F020F9401BA042FAD3B0BD2DE9F04F73
:1018A00081B00D68002D00F00381804647F67F70FF
:1018B000C0F22F0000EA98200027009000234FF08C
:1018C000010E4FF0030AC4F2026740460BE000BF6E
:1018D0004FF0030A0027C4F202670D68013335FA9E
:1018E00003F200F0E5800EFA03F415EA0409F4D0DF
:1018F000B84525D0D1F804C04CF01004122C55D1B5
:101900006FF0030202EA53071C2202EA83064744EF
:101910000F223D6A02FA06F40A69A54302F00F029B
:10192000B2402A433A6202685C00D1F804C00AFA65
:1019300004F5AA430CF0030505FA04F422433FE042
:10194000386847F234624D68C0F60002A04302EBEB
:10195000C30405F001059D40D4F804B0054352F8D6
:1019600033006FF0030202EA5B041C223D6005199C
:1019700002EA8B042F6A0F2202FA04F60B22B74305
:1019800002FA04F637432F6207684FEA4B060AFA59
:1019900006F50222AF4302FA06F637430760D1F894
:1019A00004C0BCF1120F10D938E000BF02685C001F
:1019B0000AFA04F5AA430CF0030505FA04F42243DD
:1019C0009B460260BCF1120F28D80EFA0CF212F0FE
:1019D000061F1FD04FEA4B050324826804FA05FA5C
:1019E000CC6822EA0A02AC402243826042680EFAC6
:1019F0000BF4A2434FEA1C1404FA0BF42243BCF18B
:101A0000030F42603FF464AF6FEA0A044FF0030A29
:101A100009E000BFBCF1030F3FF45CAF4FEA4B0598
:101A20000AFA05F2D443C2688E68224006FA05F429
:101A300022435FEACC07C2607FF54CAF42F200045C
:101A400023F00302C4F202641827224407EAC30702
:101A5000166E0F25BD40AE43009D05FA07F73743CC
:101A6000176622684F6842EA0906FD0258BF22EA5B
:101A7000090626606268BD0242EA090658BF22EAEA
:101A800009066660D4F88420BD0342EA090658BFFF
:101A900022EA0906C4F88460D4F88020FF0342EAF1
:101AA000090658BF22EA0906C4F8806012E700BFA1
:101AB00001B0BDE8F08F00001823002A08BF2823DA
:101AC000C150704744F20000CEF204000068000CE0
:101AD0007047000040F6E830C2F20000006870472E
:101AE00040F20041C4F203010A68D2071CBF012082
:101AF00070470A6822F00402104308600020704713
:101B000040F20041C4F20301086840F001020020E5
:101B10000A60704740F2000040F6E831C2F200006F
:101B2000C2F2000100780A681044086070470000A3
:101B300080B542F20000C4F20200016841F48071F5
:101B40000160032000F096F802F0D2FB40F620413D
:101B5000C4F20261096847F21A6201F00F01C0F68F
:101B60000002515CC84040F20801C2F20001086066
:101B7000002000F009F800281CBF012080BD00F003
:101B80002BF8002080BD000070B540F20006C2F2C4
:101B900000063178002904BF012070BD044640F2E0
:101BA0000800C2F200004FF47A720068B2FBF1F153
:101BB000B0FBF1F003F0D0FC0F2C4FF0010508D87A
:101BC00038B94FF0FF3021460022002500F026F8FA
:101BD0007460284670BD000081B040F69440C4F2A5
:101BE0000260016841F004010160006800F0040037
:101BF00000900098042001B000F03CB8002848BFD5
:101C0000704700F01F01012202FA01F14EF20012AA
:101C10004009CEF2000242F82010704710B54EF68F
:101C20000C5CCEF2000CDCF80030C3F3022E8EF018
:101C30000704042C28BF0424BEF103034FF0FF3E29
:101C400038BF00230EFA04F4A14399400EFA03F3BF
:101C50009A4300F00F03043B1143634409010C3322
:101C600000F16042B0F1FF3FC8BF02F56443197054
:101C700010BD00004EF60C51CEF200010A684FF67E
:101C8000FF031A4060F30A2242F0806040F0FD70CA
:101C90000860704701220168C0F80025002280F822
:101CA000F424886940F000608861486D40F08050FD
:101CB00040F0030200204A657047000070470000B2
:101CC0007047000070470000704700007047000038
:101CD0002DE9F04F89B005688246284605F03CF8AA
:101CE00010B109B0BDE8F08FDAF8000005F062F835
:101CF0000028F6D0D5F80808C0F30D21DAF8000066
:101D0000CAF8FC1405F056F80146DAF80000890715
:101D100003D5416901F00201416105F500610391BC
:101D200005F048F80146DAF80000C90604953FD5E9
:101D3000816921F0100181612C6AC4F3434004F0F1
:101D40000F0506281CD002282BD147F6F07004405E
:101D500027D005EBC50022090AEB80050498D5F8C9
:101D60008C1205F02BF8D5F88C02D5F89C1200EBFC
:101D7000141001EB1411C5F88C02C5F89C1210E088
:101D800004980AF2C441082205F018F805EBC500D2
:101D9000C4F30A110AEB8000D0F89C221144C0F869
:101DA0009C12DAF80000816941F010018161049D04
:101DB00005F000F80003CDF820A040F10B81DAF81F
:101DC000000004F0D5FF002800F0048106460AF266
:101DD000C4400AF5277400274FF4306B4FF0000819
:101DE000079020E005EB0B00022181605FEA8A602A
:101DF00042BF05EB0B00202181605FEA8A40DDF8DD
:101E000020A042BF05EB0B004FF400518160B7EBFF
:101E1000560F08F101084FEA56060BF1200B04F1AA
:101E2000240400F0D780F007F1D0DAF800005FFA60
:101E300088F9494604F0B6FF8246C00760D005EB3A
:101E40000B0001218160089F38680BEB0001036CD7
:101E50008A683F69012F19D117072BD4970649D4F7
:101E600012F0280F4FF000074AD1AC4643F20B05A1
:101E7000C4F65475AB42C0F08F8012F4004200F0FB
:101E80008B804FF400408860654639E043F20B07D1
:101E9000C4F65477FF37BB421CD110042CD49006F3
:101EA00044BF20208860002708984946FFF70CFFB0
:101EB00026E000BF43F20B00C4F6547083424FF09B
:101EC00000071DD312F400401CBF4FF4004088608F
:101ED00016E000BFB8F1000F07D10899D1F89412AD
:101EE00019B9079A002104F013FE08984946FFF734
:101EF000EBFE04E0202001E04FF400408860002762
:101F00005FEA0A7028D505EB0B000821816008986C
:101F100043F20B020068C4F65472056C58448168A1
:101F2000571EBD4205D911F400411CBF4FF40041BA
:101F30008160089800F0D4FCBD42049D4FF000077A
:101F40000AD908980069012806D10898079A0068FC
:101F5000012104F0DDFD00BF5FEACA6042BF05EB6E
:101F60000B00102181605FEA8A707FF53FAF6869DE
:101F7000000604D50399486840F48060486014F86E
:101F80001D0C01287FF42EAF0898494604F81D7CEB
:101F900000F092FB26E700BF54F8042C0969B8F161
:101FA000000F6FF3DF41A2EB0101654621607FF472
:101FB0007BAF089BD3F8942232B1D3F88C0208444B
:101FC000C3F88C0270E700BF079A012104F0A0FD5E
:101FD0006AE700BFDAF8000004F0ECFE400340F1CD
:101FE000EB80DAF8000004F0BBFE002800F0E4808B
:101FF00005F5106102910AF2C4410027019114E035
:10200000069E07F00F02D6F83418012303FA02F2F5
:102010009143C6F8341800BF0021B1EB500F07F10F
:1020200001074FEA500000F0C780C107F4D00590C7
:10203000DAF80000F9B2079104F0A2FE029E04460D
:10204000C0070BD1200733D4E00637D460063BD459
:10205000A0073FD420060598DED555E0039A07F087
:102060000F00516B012303FA00F021EA000006EB98
:10207000471150638B60DAF81000012812D107EB8A
:10208000C7000AEB8000D0E912121144C1644FB9B5
:10209000DAF8540030B9DAF80000019A012104F0AE
:1020A00037FD00BF07995046FFF70CFE2007CBD540
:1020B00006EB471008218160E006C7D506EB471004
:1020C000102181606006C3D506EB47104021816076
:1020D000A007BFD52846394604F0D2FD07EBC7005C
:1020E0000AEB800010F83F1F012905D10021017083
:1020F0000799504600F0DEFA06EB47100221816096
:10210000200605987FF588AF07EBC7010AEB810B26
:10211000D94659F8542FC84658F8086FB242FFF410
:102120007BAFDAF800505BF8483F05EB471C06959B
:10213000DCF81859911B994288BF1946ADB203319A
:10214000B5EB910F28BFB24204D8049DB2423FF6CE
:1021500063AF55E70BF1040ADAF800100CF51065CF
:102160000898941B9C42067C88BF1C46DDE9060249
:10217000A3B2009604F048FFDAF80000E31C01194E
:10218000D8F80000CAF800100619C8F80060AA695B
:1021900092B2B2EB930FD9F8002028BFB24203D914
:1021A000DBF80030DCE700BFDDF820A0DDE90450FB
:1021B000B2423FF631AF23E7DAF8000004F0FAFD4F
:1021C000002815D4DAF80000039C04F0F3FD0005A4
:1021D0002DD4DAF8000004F0EDFD000137D4DAF870
:1021E000000004F0E7FDC00443D4DAF8000054E135
:1021F000039C606820F0010060609AF8F4040128F4
:1022000008D100208AF8F40450460021FFF756FD5B
:1022100003E000BF504600F05FFBDAF800004169C0
:1022200001F00041416104F0C5FD0005D1D5A06871
:10223000C0071CBF504600F055FBDAF800004169AA
:1022400001F40061416104F0B5FD0001C7D5DAF881
:102250000000416901F0006141619AF8F414E9B1AC
:10226000504600F03FFBDAF8000004F0A3FDC00484
:10227000BBD56068102120F001006060DAF8000032
:1022800004F0FEFCDAF80400002800F0D880411EBB
:10229000032900F0030C15D200217FE001218AF808
:1022A000F414406D0121C0F38300CAF8F8045046CD
:1022B000FFF704FDDAF8000004F07CFDC00494D5BB
:1022C000D7E700BF20F0030E05F536634FF6A056A2
:1022D0004FF6C0554FF6E0544FF6006000214FF620
:1022E0007F37CFF6FF76CFF6FF75CFF6FF74CFF6C8
:1022F000FF7000BFA3F5187297609A59043122F459
:1023000000129A5143F8587C53F8602C8E4522F401
:10231000001243F8602C53F8602C42F0006243F83E
:10232000602CA3F5107297605A5922F400125A518A
:1023300043F8387C53F8402C22F4001243F8402C28
:1023400053F8402C42F0006243F8402CA3F5087289
:1023500097601A5922F400121A5143F8187C53F866
:10236000202C22F4001243F8202C53F8202C42F0A9
:10237000006243F8202CA3F5007297601A5822F4EB
:1023800000121A509F601A6822F400121A601A682C
:1023900042F000621A6003F18003ABD1DDE903452E
:1023A000BCF1000F4BD005F5106000EB41124FF669
:1023B0007F334F019360C65905F5306202EB41153A
:1023C00026F40016C651AB60D659BCF1010F26F4B5
:1023D0000016D651D65946F00066D651039C2ED031
:1023E0004F1C00EB47167D01B360465902EB4717BF
:1023F00026F400164651039CBB605359BCF1020FF2
:1024000023F400135351535943F00063535116D032
:10241000023100EB41174FF67F364B01BE60C758C3
:1024200002EB411127F40017C7508E60039CD0586F
:1024300020F40010D050D05840F00060D050E06937
:1024400040F00110E061DAF8300048B1D4F88400BF
:1024500040F00B00C4F8840004F1440007E000BF22
:10246000606942F22B010843606104F110000168C9
:102470000AF2C44241F00B010160206820F4FE60C2
:102480002060DAF800009AF8101004F041FBDAF846
:102490000000416901F48051416104F08BFC014668
:1024A000DAF8000089041AD504F00EF9DAF8000011
:1024B00004F044FCDAF80040CAF80C0001F0A2FE77
:1024C0009AF80C200146204604F00EFD504600F01C
:1024D00001FADAF80000416901F40051416104F0A9
:1024E00069FC000706D4DAF8000004F063FC00067B
:1024F0000DD435E0504600F0F1F9DAF800004169FA
:1025000001F00801416104F055FC000628D504994A
:10251000886920F080008861DAF8040002281FD35F
:102520000AF2A324012504E00135854204F12404C4
:1025300016D221780129F7D105F00F0000EBC00079
:102540000AEB80022806DAF8000002F13C0158BFCD
:1025500002F51F7104F00AFBDAF80400E4E700BF9B
:10256000DAF8000004F026FCC00251D4DAF80000CA
:1025700004F020FC800240F18080DAF80400022898
:102580002CD304990AF5297201F532610123012740
:1025900006E000BF01372031874202F124021DD23C
:1025A0000E68B6F1FF3FF5DC1578012DF2D1DAF8AF
:1025B000FC5406F4803605F00105AE42EAD1049DD4
:1025C00002F8013CAE6946F08006AE616E693606DF
:1025D000E0D40399486840F400704860DAF80000DD
:1025E000416901F40011416104F0E4FB40004AD567
:1025F0005046FFF765FBDAF80000416901F08041C1
:10260000416104F0D7FB400744D4FFF76ABB00BF29
:10261000DAF80400022825D304990AF1640501F5CB
:1026200012640126012705E001372034874205F1B5
:10263000240517D22168B1F1FF3FF5DC2978012983
:10264000F2D107F00F0000EBC00005F8016C0AEBB7
:102650008001DAF800003C3104F088FADAF804006E
:10266000E2E700BFDAF80000416901F4801141613E
:1026700004F0A0FB80023FF580AFDAF8000004F020
:1026800099FB4000B4D4DAF8000004F093FB400753
:102690007FF527ABDAF800004468610704D550469F
:1026A000FFF714FBDAF8000041682143416009B0EC
:1026B000BDE8F08F70470000704700002DE9F04F33
:1026C0008BB0002800F086800446056890F8BD04B1
:1026D00028B9002084F8BC04204600F093F80320B9
:1026E00084F8BD04E86BC0055CBF00202061206851
:1026F00004F006FA206804F11C0A0A90D4E90C5090
:1027000004F1040E9AE8C0079EE80E58CDE908507F
:1027100003A880E8C0030A988DE80058CDF81CA0F3
:1027200003F0E2FF002852D120680021002504F0C8
:10273000A5FB616861B301200023002203EBC30302
:1027400004EB8307D3B287F83C200132A7F844306A
:10275000D3B2994287F83D0087F84050C7E9125537
:102760007D65EBD800200023002200BF03EBC303EC
:1027700004EB830787F87C220132D3B2994287F8B1
:102780007D0287F88002C7E9A200C7F89402EDD85D
:10279000A06822680A90D4E90C50D4E9033704F108
:1027A000140E04F1240A9EE840589AE80007CDE987
:1027B000085002A880E8005810460A9ACDE9007631
:1027C000CDE90589CDF81CA004F01EF830B1022037
:1027D00084F8BD0401200BB0BDE8F08F002084F820
:1027E0003800012084F8BD04606A012804BF204637
:1027F000FFF750FA206803F0F7FF00200BB0BDE8A8
:10280000F08F000070B5BAB0054602A8002600247B
:102810000830C0213996CDE93766CDE93566C4F276
:102820000224FDF7F1FD286804F50031884201D04B
:102830003AB070BD4FF48010029002A803962A9619
:1028400001F034F8002818BFFEF760F840F68C4518
:10285000C4F20265286835A940F0010028602868A4
:1028600000F00100019001984FF4C0503590022013
:10287000369000203790032038900A203990204667
:10288000FFF70CF8286840F480402860286800F4BE
:10289000804001900198A86840070FD4A86840F0D4
:1028A0000400A860A86800F004000190019800F0FE
:1028B00011F9A86820F00400A86001E000F00AF90E
:1028C000492000210022FFF7A9F94920FFF796F9D6
:1028D0003AB070BD704700007047000070470000BC
:1028E000704700007047000040F20801C2F200018A
:1028F000096841F25973CDF2B71340F63C02C4F2B5
:102900000262A1FB031352F8341C00284FEA9330F3
:102910001ED041F0020142F8341C811C10680129CC
:1029200036D010F0020033D11068022932D010F0F6
:1029300002002FD1106803292ED010F002002BD1F5
:10294000106804392BD010F00200E7D027E000BF58
:1029500021F0020142F8341C811C1068012918BFC3
:1029600010F0020020D01068022918BF10F00200F9
:102970000CD01068032918BF10F002000ED01068A8
:1029800004390CD010F00200E7D108E0023906E06B
:10299000013904E0023902E0033900E00339002084
:1029A000002908BF032070470139F8E780B540F6D9
:1029B0000C0CC4F2026CDCF8301001F4403181429E
:1029C00074D0DCF80010B0F5803F21F4E02141EA3A
:1029D000000140F2080088BF41F48021CCF80010CB
:1029E000C2F20000006841F25971CDF2B711A0FBAC
:1029F00001014FEA913E7346DCF80010B3F1FF325B
:102A000018BF0122581C22D011F400401FD1DCF85D
:102A10000010002B1A4618BF012218D011F40040F4
:102A200015D1DCF800105A1E18BF0122012B0ED060
:102A300011F400400BD1DCF800109A1E18BF0122DF
:102A4000022B04D011F40040A3F10403D4D0A2B3AC
:102A5000DCF830101EF1010224D011F4004021D125
:102A6000DCF83010BEF1000F1DD011F400401AD177
:102A7000DCF83010BEF1010F1AD011F4004017D16C
:102A8000DCF83010BEF1020FAEF1040203D011F4F5
:102A900000409646DCD002F1020EBEF1000F05D1D7
:102AA0000BE000BF9646BEF1000F06D0002080BDAF
:102AB000AEF1010EBEF1000FF8D1032080BD000081
:102AC00040F61000C4F20260016841F0005101605C
:102AD0007047000040F61000C4F20260016841F047
:102AE000805101607047000040F63C00C4F2026073
:102AF000006800F440307047B0B540F6284EC4F28C
:102B0000026EDEF80C50DEF80030DEF80010DEF861
:102B10000020DEF8104002F01002C4F3CC04C1F330
:102B2000032104FB02F203F0030300EE102A6FF30B
:102B30005F25B8EE400A012B01F1010C66D0032B92
:102B400018BF022B62D101EE10CADEF80C10B8EEED
:102B5000411A9FED4D2A6FF35F2182EE011A02EEBA
:102B6000101A9FED4A3AB8EE422A20EE030A30EEE0
:102B7000020AB7EE002A30EE022ADEF8001021EE3B
:102B8000020AC90371D5DEF80C10B7EE002AC1F3B2
:102B9000462101EE101AB8EE411A31EE021A80EE0B
:102BA000011ABCEEC11A11EE102A0260DEF8001004
:102BB000890360D5DEF80C10B7EE002AC1F3064198
:102BC00001EE101AB8EE411A31EE021A80EE011A27
:102BD000BCEEC11A11EE102A4260DEF80010490363
:102BE0004FD5DEF80C10B7EE002AC1F3066101EEF6
:102BF000101AB8EE411A31EE021A80EE010ABCEE4C
:102C0000C00A10EE101A8160B0BD00BF5EF8201C33
:102C1000090203D4DEF8CC100B0401E05EF8203C7E
:102C200047F2B462190FC0F6000202EB810102EE16
:102C300010CA91ED001AB8EE422AB8EE411A9FED83
:102C4000133A81EE022A01EE105A20EE030AB8EE82
:102C5000411A30EE010AB7EE001A30EE011ADEF822
:102C6000001021EE020AC9038DD400220260DEF8B2
:102C7000001089039ED400224260DEF80010490350
:102C8000AFD400218160B0BD0024744B0000003936
:102C9000B0B540F62C4EC4F2026EDEF81050DEF8ED
:102CA0000030DEF80010DEF80020DEF8144002F0FC
:102CB0001002C4F3CC04C1F3032104FB02F203F0BD
:102CC000030300EE102A6FF35F25B8EE400A012BD4
:102CD00001F1010C66D0032B18BF022B62D101EE6B
:102CE00010CADEF81010B8EE411A9FED4D2A6FF3AE
:102CF0005F2182EE011A02EE101A9FED4A3AB8EEF9
:102D0000422A20EE030A30EE020AB7EE002A30EE25
:102D1000022ADEF8001021EE020AC90371D5DEF89E
:102D20001010B7EE002AC1F3462101EE101AB8EEDA
:102D3000411A31EE021A80EE011ABCEEC11A11EEF0
:102D4000102A0260DEF80010890360D5DEF810104A
:102D5000B7EE002AC1F3064101EE101AB8EE411A8F
:102D600031EE021A80EE011ABCEEC11A11EE102AE1
:102D70004260DEF8001049034FD5DEF81010B7EEC0
:102D8000002AC1F3066101EE101AB8EE411A31EEC5
:102D9000021A80EE010ABCEEC00A10EE101A816021
:102DA000B0BD00BF5EF8241C090203D4DEF8C810D1
:102DB0000B0401E05EF8243C47F2B462190FC0F640
:102DC000000202EB810102EE10CA91ED001AB8EE8A
:102DD000422AB8EE411A9FED133A81EE022A01EE23
:102DE000105A20EE030AB8EE411A30EE010AB7EE8F
:102DF000001A30EE011ADEF8001021EE020AC903B3
:102E00008DD400220260DEF8001089039ED40022D7
:102E10004260DEF800104903AFD400218160B0BDEC
:102E20000024744B00000039B0B540F6304EC4F2B7
:102E3000026EDEF81450DEF80030DEF80010DEF826
:102E40000020DEF8184002F01002C4F3CC04C1F3F5
:102E5000032104FB02F203F0030300EE102A6FF3D8
:102E60005F25B8EE400A012B01F1010C66D0032B5F
:102E700018BF022B62D101EE10CADEF81410B8EEB2
:102E8000411A9FED4D2A6FF35F2182EE011A02EE87
:102E9000101A9FED4A3AB8EE422A20EE030A30EEAD
:102EA000020AB7EE002A30EE022ADEF8001021EE08
:102EB000020AC90371D5DEF81410B7EE002AC1F377
:102EC000462101EE101AB8EE411A31EE021A80EED8
:102ED000011ABCEEC11A11EE102A0260DEF80010D1
:102EE000890360D5DEF81410B7EE002AC1F306415D
:102EF00001EE101AB8EE411A31EE021A80EE011AF4
:102F0000BCEEC11A11EE102A4260DEF8001049032F
:102F10004FD5DEF81410B7EE002AC1F3066101EEBA
:102F2000101AB8EE411A31EE021A80EE010ABCEE18
:102F3000C00A10EE101A8160B0BD00BF5EF8281CF8
:102F4000090203D4DEF8C4100B0401E05EF8283C4B
:102F500047F2B462190FC0F6000202EB810102EEE3
:102F600010CA91ED001AB8EE422AB8EE411A9FED50
:102F7000133A81EE022A01EE105A20EE030AB8EE4F
:102F8000411A30EE010AB7EE001A30EE011ADEF8EF
:102F9000001021EE020AC9038DD400220260DEF87F
:102FA000001089039ED400224260DEF8001049031D
:102FB000AFD400218160B0BD0024744B0000003903
:102FC00080B584B0024643F6FF7300209B1A70EB75
:102FD0000103C0F26F80D2F17F0370EB0103C0F2F6
:102FE000B980013A61F10001D2F13F034FF00003D3
:102FF00073EB0101C0F03084DFE812F040002A02D8
:103000002E04D0012E042E042E04EA012E042E04D8
:103010002E042E042E042E042E0444022E042E040C
:103020002E042E042E042E042E042E042E042E0410
:103030002E042E042E042E042E0404022E042E042C
:103040002E042E042E042E042E042E042E042E04F0
:103050002E042E042E042E042E042E042E042E04E0
:103060002E042E042E042E042E042E042E042E04D0
:103070002E042E042E042E042E04620240F6084074
:10308000C4F20260D0F8D81001F00301012900F069
:103090000983002900F0028350F8082C022903D18B
:1030A00012F4806240F0B683D0F8E800032900F003
:1030B000E1BB00BF4FF6FF73C0F23F039B1A70EBFA
:1030C000010377DB4FF6FF73C0F201039B1A4FF049
:1030D000000C7CEB010380F295804FF6FF73C0F289
:1030E0000F039B1A7CEB0103C0F2FE8082F40033D5
:1030F0000B4300F0078282F48022114340F0AC833E
:1031000040F60840C4F20260D0F8E810D0F8E82099
:1031100001F44071B1F5807F03D112F0020240F05A
:103120003981D0F8E820B1F5007F03D112F00062B8
:1031300040F0168250F8080C10F400301CBF4AF220
:103140002010C0F20700B1F5407F18BF002004B086
:1031500080BD00BF40F2FF339B1A4FF0000C7CEBA8
:10316000010380F2738040F6FF739B1A7CEB01032E
:10317000C0F2D88082F480630B4300F0DD8182F4DA
:103180000062114340F0688340F60840C4F20260D8
:10319000D0F8E01011F4407100F0A082D0F8E820DF
:1031A000B1F5807F40F07D8112F0006240F0D8815F
:1031B00077E100BF6FF07E439B1A4FF0000C7CEB71
:1031C000010380F273806FF078439B1A7CEB01035C
:1031D000C0F2C68082F000730B4300F0CB8182F016
:1031E0008062114340F0388340F60840C4F2026028
:1031F000D0F8DC10C1F30151DFE811F05402700285
:10320000AA02B80282F480430B4300F0C18182F429
:1032100000430B4300F0DC8182F48032114340F024
:103220001B8340F60841C4F20261D1F8DC0000F0D3
:103230000702042A00F296824BF68030DFE812F093
:10324000DC01C20176010C03D20200BF82F08003D0
:103250000B4300F0D58182F480730B4300F0EE81C4
:1032600082F40072114340F0F78240F60840C4F245
:103270000260D0F8E01011F4406100F02F82D0F825
:10328000E820B1F5806F03D112F0006240F0688150
:1032900050F8082CB1F5006F03D112F4806240F0B1
:1032A000B982D0F8E800B1F5406FE3E282F4800320
:1032B0000B4300F0D58182F400030B4300F0E28160
:1032C00082F08072114340F0C78240F60840C4F299
:1032D0000260D0F8D810C1F30141DFE811F0CF014E
:1032E000E3013F02FF0100BF82F480130B4300F0B3
:1032F000DD8182F40012114340F0AE8240F60840B6
:10330000C4F20260D0F8DC10490400F15B81D0F80F
:10331000D810C1F38161DFE811F0D50129021B0249
:10332000E10100BF82F480530B4300F0DF8182F49F
:103330000052114340F0908240F60841C4F202610D
:10334000D1F8DC00C0F34212042A00F20B824BF6E3
:103350008030DFE812F023023101370181022902B7
:1033600082F000630B4300F0DF8182F08052114352
:1033700040F0728240F60841C4F20261D1F8E000E8
:10338000D1F8E82010F4004040F0F68112F002027B
:1033900000F0F2814FF4004004B080BD40F60840D8
:1033A000C4F20260D0F8D81001F03001102900F00A
:1033B0007981002900F0628150F8082C202903D17E
:1033C00012F4806240F02682D0F8E800302951E201
:1033D00040F60840C4F20260D0F8D81001F0C001F5
:1033E000402900F05F81002900F0488150F8082C46
:1033F000802903D112F4806240F00C82D0F8E800FA
:10340000C02937E240F60841C4F20261D1F8E00079
:1034100000F00700012800F04581002800F01C8121
:1034200051F8082C022803D112F4806240F0F28196
:10343000D1F8E820032802D112F00202AAD151F8F3
:10344000082C04284FF0000000F0C98104E200BFFE
:1034500040F60840C4F20260D0F8D81001F00C0128
:10346000042900F01F81002900F0088150F8082C81
:10347000082903D112F4806240F0CC81D0F8E80032
:103480000C29F7E140F60840C4F20260D0F8D810E9
:1034900001F44071B1F5807F00F00481002900F053
:1034A000ED8050F8082CB1F5007F03D112F4806252
:1034B00040F0B081D0F8E800B1F5407FDAE100BF1C
:1034C00040F60841C4F20261D1F8D80000F440602F
:1034D000B0F5806F00F0E680002800F0CF8051F852
:1034E000082CB0F5006F03D112F4806240F0928195
:1034F00051F8082CB0F5406F4FF0000000F06F81DC
:10350000AAE100BF40F60841C4F20261D1F8E00030
:10351000C0F30242042A00F225814BF68030DFE836
:1035200012F06B00510005009B01610101A8FFF73B
:103530007BFC029804B080BD40F60840C4F20260F3
:10354000D0F8D81011F4402100F09880D0F8E8208D
:10355000B1F5802F40F0568112F0006200F05281E8
:10356000D0F8E800C0004FF0FA0058BF4FF4FA401E
:1035700004B080BD40F60840C4F20260D0F8E0100C
:10358000C1F3C101DFE811F068008E00EA00AA0073
:1035900040F60841C4F20261D1F8DC00C0F3022217
:1035A000042A00F2DF804BF68030DFE812F0F700EB
:1035B00005000B005501FD0001A8FFF735FC01983F
:1035C00004B080BD01A8FFF797FA019804B080BD50
:1035D00040F60841C4F20261D1F8E000C0F30232C3
:1035E000052A00F22B81DFE812F007005D002301BD
:1035F00029012901390100BF00F004FE04B080BD9B
:1036000040F60841C4F20261D1F8D80000F44050FD
:10361000B0F5805F46D088B351F8082CB0F5005F54
:1036200003D112F4806240F0F58051F8082CB0F517
:10363000405F4FF0000000F0D2800DE140F60840FE
:10364000C4F20260D0F8E010C1F38111DFE811F09C
:1036500004002A008600EA0000F02AFE04B080BDC3
:1036600040F60841C4F20261D1F8D80000F44040AD
:10367000B0F5804F16D0002840F0A28000F0D8FDB1
:1036800004B080BD40F60840C4F20260D0F8D81003
:10369000C1F30151DFE801F00206622200F0E8FD0B
:1036A00004B080BD00F024FE04B080BD40F60840A8
:1036B000C4F20260D0F8D810C1F38161DFE801F0F4
:1036C0000256480E50F8080C46F600418004C0F23D
:1036D000DC2101EAE07004B080BD00BF016809028E
:1036E00002D4D0F8EC0082E0006881E040F60840A7
:1036F000C4F20260D0F8DC1050F8082C11F400611C
:1037000003D112F4806240F0858050F8080C10F468
:1037100080601CBF41F20020C0F27A00002908BF7F
:10372000084604B080BD00BF40F60841C4F2026103
:10373000D1F8D80051F8081C10F0407002D111F4F3
:10374000003167D1B0F1007F28D0B0F1807F09D17E
:1037500001A8FFF7D1F9029804B080BD50F8080C19
:1037600024E000BF002004B080BD00BF01A8FFF727
:103770008FFA029804B080BDD1F8E82000284FF0FD
:10378000000018BF12F0006266D0D1F8E800C00057
:103790004FF0FA0058BF4FF4FA405DE001A8FFF780
:1037A00077FA019804B080BD51F8080C42F200414C
:1037B0004005C0F2F40101EAE07004B080BD00BF32
:1037C00051F8082CB0F5004F02D112F4806221D1DB
:1037D00051F8082CB0F5404F4FF000003CD112F0EA
:1037E000200239D0086800021AD4D1F8EC00000495
:1037F000C0F3036047F2B461C0F6000151F8200045
:1038000004B080BD50F8082CB1F5002F2ED112F471
:1038100080622BD042F20040C0F2F40004B080BDC0
:103820000868E5E7016809022CD4D0F8EC001AE03A
:1038300001A8FFF72DFA039804B080BD00F4E04220
:1038400051F8083C42F20040B2F5405FC0F2F4008B
:103850001AD113F4003317D004B080BD08680002F9
:1038600020D4D1F8EC0000041DE000BFD0F8E8003F
:10387000B1F5402F00F002024FF0000008BF9003A6
:1038800004B080BD00680EE051F8081C11F480619E
:1038900018BF0146B2F5804F18BF0021084604B09A
:1038A00080BD00BF0868000FA4E700002DE9F04FBD
:1038B00081B00446006840F6E04BC107C4F2026BD9
:1038C00020D1810728D4410730D4010738D4C1065C
:1038D00040D4810648D4410650D4010658D4C105CD
:1038E00060D4410268D4810570D4410579D40105C2
:1038F00000F1828040F628488004C4F2026800F19A
:103900008A80B4E0DBF80010226D21F0030111433E
:10391000CBF800108107D6D5DBF80010626D21F0DE
:103920000C011143CBF800104107CED5DBF8001095
:10393000A26D21F030011143CBF800100107C6D56C
:10394000DBF80010E26D21F0C0011143CBF800104C
:10395000C106BED5DBF80010226E21F44071114380
:10396000CBF800108106B6D5DBF80810626E21F0A6
:1039700007011143CBF808104106AED5DBF8001063
:10398000A26E21F440611143CBF800100106A6D5C8
:10399000DBF80010E26E21F440511143CBF8001027
:1039A000C1059ED5DBF80810226F21F0C00111433C
:1039B000CBF80810410296D5DBF80010626F21F4B5
:1039C00040411143CBF8001081058ED5DBF808107B
:1039D000A26F21F440611143CBF8081041057FF537
:1039E00086AFDBF80010E26F21F440211143CBF8E1
:1039F000001001057FF57EAFDBF80810D4F88020B9
:103A000021F440711143CBF8081040F62848800497
:103A1000C4F202682BD5D4F890004FEA7011042943
:103A20000CD8DFE801F0030D171D1D0004F108009C
:103A300002F0EEF80646D8B908E000BF012617E00C
:103A400004F12C0002F060F9064688B9D4F8900021
:103A500006E000BFD8F8001041F48031C8F800102B
:103A6000DBF8041021F0E0010843CBF80400002645
:103A70006078400602D4374638E000BFD4F894009E
:103A80004FEA302004280BD83746DFE800F0030F58
:103A90001B14140004F1080002F0BAF80AE000BF99
:103AA000012701256078000624D449E004F12C00A8
:103AB00002F02AF907463D4677B16078000619D42E
:103AC0003EE000BFD8F80000374640F48030C8F828
:103AD0000000002F3D46F0D1DBF80400D4F894102C
:103AE00020F4E06008430027CBF8040035466078F6
:103AF000000625D5D4F8A8004FEA3030052807D8AD
:103B000002280BD03E468FB1A078C0071CD139E007
:103B100001270126A078C00716D133E004F1080080
:103B200002F076F80746002F3E46EDD1DBF808009C
:103B3000D4F8A81020F4E04008430027CBF8080090
:103B40002E46A078C0071DD0D4F88800042800F2C3
:103B5000A981DFE810F00B000500AB010B000B00A2
:103B6000D8F8000040F48030C8F800003D4657B94E
:103B7000DBF80400D4F8881020F007000843002781
:103B8000CBF804003546A07880071FD5D4F88C0008
:103B90004FEA3040042800F29381DFE810F00B0078
:103BA000050095010B000B00D8F8000040F48030B0
:103BB000C8F80000B94657B9DBF80800D4F88C10F3
:103BC00020F4E02008430027CBF80800A946A0789D
:103BD000400701D44D465DE05BF84C0C10F0040A40
:103BE0000BD15BF84C0C40F004004BF84C0C5BF82C
:103BF0004C0C00F00400009000984FF60045CFF602
:103C0000FF7558F8050040F0010048F80500FDF781
:103C100061FF064658F80500C00707D1FDF75AFFB7
:103C2000801B0228F6D9032703252AE03D4647BB1F
:103C3000DBF8100010F4407018D0D4F8C01088429F
:103C400011D0DBF81000DBF8101020F4407041F4C4
:103C50008031CBF81010DBF8101021F48031CBF854
:103C60001010CBF81000C00740F03881DBF81000CE
:103C7000D4F8C01020F44070084300274D46CBF81C
:103C80001000BAF1000F05D15BF84C0C20F00400D5
:103C90004BF84C0CA078C0061BD5D4F8A0004FEA16
:103CA000B060032800F2E880DFE800F00702EA07CE
:103CB00004F1080001F0ACFF0746394657B9DBF8BC
:103CC0000000D4F8A01020F0406008430027CBF893
:103CD000000029462068020320D5D4F8982032B18C
:103CE000B2F5005F18BFB2F5805F40F0D5803E4668
:103CF00067B1C10415D481021ED4010230D4C101C0
:103D000039D4810142D440014BD471E0DBF8043056
:103D1000002723F440531A43CBF804200E46C10475
:103D2000E9D5DBF80410D4F89C2021F4006111439C
:103D3000CBF804108102E0D5D4F8A410B1F5804F7F
:103D400005D1D8F8002042F48032C8F80020DBF812
:103D5000042022F480421143CBF804100102CED596
:103D6000DBF80010D4F8B42021F440111143CBF853
:103D70000010C101C5D5DBF80010D4F8B82021F43B
:103D800040311143CBF800108101BCD5DBF808109D
:103D9000D4F8BC2021F018011143CBF808104001E1
:103DA00026D5D4F8B000B0F5401F0FD0B0F5001FF5
:103DB00005D1D8F8000040F40030C8F800003D46B6
:103DC00067B1E078000717D43EE000BF04F10800B7
:103DD00001F01EFF0746002F3D46F2D1DBF804003C
:103DE000D4F8B01020F4401008430027CBF80400AA
:103DF0003546E078000727D5D4F8840058B1B0F1F3
:103E0000007F11D0B0F1807F30D1D8F8000040F4AD
:103E10000030C8F8000077B1E078C00618D4384602
:103E200001B0BDE8F08F00BF04F1080001F0F0FE22
:103E30000746002FF0D1DBF80000D4F8841020F002
:103E400040700843CBF800002F46E078C006E6D566
:103E5000DBF80800D4F8AC1020F400400843CBF89D
:103E60000800384601B0BDE8F08F00BF0127E078B8
:103E7000C006D4D5ECE700BF012701212AE700BF27
:103E8000D8F8000040F40030C8F80000002F394690
:103E90007FF420AF13E700BF01270126C1047FF59F
:103EA0002AAF3EE7012701256DE600BF04F12C0093
:103EB00001F02AFF0746002F3D467FF464AE57E627
:103EC00001274FF0010982E604F12C0001F01CFFEC
:103ED0000746002FB9467FF47AAE6DE6FDF7FAFD8E
:103EE00006460327032500BFDBF8100080073FF5D7
:103EF000BDAEFDF7EFFD801B41F288318842F3D95A
:103F0000BFE600002DE9F04F81B0002800F01C81D1
:103F100042F20008C4F202080446D8F800000D4638
:103F200000F00F0088420DD2D8F8000020F00F00FA
:103F30002843C8F80000D8F8000000F00F00A8429D
:103F400040F00281206840F62049C106C4F20269AF
:103F50000DD56169D9F8042002F07002914206D9AA
:103F6000D9F8042022F070021143C9F804100107A7
:103F70000FD52169D9F80020702303EA121291426B
:103F800007D9D9F8002022F4E06242EA0111C9F809
:103F9000001041070DD5E168D9F8002002F0700249
:103FA000914206D9D9F8002022F070021143C9F8D5
:103FB000001081070DD5A168D9F8002002F00F028A
:103FC000914206D9D9F8002022F00F021143C9F816
:103FD0000010C00774D1206881070DD5A168D9F8F9
:103FE000002002F00F02914206D2D9F8002022F000
:103FF0000F021143C9F80010D8F8001001F00F01AA
:10400000A9420DD9D8F8001021F00F012943C8F8B2
:104010000010D8F8001001F00F01A94240F0948080
:1040200041070DD5E168D9F8002002F070029142F5
:1040300006D2D9F8002022F070021143C9F800100E
:1040400001070FD52169D9F80020702303EA121265
:10405000914207D2D9F8002022F4E06242EA01112D
:10406000C9F80010C0060DD56069D9F8041001F038
:104070007001884206D2D9F8041021F0700108437B
:10408000C9F8040000F034F9D9F8001047F21A62B8
:1040900001F00F01C0F60002525C40F20401C2F2CE
:1040A0000001096840F2080320FA02F2C2F200039C
:1040B00008461A6001B0BDE8F04FFDF765BD00BFCE
:1040C000606840F61C47C4F2026768B3022831D02A
:1040D000032835D1D9F8740010F0040A0BD1D9F8AF
:1040E000740040F00400C9F87400D9F8740000F0BE
:1040F000040000900098FDF7EDFC4FF6F03BCFF682
:10410000FF7B57F80B10490322D4BAF1000F05D1F9
:10411000D9F8740020F00400C9F8740057F81C0C9A
:10412000800111D5606822E057F81C0C40070BD5C0
:1041300000201CE057F81C0C800317D4012042E03B
:1041400057F81C1C490512D4012001B0BDE8F08FBE
:10415000064600BF57F80B004004D6D4FDF7BAFC62
:10416000801B02284FF00300F4D92CE002203968AC
:1041700021F0030108433860FDF7ACFC6168064696
:10418000032941F2883A28D0022934D071B900BFFE
:10419000386810F00C0F3FF41EAFFDF79BFC801B3E
:1041A00050454FF00300F3D90DE000BF386800F030
:1041B0000C0004283FF40FAFFDF78CFC801B50452A
:1041C0004FF00300F2D901B0BDE8F08FFDF782FC9B
:1041D000801B50454FF00300F5D8386800F00C0004
:1041E0000C28F3D1F7E600BFFDF774FC801B5045A7
:1041F0004FF00300E7D8386800F00C000828F3D12E
:10420000E9E6000080B500F073F840F62041C4F202
:104210000261096847F21A6201F00F01C0F600025C
:10422000515CC84040F20801C2F20001086080BD44
:1042300080B500F05DF840F62041C4F202610A68E2
:1042400047F21A6302F00F02C0F600039A5CD040F6
:1042500040F20802C2F200021060096847F22A62C6
:10426000C1F30211C0F60002515CC84080BD0000DD
:1042700080B500F03DF840F62041C4F202610A68C2
:1042800047F21A6302F00F02C0F600039A5CD040B6
:1042900040F20802C2F200021060096847F22A6286
:1042A000C1F30221C0F60002515CC84080BD00008D
:1042B00080B500F01DF840F62041C4F202610A68A2
:1042C00047F21A6302F00F02C0F600039A5CD04076
:1042D00040F20802C2F200021060496847F22A6206
:1042E000C1F30211C0F60002515CC84080BD00005D
:1042F00080B540F62841C4F2026151F80C0C10F070
:104300000C02086816D00C2A04BF00F00300012834
:1043100010D051F80C0C9FED370A00F00C00042867
:1043200042F20040C0F2F4001ED0082A18BF00205C
:104330001AE000BF51F8200C000205D4D1F8CC00DF
:10434000C0F3033003E000BF51F8200C000F47F228
:10435000B463C0F6000353F82000002A00EE100AF0
:1043600018BF0020B8EE400A0C2A18BF80BDD1F853
:1043700000C00A689FED201AC2F303220B6802F105
:10438000010E08695FEA8C7258BFB0EE401A00EE69
:1043900010EAC3F30013B8EE400AC0F3CC0081EE7C
:1043A000000A00FB03F09FED153A01EE100AC86801
:1043B000B8EE411A6FF35F2002EE100A21EE031AE5
:1043C000B8EE422AC86831EE021AB7EE002AC0F3EE
:1043D000066031EE021A013020EE010A01EE100AE9
:1043E000B8EE411A80EE010ABCEEC00A10EE100AC7
:1043F00080BD00BF000000000024744B00000039A5
:104400002DE9F04381B0002800F0088440F694497B
:104410000446C4F2026959F8780C59F86C1C2278E9
:1044200040F6004600F00C07D006C4F2026601F028
:1044300003081FD42078C00775D0082F6CD00C2F2C
:1044400008BFB8F1030F67D06068B0F5803F00F097
:10445000C182B0F5A81F00F0B582B0F5A02F40F0E2
:10446000CD82306840F480203060306820F48010C5
:10447000AFE200BFF7B10C2F08BFB8F1010F19D0A0
:10448000E1693068002900F0958140F0010030605A
:10449000FDF720FB054600BF3068400700F1CA81E8
:1044A000FDF718FB401B02284FF00300F4D900F081
:1044B0003EBD00BF3068400703D5E069002800F02A
:1044C000AD83656AB06800025ABFD9F86000000485
:1044D000B06800F07040854240F24081002F40F00B
:1044E000F782D9F80000400700F1D682D9F8000021
:1044F00040F00400C9F80000D9F8000000F0040002
:1045000000900098FEF7F0FAD9F8001021F00401AD
:10451000C9F80010C2E200BF3068800303D56068AC
:10452000002800F07B83207880072DD5042F1BD036
:104530000C2F08BFB8F1020F16D0E16830680029CF
:1045400000F01E8240F480703060FDF7C3FA05462B
:10455000306840050FD4FDF7BDFA401B02284FF02C
:104560000300F5D900F0E3BC3068400503D5E068EE
:10457000002800F0538359F8840C216920F4F810C6
:1045800040EA014049F8840C2078000752D4207892
:10459000400700F1A7802078800600F1F3802078A2
:1045A000000600F119812078400600F1A581A56B75
:1045B000002D00F0828459F8780C00F00C000C28D3
:1045C00040F04C8259F86C1C59F8600C012D00F039
:1045D0002583E26B01F00303934240F01F83226CBA
:1045E000C1F30323013A934240F01883C1F303312E
:1045F000626C914240F01283A26C01466FF35F211E
:10460000013A914240F00A83E16CC0F3462201393D
:104610008A4240F00383216DC0F3064201398A4289
:1046200040F0FC82616DC0F306600139884200F001
:104630004484F3E2D9F8000010F004080BD1D9F853
:10464000000040F00400C9F80000D9F8000000F0B4
:104650000400009000984FF62847CFF6FF77F059F6
:10466000C00713D1F05940F00100F051FDF732FAC4
:10467000054600BFF059C00708D1FDF72BFA401BD3
:104680000228F7D9032001B0BDE8F0836069D9F8AA
:104690005C10002800F0B880A06901F080529042C0
:1046A00000F0468301F04062B2F1006F00F0B68284
:1046B000490140F13683D9F85C0020F0A050C9F8D8
:1046C0005C00FDF707FA0546D9F85C00000140F1EF
:1046D0002783FDF7FFF9401B02284FF00300F3D9B1
:1046E00000F025BCD9F8000010F004080BD1D9F86F
:1046F000000040F00400C9F80000D9F8000000F004
:104700000400009000984FF62847CFF6FF77F05945
:10471000C00713D1F05940F00100F051FDF7DAF96C
:10472000054600BFF059C00708D1FDF7D3F9401B7B
:1047300002284FF00300F5D900F0F9BBA568E8079F
:1047400040F08C80D9F85C0020F00100C9F85C00D2
:10475000D9F85C0020F004008CE000BFB068B5F12F
:10476000404F40F40000B060B06820F0704040EA74
:104770000500B060C0F0B080F068216A20F01F0032
:10478000084308E2E16A3068002900F0E78040F45D
:1047900080503060FDF79EF9054600BF3068800408
:1047A0003FF5FDAEFDF796F9401B02284FF00300E0
:1047B000F4D9BCE320F001003060FDF78BF9054629
:1047C000306840077FF536AEFDF784F9401B0228BC
:1047D0004FF00300F4D9AAE3216B3068002900F000
:1047E0002B8140F480403060FDF774F9054600BF2E
:1047F000306800043FF5D7AEFDF76CF9401B022886
:104800004FF00300F4D992E321F0A050C9F85C0006
:10481000FDF760F9054600BFD9F85C00000140F1E2
:104820009D82FDF757F9401B02284FF00300F3D992
:104830007DE300BFB06840F40000B060B168606A1A
:1048400021F070410143B0F1404FB160C0F0AA8047
:10485000F068216A20F01F0008435EE2D9F85C008E
:10486000690705D540F00400C9F85C00D9F85C0080
:1048700040F00100C9F85C00FDF72CF9002D054659
:1048800041F2883714D000BFD9F85C0080074DD4BE
:10489000FDF720F9401BB8424FF00300F4D946E37E
:1048A000FDF718F9401BB8424FF0030000F23F83B8
:1048B000D9F85C008007F3D4D9F85C00000600F159
:1048C000F581B8F1000F7FF466AED9F8000020F052
:1048D0000400C9F800005EE6B5F1FF3F40F31C811B
:1048E000F068B5F1804FC0F05181216A20F4F840A2
:1048F00040EA81204FE100BF606B002800F01E817C
:10490000B06840F40000B060B06820F07061D4E995
:104910000902B0F1404F41EA0201B160C0F082816A
:10492000F068216A20F01F000843ECE2A168D9F882
:104930005C00090600F1168120F0800041F2883702
:10494000C9F85C00D9F85C000005BAD5FDF7C2F8DB
:10495000401BB8424FF00300F4D9E8E220F4805045
:104960003060FDF7B7F80546306880047FF517AE74
:10497000FDF7B0F8401B02284FF00300F4D9D6E24F
:1049800020F480703060FDF7A5F8054630684005DA
:104990007FF5FAADFDF79EF8401B02284FF00300AB
:1049A000F4D9C4E2B0F1FF3F40F37881F168B0F18F
:1049B000804FC0F0AD81206A21F4F84141EA8020A7
:1049C000ABE100BF306840F480203060306840F4D4
:1049D00080103060306840F480303060FDF77AF845
:1049E000054600BF306880033FF59DADFDF772F8C6
:1049F000401B64284FF00300F4D998E23168002886
:104A000021F480313160316821F4802131603168D6
:104A100021F480113160E1D1FDF75CF80546306882
:104A200080037FF580ADFDF755F8401B64284FF0FB
:104A30000300F4D97BE200BF20F480403060FDF732
:104A400049F80546306800047FF5ADADFDF742F842
:104A5000401B02284FF00300F4D968E2306820F0D0
:104A600080703060FDF736F8022D05460AD13068B7
:104A7000800140F17F81FDF72DF8401B0228F6D917
:104A800000E600BF3068800140F10E82FDF722F899
:104A9000401B0228F6D9F5E5FEF726F820F4803110
:104AA000B1F5003F40D10021B5F1805F38BF012151
:104AB00042F20000C4F20200026822F00F020A442F
:104AC0000260006800F00F00884240F0A780656A2D
:104AD000B068B5F1404F40F40000B060B06820F01D
:104AE000704040EA0500B06006D3F068216A20F00B
:104AF0001F000843B3E000BFB5F1FF3F40F3A280C1
:104B0000F068B5F1804FC0F0A580216A20F4F8402C
:104B100040EA8120A3E000BFF068216A20F47870A9
:104B200040EA411037E000BF0021B1EB157F40F0B3
:104B3000D380B0F5803F71D10321B9E7306820F010
:104B400010003060FCF7C6FF054600BF30688006E5
:104B50007FF52DADFCF7BEFF401B02284FF0030090
:104B6000F4D9E4E140F0800041F28837C9F85C00F4
:104B7000D9F85C0000053FF5A4AEFCF7ABFF401B85
:104B8000B8424FF00300F3D9D1E100BF216A20F40D
:104B9000782040EAC130002FF06061D1D9F80000E0
:104BA000400715D4D9F8000040F00400C9F800000F
:104BB000D9F8000000F0040000900098FDF794FF81
:104BC000D9F8001021F00401C9F8001002E000BF7C
:104BD000FDF78AFF20F48031B1F5003F14D10021A8
:104BE000B5F1805F38BF012142F20000C4F202003B
:104BF000026822F00F020A440260006800F00F0011
:104C000088422DD00AE000BF0021B1EB157F71D1A1
:104C1000B0F5803F02D10321E6E700BF012001B0DB
:104C2000BDE8F083B0F1FF3F40F34C81F168B0F193
:104C3000804FC0F06381206A21F4F84141EA80206E
:104C400061E100BFF068216A20F4787040EA411009
:104C500005E000BF216A20F4782040EAC130F0600E
:104C6000FFF746FB59F8741C47F21A6201F00F0176
:104C7000C0F60002515C40F2080220FA01F140F255
:104C80000400C2F200000068C2F200021160FCF7EA
:104C90007BFF002840F04B81FFF7CCBBF068216A16
:104CA00020F4787040EA411037E000BFD9F85C008A
:104CB00041F2883720F08000C9F85C00D9F85C0028
:104CC00000057FF5FEADFCF705FF401BB8424FF035
:104CD0000300F3D92BE100BFB5F1005F40F2FA8089
:104CE000B0FA80F000214009B5F1405F98BF012182
:104CF0000140DDE6B5F1005F40F2F680B0FA80F0E9
:104D000000214009B5F1405F98BF012101406BE7E8
:104D1000206A21F4782141EAC030F060FFF78ABBB5
:104D2000A069D9F85C1021F080510843C9F85C00F3
:104D3000D9F85C0040F08060C9F85C00FCF7CAFE5E
:104D4000054600BFD9F85C00000107D4FCF7C2FE9D
:104D5000401B02284FF00300F4D9E8E0B8F1000F3F
:104D60007FF415ACD9F8000020F00400C9F8000069
:104D7000FFF70DBCD9F8000010F0040C0BD1D9F8E6
:104D8000001041F00401C9F80010D9F8001001F03A
:104D90000401009100994FF60C48CFF6FF7856F8C1
:104DA00008E056F808304FF6037723F4802346F8DE
:104DB000083059F86C3CD4E91102BB43D4E90F75B3
:104DC0006FF0FF013B43184301EB05214FF47E4395
:104DD000084349F86C0C59F8600C0021C8F28001B6
:104DE0000840511EE26C4FF4FE0503EB4222236D96
:104DF0006FF35F2105EB0343656D92B24FF0FE4701
:104E000007EB0565084403F4FE03104405F0FE4576
:104E10001844284449F8600C59F86C0C4FF6F871A6
:104E200020F0100049F86C0C59F85C0CE26D8843D6
:104E300040EAC20049F85C0C59F86C0C40F01000D4
:104E400049F86C0C59F86C0CA16D20F00C0008436B
:104E50005FEA4E3149F86C0C05D556F8080040F46D
:104E6000802046F80800BCF1000F05D1D9F80000F9
:104E700020F00400C9F8000059F86C0C40F48020C0
:104E800049F86C0C306840F080703060FCF722FE0E
:104E900004463068800110D4FCF71CFE001B022879
:104EA000F7D9FFF7EFBB00BF59F86C0C4FF6FC7158
:104EB000CFF6F871084049F86C0C002001B0BDE84D
:104EC000F08300BFF068216A20F4787040EA411056
:104ED00019E000BF0221B0F5803F08BF0121B5F104
:104EE000805F18BF0121E3E50221B0F5803F08BFD4
:104EF0000121B5F1805F18BF012175E6206A21F418
:104F0000782141EAC030F060306840F01000306035
:104F1000FCF7E0FD054600BF306880063FF547AB73
:104F2000FCF7D8FD401B02284FF00300F4D901B074
:104F3000BDE8F08390F88920012A1CBF012070474A
:104F400090F88820012A4FF0020215D080F88920BD
:104F50000268136823F001031360D1E900C3896874
:104F600003F4702343EA0C031943D16101210022A9
:104F700080F8891080F8882010467047F0B581B01D
:104F8000002865D00446006842F2000C40F08053CF
:104F9000C5F2006C00216345A16203D1E1680F29CD
:104FA00056D800E0E168E36B012202EB53120831AE
:104FB000C90802FB01F143F2FF72C5F20002904200
:104FC00012DC43F60002C4F2000290423ED043F2EB
:104FD0000002C4F20102904238D042F20002C4F250
:104FE000006290420ED00FE043F60002C5F20002CC
:104FF00090422BD043F20002C5F20102904225D02C
:10500000604501D1082923D894F8891031B90020CE
:1050100084F88800204600F05DF82068022184F8BA
:105020008910016821F0010101608368D4F818E05B
:105030006768BEF1806F03F4F81C15D167B1B7F54E
:10504000800F11D1A36B7BB90AE000BF1029DBD917
:10505000012001B0F0BD00BFA36BB3F1805F03D1AD
:10506000036843F480530360E369A26AE56B43EA93
:105070000C031A432A43D4E902C5D4E904362A436F
:105080008260626B656A42EA0E02A16B2A43114399
:105090001943226A31431143E26C39431143A26C34
:1050A00041EA0C01A36D1143E26D1943236E1143D4
:1050B00019437A02C16005D5C168626D21F00041D3
:1050C0001143C16000200121C4F88C0084F88910CC
:1050D00001B0F0BD2DE9F041BAB0044602A80025A8
:1050E0000830C0213995CDE93755CDE93555FBF765
:1050F0008BF9206843F20001C4F20101884203D019
:105100003AB0BDE8F08100BF4FF4000002904FF4C8
:1051100080102F9002A80395FEF7C8FB002818BF47
:10512000FBF7F4FB40F68C40C4F202608169002476
:1051300041F4805181618169C4F2022401F48051FB
:1051400001910199016835AD41F0010101600068EC
:105150004FF0020800F001000190019820203590E6
:10516000002037900327052620462946CDF8D88011
:1051700038973996FCF792FBC020CDE9350801201D
:10518000CDE93707204629463996FCF787FB3AB028
:10519000BDE8F0812DE9F04381B0044690F8880025
:1051A00001281CD0D4F8009001201D4617460E4659
:1051B00084F88800FCF78EFC94F8891001290BD143
:1051C000002E18BF002F0FD1002084F88800012086
:1051D00001B0BDE8F08300BF002084F88800022001
:1051E00001B0BDE8F08300BF80460320002184F8B1
:1051F0008900C4F88C106666A4F86870A4F86A7018
:10520000E166A4F87010A4F87210A068A167B0F568
:10521000C02F2068E16703D1016841F4006101609B
:1052200041684FF6FF72914339444160016841F093
:1052300001010160C169890207D46168B1F5800F7D
:1052400003D1016841F400710160E168102913D3B2
:1052500043F2FF71C5F20001884200F3958043F6E6
:105260000001C4F20001884200F09A8043F200017C
:10527000C4F2010192E000BF072900F2CF80B4F828
:105280006A10002900F02881691C44D04FF6FE7195
:105290008E1E4F1C4169890706D4FCF71BFCA0EB4E
:1052A0000800A8422BD343E1B4F86A10042909D3BB
:1052B000E16B402906D9616E51F8042B0262304639
:1052C000616617E0B4F86A1002290BD3E16B49B1AB
:1052D000606E30F8021BA9F8201060664FF6FE7071
:1052E00008E000BF616E097880F82010606E013020
:1052F00060663846B4F86A100844A4F86A00B4F846
:105300006A00002800F0E880206841698907CBD452
:10531000C3E700BF20684169890703D4FCF7DAFBC3
:105320002CE000BFB4F86A1004290BD3E16B4129CB
:1053300008D3616E51F8042B02626166B4F86A000A
:10534000043819E0B4F86A1002290BD3E16B49B1B3
:10535000606E30F8021BA9F820106066B4F86A008D
:10536000023809E0616E097880F82010606E013023
:105370006066B4F86A000138A4F86A00B4F86A00FC
:105380000028C7D1A8E000BF43F20001C5F2010127
:10539000884205D043F60001C5F2000188423DD1A4
:1053A000B4F86A10002900F09780691C1FD000BF74
:1053B0004169890706D4FCF78DFBA0EB0800A842E1
:1053C0000AD3B5E0616E51F8042B02626166B4F84D
:1053D0006A000138A4F86A00B4F86A00002800F0F6
:1053E0007B80206841698907E5D5EBE72068416942
:1053F000890703D4FCF76EFB0AE000BF616E51F829
:10540000042B02626166B4F86A000138A4F86A00ED
:10541000B4F86A000028E9D15EE000BFB4F86A1071
:10542000002959D0691C35D04FF6FE714E1C4169D8
:10543000890707D4FCF74EFBA0EB0800A8421BD35A
:1054400076E000BFB4F86A10022909D3E16B39B1E4
:10545000616E51F8042B02624FF6FE70616606E041
:10546000606E30F8021BA9F8201060663046B4F870
:105470006A100844A4F86A00B4F86A0060B32068AF
:1054800041698907DED4D5E7FCF724FBB4F86A004C
:1054900000BB21E041698907F6D5B4F86A100229FA
:1054A0000AD3E16B41B1616E51F8042B026261666F
:1054B000B4F86A00023808E0606E30F8021BA9F800
:1054C00020106066B4F86A000138A4F86A00B4F8E5
:1054D0006A0008B12068DDE7681C13D020684069C5
:1054E000000713D4FCF7F6FAA0EB0800A842F5D3A6
:1054F000D4F88C0040F02000C4F88C0006E000BF17
:10550000FCF7E8FA206840690007F9D5204600F06A
:1055100077FC002084F88800012084F88900D4F802
:105520008C00002818BF012001B0BDE8F08300BF47
:10553000204600F065FC002084F88800D4F88C0038
:1055400040F48070C4F88C00012084F889000320A6
:1055500001B0BDE8F0830000411E0020B0EB116FE8
:105560001CBF012070474EF21002CEF200025160C3
:105570004EF62351CEF20001F0230B70072190600C
:1055800011607047704700007047000070470000CE
:10559000704700007047000070470000704700002F
:1055A000002804BF0120704710B5044690F83D0064
:1055B00028B9002084F83C00204600F023F802209F
:1055C00084F83D002068211D00F0B0FC012084F823
:1055D000480084F83E0084F83F0084F8400084F8D6
:1055E000410084F8420084F8430084F8440084F8C1
:1055F000450084F8460084F8470084F83D00002008
:1056000010BD000080B582B0006844F20041C4F2D1
:10561000010188421CBF02B080BD40F6A440C4F224
:1056200002600168002241F400310160006800213D
:1056300000F40030019001984620FCF7EFFA462074
:1056400002B0BDE88040FCF7D9BA00007047000006
:1056500010B5016804460869800744BFC8685FEA5E
:10566000807061D40869400744BFC8685FEA407031
:1056700066D40869000744BFC8685FEA00706DD44B
:105680000869C00644BFC8685FEAC06072D4086990
:10569000C0071CBFC8685FEAC07079D108690006FE
:1056A00044BFC8685FEA00607AD40869C00544BF97
:1056B000C8685FEA006000F17B800869400644BF6B
:1056C000C8685FEA406000F17B800869800644BFDB
:1056D000C8685FEA806000F17B800869C00244BF4F
:1056E000C8685FEAC02000F17B800869800244BF7F
:1056F000C8685FEA802000F17B800869400244BFEF
:10570000C8685FEA402000F17B800869000246BF5C
:10571000C8685FEA002010BD6FF4000220460A61ED
:10572000BDE81040FFF73ABF6FF0020008610120AA
:105730002077886980076BD02046FFF787FF6DE0F0
:105740006FF00400086102202077886910F4407F20
:1057500068D02046FFF77AFF6AE000BF6FF00800CC
:10576000086104202077C869800765D02046FFF7CC
:105770006DFF67E06FF01000086108202077C869AE
:1057800010F4407F62D02046FFF760FF64E000BF66
:105790006FF001000861204600F066F821687DE79F
:1057A0006FF0800008612046FFF7EEFE21687CE77D
:1057B0006FF4807008612046FFF7E4FE21687CE703
:1057C0006FF040000861204600F050F821687CE747
:1057D0006FF0200008612046FFF7D8FE21687CE7C3
:1057E0006FF4801008612046FFF7D4FE21687CE743
:1057F0006FF4001008612046FFF7CAFE21687CE7BD
:105800006FF4800008612046FFF7C6FE21687CE740
:10581000204600F025F8204600F024F821680020FA
:1058200020771FE7204600F01BF8204600F01AF80A
:105830002168002020771CE7204600F011F8204660
:1058400000F010F821680020207719E7204600F0CA
:1058500007F8204600F006F821680020207716E7B8
:10586000704700007047000070470000704700005C
:1058700090F88010012904BF022070472421C0F84D
:10588000841002681168136823F00103136021F08B
:1058900000530021416613602022C0F8842080F864
:1058A0008010084670470000B0B590F88020012AAB
:1058B00004BF0220B0BD2422C0F884200268D0F8C2
:1058C00064E0D2F800C01368BEF1000F23F00103BA
:1058D0001360936823F0606341EA0301916019D07B
:1058E0009368916847F20C7E490FC0F6000E47F2AC
:1058F00014751EF80140C0F60005C3F34263695CED
:10590000E400B4FBF1F11EF80340EB5CE500B5FBED
:10591000F3F301E001210123A0F86A102021A0F88F
:105920006830C2F800C0C0F88410002180F88010F0
:105930000846B0BDB0B590F88020012A04BF02200F
:10594000B0BD2422C0F884200268D0F864E0D2F808
:1059500000C01368BEF1000F23F0010313609368C9
:1059600023F0604341EA0301916019D09368916884
:1059700047F20C7E490FC0F6000E47F214751EF870
:105980000140C0F60005C3F34263695CE400B4FB68
:10599000F1F11EF80340EB5CE500B5FBF3F301E029
:1059A00001210123A0F86A102021A0F86830C2F874
:1059B00000C0C0F88410002180F880100846B0BDF7
:1059C000B0B582B0B0B10446D0F8840028B9002048
:1059D00084F88000204600F059F82420C4F88400A0
:1059E0002068016821F001010160204600F050FCB0
:1059F000012803D1012002B0B0BD00BFA06A002879
:105A00001CBF204600F0D0FB2068416821F4904183
:105A10004160816821F02A018160016841F0010143
:105A200001600020C4F88C00FCF754F8216805469A
:105A30000A6812070CD56FF07E4C20464FF4001117
:105A400000222B46CDF800C000F030FD78B9216867
:105A5000086840070ED56FF07E4C20464FF4800159
:105A600000222B46CDF800C000F020FD10B103202D
:105A700002B0B0BD2020C4F88400C4F88800002023
:105A8000E06684F8800002B0B0BD0000B0B5BAB0E6
:105A9000044602A800250830C0213995CDE93755C4
:105AA000CDE93555FAF7B0FC206843F60001C4F2A1
:105AB0000101884202D03AB0B0BD00BF012002907F
:105AC00002A803951695FDF7F1FE002818BFFAF716
:105AD0001DFF40F68C40C4F20260816941F48041B0
