:020000040800F2
:1000000008140020D5020008F164000811640008FB
:10001000ED640008DD0F00081D7B0008E702000802
:10002000000000000000000000000000C56700089C
:10003000E10F00080000000001650008C967000822
:10004000F1020008F1020008F1020008F1020008C4
:10005000F1020008F1020008F1020008F1020008B4
:10006000F1020008F1020008F1020008F1020008A4
:10007000F1020008F1020008F1020008F102000894
:10008000F1020008F1020008F1020008F102000884
:10009000F1020008F1020008F1020008F102000874
:1000A000F1020008F1020008F1020008F102000864
:1000B00000000000F1020008F1020008F10200084F
:1000C000F1020008F1020008F1020008F102000844
:1000D000F1020008050F0008F1020008F102000813
:1000E000F1020008F1020008F1020008F102000824
:1000F000F1020008F1020008F1020008F102000814
:10010000F1020008F1020008F1020008F102000803
:10011000F1020008F1020008F1020008F1020008F3
:10012000F1020008F1020008F1020008F1020008E3
:10013000F1020008F1020008F1020008F1020008D3
:10014000F1020008F1020008F1020008F1020008C3
:10015000F1020008F102000819680008F102000825
:10016000F1020008F5640008F1020008F10200083D
:10017000F1020008F1020008F1020008F102000893
:10018000F1020008F1020008F1020008F102000883
:10019000F1020008F1020008F1020008F102000873
:1001A000F1020008F1020008F1020008F102000863
:1001B000F102000800000000F1020008F10200084E
:1001C000F102000800000000F1020008F10200083E
:1001D000F1020008F1020008F1020008F102000833
:1001E000F1020008F1020008F1020008F102000823
:1001F0000000000000000000F1020008F102000809
:10020000F1020008F1020008F1020008F102000802
:10021000F1020008F1020008F1020008F1020008F2
:10022000F1020008F1020008F1020008F1020008E2
:10023000F102000800F002F800F03CF80AA090E893
:10024000000C82448344AAF10107DA4501D100F091
:1002500031F8AFF2090EBAE80F0013F0010F18BF22
:10026000FB1A43F001031847748A0000948A0000C7
:10027000103A24BF78C878C1FAD8520724BF30C8D2
:1002800030C144BF04680C607047000000230024A4
:1002900000250026103A28BF78C1FBD8520728BF96
:1002A00030C148BF0B6070471FB508F080FC1FBD10
:1002B00010B510BD00F0D1F81146FFF7F5FF07F0BB
:1002C0002FFC00F0EFF803B4FFF7F2FF03BC00F0DF
:1002D000F7F800000A4880470A480047FEE7FEE7B3
:1002E000FEE7FEE7FEE7FEE7FEE7FEE7FEE7FEE7E6
:1002F000FEE7000004480549054A064B7047000028
:10030000CD67000835020008080C00200814002002
:10031000081000200810002053EA020C00F0698049
:100320002DE9F04B4FF00006002B1FBFB3FA83F509
:1003300003FA05F424FA05F65E4012BF1643B2FA3A
:1003400082F502FA05F4C5F120051EBF22FA05FC6C
:1003500044EA0C04203556EA044C4FEA144418BF12
:10036000641C4FF000084FF00009904271EB030C41
:1003700039D3002919BFB1FA81F701FA07F6B0FAAB
:1003800080F700FA07F6C7F120071EBF20FA07FC26
:1003900046EA0C062037B6FBF4FCA7EB0507103F36
:1003A00007F01F0BCBF120062CFA06F60CFA0BFB1C
:1003B00044BFB3460026202FA4BF5E464FF0000B7B
:1003C0005BEA060C08BF4FF0010B19EB0B0948EB79
:1003D0000608ABFB027C06FB02CC0BFB03CCC01B6C
:1003E00071EB0C01C1E70B46024641464846BDE8A9
:1003F000F08B13B54FF000004FF00001AFF3008019
:10040000BDE81C4070474FF0000200B5134694460B
:100410009646203922BFA0E80C50A0E80C50B1F15C
:100420002001BFF4F7AF090728BFA0E80C5048BF70
:100430000CC05DF804EB890028BF40F8042B08BF0E
:10044000704748BF20F8022B11F0804F18BF00F80A
:10045000012B7047704770477047754600F02CF8C5
:10046000AE4605006946534620F00700854618B0A1
:1004700020B5FFF73FFFBDE820404FF000064FF0EA
:1004800000074FF000084FF0000BAC46ACE8C00985
:10049000ACE8C009ACE8C009ACE8C00921F007012C
:1004A0008D46704710B50446AFF300802046BDE886
:1004B0001040FFF708BF0000004870471000002000
:1004C00001491820ABBEFEE726000200704700007D
:1004D0002DE9F04F89B08046B0F8740400270090F1
:1004E000B8F8760400210790B8F87804059000BFAA
:1004F0004FF0807000FA01F50098049148F821004F
:10050000284340F44000089040F60040C4F2022026
:1005100004210022044601F02BFF00BFD8F880041C
:1005200008A901224FF47A73894605F0A3FB2046FF
:100530000421012200BF01F01BFF08EB070149F66F
:1005400061000397C1F8000149F66100C0F24D0057
:1005500028430E460291089020460421002201F013
:1005600007FF00BFD8F88004494601224FF47A7390
:1005700005F080FB20460421012200BF01F0F8FEB7
:100580000598042145EA000AC6F8040106464AF423
:100590000D0008902046002201F0EAFE00BFD8F8C6
:1005A0008004494601224FF47A7305F063FB20462C
:1005B0000421012200BF01F0DBFE07EB87000421CC
:1005C00008EB00090798002245EA000BC9F8100063
:1005D00007464BF490000890204601F0C9FE00BF8A
:1005E000D8F8800408AD294601224FF47A7305F04B
:1005F00041FB20460421012200BF01F0B9FE4AF46C
:100600000800C9F81460089020460421002201F077
:10061000AFFE00BFD8F88004294601224FF47A7358
:1006200005F028FB20460421012200BF01F0A0FEB6
:100630004BF49200C9F81C70089020460421002257
:1006400001F096FE00BFD8F88004294601224FF43D
:100650007A7305F00FFB20460421012200BF01F050
:1006600087FE4AF40900C9F820600890204604215A
:10067000002201F07DFE00BFD8F880042946012247
:100680004FF47A7305F0F6FA20460421012200BFE8
:1006900001F06EFE4BF49400C9F8287008902046D3
:1006A0000421002201F064FE00BFD8F8800429462E
:1006B00001224FF47A7305F0DDFA2046042101226D
:1006C00000BF01F055FE4AF40A00C9F82C600890FA
:1006D00020460421002201F04BFE00BFD8F8800420
:1006E000294601224FF47A7305F0C4FA204604210A
:1006F000012200BF01F03CFE4BF49600C9F83470B3
:10070000CDF818B0089020460421002201F030FEF8
:1007100000BFD8F88004294601224FF47A7305F00F
:10072000A9FA20460421012200BF01F021FE4AF46B
:100730000B00C9F83860089020460421002201F01F
:1007400017FE00BFD8F88004294601224FF47A73BF
:1007500005F090FA20460421012200BF01F008FEB6
:100760004BF49800C9F840700890204604210022FC
:1007700001F0FEFD00BFD8F88004294601224FF4A5
:100780007A73AB4605F076FA20460421012200BFB9
:1007900001F0EEFD4AF40C00C9F8446008902046D0
:1007A00004210022574601F0E3FD00BFD8F8800481
:1007B000294601224FF47A7305F05CFA20460421A1
:1007C000012200BFA14601F0D3FDDDF808A0079C7F
:1007D0000421CAF83041069D002245F4A800089083
:1007E000484601F0C5FD00BFD8F8800459460122F3
:1007F0004FF47A7305F03EFA48460421012200BF07
:1008000001F0B6FD47F41400CAF83461019708906E
:10081000484604210022BB4601F0AAFD00BFD8F8DB
:10082000800408A901224FF47A7305F023FA4846A0
:100830000421012200BF01F09BFDCAF8604145F48C
:10084000AA04484604210022089401F091FD00BF4B
:10085000D8F8800408AD294601224FF47A7305F0D8
:1008600009FA48460421012200BF01F081FD47F446
:100870001507484604210022CAF86461089701F070
:1008800077FD00BFD8F88004294601224FF47A731F
:10089000AB4605F0EFF948460421012200BF01F004
:1008A00067FD079D484604210022CAF8605108945C
:1008B00001F05EFD00BFD8F88004594601224FF4D4
:1008C0007A7305F0D7F948460421012200BF01F0F0
:1008D0004FFDCAF864610897039C48460421002232
:1008E00001F046FD00BFD8F88004594601224FF4BC
:1008F0007A735F4605F0BEF948460421012200BF25
:1009000001F036FDCAF89051DDF818B004214BF41F
:10091000B80008904846002201F02AFD00BFD8F830
:100920008004394601224FF47A7305F0A3F9484652
:100930000421012200BF01F01BFDCAF89461019F50
:10094000042147F41C0008904846002201F010FDE5
:1009500000BFD8F8800408A901224FF47A730E462C
:1009600005F088F948460421012200BF01F000FD8E
:100970004BF4BA00CAF8C05108904846042100223E
:1009800001F0F6FC00BFD8F88004314601224FF494
:100990007A7305F06FF948460421012200BF01F087
:1009A000E7FC05980421CAF8C40147F41D0008902B
:1009B0004846002201F0DCFC00BFD8F88004314634
:1009C00001224FF47A7305F055F9484604210122BB
:1009D00000BF01F0CDFC04990C342746302C01F106
:1009E00001017FF485AD002009B0BDE8F08F000063
:1009F000B0B582B00446D0F84004CB0131D48B01AD
:100A000038D44B013FD40B014FEA004007D5D4F84E
:100A1000403403EB430304EB8303C3F8CC2000F51D
:100A200000201143084340F6004540F44000C4F262
:100A30000225019028460421002201F099FC00BF04
:100A4000D4F8800401A901224FF47A7305F012F959
:100A500028460421012200BF01F08AFC002002B0D8
:100A6000B0BDD4F8403403EB430304EB83039A6135
:100A70008B01C6D5D4F8403403EB430304EB830366
:100A80005A654B01BFD5D4F8403403EB430304EB64
:100A90008303C3F890200B014FEA0040BFD5B6E7AF
:100AA0002DE9F04184B003918DED000B9DED000B1D
:100AB000804651EC100B0B46024607F005FB06463C
:100AC000D8F87C04D8F870540F4607F0D5FF0246DA
:100AD0000B463046394607F0E7FD9FED270B53ECF8
:100AE000102B07F0E1FD9FED260B53EC102B07F0C8
:100AF0009FFB064628460F4607F0BEFF02460B4600
:100B00003046394607F094FB9FED1F0B53EC102B3A
:100B100007F0CAFD9FED1E0B53EC102B07F0D4FA23
:100B20009FED1D0B064654EC105B23462A460F46EC
:100B300007F0DBFF9FED1A0B002804BF3C4635464B
:100B400056EC107B284621463A46334607F0E2FF32
:100B5000002808BF2646039C08BF2F46384631466A
:100B600007F0FAFC024640462146FFF741FF00200D
:100B700004B0BDE8F08100BF000000000000144098
:100B80000000000000001240000000000000F040E3
:100B9000000000000000E04000000000E0FFEF4027
:100BA000000000000000000070B584B002910192C6
:100BB0000299C1B30446029840F60046C00144BF02
:100BC0000198C4F858040298C4F20226800144BF78
:100BD0000198C4F85C0402980022400144BF0198C7
:100BE000C4F8600402980025000144BF0198C4F8CD
:100BF000640402980199084303903046042101F0EF
:100C0000B7FB00BFD4F8800403A901224FF47A7324
:100C100005F030F830460421012200BF01F0A8FBA6
:100C2000284604B070BD4FF0FF35284604B070BDB3
:100C3000F0B581B002F007074FF400420D460446BC
:100C4000C0F84074FFF7D4FE042F07D848F6C83028
:100C5000C0F6000050F82700C4F87C0443F20006F8
:100C6000E801C0F228064FEAC73708D4A8011DD40E
:100C7000680132D4280147D4002001B0F0BDD4F877
:100C800058044FF080710090009800F47860009054
:100C9000009840F0807000900098384330430090F6
:100CA000009A2046FFF780FFA801E1D5D4F85C0444
:100CB0004FF000710090009800F478600090009868
:100CC00040F0007000900098384330430090009A44
:100CD0002046FFF769FF6801CCD5D4F860044FF0D7
:100CE00080610090009800F478600090009840F0D7
:100CF000806000900098384330430090009A20466E
:100D0000FFF752FF2801B7D5D4F864044FF0006113
:100D10000090009800F478600090009840F0006027
:100D200000900098384330430090009A2046FFF727
:100D30003BFF002001B0F0BDB0B584B00291029934
:100D40000446CA0144BF4FF40040C4F808018801BA
:100D500044BF4FF40040C4F81401480144BF4FF4AD
:100D60000040C4F82001080144BF4FF40040C4F81B
:100D70002C0141F4000040F6004540F49B00C4F211
:100D80000225039028460421002201F0F1FA00BF59
:100D9000D4F8800403A901224FF47A7304F06AFFA7
:100DA00028460421012200BF01F0E2FA0298C001A6
:100DB0000BD40298800120D40298400135D40298C7
:100DC00000014AD4002004B0B0BDD4F858044FF05C
:100DD00080710190019820F070600190019840F0BE
:100DE00080700190019840F4C1100190019A204652
:100DF000FFF7DAFE02988001DED5D4F85C044FF0EC
:100E000000710190019820F070600190019840F00D
:100E100000700190019840F4C1100190019A2046A1
:100E2000FFF7C2FE02984001C9D5D4F860044FF024
:100E300080610190019820F070600190019840F06D
:100E400080600190019840F4C1100190019A204601
:100E5000FFF7AAFE02980001B4D5D4F864044FF05D
:100E600000610190019820F070600190019840F0BD
:100E700000600190019840F4C1100190019A204651
:100E8000FFF792FE002004B0B0BD0000B0B582B004
:100E9000C0F8801446F26C110446CFF6FF71C4F816
:100EA00074144FF4004100F58E60A4F8781480EDBE
:100EB000000A4FF418710091009840F60045C4F8FC
:100EC00054040098C4F2022501902846042100220F
:100ED00001F04EFA00BFD4F8800401A901224FF4BA
:100EE0007A7304F0C7FE28460421012200BF01F0F6
:100EF0003FFA20464FF070610022FFF755FE0020B8
:100F000002B0B0BDF0B581B040F20057C2F20007A8
:100F1000384600F01BFD40F27001C2F200010A8861
:100F200040F20805531CC2F200059CB240F2720662
:100F30002D88C2F2000626F81200AC4228BF00231A
:100F400038460B8001B0BDE8F04000F003BD000062
:100F500070B5044600688168C9073BD14FF6C0767A
:100F6000C7F6FF76816806F17F02114209D0A06FB3
:100F700040F01000A067E06F40F00100E067012042
:100F800070BD816841F200023140C4F2026241F05A
:100F900001019042816001D1206AE8B901F0F6F9BF
:100FA00021680A68D20717D1054600BF8868C007C4
:100FB00004D18868304040F00100886001F0E6F913
:100FC000401B2168032802D30868C007CFD00868F7
:100FD000C007EBD0002070BD002070BDFEE7000010
:100FE00070470000EFF3108072B600BFFEE700000C
:100FF0007047000070470000704700007047000015
:101000002DE9F04782B004460020019094F8740066
:10101000012802BF022002B0BDE8F0878A46012005
:10102000216884F874008868400700F1C38141F2A8
:101030000838C4F20268A8F54276DAF80070B142C6
:1010400000F0CE8097FAA7F0B0FA80F03A0208BF1D
:10105000B80E00F01F000122CB6902FA00F018431D
:10106000C861DAF804001F26C0F3012200F01F0057
:1010700001EB82028640136BC7F38467B34307FA20
:1010800000F01843106388688A68D20842EA90002A
:10109000C00741D1DAF80000DAF80820C0F3846311
:1010A000C0F3406690FAA0F7000218BFB7FA87F3C2
:1010B00006EB8600404203EB400001EB860300EBA9
:1010C00040005F6907268640B74302FA00F03843C4
:1010D0005861DAE90402CB68042840F0C880086E41
:1010E000DAF8002000F07840B0EBC26F4FEAC2603F
:1010F00000F06B814A6E02F07842824200F06F810C
:101100008A6E02F07842824200F07381CA6E02F069
:101110007842824200F077818868C00740F0DA8028
:10112000DAF80C30DAF800004FF6FF75D1F8C0702D
:1011300003F01806C0F20F0520F07F4225FA06F6EC
:1011400097431640374313F5803FC1F8C0703CD138
:1011500090FAA0F3B3FA83F3002A4FEA836708BF3B
:10116000830E013303F01E06002A08BF00F0F84783
:1011700007F1806003F01F02012300F0F84003FA3A
:1011800002F210430A2E28BF40F00070DAF808205F
:10119000C0F38463C0F3406690FAA0F7000218BF62
:1011A000B7FA87F306EB8600404203EB400001EB01
:1011B000860300EB40005F6907268640B74302FACA
:1011C00000F038435861DAF80000B0F1FF3F40F317
:1011D00088800020002184F8741002B0BDE8F087F8
:1011E00001F0CCF8B0F5805F1DD1DAF8007043F65D
:1011F000FF70CBF60020874240F20000CDF2207055
:1012000040F30A8144F20001CBF600218F4200F046
:10121000EC810021CDF220618F4200F0EF81874206
:1012200008BF00F17F47DAF804002169022840F086
:10123000088141F010001021C8F20001884209D154
:101240002068C7F384610122836A02FA01F123EA6C
:1012500001018162DAF80000B0F1FF3F40F337810D
:101260000020002184F8741002B0BDE8F087062742
:1012700007EA530301F1600702FA03FCDAF80030D1
:101280004FF0784257F8206002EA430206F0E0632C
:1012900042EA0C021A4347F82020DAF81000DAF884
:1012A0001C2057F8203023F080731A4347F8202081
:1012B000DAF810009AF8192057F82030012A23F0A4
:1012C000806308BF03F1806347F820308868C00757
:1012D0003FF426AF0020002184F8741002B0BDE86E
:1012E000F08748F20002C4F202229142A8F540734E
:1012F00008BF02F54278D8F80070914208BF02F1A9
:1013000008031B68DB0755D10023CCF60423984261
:1013100007F0E07300F08E810026CCF60866B0423C
:1013200040F09C81380200F1A08241F20000C4F23A
:101330000260814218BF914240F0DA82D8F8000082
:1013400042F6635120F0E070184340F40000C8F802
:10135000000040F20C00C2F200000068C0F23E51F2
:101360008009A0FB01018809022101EB40000190E6
:101370000198002800F0B582019801380190019889
:10138000002800F0CA8201980138019001980028D5
:1013900000F0CA820198013801900198002800F0FD
:1013A000CA82019801380190019800284FF000008E
:1013B000E2D104E0A06F40F02000A06701200021EE
:1013C00084F8741002B0BDE8F0870A6E22F08062E3
:1013D0000A664A6E02F0784282427FF491AE4A6E0B
:1013E00022F080624A668A6E02F0784282427FF47E
:1013F0008DAE8A6E22F080628A66CA6E02F07842F2
:1014000082427FF489AEC86E20F08060C86688682A
:10141000C0077FF45FAF83E641F20001CBF2002109
:101420008F4200F0F48042F20001CBF200618F4263
:1014300008BF00F14877DAF80400216902283FF478
:10144000F8AE102241F01001C8F20002914279D1A9
:1014500097FAA7F12068B1FA81F13A0208BFB90EF4
:1014600001F01F010122836A02FA01F1194381622E
:10147000DAF80810B04200F04A81C7F38462C7F37B
:10148000406697FAA7F33F0218BFB3FA83F206EB60
:1014900086077B4202EB430300EB860203EB430328
:1014A00052F8147F07269E40B743994047EA01034C
:1014B00000211360DAF80030B3F1FF3F40F34881B8
:1014C0000020002184F8741002B0BDE8F087216884
:1014D00048F20002C4F20222914208BF02F54278AB
:1014E0004FF6FF71D8F80060CCF6032188426DDC1E
:1014F0000121C8F20001884200F0D48041F20001CD
:10150000CBF20021884240F0DB80D8F8000006F0E2
:10151000C07120F0E0700844C8F8000000F02EFF11
:10152000B0F5805F00F2CC802068D0F8D01041F098
:101530000101C0F8D01000F021FFB0F5005F40F0CD
:10154000C580ACE1D4F828C0D4F8882000F01F038F
:101550000F259D40C7F38469390222EA050297FAF4
:10156000A7F518BFB5FA85F909FA03F1BCEB900F9E
:1015700042EA0100C4F8880055D900F0FFFEB9F135
:10158000130F3B46A9F109014FF0010288BF02FA8F
:1015900001F3B0F5805F98BF1F462068DAF80410A9
:1015A000B04200F09A80C1F3012201F01F0100EB6C
:1015B00082021F26136BC7F384658E40B34305FA7E
:1015C00001F119431163DAF8081056E70021CCF64F
:1015D000042188426BD00021CCF6086188426FD18B
:1015E000D8F8000006F0A07165E000F1EC67DAF8C9
:1015F0000400216902283FF41CAE22E7A0F1A26793
:10160000DAF80400216902283FF413AE19E701203B
:10161000C8F2000000F18077DAF80400216902289E
:101620003FF407AE0DE72068DAF80810B0427FF407
:1016300024AF6CE0F80100F11F8141F20000C4F218
:101640000260814218BF914240F05981D8F80000F1
:1016500020F0E070184340F080701AE00126C8F2D4
:101660000006B0424FF0000008BF17F480077FF477
:10167000A6AE41F20000C4F20260814218BF91425E
:1016800040F04481D8F8000020F0E070184340F4A6
:101690008000C8F800000020002184F8741002B017
:1016A000BDE8F087D8F8000006F0C07103E0D8F874
:1016B000000006F4400120F0E0700844C8F8000083
:1016C00000F05CFEB0F5005F00F0E9800020002132
:1016D00084F8741002B0BDE8F0874FF6205CCFF6B6
:1016E000FF7C58F80C2001F01F010F238B409A4318
:1016F000C7F38463380297FAA7F518BFB5FA85F3E4
:1017000003FA01F0104348F80C00DAF808104FF61D
:101710000C50CFF6FF7058F80030C7F3846097FA8A
:10172000A7F53F0218BFB5FA85F04FF4807707FAA6
:1017300000F00840000AA8F53D7260F31F23012164
:1017400030461360DAF80030B3F1FF3F3FF7B8AE30
:1017500048F20007C4F202274246B84208BF07F524
:101760004272166844F20000CBF60020834206F075
:10177000E0703CD042F20007CBF20067BB4245D19B
:10178000310200F18780116821F0E071084340F4D4
:101790000000106040F20C00C2F20000006842F647
:1017A00063518009C0F23E51A0FB01016FF00100BE
:1017B00000EA51100190019830B96BE001980138AE
:1017C00001900198002865D0019801380190019896
:1017D00000285FD00198013801900198002859D065
:1017E00001980138019001980028E7D152E0F101F9
:1017F00050D4116821F0E071084340F0807010600F
:1018000000F0BCFDB0F5005F64D148E00127C8F2EC
:101810000007BB4206F4800708BF002F33D083F0D7
:10182000324282F480523A43B2FA82F252091140B3
:1018300001292FD1D8F8001021F0E071084340F4BD
:101840008000C8F8000000F099FDB0F5805F21D855
:101850002068D0F8D01041F00101C0F8D01000F09D
:101860008DFDB0F5005F35D119E00020002184F82E
:10187000741002B0BDE8F0870020002184F87410D5
:1018800002B0BDE8F087116821F0E071084340F430
:101890008000106000F072FDB0F5005F1AD1700298
:1018A0004FF000003FF58BADDAF800100022CDF2CA
:1018B000207291427FF483AD2068D0F8D01041F0BF
:1018C0000101C0F8D0100020002184F8741002B08B
:1018D000BDE8F0870020002184F8741002B0BDE854
:1018E000F0870020002184F8741002B0BDE8F08772
:1018F0000020002184F8741002B0BDE8F0870020B9
:10190000002184F8741002B0BDE8F08700200021A7
:1019100084F8741002B0BDE8F0870020002184F83C
:10192000741002B0BDE8F0870020002184F8741024
:1019300002B0BDE8F0870020002184F8741002B0E6
:10194000BDE8F08770470000704700000068006C39
:101950007047000070B5044600680168426802EAFA
:101960000105A9070CD5A06FC00603D4A06F40F4F1
:101970000060A0672046FFF73BFB20680221016062
:1019800041F2000615F00C0FC4F202664CD0A16FB4
:10199000C90603D4A16F41F40071A167C168B042C8
:1019A00001F4406119D0C9BBC168890436D401680B
:1019B000090733D58168490724D4416821F00C0117
:1019C0004160A06F20F48070A067A06FC00425D490
:1019D000A06F40F00100A06720E0F9B994F824005E
:1019E000E0B93068000719D5B06840070ED47068B8
:1019F00040F2011120F00C007060A06F88430130AC
:101A0000A0670BE0A06F40F0100002E0A06F40F074
:101A10002000A067E06F40F00100E0672046FFF77C
:101A200091FF20680C210160B04233D015F0600FA7
:101A300012D0A16FC90603D4A16F41F40051A16770
:101A4000C36CC268C16813F4C07F52D02046FFF750
:101A5000D1FA20686021016029061ED4E90528D446
:101A6000A9050AD5A06F40F48020A0672046FFF7A3
:101A7000C5FA20684FF400710160E90658BF70BDD7
:101A8000616C39B3B04222D0C168890722D11021DC
:101A9000016070BD30462906E0D5A06F40F480306B
:101AA000A067204600F06AFA206880210160E905FD
:101AB000D6D5A06F40F40030A0672046FFF79CFA0F
:101AC00020684FF480710160A905CBD4D5E7F06898
:101AD00080072CD0A06F40F48060A067E06F40F0DA
:101AE0000200E0672046FFF72FFF20681021016009
:101AF00070BD8B0105D502F4406201F400518918D4
:101B0000A4D101684906A1D5816809079ED441681E
:101B100021F060014160A06F20F48050A067A06FA9
:101B2000C00593D4A06F40F00100A0678EE7304657
:101B30001021016070BD0000002804BF0120704723
:101B40002DE9F04182B00546044655F8780F38B1CA
:101B50002168886880000ED48868C00015D548E0E8
:101B6000204600F00DFA0020E06784F87400216838
:101B700088688000F0D588684FF6C072C5F6FF729D
:101B8000104088608868C00033D44FF6C0728868FF
:101B9000C5F6FF7202F18052104040F0805088601C
:101BA00040F20C00C2F20000006842F66352800965
:101BB000C0F23E52A0FB02029009022202EB40005A
:101BC0000190019828B914E001980138019001981A
:101BD00078B1019801380190019850B1019801380D
:101BE0000190019828B101980138019001980028CE
:101BF000EAD18868C00009D4A06F40F01000A06747
:101C0000E06F40F00100E067012000E000208A68FA
:101C1000C2F380022B6803F01003D2182A6806D0A2
:101C200042F010010120296002B0BDE8F08122F4E9
:101C3000817202322A608A6841F2083ED207C4F2F9
:101C4000026E44D148F2000CC4F2022C614526D049
:101C500041F20003C4F20263994226D14FF60452C6
:101C6000CFF6FF725EF80220D4E901C322F00C0225
:101C70004FF6FF775E1E06F00C06BB4208BF0C262F
:101C80003244CA60DEF800204FEA9C4363F3954279
:101C9000CEF80020AEF5427399421CD137E00CF12A
:101CA00008031B68DB0705D011E0AEF540731B6825
:101CB000DB070CD17346614508BF0CF54273D4F8BD
:101CC00004C01A6822F4701242EA0C021A60AEF5DF
:101CD000427399421BD094F824E0626CA66842EAF1
:101CE0004E3794F82C20374347EA024C012A2FD173
:101CF000994200F08280D4E90C320027CFF6FE77BB
:101D000007EB4343002A4CEA030C25D12BE094F85F
:101D100024E0227F4FEA4E3747EA823CD4F84480E1
:101D2000D4E904624FF40017002EB8BF26F0004734
:101D300094F8406042EA0C02B8F1000F18BF42F478
:101D400080523A4342EA460C94F82C20012ACFD024
:101D5000626B994275D032B1A36B02F4787243EA98
:101D60000C0343EA020CCA684CF21303CFF6F0737B
:101D70001A4042EA0C02CA608A688B68DB0843EAB0
:101D80009202D2074ED148F20003C4F20223CB1ACA
:101D9000E76B227F18BF012307FA03F343EA82327D
:101DA000CB6844F20307BB431A43CA60E2684AB1F6
:101DB0000B6F43F6FF77BB431A430A670A6F42F083
:101DC00000420A6794F854300A69012B21D14FF67A
:101DD0001E03CFF6004302EA030CD4E91637D4E918
:101DE000186247EA0C0747EA0343A76E33431A43D6
:101DF00042EA970242F001020DE0BEF1000F1DD051
:101E0000A26F42F02002A267E26F42F00102E26795
:101E100016E022F001020A610A69236D22F0704285
:101E20001A430A6122690B6B012A23F00F0202BFD9
:101E3000A36A013B1A430A63296887E04CF4803C9B
:101E4000626B32B1A36B02F4E07243EA0C0343EA23
:101E5000020CCA6848F20D03CFF6FE731A4042EA3C
:101E60000C02CA60226A12B14B6C1A434A64E26ED9
:101E700012B14B6C1A434A6404F158078CCF1A43D1
:101E80003A43A36E94F854701A43012F0B6908BFAC
:101E900042F001024FF60247CFF2FF773B401A4370
:101EA0000A614A6922F007032269D4E91276002AFE
:101EB00043EA07034B614B6923F0700343EA0613BF
:101EC0004B610CD0B2F5001F35D1D4F8883003F047
:101ED0000F020F2A22D003F0F002F02A03D18A6AFF
:101EE00062F00F0226E003F47062B2F5706F1CBF5F
:101EF00003F47042B2F5704F10D003F47022B2F5C3
:101F0000702F0BD003F47002B2F5700F06D003F0FF
:101F10007062B2F1706F01D01A0F0E2A8A6AA26A3B
:101F20001C2707EB82026FF00F0702F01C0207FA72
:101F300002F21A438A62C9684FF6F372C8F23F325E
:101F40001140614509D10021E167A16F012262F3CF
:101F50000101296002B0BDE8F081A06F40F01000DF
:101F600020F00200A06754F87C0F40F0010101202E
:101F70002546296002B0BDE8F081000070470000EE
:101F8000F0B5B9B005460026002402A8C821CDE965
:101F90003766CDE93566C4F202243496FEF733FA8B
:101FA000286804F50041884201D039B0F0BD4FF4F3
:101FB000004002904FF4005003962C900220042120
:101FC000049005917D21CDE9061008900A20CDE905
:101FD00009064FF480200B960C9002A802F028F915
:101FE000002818BFFEF7FEFF40F68C40C4F20260E6
:101FF000016834AD41F4806101600168032601F499
:102000008061019101990168002741F0040101609C
:10201000016801F0040101910199016841F0010199
:1020200001600068294600F0010001900198082035
:10203000349004F500603596369700F08BF80F2049
:1020400034A9C1C12046294600F084F8252000218A
:10205000002200F03FFA252000F02CFA39B0F0BD44
:1020600010B5044600688068400703D494F87400F3
:10207000012801D1022010BD012084F874002046FF
:10208000FEF766FF18B1002184F8741010BDA06F30
:1020900040F60171884300F58070A067A06F4FF093
:1020A000000CC0044FF0000044BFE06F20F00600B9
:1020B000E06720681C22A369D4F844E0026084F839
:1020C00074C04268194622F01C0242604268082B24
:1020D00018BF04211143BEF1000F416003D14168D4
:1020E00041F010014160C168890115D5A16F01223D
:1020F00062F30D31A16741686FF04002082B08BF01
:102100006FF0200201EA0201416041684FF02003B4
:1021100008BF40231943416081684FF6C072C7F67B
:10212000FF72114004318160002010BDB0B504463B
:1021300000F02CF9054640F20000C2F200000078E1
:10214000611C18BF044400BF00F020F9401BA042EE
:10215000FAD3B0BD2DE9F04F81B00D68002D00F02D
:102160000381804647F67F70C0F22F0000EA982076
:102170000027009000234FF0010E4FF0030BC4F234
:10218000026740460EFA03F415EA040A00F0E680FE
:10219000B8452BD0D1F804C04CF01004122C40F0FC
:1021A00084806FF0030202EA53071C2202EA8306CE
:1021B00047440F223D6A02FA06F40A69A54302F079
:1021C0000F02B2402A433A6202685C00D1F804C0B0
:1021D0000BFA04F5AA430CF0030505FA04F42243B4
:1021E00099460260BCF1120F34D96DE0386848F6A8
:1021F000F4324D68C0F60002A04302EBC30405F0C0
:1022000001059D40D4F80490054352F833006FF067
:10221000030202EA59041C223D60051902EA8904FE
:102220002F6A0F2202FA04F60B22B74302FA04F6D1
:1022300037432F6207684FEA49060BFA06F5022278
:10224000AF4302FA06F637430760D1F804C0BCF189
:10225000120F39D80EFA0CF212F0061F21D04FEAF5
:1022600049050324826804FA05FBCC6822EA0B02C4
:10227000AC40224382604268CCF300160EFA09F4A7
:10228000A24306FA09F42243BCF1030F426003D1D2
:102290004FF0030B5FE000BF6FEA0B044FF0030B3E
:1022A00017E0BCF1030F56D00EE002685C000BFA99
:1022B00004F5AA430CF0030505FA04F422439946F9
:1022C0000260BCF1120FC5D94FEA49050BFA05F2BD
:1022D000D443C2688E68224006FA05F422435FEABE
:1022E000CC07C26037D542F2000423F00302C4F2E7
:1022F00002641827224407EAC307166E0F25BD4063
:10230000AE43009D05FA07F73743176622684F680A
:1023100042EA0A06FD0258BF22EA0A0626606268FF
:10232000BD0242EA0A0658BF22EA0A066660D4F8ED
:102330008420BD0342EA0A0658BF22EA0A06C4F80E
:102340008460D4F88020FF0342EA0A0658BF22EADC
:102350000A06C4F880600027C4F202670D680133E2
:1023600035FA03F27FF40EAF01B0BDE8F08F000044
:102370001823002A08BF2823C150704744F20000E8
:10238000CEF204000068000C7047000040F60440E4
:10239000C2F200000068704740F20041C4F203013D
:1023A0000A68D2071CBF012070470A6822F00402A5
:1023B000104308600020704740F20041C4F203015E
:1023C000086840F0010200200A60704740F20000F7
:1023D00040F60441C2F20000C2F2000100780A682F
:1023E000104408607047000080B542F20000C4F25B
:1023F0000200016841F480710160032000F096F84A
:1024000002F0D2FC40F62041C4F20261096848F6AD
:10241000DC3201F00F01C0F60002515CC84040F20E
:102420000C01C2F200010860002000F009F8002849
:102430001CBF012080BD00F02BF8002080BD0000F3
:1024400070B540F20006C2F200063178E1B10446F0
:1024500040F20C00C2F200004FF47A720068B2FB46
:10246000F1F1B0FBF1F003F007FE0F2C4FF0010586
:1024700008D838B94FF0FF3021460022002500F07F
:1024800029F87460284670BD0125284670BD0000FB
:1024900081B040F69440C4F20260016841F004014A
:1024A0000160006800F0040000900098042001B072
:1024B00000F03CB80028B8BF704700F01F010122AF
:1024C00002FA01F14EF200124009CEF2000242F887
:1024D0002010704710B54EF60C5CCEF2000CDCF804
:1024E0000030C3F3022E8EF00704042C28BF04240E
:1024F000BEF103034FF0FF3E38BF00230EFA04F491
:10250000A14399400EFA03F39A4300F00F03043BF2
:102510001143634409010C3300F16042B0F1FF3F05
:10252000C8BF02F56443197010BD00004EF60C518F
:10253000CEF200010A684FF6FF031A4060F30A2248
:1025400042F0806040F0FD70086070470122016831
:10255000C0F80025002280F8F424886940F000606B
:102560008861486D40F0805040F0030200204A65C9
:10257000704700007047000070470000704700007F
:1025800070470000704700002DE9F04F89B0D0F887
:1025900000A00646504605F015F910B109B0BDE897
:1025A000F08F306805F03CF90028F7D0DAF8080819
:1025B000C0F30D213068C6F8FC1405F031F901466E
:1025C0003068890703D5416901F0020141610AF5CC
:1025D0000061049105F024F901463068C9060896A7
:1025E0003ED5816921F010018161DAF82040C4F301
:1025F000434004F00F0506281CD002282BD147F6D3
:10260000F070044027D005EBC500220906EB8005D9
:102610005046D5F88C1205F007F9D5F88C02D5F89C
:102620009C1200EB141001EB1411C5F88C02C5F8D4
:102630009C1210E006F2C4415046082205F0F4F85E
:1026400005EBC500C4F30A1106EB8000D0F89C220C
:102650001144C0F89C123068816941F01001816119
:1026600005F0DEF8000340F108810898006805F0E5
:10267000B5F8002800F0018106460898002500F210
:10268000C44100F527744FF4306B4FF000080791F8
:1026900004E0079A012104F077FF52E0F00700F010
:1026A000E08008985FFA88F90068494605F0B0F8BC
:1026B0000746C00775D00AEB0B0001218160089D19
:1026C00028680BEB000C036CDCF808202D69012D49
:1026D00028D115073CD495065CD412F0280F4FF092
:1026E00000055ED143F20B01C4F654718B4202D354
:1026F00012F4004237D154F8042CDCF81010B8F171
:10270000000F6FF3DF41A2EB0101216019D1089B9B
:10271000D3F89422002ABCD0D3F88C020844C3F822
:102720008C020EE043F20B05C4F65475FF35AB4244
:1027300020D1100430D4900644BF2020CCF80800EB
:10274000002508984946FFF71BFF38072BD473E094
:1027500043F20B00C4F6547083424FF0000520D3BF
:1027600012F400401DD04FF40040CCF808003807A8
:1027700019D461E0B8F1000F07D10899D1F894128B
:1027800019B9079A002104F0FFFE08984946FFF79F
:10279000F7FE05E0202001E04FF40040CCF80800EF
:1027A0000025380748D50AEB0B00082181600898FE
:1027B00043F20B030168C4F654730A6C0BEB01057A
:1027C000A968013B9A4234D9090444BF4FF4004040
:1027D000A860089D284600F0E7FC2869002501282C
:1027E0002AD10898079A0068012104F0CDFEF80666
:1027F00042BF0AEB0B0010218160B80724D500BF4F
:10280000DAF81400000605D504980146406840F443
:102810008060486014F81D0C012805D108984946CD
:1028200004F81D5C00F0ACFB0AEB0B000221816098
:102830000AE000F0B9FC0025F80642BF0AEB0B00E5
:1028400010218160B807DBD4B80642BF0AEB0B0049
:1028500020218160B80442BF0AEB0B004FF4005105
:102860008160B5EB560F08F101084FEA56060BF1EF
:10287000200B04F124047FF411AFDDF820B0CDF873
:102880000CA0DBF8000004F0CBFF400340F1E18036
:10289000DBF8000004F09AFF002800F0DA8082469E
:1028A0000398002700F510650BF2C44001900295D3
:1028B0005FEACA7000F0C480DBF80000F9B207914B
:1028C00004F094FF0446C0070AD1200734D4E00680
:1028D00038D460063CD4A00740D4200656D4AFE0DC
:1028E000049907F00F000A46496B012303FA00F030
:1028F00021EA000005EB471150638B60DBF8100004
:10290000012813D107EBC700002F0BEB8000D0E9A3
:1029100012121144C16409D1DBF8540030B9DBF85C
:102920000000019A012104F02FFE00BF07995846CC
:10293000FFF724FE2007CAD505EB47100821816068
:10294000E006C6D505EB4710102181606006C2D5B0
:1029500005EB471040218160A007BED5039839469A
:1029600004F0C6FE07EBC7000BEB800010F83F1F1A
:10297000012905D1002101700799584600F0FEFA9F
:1029800005EB471002218160200659D507EBC700EF
:102990000BEB8002914659F8541FC84658F8080FAF
:1029A00081424DD3DBF80060934606EB471C069648
:1029B0005BF8483FDCF818E90D1A9D4288BF1D46B8
:1029C0001FFA8EF30335B3EB950F27D30CF5106385
:1029D00002F14C05059300BF81421FD9DBF80020AE
:1029E0000C1A089894422968067C88BF1446DDE9D1
:1029F0000602A3B2009605F057F82868D8F8001030
:102A00002044286008190599C8F800008969E21C6B
:102A100089B2B1EB920FD9F80010DDD2DDF820B009
:102A2000029D81420CD8069B07F00F00D3F83418A2
:102A3000012202FA00F021EA0000C3F8340800BFC6
:102A40000020B0EB5A0F07F101074FEA5A0A7FF452
:102A50002FAFDBF8000004F0E3FE00283EDBDBF8DC
:102A60000000DDE9038904F0DBFE00056CD4DBF82F
:102A7000000004F0D5FE000178D5DBF800004169C4
:102A800001F0006141619BF8F414D9B3584600F09D
:102A90008DFBDBF8000004F0C3FEC0046CD5D9F850
:102AA0000400102120F00100C9F80400DBF8000048
:102AB00004F01EFEDBF80400002800F02581411E12
:102AC000032900F0030C5AD20021DDF820B0DDE923
:102AD0000389BCF1000F40F0D08015E1DDF81090C3
:102AE000D9F8040020F00100C9F804009BF8F404B0
:102AF00001281AD100208BF8F40458460021FFF772
:102B000039FD15E001218BF8F414406D0121C0F36B
:102B10008300CBF8F8045846FFF72CFDDBF80000E3
:102B200004F07EFEC00427D5B9E7584600F038FB14
:102B3000DBF80000DDF80C80416901F000414161E3
:102B400004F06EFE000592D5D9F80800C0071CBF3E
:102B5000584600F02BFBDBF80000416901F40061EE
:102B6000416104F05DFE00013FF587AFDBF8000036
:102B700004F056FEC00492D4DBF80000F7E0A0EBAE
:102B80000C0A08F536634FF6A85E4FF6A0554FF6CF
:102B9000C8584FF6C0504FF6E8594FF6E0544FF67C
:102BA000086B4FF600670021CFF6FF7E4FF67F36A9
:102BB000CFF6FF75CFF6FF78CFF6FF70CFF6FF792F
:102BC000CFF6FF74CFF6FF7BCFF6FF7743F80E60AA
:102BD0005A59043122F400125A5143F8586C53F8F0
:102BE000602C8A4522F4001243F8602C53F8602CC4
:102BF00042F0006243F8602C43F808601A5822F44F
:102C000000121A5043F8386C53F8402C22F400128A
:102C100043F8402C53F8402C42F0006243F8402C1B
:102C200043F809601A5922F400121A5143F8186C3B
:102C300053F8202C22F4001243F8202C53F8202CB7
:102C400042F0006243F8202C43F80B60DA5922F47A
:102C50000012DA519E601A6822F400121A601A6893
:102C600042F000621A6003F18003AFD1DDF820B0BA
:102C7000DDE90389BCF1000F46D008F5106000EBD8
:102C800041124FF67F374B019760C65808F5306206
:102C900002EB411526F40016C650AF60D658BCF1C1
:102CA000010F26F40016D650D65846F00066D650CE
:102CB0002AD0013100EB41164D01B760465902EBB5
:102CC000411126F4001646518F605159BCF1020F94
:102CD00021F400115151515941F00061515113D06B
:102CE00003F1400143184FF67F379F60435823F4A8
:102CF0000013435050188760505820F40010505073
:102D0000505840F000605050D9F81C0040F00110BD
:102D1000C9F81C00DBF8300040B1D9F8840040F05D
:102D20000B00C9F8840009F1440008E0D9F8140048
:102D300042F22B010843C9F8140009F110000168A0
:102D40000BF2C44241F00B010160D9F8000020F4FD
:102D5000FE60C9F80000DBF800009BF8101004F0DA
:102D600013FCDBF80000416901F48051416104F07B
:102D700057FD0146DBF8000089041AD504F03EF93E
:102D8000DBF8000004F010FDDBF80040CBF80C008D
:102D900001F094FF9BF80C200146204604F0F8FD5A
:102DA000584600F0FBF9DBF80000416901F40051DE
:102DB000416104F035FD000706D4DBF8000004F0A3
:102DC0002FFD00060DD433E0584600F0EBF9DBF898
:102DD0000000416901F00801416104F021FD000695
:102DE00026D5D8F8180020F08000C8F81800DBF8C5
:102DF000040002281CD30BF2A32401252178012909
:102E000011D105F00F0000EBC0000BEB800228068B
:102E1000DBF8000002F13C0158BF02F51F7104F01D
:102E2000E1FBDBF804000135854204F12404E5D31D
:102E3000DBF8000004F0F4FCC00233D4DBF800003F
:102E400004F0EEFC80025DD5DBF804000228C0F03F
:102E5000838008F532610BF529720123012700BF39
:102E60000E68B6F1FF3F16DC1578012D13D1DBF8A3
:102E7000FC5406F4803605F00105AE420BD102F891
:102E8000013CD8F8186046F08006C8F81860D8F8F9
:102E9000146036065AD501372031874202F12402E8
:102EA000DED359E0DBF80400022821D308F51264D0
:102EB0000BF16405012601272168B1F1FF3F11DC08
:102EC000297801290ED107F00F0000EBC00005F8AA
:102ED000016C0BEB8001DBF800003C3104F082FB5D
:102EE000DBF8040001372034874205F12405E3D3E1
:102EF000DBF80000416901F48011416104F090FCAD
:102F00008002A1D4DBF8000004F08AFC40002DD53B
:102F10005846FFF731FBDBF80000416901F08041C2
:102F2000416104F07DFC40077FF538ABDBF8000021
:102F30004468610704D55846FFF724FBDBF800001E
:102F400041682143416009B0BDE8F08FD9F8040021
:102F500040F40070C9F80400DBF80000416901F496
:102F60000011416104F05CFC4000D1D4DBF80000AA
:102F700004F056FC4007D9D4FFF710BB704700009F
:102F8000704700002DE9F04F8BB0002800F08680DC
:102F90000446056890F8BD0428B9002084F8BC04F4
:102FA000204600F093F8032084F8BD04E86BC005C8
:102FB0005CBF00202061206804F0DEFA206804F184
:102FC000040E0A9004F11C0A9EE80E589AE8C00705
:102FD000D4E90C50CDE9085003A88DE8005880E8EA
:102FE000C0030A98CDF81CA004F018F8002852D1AC
:102FF00020680021002504F099FC616861B301207C
:103000000023002203EBC30304EB8307D3B287F84A
:103010003D0087F83C200132A7F84430D3B29942F2
:1030200087F84050C7E912557D65EBD80020002392
:10303000002200BF03EBC30304EB830787F87D0284
:1030400087F87C220132D3B2994287F88002C7E91F
:10305000A200C7F89402EDD8A06804F1140E0A90FB
:1030600004F1240A2268D4E903379EE840589AE81C
:103070000007D4E90C50CDE9085002A8CDE900764C
:1030800080E80058CDE9058910460A9ACDF81CA0C1
:1030900004F054F830B1022084F8BD0401200BB0D4
:1030A000BDE8F08F002084F83800012084F8BD04CA
:1030B000606A012804BF2046FFF748FA206804F040
:1030C0002DF800200BB0BDE8F08F000070B5BAB04D
:1030D00005460026002402A8C821CDE93866CDE9BE
:1030E0003666C4F202243596FDF78DF9286804F59A
:1030F0000031884201D03AB070BD4FF48010029088
:1031000002A803962A9601F093F8002818BFFDF74D
:1031100069FF40F68C45C4F20265286835A940F085
:1031200001002860286800F00100019001984FF428
:10313000C050359002203690002037900320389000
:103140000A2039902046FFF705F8286840F48040AF
:103150002860286800F4804001900198A868400722
:103160000FD4A86840F00400A860A86800F004002C
:103170000190019800F032F9A86820F00400A860DE
:1031800001E000F02BF9492000210022FFF7A2F90D
:103190004920FFF78FF93AB070BD0000704700007A
:1031A0007047000070470000704700007047000043
:1031B00040F20C01C2F20001096841F25972CDF2ED
:1031C000B712A1FB021340F63C0C0121C4F2026CC1
:1031D00001EB93325CF8341C00284FEA93302AD07C
:1031E00041F0020102304CF8341C00BFDCF8003022
:1031F00001284AD013F0020147D1DCF80010022860
:10320000A2F1010342D011F002013FD1DCF800101D
:103210000328A2F1020339D011F0020136D1DCF803
:1032200000100438A2F1030330D011F00201A2F122
:103230000402DBD02AE021F0020102304CF8341CF9
:103240000128DCF8003018BF13F0020123D0DCF8AD
:1032500000100228A2F1010318BF11F0020115D0DD
:10326000DCF800100328A2F1020318BF11F00201DC
:103270000CD0DCF800100438A2F1030306D011F0E2
:103280000201A2F10402DBD100E0431E0020002B6A
:1032900008BF03207047431E0020002B08BF0320F7
:1032A0007047000010B540F60C0CC4F2026CDCF85C
:1032B000301001F44031814204BF002010BDDCF821
:1032C0000010B0F5803F21F4E02141EA000140F216
:1032D0000C0088BF41F48021CCF80010C2F200003D
:1032E000006841F25971CDF2B711A0FB0102012033
:1032F000910B00EB923E0A46DCF80000B2F1FF337E
:1033000018BF0123541C22D010F400401FD1DCF858
:103310000000002A134618BF012318D010F4004003
:1033200015D1DCF80000531E18BF0123012A0ED06E
:1033300010F400400BD1DCF80000931E18BF0123ED
:10334000022A04D010F40040A2F10402D4D0002BD1
:1033500004BF032010BD00BFDCF830004A1C26D09B
:1033600010F4004029D1DCF830000029AEF1010250
:1033700018D010F4004015D1DCF830000129AEF16E
:1033800002020FD010F400400CD1DCF8300002290A
:10339000A1F1040205D010F40040AEF1040E114674
:1033A000DAD002320020002A08BF032010BD724686
:1033B0000020002A08BF032010BD72460020002A0A
:1033C00008BF032010BD000040F61000C4F20260E8
:1033D000016841F0005101607047000040F61000A4
:1033E000C4F20260016841F0805101607047000042
:1033F00040F63C00C4F20260006800F440307047C0
:10340000B0B540F6284EC4F2026EDEF80C50DEF87D
:103410000030DEF8001003F00303C1F30321DEF8EF
:103420000020DEF8104002F01002C4F3CC046FF369
:103430005F2504FB02F2012B00EE102A01F1010CC2
:10344000B8EE400A65D0032B18BF022B61D101EE04
:1034500010CA9FED4F2AB8EE411ADEF80C1082EE2A
:10346000011A6FF35F2102EE101A9FED4A3AB8EE8F
:10347000422A20EE030A30EE020AB7EE002A30EEAE
:10348000022ADEF8001021EE020AC90370D5DEF828
:103490000C10B7EE002AC1F3462101EE101AB8EE67
:1034A000411A31EE021A80EE011ABCEEC11A11EE79
:1034B000102A0260DEF8001089035FD5DEF80C10D8
:1034C000B7EE002AC1F3064101EE101AB8EE411A18
:1034D00031EE021A80EE011ABCEEC11A11EE102A6A
:1034E0004260DEF8001049034ED5DEF80C10B7EE4E
:1034F000002AC1F3066101EE101AB8EE411A31EE4E
:10350000021A80EE010ABCEEC00A10EE101A8160A9
:10351000B0BD5EF8201C090203D4DEF8CC100B0409
:1035200001E05EF8203C48F67442190FC0F6000234
:1035300002EB810102EE10CA91ED001A9FED153ADF
:10354000B8EE411AB8EE422A20EE030A81EE022AB2
:1035500001EE105AB8EE411A30EE010AB7EE001A29
:1035600030EE011ADEF8001021EE020AC9038ED4F3
:1035700000220260DEF8001089039FD4002242601E
:10358000DEF800104903B0D400218160B0BD00BF57
:103590000024744B00000039B0B540F62C4EC4F244
:1035A000026EDEF81050DEF80030DEF8001003F096
:1035B0000303C1F30321DEF80020DEF8144002F01B
:1035C0001002C4F3CC046FF35F2504FB02F2012B5D
:1035D00000EE102A01F1010CB8EE400A65D0032B71
:1035E00018BF022B61D101EE10CA9FED4F2AB8EE31
:1035F000411ADEF8101082EE011A6FF35F2102EE1D
:10360000101A9FED4A3AB8EE422A20EE030A30EE35
:10361000020AB7EE002A30EE022ADEF8001021EE90
:10362000020AC90370D5DEF81010B7EE002AC1F304
:10363000462101EE101AB8EE411A31EE021A80EE60
:10364000011ABCEEC11A11EE102A0260DEF8001059
:1036500089035FD5DEF81010B7EE002AC1F30641EA
:1036600001EE101AB8EE411A31EE021A80EE011A7C
:10367000BCEEC11A11EE102A4260DEF800104903B8
:103680004ED5DEF81010B7EE002AC1F3066101EE48
:10369000101AB8EE411A31EE021A80EE010ABCEEA1
:1036A000C00A10EE101A8160B0BD5EF8241C090239
:1036B00003D4DEF8C8100B0401E05EF8243C48F6A1
:1036C0007442190FC0F6000202EB810102EE10CA2B
:1036D00091ED001A9FED153AB8EE411AB8EE422A64
:1036E00020EE030A81EE022A01EE105AB8EE411ACA
:1036F00030EE010AB7EE001A30EE011ADEF80010C3
:1037000021EE020AC9038ED400220260DEF8001006
:1037100089039FD400224260DEF800104903B0D430
:1037200000218160B0BD00BF0024744B000000394F
:10373000B0B540F6304EC4F2026EDEF81450DEF83A
:103740000030DEF8001003F00303C1F30321DEF8BC
:103750000020DEF8184002F01002C4F3CC046FF32E
:103760005F2504FB02F2012B00EE102A01F1010C8F
:10377000B8EE400A65D0032B18BF022B61D101EED1
:1037800010CA9FED4F2AB8EE411ADEF8141082EEEF
:10379000011A6FF35F2102EE101A9FED4A3AB8EE5C
:1037A000422A20EE030A30EE020AB7EE002A30EE7B
:1037B000022ADEF8001021EE020AC90370D5DEF8F5
:1037C0001410B7EE002AC1F3462101EE101AB8EE2C
:1037D000411A31EE021A80EE011ABCEEC11A11EE46
:1037E000102A0260DEF8001089035FD5DEF814109D
:1037F000B7EE002AC1F3064101EE101AB8EE411AE5
:1038000031EE021A80EE011ABCEEC11A11EE102A36
:103810004260DEF8001049034ED5DEF81410B7EE12
:10382000002AC1F3066101EE101AB8EE411A31EE1A
:10383000021A80EE010ABCEEC00A10EE101A816076
:10384000B0BD5EF8281C090203D4DEF8C4100B04D6
:1038500001E05EF8283C48F67442190FC0F60002F9
:1038600002EB810102EE10CA91ED001A9FED153AAC
:10387000B8EE411AB8EE422A20EE030A81EE022A7F
:1038800001EE105AB8EE411A30EE010AB7EE001AF6
:1038900030EE011ADEF8001021EE020AC9038ED4C0
:1038A00000220260DEF8001089039FD400224260EB
:1038B000DEF800104903B0D400218160B0BD00BF24
:1038C0000024744B0000003980B584B0024643F6F2
:1038D000FF7300209B1A70EB0103C0F27480D2F1D9
:1038E0007F0370EB0103C0F2BD80013A61F100017A
:1038F000D2F13F034FF0000373EB0101C0F071847C
:10390000DFE812F040005A026F04F3016F046F0405
:103910006F0414026F046F046F046F046F046F046C
:103920006F047B026F046F046F046F046F046F04F5
:103930006F046F046F046F046F046F046F046F04EF
:103940006F0435026F046F046F046F046F046F041B
:103950006F046F046F046F046F046F046F046F04CF
:103960006F046F046F046F046F046F046F046F04BF
:103970006F046F046F046F046F046F046F046F04AF
:103980006F049F0240F60840C4F20260D0F8D810DD
:1039900001F00301012900F04D83002900F0468366
:1039A00050F8082C022903D112F4806240F0FD8304
:1039B000D0F8E800032900F002024FF0000008BF31
:1039C000900304B080BD4FF6FF73C0F23F039B1A13
:1039D00070EB01037EDB4FF6FF73C0F201039B1A0D
:1039E0004FF0000C7CEB010380F2A1804FF6FF73D7
:1039F000C0F20F039B1A7CEB0103C0F2178182F423
:103A000000330B4300F03E8282F48022114340F0E9
:103A1000E88340F60840C4F20260D0F8E810D0F81D
:103A2000E82001F44071B1F5807F03D112F0020269
:103A300040F05781D0F8E820B1F5007F03D112F0B3
:103A4000006240F04B8250F8080C10F400301CBFAC
:103A50004AF22010C0F20700B1F5407F18BF0020E5
:103A600004B080BD40F2FF339B1A4FF0000C7CEB9A
:103A7000010380F2838040F6FF739B1A7CEB010305
:103A8000C0F2F78082F480630B4300F0138282F46B
:103A90000062114340F0A58340F60840C4F2026082
:103AA000D0F8E01011F4407100F0D782D0F8E8208F
:103AB000B1F5807F03D112F0006240F00F8250F820
:103AC000082CB1F5007F40F0B08112F4806240F024
:103AD0006C83AAE16FF07E439B1A4FF0000C7CEBE5
:103AE000010380F282806FF078439B1A7CEB010324
:103AF000C0F2DD8082F000730B4300F0F98182F0A8
:103B00008062114340F06D8340F60840C4F20260C9
:103B1000D0F8DC10C1F30151002900F08B8201299B
:103B200000F09B8201A8022900F0D1829CE082F47F
:103B300080430B4300F0EE8182F400430B4300F01E
:103B4000098282F48032114340F04B8340F60841F1
:103B5000C4F20261D1F8DC0000F00702042A00F28E
:103B6000C2824BF68030DFE812F00500EF01E5027B
:103B70003C03080301F0A2F804B080BD82F080038A
:103B80000B4300F0FE8182F480730B4300F0178238
:103B900082F40072114340F0248340F60840C4F2DE
:103BA0000260D0F8E01011F4406100F05682D0F8C5
:103BB000E820B1F5806F03D112F0006240F08E81F1
:103BC00050F8082CB1F5006F03D112F4806240F078
:103BD000EC82D0F8E800B1F5406F00F002024FF03F
:103BE000000008BF900304B080BD82F480030B4343
:103BF00000F0FC8182F400030B4300F0098282F0A4
:103C00008072114340F0ED8240F60840C4F2026039
:103C1000D0F8D810C1F30141012900F00B8202292C
:103C200000F05A82032940F0EF8116E282F48013FB
:103C30000B4300F0038282F40012114340F0D18262
:103C400040F60840C4F20260D0F8DC10490400F1EC
:103C50007B81D0F8D810C1F38161002900F05F8228
:103C6000012940F0F88101A8FFF796FC029804B002
:103C700080BD82F480530B4300F0F78182F4005240
:103C8000114340F0AE8240F60841C4F20261D1F81F
:103C9000DC00C0F34212042A00F225824BF6803089
:103CA000DFE812F037024C0152019F024E0282F00F
:103CB00000630B4300F0F68182F08052114340F024
:103CC000908240F60841C4F20261D1F8E000D1F8D8
:103CD000E82010F4004040F0098212F0020200F0E7
:103CE00005824FF4004004B080BD40F60840C4F2A5
:103CF0000260D0F8D81001F03001102900F09A814C
:103D0000002900F0818150F8082C202903D112F4F9
:103D1000806240F04A82D0F8E800302900F00202C8
:103D20004FF0000008BF900304B080BD40F608408B
:103D3000C4F20260D0F8D81001F0C001402900F0B0
:103D40007981002900F0608150F8082C802903D186
:103D500012F4806240F02982D0F8E800C02900F017
:103D600002024FF0000008BF900304B080BD40F68F
:103D70000841C4F20261D1F8E00000F00700012818
:103D800000F05881002800F0AA8151F8082C022880
:103D900003D112F4806240F00882D1F8E8200328B1
:103DA00002D112F002029CD151F8082C04284FF0E5
:103DB000000000F0DF8114E240F60840C4F2026027
:103DC000D0F8D81001F00C01042900F0338100294B
:103DD00000F01A8150F8082C082903D112F48062EF
:103DE00040F0E381D0F8E8000C2900F002024FF027
:103DF000000008BF900304B080BD40F60840C4F244
:103E00000260D0F8D81001F44071B1F5807F00F065
:103E10001181002900F0F88050F8082CB1F5007FDE
:103E200003D112F4806240F0C081D0F8E800B1F50F
:103E3000407F00F002024FF0000008BF900304B082
:103E400080BD40F60841C4F20261D1F8D80000F408
:103E50004060B0F5806F00F0ED80002800F0D48065
:103E600051F8082CB0F5006F03D112F4806240F0D5
:103E70009C8151F8082CB0F5406F4FF0000000F025
:103E80007981AEE140F60841C4F20261D1F8E00068
:103E9000C0F30242042A00F226814BF68030DFE8AC
:103EA00012F0050053004901A0016C0100F006FF6B
:103EB00004B080BD40F60840C4F20260D0F8D810CB
:103EC00011F4402100F0A080D0F8E820B1F5802F57
:103ED00040F0638112F0006200F05F81D0F8E800EA
:103EE000C0004FF0FA0058BF4FF4FA4004B080BD54
:103EF00040F60840C4F20260D0F8E010C1F3C101FE
:103F0000012900F09780022900F0E680032900F0E3
:103F1000A480E4E040F60841C4F20261D1F8DC007C
:103F2000C0F30222042A00F2DE804BF68030DFE884
:103F300012F0F00005000B005801070101A8FFF77F
:103F4000F7FB019804B080BD01A8FFF759FA01986A
:103F500004B080BD40F60841C4F20261D1F8E0002F
:103F6000C0F30232052A00F22E81DFE812F00600CB
:103F7000630026012C012C013C0100F09FFE04B0DF
:103F800080BD40F60841C4F20261D1F8D80000F4C7
:103F90004050B0F5805F4DD0B0B351F8082CB0F56B
:103FA000005F03D112F4806240F0FF8051F8082CCA
:103FB000B0F5405F4FF0000000F0DC8011E140F60A
:103FC0000840C4F20260D0F8E010C1F38111012969
:103FD00030D0022900F08080032940F08080016801
:103FE000090200F11381D0F8EC0001E140F608412C
:103FF000C4F20261D1F8D80000F44040B0F5804F1F
:1040000018D0002840F0A78000F06EFE04B080BDFC
:1040100040F60840C4F20260D0F8D810C1F3015154
:10402000012907D0022957D0032916D000F07CFEC1
:1040300004B080BD00F0B8FE04B080BD40F608407A
:10404000C4F20260D0F8D810C1F38161002966D0B3
:1040500001293FF408AE032938D10168090202D4CE
:10406000D0F8EC008EE000688DE040F60840C4F225
:104070000260D0F8DC1050F8082C11F4006103D174
:1040800012F4806240F0918050F8080C10F48060C7
:104090001CBF41F20020C0F27A00002908BF084688
:1040A00004B080BD40F60841C4F20261D1F8D800E6
:1040B00051F8081C10F0407002D111F4003174D195
:1040C000B0F1007F25D0B0F1807F0CD101A8FFF7BF
:1040D00097F9029804B080BD50F8080C32E000F067
:1040E00043FE04B080BD002004B080BDD1F8E820BC
:1040F00000284FF0000018BF12F0006271D0D1F814
:10410000E800C0004FF0FA0058BF4FF4FA4004B086
:1041100080BD01A8FFF740FA019804B080BD50F8B7
:10412000080C46F600418004C0F2DC2101EAE07090
:1041300004B080BD01A8FFF7FBFA029804B080BD6F
:1041400051F8080C42F200414005C0F2F40101EAC6
:10415000E07004B080BD51F8082CB0F5004F02D1DA
:1041600012F4806221D151F8082CB0F5404F4FF085
:10417000000036D112F0200233D0086800021AD4B1
:10418000D1F8EC000004C0F3036048F67441C0F6B7
:10419000000151F8200004B080BD50F8082CB1F5A2
:1041A000002F27D112F4806224D042F20040C0F2E6
:1041B000F40004B080BD0868E5E701A8FFF7ECF95A
:1041C000039804B080BD00F4E04251F8083C42F28C
:1041D0000040B2F5405FC0F2F40019D113F400338F
:1041E00016D004B080BD086800021ED4D1F8EC00DF
:1041F00000041BE0D0F8E800B1F5402F00F0020207
:104200004FF0000008BF900304B080BD00680DE0CF
:1042100051F8081C11F4806118BF0146B2F5804FB7
:1042200018BF0021084604B080BD0868000FACE745
:104230002DE9F04F81B00446006840F6E04BC1071D
:10424000C4F2026B46D181074ED4410756D4010710
:104250005ED4C10666D481066ED4410600F1778033
:10426000010600F17F80C10500F18780410200F165
:104270008F80810500F19780410500F19F80010545
:1042800000F1A78040F628488004C4F2026840F19B
:10429000B080D4F890004FEA7011042900F2038135
:1042A000DFE811F00500070112011801180104F1FF
:1042B000080002F027F90646002800F00281607825
:1042C000400600F19B80374635466078000600F1D5
:1042D000AA8059E3DBF80010226D21F0030111439D
:1042E000CBF800108107B0D5DBF80010626D21F02B
:1042F0000C011143CBF800104107A8D5DBF80010E2
:10430000A26D21F030011143CBF800100107A0D5B8
:10431000DBF80010E26D21F0C0011143CBF8001072
:10432000C10698D5DBF80010226E21F440711143CC
:10433000CBF80010810690D5DBF80810626E21F0F2
:1043400007011143CBF8081041067FF589AFDBF870
:104350000010A26E21F440611143CBF80010010659
:104360007FF581AFDBF80010E26E21F4405111437C
:10437000CBF80010C1057FF579AFDBF80810226F8C
:1043800021F0C0011143CBF8081041027FF571AF55
:10439000DBF80010626F21F440411143CBF80010AC
:1043A00081057FF569AFDBF80810A26F21F4406149
:1043B0001143CBF8081041057FF561AFDBF8001021
:1043C000E26F21F440211143CBF8001001057FF585
:1043D00059AFDBF80810D4F8802021F44071114364
:1043E000CBF8081040F628488004C4F202683FF574
:1043F00050AF0026607840067FF565AFD4F8940092
:104400004FEA3020042800F272803746DFE800F0DF
:1044100076808A030300002F3D4600F08E8060788E
:10442000000640F1B182D4F8A8004FEA30300528E8
:1044300000F29082022800F09482002F3E4600F0A5
:104440009982A078C00700F0A482D4F888000428DC
:1044500000F28380DFE800F0038893030300002F5D
:104460003D4600F09580A078800740F19782D4F80F
:104470008C004FEA3040042800F29A80DFE810F008
:10448000050002010D0105000500002FB94600F0EE
:104490000D81A078400700F192804D46A078C006BB
:1044A00000F12C81EBE10126607840067FF50BAF2F
:1044B000A4E704F12C0002F0A3F8064600287FF4DC
:1044C000FEAED4F8900005E0D8F8001041F4803139
:1044D000C8F80010DBF8041021F0E0010843CBF825
:1044E00004000026607840067FF5EDAE86E70127E0
:1044F0000125607800063FF596AF45E204F108001B
:1045000002F000F80746002F3D467FF488AF14E024
:1045100004F12C0002F074F80746002F3D467FF4AA
:104520007EAF0AE0D8F80000374640F48030C8F883
:104530000000002F3D467FF472AFDBF80400D4F892
:10454000941020F4E06008430027CBF804003546BF
:10455000607800063FF567AF16E201270125A078D5
:1045600080073FF584AF19E2D8F8000040F48030AE
:10457000C8F80000002F3D467FF475AF08E004F155
:104580002C0002F03DF80746002F3D467FF46BAF4C
:10459000DBF80400D4F8881020F007000843002757
:1045A000CBF804003546A07880073FF560AFF5E111
:1045B00001274FF00109A07840077FF56EAF5BF847
:1045C0004C0C40070ED45BF84C0C4FF0010A40F045
:1045D00004004BF84C0C5BF84C0C00F0040000900D
:1045E000009801E04FF0000A4FF60045CFF6FF7546
:1045F00058F8050040F0010048F80500FDF7C6FE38
:10460000064600BF58F80500C0070AD1FDF7BEFEF8
:10461000801B0228F6D903270325BAF1000F63D1C6
:1046200068E0002F3D465CD1DBF8100010F44070CC
:104630004CD0D4F8C010884211D0DBF81000DBF861
:10464000101020F4407041F48031CBF81010DBF8EA
:10465000101021F48031CBF81010CBF81000C007F7
:1046600034D0FDF793FE064603270325DBF8100040
:1046700080072BD4FDF78AFE801B41F288318842E7
:10468000F4D92EE0D8F8000040F48030C8F80000DB
:10469000002FB9467FF4FDAE08E004F12C0001F0D4
:1046A000AFFF0746002FB9467FF4F3AEDBF80800F2
:1046B000D4F88C1020F4E02008430027CBF8080041
:1046C000A946A07840077FF5E8AE78E7DBF8100050
:1046D000D4F8C01020F44070084300274D46CBF8B2
:1046E0001000BAF1000F05D05BF84C0C20F004006C
:1046F0004BF84C0CA078C00640F1C180D4F8A00063
:104700004FEAB060032800F29580DFE800F0029ADB
:10471000A402002F394600F0A8802068020340F16F
:10472000B380D4F8982032B1B2F5005F18BFB2F56B
:10473000805F40F00981002F3E4655D0C10400F152
:10474000A780810200F1B080010200F1C280C101A6
:1047500000F1CB80810100F1D480400140F1DD8087
:10476000D4F8B000B0F5401F27D0B0F5001F05D138
:10477000D8F8000040F40030C8F80000002F3D4693
:1047800023D0E078000740F1CD80D4F8840058B100
:10479000B0F1007F34D0B0F1807F46D1D8F800006E
:1047A00040F40030C8F800008FB3E078C00600F194
:1047B000BE80384601B0BDE8F08F04F1080001F07A
:1047C000A1FE0746002F3D46DBD1DBF80400D4F8FC
:1047D000B01020F4401008430027CBF80400354601
:1047E000E0780007D1D49DE0DBF80430002723F403
:1047F00040531A43CBF804200E46C104A1D547E02C
:1048000004F1080001F07EFE0746002FCDD1DBF851
:104810000000D4F8841020F040700843CBF800006A
:104820002F46E078C006C4D581E00127E078C006B5
:10483000BFD57CE001270121206802033FF571AF5D
:1048400022E004F1080001F05DFE0746002F394622
:104850007FF463AF09E0D8F8000040F40030C8F8F6
:104860000000002F39467FF458AFDBF80000D4F881
:10487000A01020F0406008430027CBF80000294634
:10488000206802033FF54DAF0E46C1047FF559AFD6
:10489000DBF80410D4F89C2021F400611143CBF81C
:1048A000041081027FF550AFD4F8A410B1F5804F09
:1048B00005D1D8F8002042F48032C8F80020DBF897
:1048C000042022F480421143CBF8041001027FF54A
:1048D0003EAFDBF80010D4F8B42021F440111143AE
:1048E000CBF80010C1017FF535AFDBF80010D4F82C
:1048F000B82021F440311143CBF8001081017FF53D
:104900002CAFDBF80810D4F8BC2021F018011143BB
:10491000CBF8081040013FF523AF3546E07800079B
:104920003FF533AF2F46E078C0067FF542AFDBF8A6
:104930000800D4F8AC1020F400400843CBF808007D
:10494000384601B0BDE8F08F01270126C1047FF58C
:10495000F8AE9DE701270126A078C0077FF475AD6A
:1049600017E004F1080001F0CDFD0746002F3E4698
:104970007FF467ADDBF80800D4F8A81020F4E0401D
:1049800008430027CBF808002E46A078C0077FF424
:104990005CAD3546A07880073FF569ADA946A078A3
:1049A00040077FF57AAD0AE62DE9F04F81B0002887
:1049B00000F02D8142F20008C4F202080446D8F843
:1049C00000000D4600F00F0088420DD2D8F800001C
:1049D00020F00F002843C8F80000D8F8000000F0CD
:1049E0000F00A84240F01381206840F62049C1061C
:1049F000C4F202690DD56169D9F8042002F0700291
:104A0000914206D9D9F8042022F070021143C9F866
:104A1000041001070FD52169D9F80020702303EA9B
:104A20001212914207D9D9F8002022F4E06242EA3A
:104A30000111C9F8001041070DD5E168D9F800202F
:104A400002F07002914206D9D9F8002022F07002DB
:104A50001143C9F8001081070DD5A168D9F80020CD
:104A600002F00F02914206D9D9F8002022F00F027D
:104A70001143C9F80010C00773D1206881070DD514
:104A8000A168D9F8002002F00F02914206D2D9F8AD
:104A9000002022F00F021143C9F80010D8F80010CE
:104AA00001F00F01A9420DD9D8F8001021F00F0133
:104AB0002943C8F80010D8F8001001F00F01A942EE
:104AC00040F0A58041070DD5E168D9F8002002F03B
:104AD0007002914206D2D9F8002022F070021143F0
:104AE000C9F8001001070FD52169D9F800207023FB
:104AF00003EA1212914207D2D9F8002022F4E062B0
:104B000042EA0111C9F80010C0060DD56069D9F854
:104B1000041001F07001884206D2D9F8041021F087
:104B200070010843C9F8040000F03EF9D9F80010FC
:104B300048F6DC3201F00F01C0F60002525C40F290
:104B40000401C2F20001096840F20C0320FA02F2EB
:104B5000C2F2000308461A6001B0BDE8F04FFDF74D
:104B60006FBC606840F61C4B0228C4F2026B14D084
:104B700003281AD1D9F8740040071CD4D9F874005E
:104B80004FF0010A40F00400C9F87400D9F874002D
:104B900000F00400009000980FE05BF81C0C80030C
:104BA00031D4012001B0BDE8F08F5BF81C1C60B36C
:104BB00049052CD530E04FF0000AFDF7E7FB4FF632
:104BC000F037CFF6FF775BF8071049030CD50646A0
:104BD0005BF80700400407D4FDF7D8FB801B0228D0
:104BE0004FF00300F4D965E0BAF1000F05D0D9F811
:104BF000740020F00400C9F874005BF81C0C8001FC
:104C000005D5606808E0022006E0480703D40120CB
:104C100001B0BDE8F08F0020DBF8001021F00301A7
:104C20000843CBF80000FDF7B1FB61680646032995
:104C300041F2883710D002291ED069BBDBF8000092
:104C400010F00C0F3FF419AFFDF7A0FB801BB8422A
:104C50004FF00300F2D92DE0DBF8000000F00C006B
:104C60000C283FF40AAFFDF791FB801BB8424FF0D0
:104C70000300F1D91EE000BFDBF8000000F00C00DB
:104C800008283FF4FAAEFDF781FB801BB8424FF0D5
:104C90000300F1D90EE000BFDBF8000000F00C00CB
:104CA00004283FF4EAAEFDF771FB801BB8424FF0D9
:104CB0000300F1D901B0BDE8F08F000080B500F02D
:104CC00073F840F62041C4F20261096848F6DC320C
:104CD00001F00F01C0F60002515CC84040F20C0127
:104CE000C2F20001086080BD80B500F05DF840F6BA
:104CF0002041C4F202610A6848F6DC3302F00F0278
:104D0000C0F600039A5CD04040F20C02C2F20002EE
:104D10001060096848F6EC32C1F30211C0F60002D7
:104D2000515CC84080BD000080B500F03DF840F601
:104D30002041C4F202610A6848F6DC3302F00F0237
:104D4000C0F600039A5CD04040F20C02C2F20002AE
:104D50001060096848F6EC32C1F30221C0F6000287
:104D6000515CC84080BD000080B500F01DF840F6E1
:104D70002041C4F202610A6848F6DC3302F00F02F7
:104D8000C0F600039A5CD04040F20C02C2F200026E
:104D90001060496848F6EC32C1F30211C0F6000217
:104DA000515CC84080BD000040F62841C4F2026159
:104DB00051F80C0C10F00C02086814D00C2A04BF37
:104DC00000F0030001280ED051F80C0C00F00C008C
:104DD000042842F20040C0F2F40002D0082A64D055
:104DE0000020002316E051F8200C000204D4D1F872
:104DF000CC00C0F3033002E051F8200C000F48F65D
:104E00007443C0F6000353F82030002A04BF18464C
:104E1000704700200C2A18BF704780B5D1F800C039
:104E20000A6801EE103AC2F3032E08689FED1F2AAC
:104E3000C0F300100A699FED1E3AC2F3CC0202FBD8
:104E400000F00EF1010200EE100A5FEA8C70B8EE7D
:104E5000400AB8EE411A58BFB0EE412A01EE102ABE
:104E600020EE030AB8EE411AC86882EE011A6FF309
:104E70005F2002EE100AB8EE422AC86830EE020A3D
:104E8000B7EE002AC0F3066030EE020A013021EED0
:104E9000000A01EE100AB8EE411A80EE010ABCEEDB
:104EA000C00A10EE100ABDE8804070470024744B21
:104EB000000000392DE9F04381B0002800F0C784DC
:104EC00040F694490446C4F2026959F8780C59F83E
:104ED0006C1C227840F6004600F00C07D006C4F2A5
:104EE000026601F003081BD42078C00700F0158289
:104EF000082F67D00C2F08BFB8F1030F62D0656888
:104F0000B5F5803F00F0C980B5F5A02F40F0B9801D
:104F1000306840F480203060306820F48010BBE0BE
:104F2000D7B10C2F08BFB8F1010F15D0E169306877
:104F3000002968D040F001003060FDF727FA0546EF
:104F40003068400772D4FDF721FA401B02284FF069
:104F50000300F5D900F03ABC3068400703D5E0699A
:104F6000002800F07484656AB06800025ABFD9F85E
:104F700060000004B06800F0704085422CD9002F1A
:104F800040F0CE80D9F80000400700F1AD80D9F89C
:104F9000000040F00400C9F80000D9F8000000F05B
:104FA000040000900098FEF723FAD9F8001021F0D1
:104FB0000401C9F8001040F48031B1F5403F00F021
:104FC0009A80DAE03068800340F1A78160680028A9
:104FD00040F0A38100F03BBCB068B5F1404F40F415
:104FE0000000B060B06820F0704040EA0500B0609A
:104FF00034D3F068216A20F01F000843002FF060CE
:1050000040F03C81E9E020F001003060FDF7BEF99E
:10501000054600BF306840077FF566AFFDF7B6F97B
:10502000401B02284FF00300F4D9CFE3B06840F4EE
:105030000000B060B168606A21F070410143B0F1D6
:10504000404FB1603CD3F068216A20F01F00084354
:10505000F0602078C0077FF44BAF5EE1B5F1FF3F11
:1050600040F38080F068B5F1804FC0F0AE80216AD7
:1050700020F4F84040EA8120002FF06040F0FE80EC
:10508000ABE03068B5F5A81F40F0828040F4802086
:105090003060306840F480103060306840F4803018
:1050A0003060FDF773F905463068800300F1358103
:1050B000FDF76CF9401B64284FF00300F4D985E339
:1050C000B0F1FF3F40F3F780F168B0F1804FC0F0DE
:1050D0001A81206A21F4F84141EA8020F0602078AA
:1050E000C0077FF405AF18E1FEF782F940F4803184
:1050F000B1F5403F41D10021B5F1805F38BF0121BA
:1051000042F20000C4F20200026822F00F020A44D8
:105110000260006800F00F00884240F09883656AE2
:10512000B068B5F1404F40F40000B060B06820F0C6
:10513000704040EA0500B06005D3F068216A20F0B5
:105140001F00084399E0B5F1FF3F40F38A80F06803
:10515000B5F1804FC0F08C80216A20F4F84040EA1D
:1051600081208AE0F068216A20F4787040EA4110DA
:10517000002FF06040F082802FE00021B1EB157F1E
:1051800040F0A580B0F5803F40F061830321B7E790
:1051900020F480303060306820F480203060306847
:1051A00020F480103060FDF7F1F8002D05467FF403
:1051B0007BAF3068800340F1B080FDF7E7F8401B1B
:1051C00064284FF00300F4D900E3216A20F478202A
:1051D00040EAC130002FF06050D1D9F800004007FC
:1051E00019D4D9F8000040F00400C9F80000D9F83B
:1051F000000000F0040000900098FEF7F9F8D9F8DC
:10520000001021F00401C9F8001040F48031B1F51C
:10521000403F07D01BE0FEF7EBF840F48031B1F5DA
:10522000403F14D10021B5F1805F38BF012142F227
:105230000000C4F20200026822F00F020A44026079
:10524000006800F00F00884240F0018316E0002162
:10525000B1EB157F49D1B0F5803F40F0F8820321D2
:10526000E5E7F068216A20F4787040EA411004E034
:10527000216A20F4782040EAC130F060FFF794FD05
:1052800059F8741C48F6DC3201F00F01C0F6000238
:10529000515C40F20C0220FA01F140F20400C2F22B
:1052A00000000068C2F200021160FDF7C9F8002892
:1052B00040F08C8218E6F068216A20F4787040EAA9
:1052C0004110F0602078C0077FF412AE25E0B5F100
:1052D000005F40F25082B0FA80F000214009B5F141
:1052E000405F98BF012101400AE7B5F1005F40F23D
:1052F0004C82B0FA80F000214009B5F1405F98BFC0
:105300000121014093E7206A21F4782141EAC0306D
:10531000F0602078C0077FF4EBAD207880072CD5B3
:10532000042F1AD00C2F08BFB8F1020F15D0E16876
:105330003068002900F0BE8040F480703060FDF7D6
:1053400025F80546306840050ED4FDF71FF8401BD0
:1053500002284FF00300F5D938E23068400503D544
:10536000E068002800F0738259F8840C216920F469
:10537000F81040EA014049F8840C207800071DD459
:105380002078400700F1D4802078800640F18981A0
:10539000E16A306800297BD040F480503060FCF72F
:1053A000F5FF05463068800400F17B81FCF7EEFFD5
:1053B000401B02284FF00300F4D907E2D9F800009F
:1053C00040070ED4D9F800004FF0010840F0040067
:1053D000C9F80000D9F8000000F00400009000981F
:1053E00001E04FF000084FF62847CFF6FF77F0595D
:1053F000C00713D1F05940F00100F051FCF7C6FF8F
:10540000054600BFF059C00708D1FCF7BFFF401B9D
:105410000228F7D9032001B0BDE8F0836069D9F80C
:105420005C1008B3A06901F0805290425CD001F09A
:105430004062B2F1006F00F00A8249014DD5D9F8FF
:105440005C0020F0A050C9F85C00FCF79FFF054607
:10545000D9F85C0000013FD5FCF798FF401B0228FB
:105460004FF00300F4D9B1E121F0A050C9F85C007D
:10547000FCF78CFF054600BFD9F85C00000149D558
:10548000FCF784FF401B02284FF00300F4D99DE194
:1054900020F480503060FCF779FF054630688004C6
:1054A00040F1FF80FCF772FF401B02284FF0030021
:1054B000F4D98BE120F480703060FCF767FF05467B
:1054C000306840057FF559AFFCF760FF401B0228AC
:1054D0004FF00300F4D979E1A069D9F85C1021F00C
:1054E00080510843C9F85C00D9F85C0040F0806046
:1054F000C9F85C00FCF74AFF054600BFD9F85C001C
:10550000000107D4FCF742FF401B02284FF00300C4
:10551000F4D95BE1B8F1000F3FF432AFD9F80000E5
:1055200020F00400C9F80000207840077FF52CAF78
:10553000D9F8000040070ED4D9F800004FF0010858
:1055400040F00400C9F80000D9F8000000F00400A1
:105550000090009801E04FF000084FF62847CFF682
:10556000FF77F059C00712D1F05940F00100F05117
:10557000FCF70CFF054600BFF059C00707D1FCF748
:1055800005FF401B02284FF00300F5D91EE1A56876
:10559000E8070AD1D9F85C0020F00100C9F85C00E6
:1055A000D9F85C0020F004000BE0D9F85C00690732
:1055B00005D540F00400C9F85C00D9F85C0040F063
:1055C0000100C9F85C00FCF7E1FE002D054641F240
:1055D00088370BD0D9F85C00800713D4FCF7D6FECF
:1055E000401BB8424FF00300F4D9EFE0D9F85C005B
:1055F00080071ED5FCF7CAFE401BB8424FF00300DF
:10560000F4D9E3E0A168D9F85C00090629D420F0B8
:10561000800041F28837C9F85C00D9F85C000005C9
:1056200031D5FCF7B3FE401BB8424FF00300F4D96C
:10563000CCE0D9F85C00000625D5D9F85C0041F231
:10564000883720F08000C9F85C00D9F85C000005BC
:1056500019D5FCF79BFE401BB8424FF00300F4D96C
:10566000B4E040F0800041F28837C9F85C00D9F816
:105670005C00000507D4FCF789FE401BB8424FF0E0
:105680000300F4D9A2E0B8F1000F3FF47DAED9F8E1
:10569000000020F00400C9F80000207880063FF5E3
:1056A00077AE2078000626D5216B306889B140F4AA
:1056B00080403060FCF76AFE054600BF3068000499
:1056C00019D4FCF763FE401B02284FF00300F5D904
:1056D0007CE020F480403060FCF758FE054600BFB7
:1056E0003068000407D5FCF751FE401B02284FF03C
:1056F0000300F5D96AE0207840066AD5606BA0B156
:10570000B06840F40000B060B06820F07061D4E987
:105710000902B0F1404F41EA0201B16017D3F068CD
:10572000216A20F01F0008433EE0306820F010009E
:105730003060FCF72BFE05463068800649D5FCF743
:1057400025FE401B02284FF00300F5D93EE0B0F1E2
:10575000FF3F09DDF168B0F1804F20D3206A21F4CA
:10576000F84141EA80201FE0F068216A20F4787057
:1057700040EA411018E00221B0F5803F08BF012146
:10578000B5F1805F18BF0121BAE40221B0F5803F76
:1057900008BF0121B5F1805F18BF012147E5206AEC
:1057A00021F4782141EAC030F060306840F0100008
:1057B0003060FCF7EBFD05463068800609D4FCF745
:1057C000E5FD401B02284FF00300F5D901B0BDE80C
:1057D000F083A56B002D00F0FF8059F8780C00F0E5
:1057E0000C000C2837D159F86C1C59F8600C012DAD
:1057F0002DD0E26B01F00303934228D1C1F30322C1
:10580000236C013B9A4222D1C1F30331626C914275
:105810001DD1A26C01466FF35F21013A914216D16E
:10582000C0F34621E26C013A914210D1C0F3064127
:10583000226D013A91420AD1C0F30660616D0139CF
:10584000884200F0C980012001B0BDE8F08301204A
:1058500001B0BDE8F083306820F080703060FCF764
:1058600095FD022D054608D1306880010ED5FCF764
:105870008DFD401B0228F7D9CCE53068800118D592
:10588000FCF784FD401B0228F7D9C3E5D9F80000D6
:10589000400718D4D9F800004FF0010C40F0040084
:1058A000C9F80000D9F8000000F00400009000984A
:1058B0000BE059F86C0C4FF6FC71CFF6F87108400C
:1058C00049F86C0C88E04FF0000C4FF60C48CFF60E
:1058D000FF7856F808E056F808304FF6037723F4BF
:1058E000802346F8083059F86C3C6FF0FF01BB4349
:1058F000D4E90F75D4E911023B43184301EB0521AC
:105900004FF47E43084349F86C0C59F8600C0021B1
:10591000C8F280010840511EE26C4FF4FE0503EB13
:105920004222236D6FF35F2105EB0343656D92B255
:105930004FF0FE4707EB0565084403F4FE031044EF
:1059400005F0FE451844284449F8600C59F86C0CE1
:105950004FF6F87120F0100049F86C0C59F85C0C07
:10596000E26D884340EAC20049F85C0C59F86C0CBF
:1059700040F0100049F86C0C59F86C0CA16D20F047
:105980000C0008435FEA4E3149F86C0C05D556F817
:10599000080040F4802046F80800BCF1000F05D054
:1059A000D9F8000020F00400C9F8000059F86C0C88
:1059B00040F4802049F86C0C306840F08070306012
:1059C000FCF7E4FC04463068800105D4FCF7DEFCFB
:1059D000001B0228F7D91DE5002001B0BDE8F083C7
:1059E00090F88920012A1EBF01221046704790F8C6
:1059F0008820012A4FF0020215D080F88920026821
:105A0000136823F001031360D1E900C3896803F42C
:105A1000702343EA0C031943D1610121002280F86D
:105A2000891080F88820104670470000F0B581B0DA
:105A300000285ED00446006842F2000C40F080521C
:105A4000C5F2006C00216245A16203D1E1680F2913
:105A50004FD800E0E168E26B012303EB52120831FA
:105A6000C90802FB01F143F2FF72C5F20002904245
:105A700022DC43F60003C4F20003984237D043F21D
:105A80000003C4F20103984231D042F20003C4F291
:105A90000063984230D108292BD890421BDC43F692
:105AA0000002C4F20002904221D043F20002C4F28C
:105AB000010290421BD01FE043F60003C5F2000331
:105AC000984214D043F20003C5F2010398420ED06D
:105AD0006045E0D010E043F20002C5F201029042BE
